:020000040000FA
:10000000021106A2029290A2029280AD40AC3F7F04
:100010000A7E0012002E12193CA202B3227597A587
:10002000222222021072E4F5A922220214488E41F3
:100030008F428C438D441216641218D1E54424BFBC
:100040009000E8F0E54334FF9000E7F09000E3E52E
:1000500041F0A3E542F043910422220211951219C6
:100060007053D87853DAFE121945E4900087F022D5
:10007000D2DE2202149B1217FAC290C296C280E40A
:10008000FBFD7F1012193312053474A4F0D2AF12A5
:100090001707D2969000ECE004F070069000EBE0B9
:1000A00004F09000EBE0B427E9A3E0B410E4C296BA
:1000B00012001D30030912171D8E228F2380067532
:1000C0002201752300E5237004E522640170469047
:1000D00000DEE0700612170802029E9000EBE47545
:1000E000F001120809FED3E5F09410EE94274002C7
:1000F000D296D39000ECE094309000EBE0947550F1
:100100000302029EE4F0A3F09000DEF0900099F06C
:10011000C29602029E1217079000DEE014602A14B5
:1001200070030202621470030202181470030202C8
:10013000352404600302029EE52364AA60030202E0
:100140009E9000DE04F002029EE523900099F0905C
:1001500000DE7402F0E5231209310201A0017FA143
:10016000018BA501A9A601BDA701C6A801DDA901B2
:10017000CCB001D5B1019DC0029EFF0000020C125F
:100180000521E490008AF07FA1806512055190005E
:10019000EA7408F0E4F52575240902029E1205515F
:1001A000E4F52575240202029E90008A7401F07F16
:1001B000A612161E90007974A6F002029E12053453
:1001C00074A4F002029E9000EA7408F09000DE74BD
:1001D00003F002029E7FB112056502029E12052104
:1001E00090008AE09000E9F090008A7401F07FA905
:1001F0001205657D307C757F017E001217D10202E9
:100200009E12056E900079EFF0E48005E49000996D
:10021000F09000DEF002029EE4F525E523F524D3FC
:10022000E524940074809480403012005E9000DEDB
:100230007404F0806974032525F582E43400F583A5
:10024000E523F00525E525B52402800EC3E52594B8
:10025000707480948040477524709000DE7402F0C2
:10026000803CE523645570369000DEF0C2039000B8
:1002700099E02460601B24FC601224FE600E146070
:100280000B24F76010146004241070127FA0121861
:10029000B8D2038009900004E0049000EAF09000D6
:1002A00099E012093102C7A1033AA4037CA5033ADD
:1002B000A6044CA802C7A90481B004EAB10423C073
:1002C0000447FF000000B012170F603F7DC87C009C
:1002D000120542900099E02457600E2408701F1206
:1002E000056E7FA312153C80159000E9E090008A0E
:1002F000F0900079E0FF12161E7FAB12057FE490AC
:100300000086F043DA01D2030200B0121900502037
:100310007DE87C03120542900099E02457600C248C
:100320000860030200B07FA20204DC7FAA0204DCA2
:1003300012057740030200B0802C12170F601F9047
:100340000099E0245A600F240260030204F47FA4A1
:1003500012153C0204F47FA612057F0204F4120574
:100360007740030200B01216E4C006C0071216F36D
:100370009200D007D006120B600200B09000DEE0C1
:1003800060030200B0121716700302041624056001
:10039000030200B012055B900005E0FFA3E09000AF
:1003A0008BCFF0A3EFF0900007E0FFA3E090008D6B
:1003B000CFF0A3EFF0900003E0FFA3E090008FCF19
:1003C000F0A3EFF07B017A00798B901A5AE493FC4A
:1003D000740193FD901A5CE493F52E1216FF8E2F94
:1003E000F530901A5FE493F5311216FF8E32F53333
:1003F000901A62E493F5341216FF8E35F536901A92
:1004000065E493F537A3E493F538753900753A0937
:10041000120EE20200B09000EAE07063C2807FA09A
:100420000204DC9000DEE060030200B0900003E014
:10043000FCA3E0FD7F017E001217D1D29612193C79
:10044000C2967FA00204DC7F030204DC9000DEE0A1
:1004500060030200B0121716601924056003020041
:10046000B012055B900003E0FF7C007D0412138551
:100470000200B09000EAE07006C2807FA0805D803C
:10048000619000DEE060030200B0121716604324A2
:100490000560030200B09000EAE014F012005E7EF6
:1004A000007F05C006C007900003E0FB25E0FFE4E5
:1004B00033FE74052FF58274003EAD82FCEB25E01F
:1004C000FFE52424FEC39FFBD007D006120FCD0208
:1004D00000B09000EAE0700AC2807FA012189E026D
:1004E00000B0E4900087F00200B012170F60107F98
:1004F000B112121AE4900086F043DA010200B07ED5
:10050000007FED1215D540030200B01216E4C006BC
:10051000C0071216F39200D007D006120D2F02006A
:10052000B07D327C007F017E001217D1D296121965
:100530003CC29622E490008AF07FA412161E90001E
:1005400079227F017E001217D1D29612193CC296F1
:100550002212005E9000DE7404F0229000EAE014A3
:10056000F012005E2212161E900079EFF022900029
:1005700079E0FF12161E227E007FED1215D5229023
:100580000086E0547FFD12158A228F29E4F536EFAC
:1005900025E025E02468F8E6701EEF25E025E0243C
:1005A00069F876087E007F707D007B017A00790310
:1005B000120957E490007AF0AB2CAA2DA92EC001A5
:1005C00012099D2466F9E7540F120AE31209BCD000
:1005D000011214EE503D12099D2466F9E7540FFFF5
:1005E000120AE3120AC6300101B34031EF700A90DB
:1005F0000077E52AF0A3E52BF012099D120AEF24FB
:1006000001FFEFFEEC54F04EFEEDFF12099D120AC1
:10061000D0800A12099D2466F874F056F6AB2CAA15
:100620002DA92EC00112099D120AFB120A07120BF6
:10063000071209BCD0011214EE505212099D120A81
:10064000FB120A07FF120B075408FE120AC83001FA
:1006500001B34043EF700A900088E52AF0A3E52B30
:10066000F012099D1209F82401FFE433FEEFC4F8EB
:10067000540FC868FFEEC454F048FEED540FFDEC73
:100680004EFEED4FFF12099D120AD0800A12099DFD
:100690002467F8740F56F612099D120AEFFB700FCB
:1006A000120A00700A1209832469F8E4F6C32212C0
:1006B000099D2468F8E53514667003753601C3E5B5
:1006C0003195366B7020D29012099D2466F874F033
:1006D00056F6740F085612099C2468F80612099DF4
:1006E0002469F816804B12099D1209F8FFC3E534FE
:1006F00095366F703CD29012099D2466F8EC54F048
:10070000FEED540FA6060812099C2468F80612098B
:100710009D2469F81612099D120A0EE0FF12099D28
:100720002469F8E6FEF87401088002C333D8FC4F50
:10073000F012099D2469F8E6701712099D120A0E3D
:10074000120A82FF121844EFF012099D2469F8760C
:100750000812099D2468F8E6C3953540311218F552
:100760005005E4900085F0120A7F60181219457D4B
:10077000207C037F017E001217A8120B13A3E5292A
:10078000F04480F01209832469F8E4F6D322C322EE
:10079000BB010689828A83F0225002F722BBFE0148
:1007A000F322EF8DF0A4A8F0CF8CF0A428CE8DF02A
:1007B000A42EFE22BC000BBE0029EF8DF084FFADFD
:1007C000F022E4CCF875F008EF2FFFEE33FEEC33A7
:1007D000FCEE9DEC984005FCEE9DFE0FD5F0E9E4A3
:1007E000CEFD22EDF8F5F0EE8420D21CFEADF075C2
:1007F000F008EF2FFFED33FD4007985006D5F0F2DB
:1008000022C398FD0FD5F0EA22C5F0F8A3E028F046
:10081000C5F0F8E582158270021583E038F022BB3E
:100820000110E58229F582E5833AF583E0F5F0A32E
:10083000E0225009E92582F886F008E622BBFE0A8C
:10084000E92582F8E2F5F008E222E5832AF583E95A
:1008500093F5F0A3E9932275F008758200EF2FFF5E
:10086000EE33FECD33CDCC33CCC58233C5829BED88
:100870009AEC99E58298400CF582EE9BFEED9AFD8C
:10088000EC99FC0FD5F0D6E4CEFBE4CDFAE4CCF93C
:10089000A88222B800C1B90059BA002DEC8BF084AF
:1008A000CFCECDFCE5F0CBF97818EF2FFFEE33FE7D
:1008B000ED33FDEC33FCEB33FB10D703994004EB35
:1008C00099FB0FD8E5E4F9FA227818EF2FFFEE3301
:1008D000FEED33FDEC33FCC933C910D7059BE99A13
:1008E0004007EC9BFCE99AF90FD8E0E4C9FAE4CCA4
:1008F000FB2275F010EF2FFFEE33FEED33FDCC330E
:10090000CCC833C810D7079BEC9AE899400AED9BF6
:10091000FDEC9AFCE899F80FD5F0DAE4CDFBE4CCD5
:10092000FAE4C8F922A42582F582E5F03583F5833F
:1009300022D083D082F8E4937012740193700DA3D7
:10094000A393F8740193F5828883E4737402936827
:1009500060EFA3A3A380DFEF4E6012EF60010EED06
:10096000BB010B89828A83F0A3DFFCDEFA2289F0C7
:100970005007F709DFFCA9F022BBFEFCF309DFFCFE
:10098000A9F022C290E52925E025E02466F8E4F6E6
:1009900008F6E52925E025E02468F8E4F6E52925B0
:1009A000E025E022F583E493FF5408FE131313546B
:1009B0001F24FF9202AB29AA2AA92BEF540775F036
:1009C00002A4F58285F0832225E025E02466F8E480
:1009D000F608F6E52825E025E02468F8E4F6E528A1
:1009E00025E025E022C454F0241DF582E4341CF5F2
:1009F00083E493FE740193222466F8E6FC08E6FD86
:100A0000ECC4F854F0C8EDC4540F48540F222468C5
:100A1000F8E614131313541F2403F582E43400F58D
:100A20008322E529252BF582E43528F583E022A2EF
:100A300000E433C433333354804526FFE527900068
:100A400074CFF0A3EFF0E490007BF022C454F024C4
:100A500020F582E4341CF583E493FC74019322E6D0
:100A6000FC08E6FDECC4540F2401FFEFC454F0FE73
:100A700022E52E25E0248BF582E43400F5832290D4
:100A80000085E0FF90007AE06F22C454F02422F544
:100A900082E4341CF583E49322C454F02425F582C7
:100AA000E4341CF583E49322C454F02428F582E452
:100AB000341CF583E49322C454F0242CF582E434EE
:100AC0001CF583E493225408131313541F24FF22AC
:100AD0002466F8A60608A60722540FC3940474805F
:100AE0009480222530F582E4352FF583E493222487
:100AF00066F8E6FC08E6FDEC540F222466F9E7C42C
:100B0000F854F0C809E7222533F582E43532F5833D
:100B1000E4932290007AE0900085F053DAFE2225DB
:100B2000E0247DF582E43400F58322A20092018561
:100B3000262A85272B22C454F02423F582E4341C72
:100B400022C454F02426F582E4341C22C3E5289400
:100B50000F74809480222466F8E6FEEEC4540F22BF
:100B60008E268F27E4F528C3E5279464E5269400B4
:100B70005019E4F528120B4C500EE5281209C82430
:100B800069F8E4F6052880EDC2902290008AE0140E
:100B90007003020C50046003020D2E7866E6C45404
:100BA0000FF97065D3E5279494E52694115003025C
:100BB0000D2E300003020D2EE9120A68E6540FFCD8
:100BC00008E6FDEC4E18F6ED08F618120A5FEC5434
:100BD0000F4E18F6ED08F6900001E526F0A3E52784
:100BE000F0AE26FF7C007D1F1207B490008BEEF064
:100BF000A3EFF07C007D031207A2A3EEF0A3EFF0B9
:100C0000A3E526F0A3E527F0227866E6C4540F6436
:100C1000026003020D2E120B2B752C01752D007531
:100C20002E8B901C2393FE7401938E2FF530901C15
:100C300025E493F531A31209F18E32F533901C2887
:100C4000E493F534901C2CE493F535E4FF02058A17
:100C5000E4F528120B4C4003020D2E1209DE120B94
:100C600056FFE528120A8AF9EFC399506EE528125B
:100C70000A4CF5828C832FF582E43583F583E49367
:100C8000FF120AC6300001B35003020D29E528C443
:100C900054F0241DF582E4341C120A56F5828C832C
:100CA000EF540775F002120925120A58FDAF27AE5E
:100CB000261214F8E528501925E025E02466F812DC
:100CC0000A5FEC540F4EFEEDFF1209DE120AD080CF
:100CD000581209C82469F8E4F6804E1209DE120B96
:100CE00056697045120B2BE5281209E5AA06752CEA
:100CF000FF8A2DF52EE528120B361209EF8E2FF5FF
:100D000030E528120A99F531E528120B411209EF56
:100D10008E32F533E528120AA8F534E528120AB711
:100D2000F535AF2812058A40050528020C53228E9E
:100D3000268F27C3E5279464E52694005003020E0E
:100D4000D0900087E024FE6025147003020DD524A6
:100D5000036003020ED5C290AF27AE261218AB4037
:100D600003020ED5120A2F9000877402F022120E91
:100D7000D6503190007BE0120ADC4021D290E49002
:100D80000000F0900073F0C20490007CF090007AB4
:100D9000F0900003F09000877403F08025E4900049
:100DA00087F0801E900074E0547FFEA3E0FFD3E53F
:100DB000279FE5269E4005120A2F800690007BE0C3
:100DC00004F090007BE0C394E074809480500302B0
:100DD0000ED5020ED090007CE004F090007BE0FF86
:100DE000A3E0D39F4003020E7E7B007A007928AFF8
:100DF00027AE2612130D4026900000E0FF120A7362
:100E0000E526F0A3E527F08F28900000E004F0E04D
:100E1000D39407748094804005E4900087F03004F8
:100E20001DA200E433C43333335480FFE528C45497
:100E3000F04FFF900073E0120A18EFF0803D900031
:100E400073E0FF120A18E0FEA200E4333333335498
:100E5000F84528FDEE4DF074032F120A1A120A828B
:100E6000FF121844EFF0900073E004F0E0D39470A8
:100E7000748094804005E4900087F0B20422120E42
:100E8000D6504D1218F55005E4900085F0120A7FF7
:100E9000603A1219457D207C037F017E001217A85D
:100EA000120B13900003E0FD900074E05480FF905B
:100EB0000000E0C454F04FFFED4F900003F09000AD
:100EC00074E0547FF0900086E04480F0C29080008F
:100ED000E4900087F022A2009201AF27AE261217FD
:100EE0007E228B298A2A892B8C2C8D2DE4F53D7549
:100EF0003E80F53BE53BC3952E5010E52D253BF597
:100F000082E4352C120F92053B80E9E4F53BE53B8A
:100F1000C395385057E53A253DF582E43539F583D8
:100F2000E0553E7019F53CE53CC39531502DE53058
:100F3000253CF582E4352F120F92053C80E9E4F55B
:100F40003CE53CC395345013E533253CF582E4354C
:100F5000321209A4120FC1053C80E6E53EC313F529
:100F60003E7005053D753E80053B80A2E4F53BE5FE
:100F70003BC395375013E536253BF582E4353512F2
:100F800009A4120FC1053B80E6C29090008774054A
:100F9000F022F583E493FF5408FE131313541F2427
:100FA000FF9202AB29AA2AA92BEF540775F002A4DD
:100FB000F58285F08312081FF54085F03F1200038B
:100FC0002212081FF54085F03F120003228E268F63
:100FD000278C288D298B2AD200C201852982852859
:100FE00083E05488D39400748094804003D38001BC
:100FF000C39201E4F52BE52BC3952A505930010D1E
:10100000120A22C4131313540124FF8002A2009277
:1010100002852782852683C083C082120A22FFC4EC
:101020005407D082D08312105F30010C120A22FFC5
:10103000131313541F138002A20092028527828586
:101040002683C083C082120A225407D082D0831222
:10105000105F052B80A0C2909000877405F0227568
:10106000F002120925E0F53FA3E0F54012000392DB
:101070000022C0E0C0F0C083C082C0D075D000C0E4
:1010800000C001C002C003C004C005C006C007E51F
:10109000985403F545F45298E54530E01712197954
:1010A0009000DD121773EFF09000DDE004F0E064D3
:1010B000407001F0E54530E1329000E0E0D394006B
:1010C00074809480401A9000DCE02446F8E6FF1219
:1010D00019769000DCE004F09000E0E014F080026B
:1010E000D2059000DCE064207001F0D007D006D07B
:1010F00005D004D003D002D001D000D0D0D082D00F
:1011000083D0F0D0E032120022787FE4F6D8FD756B
:1011100081A1021150020076E493A3F8E493A34066
:1011200003F68001F208DFF48029E493A3F8540762
:10113000240CC8C333C4540F4420C8834004F4565D
:10114000800146F6DFE4800B010204081020408095
:10115000901294E47E019360BCA3FF543F30E509F4
:10116000541FFEE493A360010ECF54C025E060A895
:1011700040B8E493A3FAE493A3F8E493A3C8C58228
:10118000C8CAC583CAF0A3C8C582C8CAC583CADF96
:10119000E9DEE780BEC0E0C0F0C083C082C0D07589
:1011A000D000C000C001C002C003C004C005C0061A
:1011B000C007E5D85487F521F452D8E5F730E508A3
:1011C000E5F730E60312005A53F7DFE52130E70870
:1011D000E5D930E00312002AE52130E008E5DA30F5
:1011E000E0031216A8E52130E108E5DB30E0031248
:1011F000197FE52130E208E5DC30E003121980D0E8
:1012000007D006D005D004D003D002D001D000D042
:10121000D0D082D083D0F0D0E032AE07E4F52612F1
:101220001821900000E004FF12182812128D90007F
:1012300000E0FFE526C39F5014121765E0547FFFBE
:1012400012182812176512175F052680E1900074A6
:10125000E0547FFF12182890007412175F12128D4D
:10126000E4F526900073E0FFE526C39F5017740352
:1012700025261217530526E526541F70E61219730A
:1012800012196C80DE7F5512182802197312197317
:1012900012196C224200E500004200E10000420009
:1012A000E700004200E30000C183410086004100E6
:1012B000870041008A00410079004200010000429D
:1012C000008800004200770000C104410073004123
:1012D00000850041007A004100000048007D0000C8
:1012E000000000000000410076004100DD004100E8
:1012F000DF004100DB004100DC004100E000410074
:10130000DA00C1054100DE0041009900008E298FFE
:101310002A8B2B8A2C892DE4F52E900000E0FFE526
:101320002EC39F505EAE29E52A7803CEC313CE1399
:10133000D8F9FDAC06AE29E52A7802CEC313CE1348
:10134000D8F92DFFEE3CAB07FA120A71E0FEA3E0DC
:10135000FFC39BEE9A50028004AE02AF03AA06AB15
:1013600007120A71E0FCA3E0FDAF2AAE291218664D
:10137000500DAB2BAA2CA92DE52E120790D32205D8
:101380002E8097C3228F268C278D28EF1209E5AA7D
:1013900006F97BFFEF120A4CFDEF120A8AF52EEFD9
:1013A000120B361209EF8E2FF530EF120A99F53134
:1013B000EF120B411209EF8E32F533EF120AA8F546
:1013C00034EFC454F02429F582E4341C1209EF8E62
:1013D00035F536EFC454F0242BF582E4341CF58344
:1013E000E493F537EF120AB7F53885273985283A9F
:1013F000020EE2900076E0FDC4540F2401FBE433BA
:10140000FAED540FF9FD6B7001EA603BED7010E0EE
:10141000C4540F2401FDE433FCED64044C602890B7
:101420000076E0C4540FFD540F120B1FEEF0A3EF33
:10143000F0ED04C454F049900076F0E0FFC4120AC5
:10144000D94004EF540FF022C0E0C083C082C0D066
:1014500075D000C004C005C006C00753C87F900007
:10146000E5E0FEA3E0FF4E700353C8FB9000E112DD
:10147000169D50099000E5E4F0A3F0800DC39000A4
:10148000E6E09DF09000E5E09CF0D007D006D005A6
:10149000D004D0D0D082D083D0E032C0E0C083C0AE
:1014A00082C0D075D000C004C005C006C0075391EB
:1014B0007F9000E7E0FEA3E0FF4E70035391FB90A6
:1014C00000E312169D50099000E7E4F0A3F0800DB0
:1014D000C39000E8E09DF09000E7E09CF0D007D0DA
:1014E00006D005D004D0D0D082D083D0E03212080C
:1014F0001FFDACF0AF2BAE2A8F828E83AF05AE04FA
:101500001218E9AB07AA06D3EB94F4EA940140065B
:101510007E017FF48004AE02AF03AA06AB07C3EBE3
:101520009464EA940050067E007F648004AE02AFAB
:1015300003AA06AB07AF82AE83021866AE07E4FDCE
:10154000F526121821900001E0FF121828900001E2
:1015500012175F900077E0FF12182890007712179B
:101560005F900088E0FF12182890008812175FED46
:10157000C3940374809480500974032D1217530D83
:1015800080ED7F55121828021973AE05AD07E4FCF3
:10159000FB7FAA121828AF05121828EEC454F024B5
:1015A000F2F582E4341DF583E493FFECC39F50070A
:1015B00074082CFC0B80F4EB04FF121823E4FCEC01
:1015C000C39B500974032C1217530C80F27F5512E1
:1015D0001828021973AD07AC06ABDA900076E0FE6E
:1015E000C4540FFFEE540FFEB50702C32253DAFEB8
:1015F000900076E0FAEE120B1FE0FFA3E08D828CE4
:1016000083CFF0A3EFF0EA54F0FF900076E0044FB0
:10161000F0120AD94004E054F0F08BDAD3228F267E
:10162000900079E0F5277E007F3C7D007B007A000A
:1016300079661209577F0B12197C43DA0112007088
:101640007D0A7C007F017E001217D112193CE490C4
:101650000087F0900086F0900099E526F0900079E0
:10166000F0AF2722AB07AA06E4F9F87F407E427D5F
:101670000FFC120893A804A905AA06AB077F207ED9
:10168000D77D757C01120893C3E49FFFE49EFE2280
:10169000AB07AA06E4F9F87FE87E03FD22E0FCA38D
:1016A000E0FDC3EF9DEE9C22AFFBAEFC7C007D0A0B
:1016B0001207A2AD07AC06AFD953D9BFE4F5FAF5CE
:1016C000F98FD9C3EC948050157F002093027F01DD
:1016D000EFC433333354804CFEEDFF0213F3E49038
:1016E0000076F0229000EDE0FCA3E0FDEC547FFEDC
:1016F000AF0522EC5480C4131313540124FF22A31A
:10170000E493FE74019322E49000EBF0A3F02290A6
:101710000086E0548022900087E024FB229000DDC8
:10172000E0FF9000DBE0B507057E017F002290001E
:10173000DB121773E0FD7C009000DBE004F0E06456
:10174000407001F09000DAE0FEEE4204E4F0AE04F6
:10175000AF0522F582E43400F583E0FF021828A3E8
:10176000E0FF021828E52625E0248BF582E434000A
:10177000F58322E0249AF582E43400F58322AD0754
:10178000AC06900074E0FAA3E0FBEA5480C41313A3
:101790001354017005300102C322AF05AE04EA54B0
:1017A0007FFCAD031214F8228E378F388C398D3AB6
:1017B0001216901216711218C59000E5E539F0A3C3
:1017C000E53AF09000E1E537F0A3E538F043C804CE
:1017D000228E288F298C2A8D2B12169012167112A8
:1017E00018D19000E7E52AF0A3E52BF09000E3E59F
:1017F00028F0A3E529F04391042212002112194C8C
:1018000012195312190B12002612188812192912D4
:10181000191512191F1218DD12195A121968021916
:10182000617FAA121828AF06C2059000DFE064208D
:101830007001F09000DFE02446F8A607E004F0A372
:10184000E004F0227E1DE4FDEDC3940874809480D2
:101850005013EF54806007EF25E06EFF8004EF2502
:10186000E0FF0D80E322C3ED9BF582EC9AF583C384
:10187000E5829FE5839E500EED2BFDEC3AFCC3EF15
:101880009DEE9C500122C322AF885388AF758CA077
:10189000758DCBEF5440FEEF54104E428822121843
:1018A000B8D203900079E0FF02161EC3EF942CEE2D
:1018B00094014002D322C322AE071218217F551291
:1018C0001828021973AD07AC06ECF5CBAF058FCA2B
:1018D00022AD07AC06ECF593AF058F9222C2DE7500
:1018E000D90575F9FF75960122EF7802CEC313CEA4
:1018F00013D8F9FF22E5C854046404C36001D3225D
:10190000E59154046404C36001D32275E34075E19A
:101910000175E20122E59154045391FB4291227535
:101920008E5475892243885022E5C8540453C8FB5D
:1019300042C82253984FEB4F4DF59822E59154043D
:10194000640460F82253C8FB53C87F2275A4117544
:10195000D4CF2275A54175D5772253F77F75DA303C
:101960002275E69075A8B022439810223005FD221A
:10197000C2DE22D299228F9922AF99228F8C222205
:1019800022015E041A2A620802080109000190047B
:10199000B00BB81C520A030801090001C2038428D5
:1019A0006E020800090108014A02762A4E02080068
:1019B000090108028A1E82071C0F8C080108020810
:1019C00003016802D012C005DC0A03080109000205
:1019D0004E05DC01AE348A0A0308010900012C0A15
:1019E00000008C047E27F60801080308020802089C
:1019F00003080401040A9A051428A0080108000835
:101A00000208020800080301720438198202080162
:101A1000080009029407D00FA02328080308010832
:101A2000020801061802D000D208010A0109020AC0
:101A30000101D603FC0BFE02080108000901900217
:101A4000D0132E010A00090108023007760F322256
:101A50007403080108020819810319870219890211
:101A6000198B0200000018198D04199502199702AC
:101A700019990200000018199B0319A10219A30269
:101A800019A5020000001819A70319AD0219AF0229
:101A900019B1020000000C19B30419BB0219BD02F0
:101AA00019BF020000002819C10419C90219CB028C
:101AB00019CD020000002819CF0419D70219D90244
:101AC00019DB020000001819DD0519E70219E90405
:101AD00019ED0419F1022019F30419FB0219FD0490
:101AE0001A01041A0502201A07031A0D021A0F021E
:101AF0001A1102000000111A13041A1B021A1D0207
:101B00001A1F021A2102241A23031A29021A2B026D
:101B10001A2D021A2F02281A31031A37021A390213
:101B20001A3B02000000141A3D031A43021A450230
:101B30001A4702000000271A49041A51021A5302D8
:101B40001A550200000024015E041A2A62080208E5
:101B5000010900019004B00BB81C520A03080109E6
:101B60000001C20384286E020800090108014A022C
:101B7000762A4E020800090108028A1E82071C0FFD
:101B80008C080108020803016802D012C005DC0AB3
:101B90000308010900024E05DC01AE348A0A03087D
:101BA000010900012C0A00008C047E27F6080108B8
:101BB00003080208020803080401040A9A0514280D
:101BC000A0080108000802080208000803017204C6
:101BD000381982020801080009029407D00FA023D7
:101BE000280803080108020801061802D000D208DC
:101BF000010A0109020A0101D603FC0BFE020801D9
:101C0000080009019002D0132E010A000901080200
:101C10003007760F3222740308010802081B4703BD
:101C20001B4D021B4F021B5102000000181B5304E6
:101C30001B5B021B5D021B5F02000000181B61039F
:101C40001B67021B69021B6B02000000181B6D035F
:101C50001B73021B75021B77020000000C1B79042A
:101C60001B81021B83021B8502000000281B8704C6
:101C70001B8F021B91021B9302000000281B95047E
:101C80001B9D021B9F021BA102000000181BA30545
:101C90001BAD021BAF041BB3041BB702201BB9040E
:101CA0001BC1021BC3041BC7041BCB02201BCD039B
:101CB0001BD3021BD5021BD702000000111BD90445
:101CC0001BE1021BE3021BE5021BE702241BE903E5
:101CD0001BEF021BF1021BF3021BF502281BF7038B
:101CE0001BFD021BFF021C0102000000141C030369
:101CF0001C09021C0B021C0D02000000271C0F0413
:101D00001C17021C19021C1B0200000024015E04A7
:101D10001A2A62080208010900019004B00BB81CDD
:101D2000520A030801090001C20384286E02080058
:101D3000090108014A02762A4E0208000901080238
:101D40008A1E82071C0F8C08010802080301680222
:101D5000D012C005DC0A0308010900024E05DC01AF
:101D6000AE348A0A0308010900012C0A00008C0421
:101D70007E27F60801080308020802080308040188
:101D8000040A9A051428A00801080008020802089D
:101D900000080301720438198202080108000902D0
:101DA0009407D00FA02328080308010802080106A1
:101DB0001802D000D208010A0109020A0101D60363
:101DC000FC0BFE020801080009019002D0132E014D
:101DD0000A00090108023007760F32227403080155
:101DE0000802081D0D031D13021D15021D17020018
:101DF0000000181D19041D21021D23021D250200CB
:101E00000000181D27031D2D021D2F021D31020089
:101E10000000181D33031D39021D3B021D3D020049
:101E200000000C1D3F041D47021D49021D4B02000E
:101E30000000281D4D041D55021D57021D590200AA
:101E40000000281D5B041D63021D65021D67020062
:101E50000000181D69051D73021D75041D79041D00
:101E60007D02201D7F041D87021D89041D8D041D18
:101E70009102201D93031D99021D9B021D9D0200CE
:101E80000000111D9F041DA7021DA9021DAB021D0C
:101E9000AD02241DAF031DB5021DB7021DB9021D01
:101EA000BB02281DBD031DC3021DC5021DC70200C4
:101EB0000000141DC9031DCF021DD1021DD3020055
:101EC0000000271DD5041DDD021DDF021DE10200FB
:031ED000000024EB
:00000001FF
