:020000040000FA
:100000000211C7A2029290A2029280AD41AC407F41
:100010000A7E0012002E12001DA202B322E59120DA
:10002000E2FB220211377597A522220214FC8E42B0
:100030008F438C448D451216C7121943E54524BFE2
:100040009000E9F0E54434FF9000E8F09000E4E52A
:1000500042F0A3E543F04391042222021256121902
:10006000E353D87853DAFE1219B4E4900087F022F3
:10007000D2DE2202154F12184CC290C296C280E402
:10008000FBFD7F1012199B12053174A4F0D2AF1240
:100090001779D2969000EDE004F070069000ECE045
:1000A00004F09000ECE0B427E9A3E0B410E4C296B9
:1000B0001200263003091217C48E228F2380067582
:1000C0002201752300E5237004E522640170469047
:1000D00000DFE0700612177A0202959000ECE475DA
:1000E000F001120665FED3E5F09410EE942740026D
:1000F000D296D39000EDE094309000ECE0947550EF
:1001000003020295E4F0A3F09000DFF090009AF073
:10011000C2960202951217799000DFE014602A144B
:1001200070030202591470030202171470030202D2
:100130003024046003020295E52364AA60030202EE
:10014000959000DF04F0020295E52390009AF0906C
:1001500000DF7402F0E5231207AC0201A0017FA1C9
:10016000018BA501A9A601BDA701C6A801DDA901B2
:10017000CCB001D5B1019DC00295FF0000020C1268
:10018000051EE490008AF07FA1806512054E900064
:10019000EB7408F0E4F52575240902029512054E6A
:1001A000E4F52575240202029590008A7401F07F1F
:1001B000A612163C90007974A6F002029512053141
:1001C00074A4F00202959000EB7408F09000DF74C4
:1001D00003F00202957FB112056C02029512051E12
:1001E00090008AE09000EAF090008A7401F07FA904
:1001F00012056C7D307C757F017E0012182302028F
:1002000095120575900079EFF0E48005E490009A6E
:10021000F09000DFF0807EE4F525E523F524E52469
:10022000D39400402C12005E9000DF7404F08065CF
:1002300074032525F582E43400F583E523F00525D4
:10024000E525B52402800AE525C39470404775244E
:10025000709000DF7402F0803CE5236455703690A6
:1002600000DFF0C20390009AE02460601B24FC6071
:100270001224FE600E14600B24F760101460042436
:100280001070127FA012192AD2038009900004E096
:10029000049000EBF090009AE01207AC02BEA103BC
:1002A0003FA4037FA5033FA60454A802BEA9048966
:1002B000B004EBB1042BC0044FFF000000B01205E6
:1002C00058501312174BC006C00712175A9200D08D
:1002D00007D0061207FE900086E030E73A7DC87C22
:1002E0000012053F90009AE02457600E2408701F0A
:1002F0001205757FA312168280159000EAE0900027
:100300008AF0900079E0FF12163C7FAB12057E1256
:100310001770D2030200B01219AC40030200B07D86
:10032000E87C0312053F90009AE02457600C2408F3
:1003300060030200B07FA20204DD7FAA0204DD1286
:100340000558501312174BC006C00712175A9200D7
:10035000D007D0061207FE900086E020E7030200D7
:10036000B090009AE0245A600B2402700C7FA41213
:10037000168280057FA612057E1217700200B090CB
:1003800000DFE060030200B0121781700302041E58
:10039000240560030200B0120562900005E0FFA38F
:1003A000E090008CCFF0A3EFF0900007E0FFA3E017
:1003B00090008ECFF0A3EFF0900003E0FFA3E09059
:1003C0000090CFF0A3EFF0901A53E493FD1217665C
:1003D000752DFF8A2EF52F901A56E493F5301217DB
:1003E000667531FF8A32F533901A59E493F5341269
:1003F00017667535FF8A36F537901A5CE493F53841
:10040000A3E493F539A3E49324FF9200753A0075B1
:100410003B097B017A00798C120FD40200B0900066
:10042000EBE07063C2807FA00204DD9000DFE0603B
:10043000030200B0900003E0FCA3E0FD7F017E001A
:10044000121823D29612001DC2967FA00204DD7FEF
:10045000030204DD9000DFE060030200B0121781A8
:100460006019240560030200B0120562900003E0E9
:10047000FF7C007D0412108D0200B09000EBE07054
:1004800006C2807FA08056805A9000DFE0600302A1
:1004900000B0121781603C240560030200B0900098
:1004A000EBE014F012005E900003E0FF25E024056D
:1004B000F582E43400AD82FC900005E0F97A007B1F
:1004C00000EF25E0FFE52424FEC39FF52B1215A2C3
:1004D0000200B09000EBE0700AC2807FA012191DEC
:1004E0000200B0E4900087F00200B07B017A00794E
:1004F000EE12170B501312174BC006C00712175AF3
:100500009200D007D006120E12900086E020E7037A
:100510000200B07FB11212DB1217700200B07D3200
:100520007C007F017E00121823D29612001DC29615
:1005300022E490008AF07FA412163C900079227F7A
:10054000017E00121823D29612001DC296221200BC
:100550005E9000DF7404F0227B017A0079EE1217BE
:100560000B229000EBE014F012005E2212163C9079
:100570000079EFF022900079E0FF12163C22900003
:1005800086E0547FFD1215F022BB010CE58229F5AF
:1005900082E5833AF583E0225006E92582F8E622D7
:1005A000BBFE06E92582F8E222E58229F582E58391
:1005B0003AF583E49322BB010689828A83F02250B4
:1005C00002F722BBFE01F322EF8DF0A4A8F0CF8C3E
:1005D000F0A428CE8DF0A42EFE22BC000BBE002974
:1005E000EF8DF084FFADF022E4CCF875F008EF2F2A
:1005F000FFEE33FEEC33FCEE9DEC984005FCEE9DE7
:10060000FE0FD5F0E9E4CEFD22EDF8F5F0EE842002
:10061000D21CFEADF075F008EF2FFFED33FD400763
:10062000985006D5F0F222C398FD0FD5F0EA22C209
:10063000D5EC30E709B2D5E4C39DFDE49CFCEE3077
:10064000E715B2D5E4C39FFFE49EFE1205DAC3E4CA
:100650009DFDE49CFC80031205DA30D507C3E49FBE
:10066000FFE49EFE22C5F0F8A3E028F0C5F0F8E50F
:1006700082158270021583E038F022BB0110E582FA
:1006800029F582E5833AF583E0F5F0A3E0225009ED
:10069000E92582F886F008E622BBFE0AE92582F801
:1006A000E2F5F008E222E5832AF583E993F5F0A369
:1006B000E99322BB010A89828A83F0E5F0A3F02244
:1006C0005006F709A7F01922BBFE06F3E5F009F37F
:1006D000192275F008758200EF2FFFEE33FECD333F
:1006E000CDCC33CCC58233C5829BED9AEC99E582A3
:1006F00098400CF582EE9BFEED9AFDEC99FC0FD52F
:10070000F0D6E4CEFBE4CDFAE4CCF9A88222B8001E
:10071000C1B90059BA002DEC8BF084CFCECDFCE5E9
:10072000F0CBF97818EF2FFFEE33FEED33FDEC330D
:10073000FCEB33FB10D703994004EB99FB0FD8E592
:10074000E4F9FA227818EF2FFFEE33FEED33FDECDB
:1007500033FCC933C910D7059BE99A4007EC9BFCD1
:10076000E99AF90FD8E0E4C9FAE4CCFB2275F0105D
:10077000EF2FFFEE33FEED33FDCC33CCC833C81082
:10078000D7079BEC9AE899400AED9BFDEC9AFCE8B0
:1007900099F80FD5F0DAE4CDFBE4CCFAE4C8F922FD
:1007A000A42582F582E5F03583F58322D083D082BB
:1007B000F8E4937012740193700DA3A393F874017D
:1007C00093F5828883E4737402936860EFA3A3A314
:1007D00080DFEF4E6012EF60010EEDBB010B8982EE
:1007E0008A83F0A3DFFCDEFA2289F05007F709DFE5
:1007F000FCA9F022BBFEFCF309DFFCA9F0228E2647
:100800008F27E4F528C3E5279464E5269400501E5D
:10081000E4F528E528120C51F8E4F608F6E528126C
:100820000C92E4F60528E528B407E8C2902290006F
:100830008AE01470030208E6046003020A40786745
:10084000E6C4540F704CD3E5279494E526941150D8
:1008500003020A40300003020A40120C9A18F6ED17
:1008600008F618120C9A18F6ED08F6120D6FAE265F
:10087000FF7C007D1F1205DA90008CEEF0A3EFF0F4
:100880007C007D031205C8A3EEF0A3EFF0A3120DC8
:1008900072227867E6C4540F64026003020A40A221
:1008A0000033FF901B1BE4936FC36001D39201855B
:1008B000262A85272B752C01752D00752E8C901BF3
:1008C00014120C84120DFE901B16E493F532A31241
:1008D0000C84120E08901B19E493F536A3E493F5EB
:1008E00037E4FF020A41E4F528E528120C51F9E744
:1008F000C4540F7044120CB0120D3BD3940140113C
:10090000120CB0120D47FFA200E4336F7003020A0D
:1009100034120C75F5828E83C083C082120CB01223
:100920000DB5120C82F5828E83E493D082D08312AF
:1009300014504003020A34805CE528120C51F9E798
:10094000C4540F7E00540FFF120CB0120D3BF9FD82
:10095000C3EF9DEE94005067120CB0240EF582E4B4
:10096000341BF583E493FC740193F5828C83C0837C
:10097000C082120CB0120DB5F583E493FC740193A0
:100980002FF582EE3CF583E493D082D0831214508D
:10099000501A120D6FE528120C51F8120C9AFEED48
:1009A000FFE528120C51120DED020A34E528120C55
:1009B00051F8E4F608F6E528120C92E4F68075E5A5
:1009C00028120C51F8E6FEEEC4540FFFE96F7001D7
:1009D000E47061120CB0120D47FFA200E4336FC344
:1009E0006001D3920185262A85272B120C75AA0651
:1009F000752CFF8A2DF52E120CB02414F582E434E8
:100A00001B120C82120DFE120CB0120DBDF532122B
:100A10000CB02417F582E4341B120C82120E08125B
:100A20000CB0120DC9F536120CB0120DD5F537AF5A
:100A300028120A410528E528C3940750030208E953
:100A4000228F29E4F538EF120C92E6701A90008B91
:100A50007408F07E007F707D007B017A00790312BC
:100A600007D2E490007AF0AB2CAA2DA92EC003C0C7
:100A700002C001120C4FF9E7AB2FAA30A931120DB9
:100A800027D001D002D003120D7A5040120C4FF93A
:100A9000E77E00540FFF7003200109D3EF9400EEAE
:100AA00094004030EF4E700A900077E52AF0A3E5FD
:100AB0002BF0120C4F120DA12401FFEFFEEC54F0AD
:100AC0004EFEEDFF120C4F120DED8008120C4FF888
:100AD00074F056F6AB2CAA2DA92EC003C002C0019B
:100AE000120C4F120CFDAB33AA34A935120D27D0CE
:100AF00001D002D003120D7A505F120C4F120CFD80
:100B00007E00540FFF7003200109D3EF9400EE9490
:100B100000404AEF4E700A900088E52AF0A3E52BCA
:100B2000F0120C4F120DA1C4F854F0C868FEEDC4C9
:100B3000540F482401FFE43EFEEFC4F8540FC86888
:100B4000FFEEC454F048FEED540FFDEE4CFEEF4DA9
:100B5000FF120C4F120DED8004120D87F6120C4F90
:100B6000120DA1FB7A00540F7019ECC4F854F0C8B0
:100B7000EDC4540F48540F700A120C4D120C8BE444
:100B8000F6C322120C90E537146670037538017EA7
:100B900000EB540FFFE532120DF4B50719EEB50462
:100BA00015D290120C4FF874F056120C8F0690006C
:100BB0008BE014F08042120C4F120CFD540FFFE535
:100BC00036120DF46F7001EC702ED290120D871258
:100BD0000C8F0690008BE014F0120CE3C083C082EF
:100BE000E0FF90008BE0FE7401A806088002C3338A
:100BF000D8FC4FD082D083F090008BE07015120C9F
:100C000090120CE3120D56FF1218E2EFF090008BD9
:100C10007408F0120C90E6C39537402F1219A450B7
:100C200005E4900085F0120D5360181219B47D2070
:100C30007C037F017E001217FA120DA9A3E529F0AB
:100C40004480F0120C4D120C8BE4F6D322C290E5D6
:100C50002975F003A4246722A2019202AB29AA2AD3
:100C6000A92B75F002EFA4F58285F08312067BF5BF
:100C70004185F04022E52875F00EA4240EF582E4AB
:100C8000341BF583E493FE74019322F8E4F608F62E
:100C9000E52975F003A42469F822E6FC08E6FDECDA
:100CA000C4540F2401FFEFC454F0FEEC540F4E2245
:100CB000E52875F00EA422FF900073E02403F5826E
:100CC000E43400F58322A200E433C4333333548088
:100CD0004526FFE527900074CFF0A3EFF0E49000E5
:100CE0007BF022E624FFFFE434FFFE7C007D081247
:100CF000062F74032FF58274003EF58322F9E7C4B2
:100D0000F854F0C809E7C4540F4822E52E25E02422
:100D10008CF582E43400F58322853D8275830012D0
:100D20000589FFC3952C22540FF5827583001205A7
:100D30008975F002A4F58285F083222413F582E4FC
:100D4000341BF583E49322241BF582E4341BF583E2
:100D5000E49322900085E0FF90007AE06F22A200E9
:100D60009202AB26AA27A928EF540775F002229019
:100D70000001E526F0A3E527F02212067BFDACF08A
:100D8000AF2BAE2A021461E52975F003A42468F89C
:100D9000740F5622E52A252CF582E43529F583E0E7
:100DA00022F8E6FC08E6FDEC2290007AE09000854F
:100DB000F053DAFE222411F582E4341B222416F5C6
:100DC00082E4341BF583E493222419F582E4341B76
:100DD000F583E49322241AF582E4341BF583E4932B
:100DE0002225E0247DF582E43400F58322F8A6066E
:100DF00008A60722C39538FDE49400FCED22AA065C
:100E0000752FFF8A30F53122AA067533FF8A34F533
:100E100035228E268F27C3E5279464E5269400505B
:100E200003020FCE900087E024FE602514700302B9
:100E30000EB624036003020FD3C290AF27AE261272
:100E4000190F4003020FD3120CC69000877402F0F2
:100E500022AF27AE26121967503190007BE0940430
:100E60004022D290E4900000F0900073F090008B4C
:100E70007404F0E490007CF090007AF090008774A5
:100E800003F08025E4900087F0801E900074E05409
:100E90007FFEA3E0FFD3E5279FE5269E4005120CC9
:100EA000C6800690007BE004F090007BE0F46003D5
:100EB000020FD3020FCF90007CE004F07B007A0099
:100EC0007928AF27AE261213D84023900000E0FF08
:100ED000120D0DE526F0A3E527F08F28900000E025
:100EE00004F0E0D394074006E4F0900087F090000F
:100EF0008BE0B4041DA200E433C43333335480FFC9
:100F0000E528C454F04F120CB7EFF0E490008BF0DA
:100F10008042900073E0FF120CBCE0FEA200E433BC
:100F200033333354F84528FDEE4DF074032F120C83
:100F3000BE120D56FF1218E2EFF0900073E004F0BD
:100F400090008B7404F0900073E0D394704005E43B
:100F5000900087F090007CE0FF90007BE06F707362
:100F60001219A45005E4900085F0120D53605D1233
:100F700019B47D207C037F017E001217FA120DA99F
:100F800090008BE07022120CB8C083C082E0FD900C
:100F90000074E05480C4540FFF900000E04FFFED58
:100FA0004FD082D083F08016900074E05480FF9080
:100FB0000000E0C454F04F440F120CB7EFF0900063
:100FC00074E0547FF0900086E04480F0C290E4909A
:100FD0000087F0228B298A2A892B8D2CD33000019F
:100FE000C39201E4F53E753F80F53CE53CC3953086
:100FF000501EAB2DAA2EA92F853C82120D1C500A23
:10100000120C5812000392018002B201053C80DBF1
:10101000E4F53CE53CC39539506AE53B253EF58255
:10102000E4353AF583E0553F7024F53DE53DC39541
:10103000345040AB31AA32A933120D19500A120CA8
:101040005812000392018002B201053D80DEE4F5F2
:101050003DE53DC39538501BAB35AA36A937120D77
:1010600019500A120C5812000392018002B20105B5
:101070003D80DEE53FC313F53F7005053E753F80BB
:10108000053C808FC2909000877405F0228F268CDB
:10109000278D28EF120C77AA06F97BFFC003C00248
:1010A000C001EF75F00EA42410F582E4341BF58323
:1010B000E493FDEF75F00EA4120DB5120C82AA0692
:1010C0008B2D8A2EF52FEF75F00EA4120D3BF53007
:1010D000EF75F00EA42414F582E4341B120C82AADE
:1010E000068B318A32F533EF75F00EA4120DBDF583
:1010F00034EF75F00EA42417F582E4341B120C8231
:10110000AA068B358A36F537EF75F00EA4120DC995
:10111000F538EF75F00EA4120DD5F539EF75F00E18
:10112000A4120D4724FF920085273A85283BD00161
:10113000D002D003020FD4C0E0C0F0C083C082C090
:10114000D075D000C000C001C002C003C004C005FB
:10115000C006C007E5985403F546F45298E54630BA
:10116000E0171219EC9000DE12188FEFF09000DEFD
:10117000E004F0E0B44002E4F0E54630E12E9000F7
:10118000E1E0D39400401A9000DDE02447F8E6FF48
:101190001219E99000DDE004F09000E1E014F08025
:1011A00002D2049000DDE0B42002E4F0D007D006C3
:1011B000D005D004D003D002D001D000D0D0D0824E
:1011C000D083D0F0D0E03212005A787FE4F6D8FD18
:1011D000758190021211020076E493A3F8E493A3C0
:1011E0004003F68001F208DFF48029E493A3F85469
:1011F00007240CC8C333C4540F4420C8834004F4EC
:1012000056800146F6DFE4800B01020408102040FE
:101210008090135DE47E019360BCA3FF543F30E5F2
:1012200009541FFEE493A360010ECF54C025E06073
:10123000A840B8E493A3FAE493A3F8E493A3C8C541
:1012400082C8CAC583CAF0A3C8C582C8CAC583CA32
:10125000DFE9DEE780BEC0E0C0F0C083C082C0D05E
:1012600075D000C000C001C002C003C004C005C0EA
:1012700006C007E5D85487F521F452D8E5F730E5E4
:1012800008E5F730E6031219F353F7DFE52130E7FD
:1012900008E5D930E0031219F2E52130E008E5DA7B
:1012A00030E003121788E52130E108E5DB30E00388
:1012B0001219F4E52130E208E5DC30E0031219F5FB
:1012C000D007D006D005D004D003D002D001D00082
:1012D000D0D0D082D083D0F0D0E032AE07E4F52673
:1012E000121873900000E004FF1218A31213569016
:1012F0000000E0FFE526C39F501212188312189FCA
:10130000121883F58312187D052680E3900074E09F
:10131000FF1218A390007412187D121356E4F526DC
:10132000900073E02401FFE433FEC3E5269FEE64E2
:1013300080F874809850177403252612189A052691
:10134000E526541F70DA1219E61219DF80D27F5594
:101350001218A30219E61219E61219DF224200E65A
:1013600000004200E200004200E800004200E40009
:1013700000C183410086004100870041008A00418E
:10138000007900420001000042008800004200771E
:10139000000041008B0041007300410085004100C6
:1013A0007A004100000048007D00000000000000BD
:1013B00000410076004100DE004100E0004100DC19
:1013C000004100DD004100E1004100DB00C10441BB
:1013D00000DF0041009A00008E298F2A8B2B8A2C77
:1013E000892DE4F52E900000E0FFE52EC39F505EAE
:1013F000E529C4F854F0C868FCE52AC4540F48FD38
:10140000E52AAE297802CEC313CE13D8F92DFFEE0C
:101410003CAB07FA120D0BE0FEA3E0FFC39BEE9A74
:1014200050028004AE02AF03AA06AB07120D0BE018
:10143000FCA3E0FDAF2AAE291218BF500DAB2BAABA
:101440002CA92DE52E1205B6D322052E8097C32296
:1014500075F0021207A0E493FC740193FDAF27AE70
:10146000268F828E83AF05AE0412195BAB07AA06E6
:10147000D3EB94F4EA940140067E017FF48004AE3D
:1014800002AF03AA06AB07C3EB9464EA94005006CC
:101490007E007F648004AE02AF03AA06AB07AF8272
:1014A000AE831218BF22900076E0FDC4540F2401D1
:1014B000FBE433FAED540FF96B7001EA603DE9701B
:1014C00010E0C4540F2401FDE433FCED64044C60CF
:1014D0002A900076E0C4540FFD540F120DE1EEF097
:1014E000A3EFF0ED04C454F049900076F0E0FFC49F
:1014F000540FC394044004EF540FF022C0E0C083A3
:10150000C082C0D075D000C004C005C006C007535B
:10151000C87F9000E6E0FEA3E0FF4E700353C8FBD7
:101520009000E212170050099000E6E4F0A3F0806A
:101530000DC39000E7E09DF09000E6E09CF0D0073E
:10154000D006D005D004D0D0D082D083D0E032C035
:10155000E0C083C082C0D075D000C004C005C00602
:10156000C00753917F9000E8E0FEA3E0FF4E7003B8
:101570005391FB9000E412170050099000E8E4F04A
:10158000A3F0800DC39000E9E09DF09000E8E09C9E
:10159000F0D007D006D005D004D0D0D082D083D0F0
:1015A000E0328B268A2789288C298D2AD200E4F5FF
:1015B0002CE52CC3952B502F120D94C4540FFF64AF
:1015C0000F600B120D5E120C661200039200120DDA
:1015D00094FF540F640F600B120D5E120C66120024
:1015E000039200052C80CAC2909000877405F022F7
:1015F000AE05AD07E4FCFB7FAA1218A3AF051218D5
:10160000A3EE75F00EA424D7F582E4341BF583E431
:1016100093FFECC39F500774082CFC0B80F4EB0481
:10162000FF121875E4FCECC39B500974032C1218CC
:101630009A0C80F27F551218A30219E68F269000AB
:1016400079E0F5277E007F157D007B007A007967C1
:101650001207D27F0B1219EF43DA011200707D0AD4
:101660007C007F017E0012182312001DE490008789
:10167000F0900086F090009AE526F0900079F0AFA7
:101680002722AE07E4FDF526121873900001E0FF53
:101690001218A390000112187D900077E0FF121835
:1016A000A390007712187D900088E0FF1218A39095
:1016B000008812187D74032D12189A0DBD03F67F51
:1016C000551218A30219E6AB07AA06E4F9F87F4001
:1016D0007E427D0FFC12070EA804A905AA06AB07DF
:1016E0007F207ED77D757C0112070EC3E49FFFE447
:1016F0009EFE22AB07AA06E4F9F87FE87E03FD22EE
:10170000E0FCA3E0FDC3EF9DEE9C22ADDA900076F5
:10171000E0FFC4540FFEEF540FFFB50602C322537F
:10172000DAFEEF120DE1E0FFA3E0CF8FF01206B377
:10173000900076E0FF54F0FEEF044EF0540FC39497
:10174000044004E054F0F08DDAD3229000EEE0FC87
:10175000A3E0FDEC547FFEAF0522EC5480C41313CC
:1017600013540124FF22A3E493FE740193AA0622DA
:10177000E4900086F043DA0122E49000ECF0A3F05C
:1017800022900087E024FB22AFFBAEFC7C007D0AA8
:101790001205C8AD07AC06AFD953D9BFE4F5FAF5C9
:1017A000F98FD9C3EC948050157F002093027F01FC
:1017B000EFC433333354804CFEEDFF0214A6E490A3
:1017C0000076F0229000DEE0FF9000DCE0B5070537
:1017D0007E017F00229000DC12188FE0FD7C0090DB
:1017E00000DCE004F0E0B44002E4F09000DBE0FE56
:1017F000EE4204E4F0AE04AF05228E398F3A8C3B02
:101800008D3C1216F31216D41219379000E6E53B00
:10181000F0A3E53CF09000E2E539F0A3E53AF043AF
:10182000C804228E288F298C2A8D2B1216F31216AB
:10183000D41219439000E8E52AF0A3E52BF09000BC
:10184000E4E528F0A3E529F04391042212002A12CE
:1018500019BB1219C21219731219D71218F91219D9
:101860009112197D12198712194F1219C91219DB19
:101870000219D07FAA1218A3AF060218A3A3E0FF93
:101880000218A3E52625E0248CF582E4340022E04A
:10189000249BF582E43400F58322F582E43400F5DC
:1018A00083E0FFC2049000E0E0B42002E4F0900086
:1018B000E0E02447F8A607E004F0A3E004F022C328
:1018C000ED9BF582EC9AF583C3E5829FE5839E50FC
:1018D0000FED2BFDEC3AFCC3EF9DEE9C5002800116
:1018E000C3227E1DE4FDEF30E70625E06EFF800495
:1018F000EF25E0FF0DBD08EE22AF885388AF758C51
:10190000A0758DCBEF5440FEEF54104E428822C399
:10191000EF942CEE94014003D38001C32212192AC4
:10192000D203900079E0FF02163CAE071218737FD5
:10193000551218A30219E6AD07AC06ECF5CBAF05BE
:101940008FCA22AD07AC06ECF593AF058F9222C289
:10195000DE75D90575F9FF75960122EF7802CEC3C1
:1019600013CE13D8F9FF22900074E0FCA3E0FD121F
:1019700014612275E34075E10175E20122E591549D
:10198000045391FB429122758E54758922438850ED
:1019900022E5C8540453C8FB42C82253984FEB4F6A
:1019A0004DF59822E5C8C320E201D322E591C3207A
:1019B000E201D32253C8FB53C87F2275A41175D40A
:1019C000CF2275A54175D5772253F77F75DA30227E
:1019D00075E69075A8B022E4F5A92243981022304C
:1019E00004FD22C2DE22D299228F9922AF99228F42
:1019F0008C2222222222015E041A2A6200020001A5
:101A00000100017202E412C005DC020300010100C2
:101A1000017C044C0BB8232802030001010001F4EF
:101A200003E805DC733C0302010001019004B00BE4
:101A3000B81C5202030001010001C20384286E0297
:101A4000000001010000D201A41D88020000010174
:101A50000019F60319FC0219FE021A000218001AF6
:101A600002041A0A021A0C021A0E0228001A1004A2
:101A70001A18021A1A021A1C0218001A1E041A2630
:101A8000011A27021A290247001A2B041A33021AD4
:101A900035021A370218001A39031A3F021A410296
:101AA0001A430218011A45031A4B021A4D021A4F23
:101AB000020C01015E041A2A620002000101000109
:101AC0007202E412C005DC020300010100017C0483
:101AD0004C0BB8232802030001010001F403E805C0
:101AE000DC733C0302010001019004B00BB81C52EE
:101AF00002030001010001C20384286E02000001FC
:101B0000010000D201A41D880200000101001AB3E7
:101B1000031AB9021ABB021ABD0218001ABF041A2E
:101B2000C7021AC9021ACB0228001ACD041AD5021C
:101B30001AD7021AD90218001ADB041AE3011AE4B0
:101B4000021AE60247001AE8041AF0021AF2021A10
:101B5000F40218001AF6031AFC021AFE021B000215
:101B600018011B02031B08021B0A021B0C020C01BA
:101B7000015E041A2A62000200010100017202E4FF
:101B800012C005DC020300010100017C044C0BB80B
:101B9000232802030001010001F403E805DC733C83
:101BA0000302010001019004B00BB81C52020300B3
:101BB00001010001C20384286E020000010100003F
:101BC000D201A41D880200000101001B70031B76D6
:101BD000021B78021B7A0218001B7C041B84021B68
:101BE00086021B880228001B8A041B92021B940297
:101BF0001B960218001B98041BA0011BA1021BA32B
:101C00000247001BA5041BAD021BAF021BB102184B
:101C1000001BB3031BB9021BBB021BBD0218011B37
:0D1C2000BF031BC5021BC7021BC9020C013C
:00000001FF
