:020000040000FA
:1000000002156FED24F8FEEFD39E4015ED2408FD98
:10001000E433FCC3EF9DEC6480F874809850028058
:1000200001C3220214DF7597A5222202197D7EFFEB
:10003000EFD394004022EF9480501DE4FDED75F065
:1000400005A42451F582E4341FF583E493B5070435
:10005000AE0580040DBD06E5AF0622021712121E82
:100060008553D87853DBFE121E49E4900085F022B8
:10007000D2DE220219D0D202121BFFC290C296D247
:1000800080E4FBFD7F10121E301206CE74A4F0D265
:10009000AFE4F53BF53CD296053CE53C7002053BF0
:1000A000B410F3E53BB427EEC296120026300209E5
:1000B000121B398E3E8F3F8006753E01753F00E56D
:1000C0003F7004E53E640170409000CCE07007F59D
:1000D0003BF53C02028D053CE53C7002053BD394A8
:1000E00010E53B94274002D296D3E53C9430E53BA3
:1000F0009475500302028DE4F53BF53C9000CCF082
:100100009000CBF0C29602028DE4F53BF53C9000E6
:10011000CCE014602A14700302025F147003020220
:100120001D1470030202332404600302028DE53FB4
:1001300064AA600302028D9000CC04F002028DE5F7
:100140003F9000CBF0A37402F0E53F120C3902059A
:10015000A00173A10185A501A9A601BDA701C6A89B
:1001600001E2A901C9B001D2B1019AC0028DFF001C
:100170000002141206879000A87401F0E490007544
:10018000F07FA1806E12005E9000CC7404F0753D8B
:1001900008E4F54175400902028D9000CC7404F02A
:1001A000E4F54175400202028DE49000A8F0900051
:1001B00075F07FA612071174A6F002028D1206CE0A
:1001C00074A4F002028D753D089000CC7403F00217
:1001D000028D9000757401F07FB1120711EFF002EB
:1001E000028D1206879000A8E0F53AE4F0900075C1
:1001F000F07FA9121AFC90007CEFF07D307C751224
:10020000070002028D1206EE90007CEFF0E49000F1
:10021000CCF08079E49000CBF0A3F08070E4F5415D
:10022000E53FF540E540D394009000CC402C7404A9
:10023000F0805A74042541F582E43400F583E53FEB
:10024000F00541E541B540059000CC800DE541C386
:10025000947040397540709000CC7402F0802EE5A7
:100260003F645570289000CCF0C2029000CBE0248F
:1002700060601824FC600F24FE600B14600824F6F4
:100280006004241070077FA0121DFDD2029000CBE5
:10029000E0120C3902B6A102E0A402F2A503DAA62C
:1002A00003F6A805C0A905FDB00670B103A6C003FA
:1002B000C8FF000000AA900084E030E70F7DC87CF2
:1002C000001206B77FA3121A730205DA121E41400C
:1002D000030200AA7DE87C031206B77FA20205F59F
:1002E000900084E020E7030200AA7FA4121A7302A0
:1002F00003EE9000CCE060030200AA900085E024A9
:10030000FC6070240460030200AA153D900008E020
:10031000FEA3E0FF7C007D64120C5FC006C00712E4
:1003200016B8D007D006120BA78F4B900006E0FE40
:10033000A3E0FF8E4CF54D7C007D64120C5FC0067F
:10034000C0071216B8D007D006120BA78F4E754FF4
:1003500018900008E0FAA3E0FB900004E0FCA3E0A2
:10036000FDA3E0FEA3E0FF12189B9000747406F05A
:100370000204B97F0112002E1216DE60030200AAE9
:10038000E53D601A7F0112002EEF12168E1216D272
:1003900050030205B81206E2121E730205B81206D7
:1003A000EE7FA00205F59000CCE060030200AA9069
:1003B0000004E0FCA3E0FD120700D296121E73C2F7
:1003C000967FA0121DFD800A7F01121DFDE49000A2
:1003D000CCF0D2021206F70200AA900084E020E7D7
:1003E000030200AA547FF543FD7FA61215FEE49098
:1003F0000084F00200AA9000CCE060030200AA9002
:100400000085E024FC7003020569240460030200F7
:10041000AA900004E0FF2480600804700DE4F51D3C
:100420008003751D017542FF800F12002E8F42E57B
:1004300042F460051216DEF51D153D12005EE51D45
:1004400014607C0460030200AA900004E0647F70E2
:1004500024A31216FFA3E0FAA3E0FBA3E0F54BA34D
:10046000E0F54CA3E0F54DA3E0F54EA3E01207083C
:10047000740CF0803BE542F4603112168CF5828EEC
:10048000831216EF740593FA740693FB740993F5BF
:100490004B740793F54C740893F54D740A93F54E1D
:1004A000740B931207087401F08005E49000CBF000
:1004B0009000CBE070030200AA121D350200AA9042
:1004C0000004E06480704E900074740CF090000B97
:1004D000E0FF7E00900009E0FCA3E0FD120A47C0A7
:1004E00006C00790000C12170BC007C00690000D45
:1004F00012170BAA06AB0790000E12170B8E4F8F28
:10050000508A4D8B4ED04BD04C9000051216FF9068
:10051000000FE08048E542F4700302062F12168CAB
:100520009000747401F08544828E8374061216A9BB
:10053000C006C00774071216A9C007C006740812C7
:1005400016A9AA06AB0774091216A98E4F8F508AF6
:100550004D8B4ED04BD04C1216EF740A93F551D000
:1005600003D0021219150200AAE53D70101206F719
:100570007FA0121DFDD202E4F51D0200AAE51D14A4
:10058000601B0460030200AAE542F4600E12168CA0
:100590001216D240061206E2121E73801BE542F4C8
:1005A000601612168C1216D2400EEFFD7C007F01F1
:1005B0007E00121C52121E73E4900085F00200AA05
:1005C000900084E0FF30E71C547FF5437DC87C0039
:1005D00012069AAD437FAB1215FEE4900084F0D270
:1005E000020200AA121E4140030200AA7DE87C0319
:1005F00012069A7FAA121DFDD2020200AA900004E0
:10060000E025E0F5439000CCE060030200AA9000F2
:1006100085E0700512005E800B900085E064046048
:10062000030200AAE5436007E540C394045008E4D0
:100630009000CBF00200AA74062543F9E43400755B
:100640004801F549894AC3E540954324FEF54B909E
:100650000005E0F54C7B017A0079061217977FA020
:10066000121DFD90007CE0FF121AFCD2020200AACB
:10067000900084E020E7030200AA7FB1121819E479
:10068000900084F00200AA7D327C007F017E00127F
:100690001C52D296121E73C296227F017E00121C3B
:1006A00052D296121E73C2969000A8E53AF09000BE
:1006B0007CE0FF121AFC227F017E00121C52D296AF
:1006C000121E73C29690007CE0FF121AFC2290006A
:1006D000A87401F0E4900075F07FA4121AFC900059
:1006E0007C22EFFD7C007F017E00121C52229000D4
:1006F0007CE0FF121AFC2290007CE0FF121AFC2220
:100700007F017E00121C5222F54F12189B9000743C
:1007100022121AFC90007C22AFE9AEEA120DB68ECE
:10072000088F092093030209A285080A85090BC3D3
:10073000E509950DF511E508950CF510900075E0AB
:1007400014700302099C0460030209C3900085E051
:100750001460650460030209C3900084E060030232
:1007600009C39000A8E0FFAB11AA10AD0FAC0E12A8
:1007700011998F1AE51A648070030209C390007FF3
:10078000120E7C900002E510F0A3E511120DC1E4F9
:10079000900074F0900077F090007EF0F51BF51C4F
:1007A000FE7F70FD7B017A007904120C8CE49000CE
:1007B0007DF090008504F022E51A120D998E23F544
:1007C00024E51A120E0B70030208D004600302091C
:1007D000C3900004120CD8FFD39400400B90007E0D
:1007E000E09F5004E004F022120E24AE10AF11ABD3
:1007F00007AA06E50F2BFFE50E3AFEE433FDE433CE
:10080000FCC004A905AA06AB07AE0EAF0F120E84FA
:10081000D000120BA78F22120D80FD120003401989
:1008200090000A120D83FDAF22120003400B120C40
:10083000D5120E756003020954120D80FDAF22120D
:1008400000035009120CD5C3120E554013D3E50F07
:10085000951CE50E951B402B120CD5120E757023BE
:10086000900086120E7C120CE1C083C082120E1C16
:100870007401A806088002C333D8FC4FD082D0830D
:10088000F0801790007A120E7CC290D3951CE50E72
:10089000951B4006850E1B850F1C900088E0700D8F
:1008A000120CE3120D78FF121D92120DBD120CD521
:1008B000120E7560030209C3121E395005E4900040
:1008C00083F0120D7570030209941209D70209947E
:1008D000120CD5FF7E00900004120AE4FDACF01269
:1008E0000A47120DF28E258F26120E24E4850F156D
:1008F000850E14F513F512851119851018F517F5E5
:1009000016900006120D061209C4500F900007122F
:100910000D001209F55004C2908043900008120D9A
:10092000001209C4502EAA23A9247BFF90000912AB
:100930000D061209F5501D120CE1C083C082120E83
:100940001C7401A806088002C333D8FC4FD082D0A3
:1009500083F0800AE4900084F0C290A3F02290001B
:1009600088E0700D120CE3120D78FF121D92120D2B
:10097000BDAA23A9247BFF90000A120A08120E7553
:100980007041121E395005E4900083F0120D75601D
:10099000031209D7C290E4900085F022AF11AE1087
:1009A000801E85080C85090DC3E509950BF50FE53B
:1009B00008950AF50E900075E0147007AF0FAE0EA3
:1009C000120EB622E5159FFFE5149EFE121DF1C31F
:1009D000EF9526EE952522121E497D207C037F018E
:1009E0007E00121C2990007DE0900083F0A3E51AA0
:1009F000F04480F022E5199FFFE5189EFE121DF1DC
:100A0000C3EF9526EE952522BB010CE58229F582E0
:100A1000E5833AF583E0225006E92582F8E622BB19
:100A2000FE06E92582F8E222E58229F582E5833A8D
:100A3000F583E49322BB010689828A83F022500267
:100A4000F722BBFE01F322EF8DF0A4A8F0CF8CF0CB
:100A5000A428CE8DF0A42EFE22BC000BBE0029EFF0
:100A60008DF084FFADF022E4CCF875F008EF2FFF95
:100A7000EE33FEEC33FCEE9DEC984005FCEE9DFE63
:100A80000FD5F0E9E4CEFD22EDF8F5F0EE8420D2AA
:100A90001CFEADF075F008EF2FFFED33FD40079819
:100AA0005006D5F0F222C398FD0FD5F0EA22C2D548
:100AB000EC30E709B2D5E4C39DFDE49CFCEE30E7E1
:100AC00015B2D5E4C39FFFE49EFE120A59C3E49D0C
:100AD000FDE49CFC8003120A5930D507C3E49FFF54
:100AE000E49EFE22BB0110E58229F582E5833AF5FA
:100AF00083E0F5F0A3E0225009E92582F886F008AA
:100B0000E622BBFE0AE92582F8E2F5F008E222E5DA
:100B1000832AF583E993F5F0A3E99322E88FF0A403
:100B2000CC8BF0A42CFCE98EF0A42CFC8AF0EDA474
:100B30002CFCEA8EF0A4CDA8F08BF0A42DCC3825A7
:100B4000F0FDE98FF0A42CCD35F0FCEB8EF0A4FE87
:100B5000A9F0EB8FF0A4CFC5F02ECD39FEE43CFC1C
:100B6000EAA42DCE35F0FDE43CFC2275F008758238
:100B700000EF2FFFEE33FECD33CDCC33CCC5823327
:100B8000C5829BED9AEC99E58298400CF582EE9B2C
:100B9000FEED9AFDEC99FC0FD5F0D6E4CEFBE4CD4A
:100BA000FAE4CCF9A88222B800C1B90059BA002DE4
:100BB000EC8BF084CFCECDFCE5F0CBF97818EF2F9D
:100BC000FFEE33FEED33FDEC33FCEB33FB10D703CC
:100BD000994004EB99FB0FD8E5E4F9FA227818EF75
:100BE0002FFFEE33FEED33FDEC33FCC933C910D7D4
:100BF000059BE99A4007EC9BFCE99AF90FD8E0E4E1
:100C0000C9FAE4CCFB2275F010EF2FFFEE33FEEDB6
:100C100033FDCC33CCC833C810D7079BEC9AE89986
:100C2000400AED9BFDEC9AFCE899F80FD5F0DAE468
:100C3000CDFBE4CCFAE4C8F922D083D082F8E49367
:100C40007012740193700DA3A393F8740193F5824D
:100C50008883E4737402936860EFA3A3A380DFEC3E
:100C60008EF0A4CCC5F0CCCDF8EFA4CEC5F02DFD10
:100C7000E43CFCE8A42EC8C5F03DFDE43CFCEFA438
:100C8000FFE5F028FEE43DFDE43CFC22EF4E60125F
:100C9000EF60010EEDBB010B89828A83F0A3DFFCBC
:100CA000DEFA2289F05007F709DFFCA9F022BBFE2B
:100CB000FCF309DFFCA9F022E52925E0248AF5826E
:100CC000E43400F58322FF900074E02404F582E40C
:100CD0003400F5832290000BAA23A9247BFF020A8B
:100CE00008D290900077E024FFFFE434FFFE7C0000
:100CF0007D08120AAE74042FF58274003EF583223B
:100D0000AA23A9247BFF120A08FD7C00900004128C
:100D10000AE4FFAEF0120A47C322120BA7AB07AAE0
:100D200006E4F9F87F407E427D0FFC120BA7E47BBE
:100D3000FFFAF9F8120B1CA804A905AA06AB077F55
:100D4000207ED77D757C01120BA7EFF40422AE2A1A
:100D5000AF2B7C007D1F120A598E2E8F2F7C007DB9
:100D600005120A59C3E52F9FFDE52E9EFCD3E52908
:100D70009DE5289C22900083E0FF90007DE06F229B
:100D8000900009AA23A9247BFF020A0853DBFE5323
:100D9000DAFE53F7DF53F7BF2275F005A42453F5AD
:100DA00082E4341FF583E4740193FA740293AE0273
:100DB000227D64120A597C007D0A020A4790007D58
:100DC000EFF09000887408F022C3E5379FFDE53608
:100DD0009ED3FCE5339DE5329C22E0FCA3E0FDECD4
:100DE000547FFAEDD39400EA94002275F0FFA4FF3B
:100DF000AEF07C007D64020A59AA2EA92F7BFF90D9
:100E00000002120AE4F53785F0362275F005A424B5
:100E100052F582E4341FF583E4931422E0FF90003E
:100E200088E0FE22900088E014F0900077E004F063
:100E300022E52F2FFFE52E3EFEC3E5299FE5289EE4
:100E400022AB48AA49A94A854D82758300020A0847
:100E5000900081E0D3FF900077E09F22900078E53A
:100E600027F0A3E528F022852F82852E83E493FACC
:100E7000740193FB22FF900077E06F22E50EF0A350
:100E8000E50FF0227C007D64020C5F540F75F002C8
:100E9000A4F58285F083227B007A007929AF28AE01
:100EA0002722D3E52B9494E52A941122EC4480AFB9
:100EB00005F0A3EFF0228E278F28900085E01460C4
:100EC00048147003020FAA24026003021083C29028
:100ED000900084E06003021083AF28AE27121DBF8C
:100EE0004003021083E4F529120CB8E4F0A3F005E6
:100EF00029E529B40FF2E4900001F0F529120E5C07
:100F00009000857401F0D29022900078E0FCA3E07C
:100F1000FDAE047802CEC313CE13D8F92DFFEC3EFC
:100F2000FED3E5289FE5279E4009120E5CE4900061
:100F300001F022AF28AE27121A23501F900001E0C3
:100F400094004017E4900074F09000887404F0E47A
:100F500090007DF09000857402F022C3E52894642F
:100F6000E52794005003021074120E971213A75035
:100F70001C120CB8E0FEA3E02528FFE5273EC313B2
:100F8000FEEF13FF120CB8EEF0A3EFF02290000179
:100F9000E0120CBA120E5F900001E004F0E0D3946E
:100FA0000F5003021083E402107EB290120E9712CB
:100FB00012FF5059900088E0B40410E529C454F0A1
:100FC000120CC6EFF0E4900088F022900074E0FF6D
:100FD000120CCBE0FEE529540FFDEE4DF074042F0A
:100FE000120CCD120D78FF121D92EFF0900074E0FC
:100FF00004F09000887404F0900074E0D394705072
:1010000003021083121E49E49000018071AF28AEE4
:1010100027121A235061121E395005E4900083F004
:10102000120D75604D121E497DF47C017F017E001A
:10103000121C2990007DE0900083F0900088E07001
:1010400019120CC7C083C082E0FF900001E0540F6A
:10105000FEEF4ED082D083F0800E900001E0C454A9
:10106000F0440F120CC6EFF0121084900084E0449C
:1010700080F0C290E48008121E49E4900001F090D4
:101080000085F022E4F52A900074E0FFE52AC39F72
:1010900050397404252A120CCDE0C4540FFF120CF1
:1010A000BA120DDA4007EF120CBA120EAC74042516
:1010B0002A120CCDE0540FFF120CBA120DDA4007C1
:1010C000EF120CBA120EAC052A80BCE4F52A90008F
:1010D00001E0FFE52AC39F4003021198E52A120CA4
:1010E000BAE030E70302118AAF2A900001E0FEEF78
:1010F000C39E4003021182EF25E0248CF582E43484
:1011000000F583E0FCA3E0FDEF120CBAECF0A3EDD8
:10111000F0E4FE900074E02401FDE433FCEEC39D96
:10112000EC6480F8748098505574042E120CCDE055
:10113000F9C4540FFDEF2401FBE433FAEDB50316B7
:10114000E4B50212E9540FFDEFC454F04DFD7404F0
:101150002E120CCDEDF0EF2401FDE433FC74042ECF
:10116000120CCDE0F9540FB50511E4B5040DE954A6
:10117000F04FFD74042E120CCDEDF00E80950F0291
:1011800010EA900001E014F08009E52A120CBAE0A0
:10119000547FF0052A0210CE228F278C288D298AB1
:1011A0002A8B2B752C80E5277071E4F52D7F0112B9
:1011B000002EEF652D701B120EA24054E52B9450AB
:1011C000E52A9446504A120D4E4045120E315040C9
:1011D0008073E52D120D998E2EF52FE52D120E0B35
:1011E000601804702B120E67C002C003120DF9D0F4
:1011F00003D00212124B50188013120E67C002C0A7
:1012000003120DF9D003D00212124B5003852D2C7E
:10121000052DE52DC394064094802DAF2712002E96
:101220008F2D7F0112002EEF652D701C120EA24033
:1012300017E52B9450E52A9446500D120D4E4008A8
:10124000120E315003852D2CAF2C22AD2BAC2AAFC2
:1012500029AE28121257228E308F318C328D33C234
:10126000007C007D64AF03AE02120DB38F828E83CB
:10127000AE36AF37120DB1D3E58294F4E583940115
:1012800040050C7DF48004AC83AD828C838D82D3C9
:10129000EF94F4EE940140067C017DF48004AC06EA
:1012A000AD07AE04AF05EB120DE44038EB9582FDBF
:1012B000EA9583FCD3E5319DE5309C403FEB2582E8
:1012C000FDEA3583FCC3E5319DE5309C502E120DBF
:1012D000C94029E5372FFDE5363EC3120DD2501C1B
:1012E000D2008018120DC94013E5372FFFE5363EB6
:1012F000FEC3E5339FE5329E5002D200A200228E4B
:10130000328F338B348A358936C201E4F537900049
:1013100001E0FFE537C39F40030213A4E533AE327B
:101320007803CEC313CE13D8F9FDAC06E533AE3245
:101330007802CEC313CE13D8F92DF539EE3CF5382B
:10134000E537120CBAE0FEA3E0FFC39539EE9538FD
:1013500050028004AE38AF398E388F39E537120C21
:10136000BAE0FEA3E0FFC39539FDEE9538FCC3ED6E
:101370009533EC95325028E5392FFFE5383EFEC312
:10138000E5339FE5329E5017E53645354534600B11
:10139000AB34AA35A936E537120A35D201800505E6
:1013A0003702130EA201228E2A8F2B8B2C8A2D89B5
:1013B0002EC2001212FF5005D20002144AE52BAED5
:1013C0002A7803CEC313CE13D8F9FDAC06E52BAEB5
:1013D0002A7802CEC313CE13D8F92DFDEE3CFCE5DE
:1013E0002AC4F854F0C868FEE52BC4540F482DF504
:1013F00031EC3EF530E4F52F900001E0FFE52FC31E
:101400009F5047C3E52B9531FFE52A9530FEE52F28
:10141000120CBAE0FCA3E0FDD39FEC9E4028E52B24
:101420002531FFE52A3530FEC3ED9FEC9E5017E5D0
:101430002E452D452C600BAB2CAA2DA92EE52F1285
:101440000A35D2008004052F80AEA200224200C7D8
:1014500000004200C300004200C900004200C50075
:10146000004100CC004100CB00011D004100840080
:10147000410085004100A8004100750041007C004A
:1014800041007656410089AB4100000041008200D6
:1014900042007F000042000200004200860000423D
:1014A000007A00004100810041008800410077007F
:1014B00041007E00410074004100830041007D0036
:1014C000410001004100C0004100C1004100BE00D8
:1014D0004100BF004100C2004100BD00C10300C087
:1014E000E0C0F0C083C082C0D075D000C000C00191
:1014F000C002C003C004C005C006C007E59854037D
:10150000F55AF45298E55A30E017121E8E9000C03A
:10151000121B97EFF09000C0E004F0E0B41402E476
:10152000F0E55A30E12E9000C2E0D39400401A90CA
:1015300000BFE0245BF8E6FF121E8B9000BFE004C2
:10154000F09000C2E014F08002D2039000BFE0B43B
:101550002002E4F0D007D006D005D004D003D0029A
:10156000D001D000D0D0D082D083D0F0D0E03212E1
:101570001E94787FE4F6D8FD75817A0215B90200D1
:1015800076E493A3F8E493A34003F68001F208DF26
:10159000F48029E493A3F85407240CC8C333C4543B
:1015A0000F4420C8834004F456800146F6DFE480EF
:1015B0000B010204081020408090144DE47E01933A
:1015C00060BCA3FF543F30E509541FFEE493A360C1
:1015D000010ECF54C025E060A840B8E493A3FAE41C
:1015E00093A3F8E493A3C8C582C8CAC583CAF0A36D
:1015F000C8C582C8CAC583CADFE9DEE780BE8F4599
:101600008D46E4FEFDF547121B8424BFF582E434C9
:101610001FF583740193FA7402938A48F5497FAAEF
:10162000121CF5AF45121B8124BEF582E4341FF570
:1016300083E49314600E047019AA48A9497BFF90B3
:10164000000B8009AA48A9497BFF90000A120A08EA
:10165000F547EEC39547500774082EFE0D80F3ED55
:1016600004FF121B8124BDF582E4341FF583E4934B
:10167000FF121CF5E4FEEEC39D500974042E121BEC
:101680006F0E80F27F55121CF5021E88E54275F040
:1016900005A424E7F582E4341EF583740193FA74FB
:1016A0000293AE028E43F5442293FF7E00740493AE
:1016B000FC740593FD020A47900006E0FEA3E0FFDC
:1016C000900009E02FFF900008E03EAB07FAE4F934
:1016D000F822F5828E83740C93FFD3940022EF7569
:1016E000F005A424E6F582E4341EF583E49322E4B5
:1016F00093FE740193FF740293FC740393FD22E044
:10170000FEA3E0FFA3E0FCA3E0FD22E0FF7E0002D9
:101710000A47C0E0C0F0C083C082C0D075D000C00E
:1017200000C001C002C003C004C005C006C007E578
:10173000D85487F521F452D8E5F730E508E5F730BD
:10174000E603121BA253F7DFE52130E708E5D930A5
:10175000E003121E95E52130E008E5DA30E00312DF
:101760001CA2E52130E108E5DB30E003120718E5B3
:101770002130E208E5DC30E003121E96D007D006E7
:10178000D005D004D003D002D001D000D0D0D08278
:10179000D083D0F0D0E0328B458A468947120D8C39
:1017A00053E2FDE4F54DE54DC3954B504FAB45AAD3
:1017B00046A947C003C002C001120E41C4120E8BDD
:1017C000D001D002D003120AE4F54F85F04ED2804A
:1017D00012180BAB45AA46A947C003C002C00112AC
:1017E0000E41120E8BD001D002D003120AE4F54F45
:1017F00085F04EC28012180B054D80AAB290AF4CF6
:10180000154CEF709E43E202C29022FDAC4E7F0A5F
:101810007E00121BD3121E7322AE07E4F545121C84
:10182000EE900001E004FF121CF5121894900001E4
:10183000E0FFE545C39F5012121B8B121B74121B55
:101840008BF583121B7B054580E3900078E0FF1247
:101850001CF5900078121B7B121894E4F54590005B
:1018600074E02401FFE433FEC3E5459FEE6480F895
:10187000748098501774042545121B6F0545E54583
:10188000541F70DA121E88121E8180D27F55121CDE
:10189000F5021E88121E88121E81228E458F468CEC
:1018A000478D48AE02AF03120E84C007AF4BAB07A3
:1018B000E4FAF9F8D007120D1A900000F0AE4CAF20
:1018C0004D120E84C007AF4EAB07E4FAF9F8D0070B
:1018D000120D1A900082F0E54B120DEB900076EF9E
:1018E000F0E54E120DEB900089EFF090007FE5459A
:1018F000F0A3E546F0900002E547F0A3E548F0903C
:101900000081E54FF043DA0153F7DF43F74053DB43
:10191000FE75F9FF228A498B4A755380120D8C534C
:10192000E2FD90007FEEF0A3EFF0900002ECF0A358
:10193000EDF0121C7BE4F552E552C3955150321282
:101940000CC7E05553600AAD50AC4FAF4EAE4D8062
:1019500008AD4CAC4BAF4AAE49121D11E553C31351
:10196000F5537009900074E004F0755380055280BF
:10197000C743E202C2909000857404F022C0E0C028
:1019800083C082C0D075D000C004C005C006C007A7
:1019900053C87F9000C7E0FEA3E0FF4E700353C81A
:1019A000FB9000C3121AF150099000C7E4F0A3F0B5
:1019B000800DC39000C8E09DF09000C7E09CF0D07F
:1019C00007D006D005D004D0D0D082D083D0E0326A
:1019D000C0E0C083C082C0D075D000C004C005C0C4
:1019E00006C00753917F9000C9E0FEA3E0FF4E7050
:1019F000035391FB9000C5121AF150099000C9E4FD
:101A0000F0A3F0800DC39000CAE09DF09000C9E003
:101A10009CF0D007D006D005D004D0D0D082D0839F
:101A2000D0E032AB07AA06900078E0FEA3E0FF7C8E
:101A300000120DB1D3EF94F4EE940140050C7DF447
:101A40008004AC06AD07AE04AF05C3900079E09FFB
:101A5000FD900078E09EFCC3ED9BEC9A5013A3E050
:101A60002FFF900078E03EFEC3EB9FEA9E5002807D
:101A700001C322AE07E4FDF545121CEE900002E022
:101A8000FF121CF5900002121B7B90007AE0FF12FF
:101A90001CF590007A121B7B900086E0FF121CF56B
:101AA000900086121B7B74042D121B6F0DBD03F674
:101AB0007F55121CF5021E88AB07AA06E4F9F87FD1
:101AC000407E427D0FFC120BA7A804A905AA06AB15
:101AD000077F207ED77D757C01120BA7C3E49FFF93
:101AE000E49EFE22AB07AA06E4F9F87FE87E03FD38
:101AF00022E0FCA3E0FDC3EF9DEE9C228F45900009
:101B00007CE0F5467F0B121E9143DB01120D8F1214
:101B100000707D0A7C007F017E00121C52121E7331
:101B200043E202E4900085F0900084F09000CBE561
:101B300045F090007CF0AF46229000C0E0FF90009E
:101B4000BEE0B507057E017F00229000BE121B9704
:101B5000E0FD7C009000BEE004F0E0B41402E4F08C
:101B60009000BDE0FEEE4204E4F0AE04AF0522F5C5
:101B700082E43400F583E0FF021CF5A3E0FF021CC1
:101B8000F5121CF5E54675F005A422E54525E0248F
:101B90008AF582E4340022E024A9F582E43400F5D9
:101BA0008322120E504003021D74120CC7120E1C29
:101BB000EFA806088002C313D8FC30E00B900000A9
:101BC000E0FF121E91D29022900082E0FF121E913F
:101BD000C290228E568F578C588D59121AB8121DEA
:101BE000D9E55924BF9000CAF0E55834FF9000C9E8
:101BF000F09000C5E556F0A3E557F043910422129A
:101C0000002A121E50121E57121E08121E79121D93
:101C1000A9121E26121E12121E1C121DE5121E5E95
:101C2000121E65121E7D021E6C8E2A8F2B8C2C8D2F
:101C30002D121AE4121AC5121DCD9000C7E52CF022
:101C4000A3E52DF09000C3E52AF0A3E52BF043C8EF
:101C500004228E478F488C498D4A121AE4121AC505
:101C6000121DD99000C9E549F0A3E54AF09000C5DE
:101C7000E547F0A3E548F043910422D290D280904A
:101C8000007F121C95121E73C290C2809000021237
:101C90001C95021E73E0FCA3E0FD7F0A7E00121B70
:101CA000D322900088E07008900074E004120DC107
:101CB000120E2A900088E014F0120E505003021CFD
:101CC000C753E2FDC28022120CC7120E1CEFA806F9
:101CD000088002C313D8FC30E005900076800390A2
:101CE0000089E07D00FCE4FF121D5622AE077FAAAA
:101CF000121CF5AF06C2039000C1E0B42002E4F06C
:101D00009000C1E0245BF8A607E004F0A3E004F033
:101D1000228C548D55D280AD07AC067F0A7E00120E
:101D20001BD3121E73C280AD55AC547F0A7E0012C5
:101D30001BD3021E73120DC2E014F09000777401E1
:101D4000F09000857403F0121CC753E2FD121C7B57
:101D500043E202020070AB07AF04EB14600C1460A6
:101D60000E2402700E8DFB8FFC228DE98FEA228DEE
:101D7000EB8FEC22E4FDFCFF121D56120D8F121E9C
:101D80008553D87853E2FDC280C2909000857404D8
:101D9000F0227E1DE4FDEF30E70625E06EFF8004B3
:101DA000EF25E0FF0DBD08EE22AF885388AF758C9C
:101DB000A0758DCBEF5440FEEF54104E428822C3E5
:101DC000EF94ACEE940D4003D38001C322AD07AC79
:101DD00006ECF5CBAF058FCA22AD07AC06ECF59348
:101DE000AF058F9222C2DE75D90575F9FF75960190
:101DF00022EE30E707C3E49FFFE49EFE22121CECB4
:101E00007F55121CF5021E8875E34075E10175E2ED
:101E10000222E59154045391FB429122758E547530
:101E2000892243885022E5C8540453C8FB42C82283
:101E300053984FEB4F4DF59822E5C8C320E201D3EC
:101E400022E591C320E201D32253C8FB53C87F226D
:101E500075A41175D4CE2275A54175D5772253F797
:101E60007F75DA4A2253F77F75DB302275E690756D
:101E7000A8B022E59120E2FB22E4F5A922439810C4
:101E8000223003FD22C2DE22D299228F9922AF99FD
:101E9000228F8C2222222201903070000640019075
:101EA0004B19180012C005DC0002BC012C461E288C
:101EB000080BB8232800044C01904B191800251C6E
:101EC0000BB80003840140461E1800000072D807BA
:101ED00002BC012C264040000BB81C5201900103AB
:101EE00003011846000100FF1E970200FF1EA40315
:101EF00000FF1EB10400FF1EBE0500FF1ECB060141
:101F0000FF1ED80190307000064001904B19180058
:101F100012C005DC0002BC012C461E28080BB823A9
:101F20002800044C01904B191800251C0BB8000325
:101F3000840140461E1800000072D80702BC012C24
:101F4000264040000BB81C520190010303011846C3
:101F5000000100FF1F030200FF1F100300FF1F1DF1
:101F60000400FF1F2A0500FF1F370601FF1F440161
:101F700090307000064001904B19180012C005DC2B
:101F80000002BC012C461E28080BB8232800044C74
:101F900001904B191800251C0BB800038401404622
:101FA0001E1800000072D80702BC012C2640400019
:101FB0000BB81C520190010303011846000100FFF9
:101FC0001F6F0200FF1F7C0300FF1F890400FF1F1B
:0B1FD000960500FF1FA30601FF1FB0D5
:00000001FF
