:020000040000FA
:1000000002119AED24F8FEEFD39E4015ED2408FD71
:10001000E433FCC3EF9DEC6480F874809850028058
:1000200001C32202107B7597A522220215957EFF3F
:10003000EFD394004022EF9480501DE4FDED75F065
:1000400005A42487F582E4341BF583E493B5070403
:10005000AE0580040DBD06E5AF06220212B1121AEC
:10006000BB53D87853DBFE121A7FE4900085F02250
:10007000D2DE220215E8D201121886C290C296D2B0
:1000800080E4FBFD7F10121A6612062174A4F0D2E0
:10009000AFE4F537F538D2960538E5387002053704
:1000A000B410F3E537B427EEC296120026300109EA
:1000B0001217C88E3A8F3B8006753A01753B00E5F2
:1000C0003B7004E53A640170409000CCE07007F5A5
:1000D00037F53802028A0538E53870020537D394BF
:1000E00010E53794274002D296D3E5389430E537AF
:1000F0009475500302028AE4F537F5389000CCF08D
:100100009000CBF0C29602028AE4F537F5389000F1
:10011000CCE014602A14700302025C147003020223
:10012000211470030202372404600302028AE53BB3
:1001300064AA600302028A9000CC04F002028AE5FD
:100140003B9000CBF0A37402F0E53B120BE30209F5
:10015000A00173A10185A501A9A601BDA701C6A89B
:1001600001E2A901C9B001D2B1019AC0028AFF001F
:100170000002181205DA9000A87401F0E4900075EE
:10018000F07FA1806E12005E9000CC7404F075398F
:1001900008E4F53D753C0902028A9000CC7404F035
:1001A000E4F53D753C0202028AE49000A8F090005C
:1001B00075F07FA612065274A6F002028A1206217A
:1001C00074A4F002028A7539089000CC7403F0021E
:1001D000028A9000757401F07FB1120652EFF002AE
:1001E000028A1205DA9000A8E0F536E4F090007576
:1001F000F07FA912175090007CEFF07D307C757F66
:10020000017E001218D902028A12063590007CEF96
:10021000F0E49000CCF08072E49000CBF0A3F0808A
:1002200069E4F53DE53BF53CE53CD394009000CC1A
:1002300040257404F080537404253DF582E43400B5
:10024000F583E53BF0053DE53D653C6007E53DC3D5
:10025000947040369000CC7402F0802EE53B6455DB
:1002600070289000CCF0C2019000CBE024606018B0
:1002700024FC600F24FE600B14600824F660042444
:100280001070077FA0121A33D2019000CBE0120B3E
:10029000E302B3A102DDA402EFA503B8A603D4A82C
:1002A00004F4A90531B005A4B10380C003A6FF0082
:1002B0000000AA900084E030E70F7DC87C001206A1
:1002C0000A7FA312168402050E121A774003020059
:1002D000AA7DE87C0312060A7FA202052990008409
:1002E000E020E7030200AA7FA41216840203CC9048
:1002F00000CCE060030200AA900085E024FC604985
:10030000240460030200AA1539900008E0FEA3E06F
:10031000FF12152F8F46900006E0FEA3E0FF8E47E8
:10032000F54812152F8F49754A18900008E0FAA376
:10033000E0FB900004E0FCA3E0FDA3E0FEA3E0FFEF
:100340001206597406F00204C07F0112002EEF124B
:10035000157F60030200AAE539601D1205BB121566
:100360008FD3940050030204E51205BB12158F12BF
:10037000063E121AA90204E51206357FA0020529DD
:100380009000CCE060030200AA900004E0FCA3E02F
:10039000FD7F017E001218D9D296121AA9C2967F4B
:1003A000A0121A33800AE4FF121A33E49000CCF052
:1003B000D2011206490200AA900084E020E703025D
:1003C00000AA547FF53FFD7FA61214B7E490008485
:1003D000F00200AA9000CCE060030200AA90008521
:1003E000E024FC70030204C6240460030200AA1285
:1003F000157D60030200AA153912005E900004E02A
:10040000647F7036A3E0FCA3E0FFAE04900009E037
:10041000FCA3E0FBAA04A3E0F546A3E0F547A3E0B4
:10042000F548A3E0F549A3E0F54A900007E0FCA3F6
:10043000E0FD120659740CF0807D900004E0FF127C
:10044000002E8F3EE53EF46069EF121564120A63D8
:10045000FFAEF0C006C007121562900002120A8EAD
:10046000FFAEF0C006C007900005120A8EFDACF08A
:10047000C004C005900009120987FF900007120A06
:100480008EFDACF090000A120987FE90000B120955
:1004900087F54A8E498C478D488F46D003D002D0CD
:1004A00005D004D007D00612143D9000747401F0FA
:1004B0008005E49000CBF09000CBE070030200AA2E
:1004C0001219AD0200AA12157D60030200AAE539D7
:1004D000601B12156212158FFFD394004007EF12B4
:1004E000063E121AA9E4900085F00200AA120649FD
:1004F0007FA08035900084E0FF30E71C547FF53FFB
:100500007DC87C001205EDAD3F7FAB1214B7E490BF
:100510000084F0D2010200AA121A7740030200AA56
:100520007DE87C031205ED7FAA121A33D201020086
:10053000AA900004E025E0F53F9000CCE0600302C3
:1005400000AA900085E0700512005E800B90008587
:10055000E0640460030200AAE53F6007E53CC39441
:10056000045008E49000CBF00200AA7406253FF97D
:10057000E43400754301F5448945C3E53C953F24C7
:10058000FEF546900005E0F5477B017A00790612FA
:1005900013367FA0121A3390007CE0FF121750D25E
:1005A000010200AA900084E020E7030200AA7FB1C4
:1005B0001213BBE4900084F00200AA7F0112002E07
:1005C000EF75F005A4241DF582E4341BF583E49354
:1005D000FB740193FA740293F9227D327C007F014F
:1005E0007E001218D9D296121AA9C296227F017ED5
:1005F000001218D9D296121AA9C2969000A8E53610
:10060000F090007CE0FF121750227F017E0012184C
:10061000D9D296121AA9C29690007CE0FF12175008
:10062000229000A87401F0E4900075F07FA41217E6
:100630005090007C2290007CE0FF12175022FD7C3D
:10064000007F017E001218D92290007CE0FF121773
:10065000502212175090007C2212143D90007422F8
:10066000AFE9AEEA7C007D0A1209C68E088F092028
:1006700093030208F185080A85090BC3E509950D66
:10068000F511E508950CF510900075E01470030263
:1006900008EB046003020912900085E01460650411
:1006A0006003020912900084E060030209129000C6
:1006B000A8E0FFAB11AA10AD0FAC0E120FCD8F1238
:1006C000E5126480700302091290007F120FA89057
:1006D0000002E510F0A3E511120F0DE4900074F094
:1006E000900077F090007EF0F513F514FE7F70FD1A
:1006F0007B017A007904120C36E490007DF09000C2
:100700008504F022E512120F32700302082D0460F6
:1007100003020912E512120E42900004120987FF2B
:10072000D39400400B90007EE09F5004E004F02240
:10073000120F4BAE10AF11AB07AA06E50F2BFFE56A
:100740000E3AFEE433FDE433FCC004A905AA06AB6F
:1007500007AE0EAF0F120FB0D000120B518F22E573
:1007600012120E42900009120987FD120003401B6D
:10077000E512120E4290000A12097D400EE5121297
:100780000E42120EE46F60030208A6E512120E423A
:1007900090000912097D500CE512120E42120EE46F
:1007A000C39F4016D3E50F9514E50E9513402EE533
:1007B00012120E42120EE46F7023900086120FA8E0
:1007C000120E5BC083C082120F437401A80608801A
:1007D00002C333D8FC4FD082D083F0801790007AC8
:1007E000120FA8C290D39514E50E95134006850EFE
:1007F00013850F14900088E0700D120E5D120EF339
:10080000FF1219C8120F09E512120E42120EE46F00
:100810006003020912121A6F5005E4900083F0126F
:100820000EF070030208E312095F0208E3E51212FA
:100830000E4290000B120987FF7E00900004120AFE
:100840008EFDACF01209C6120F1C8E238F24120FDE
:100850004BE512120E429000061209135011E512D8
:10086000120E429000071209395004C2908041E5EF
:1008700012120E42900008120913502AE512120EAD
:1008800042900009120939501D120E5BC083C082CC
:10089000120F437401A806088002C333D8FC4FD05E
:1008A00082D083F0800AE4900084F0C290A3F0220A
:1008B000900088E0700D120E5D120EF3FF1219C841
:1008C000120F09E512120E4290000A120EE76F7025
:1008D00041121A6F5005E4900083F0120EF060038D
:1008E00012095FC290E4900085F022AF11AE108033
:1008F0001E85080C85090DC3E509950BF50FE50864
:10090000950AF50E900075E0147007AF0FAE0E1249
:100910000C6222120987FD7C00900004120A8EFFEF
:10092000AEF01209C6C3E50F9FFFE50E9EFE121A38
:1009300027C3EF9524EE952322120987FD7C0090B2
:100940000004120A8EFFAEF01209C6C3E5119FFF24
:10095000E5109EFE121A27C3EF9524EE952322126E
:100960001A7F7D207C037F017E001218B090007DED
:10097000E0900083F0A3E512F04480F02212098792
:10098000FDAF2212000322BB010CE58229F582E5AE
:10099000833AF583E0225006E92582F8E622BBFE81
:1009A00006E92582F8E222E58229F582E5833AF517
:1009B00083E49322BB010689828A83F0225002F7E6
:1009C00022BBFE01F322EF8DF0A4A8F0CF8CF0A49F
:1009D00028CE8DF0A42EFE22BC000BBE0029EF8D88
:1009E000F084FFADF022E4CCF875F008EF2FFFEEB5
:1009F00033FEEC33FCEE9DEC984005FCEE9DFE0FC3
:100A0000D5F0E9E4CEFD22EDF8F5F0EE8420D21C1D
:100A1000FEADF075F008EF2FFFED33FD4007985065
:100A200006D5F0F222C398FD0FD5F0EA22C2D5EC2C
:100A300030E709B2D5E4C39DFDE49CFCEE30E71538
:100A4000B2D5E4C39FFFE49EFE1209D8C3E49DFD26
:100A5000E49CFC80031209D830D507C3E49FFFE46F
:100A60009EFE22BB010A89828A83E0F5F0A3E02280
:100A7000500687F009E71922BBFE07E3F5F009E30A
:100A8000192289828A83E493F5F074019322BB01D1
:100A900010E58229F582E5833AF583E0F5F0A3E0DD
:100AA000225009E92582F886F008E622BBFE0AE911
:100AB0002582F8E2F5F008E222E5832AF583E9933E
:100AC000F5F0A3E99322E88FF0A4CC8BF0A42CFCE2
:100AD000E98EF0A42CFC8AF0EDA42CFCEA8EF0A4A4
:100AE000CDA8F08BF0A42DCC3825F0FDE98FF0A433
:100AF0002CCD35F0FCEB8EF0A4FEA9F0EB8FF0A42A
:100B0000CFC5F02ECD39FEE43CFCEAA42DCE35F065
:100B1000FDE43CFC2275F008758200EF2FFFEE33F8
:100B2000FECD33CDCC33CCC58233C5829BED9AEC60
:100B300099E58298400CF582EE9BFEED9AFDEC99CA
:100B4000FC0FD5F0D6E4CEFBE4CDFAE4CCF9A882D4
:100B500022B800C1B90059BA002DEC8BF084CFCE79
:100B6000CDFCE5F0CBF97818EF2FFFEE33FEED3337
:100B7000FDEC33FCEB33FB10D703994004EB99FBFE
:100B80000FD8E5E4F9FA227818EF2FFFEE33FEEDE7
:100B900033FDEC33FCC933C910D7059BE99A4007F4
:100BA000EC9BFCE99AF90FD8E0E4C9FAE4CCFB220B
:100BB00075F010EF2FFFEE33FEED33FDCC33CCC8D4
:100BC00033C810D7079BEC9AE899400AED9BFDECDF
:100BD0009AFCE899F80FD5F0DAE4CDFBE4CCFAE41E
:100BE000C8F922D083D082F8E49370127401937014
:100BF0000DA3A393F8740193F5828883E4737402C0
:100C0000936860EFA3A3A380DFEC8EF0A4CCC5F0C3
:100C1000CCCDF8EFA4CEC5F02DFDE43CFCE8A42E2D
:100C2000C8C5F03DFDE43CFCEFA4FFE5F028FEE480
:100C30003DFDE43CFC22EF4E6012EF60010EEDBB87
:100C4000010B89828A83F0A3DFFCDEFA2289F0504F
:100C500007F709DFFCA9F022BBFEFCF309DFFCA9C2
:100C6000F0228E258F26900085E0146035147003E5
:100C7000020D4024026003020E11C290900084E035
:100C80006003020E11AF26AE251219F54003020EC5
:100C900011E4900001F0120F919000857401F0D2E0
:100CA0009022900078E0FCA3E0FDAE047802CEC371
:100CB00013CE13D8F92DFFEC3EFED3E5269FE52594
:100CC0009E4009120F91E4900001F022AF26AE255C
:100CD00012178D501F900001E094004017E490001F
:100CE00074F09000887404F0E490007DF09000852A
:100CF0007402F022C3E5269464E5259400500302B3
:100D00000DA6120E12501C120EFBE0FEA3E02526CB
:100D1000FFE5253EC313FEEF13FF120EFBEEF0A31B
:100D2000EFF022900001E0120EFD120F94900001EE
:100D3000E004F0E0D3941E5003020E11E4020E0210
:100D4000B290AF26AE2512178D505E121A6F500565
:100D5000E4900083F0120EF0604A121A7F7DF47C5A
:100D6000017F017E001218B090007DE0900083F0BA
:100D7000900088E07019120E7BC083C082E0FF9063
:100D80000001E0540FFEEF4ED082D083F0800E9031
:100D90000001E0C454F0440F120E7AEFF09000848A
:100DA000E04480F0C290E48064120E12505790002C
:100DB00088E0B40410E527C454F0120E7AEFF0E492
:100DC000900088F022900074E0FF120E7FE0FEE5B4
:100DD00027540FFDEE4DF074042F120E81120EF306
:100DE000FF1219C8EFF0900074E004F090008874CE
:100DF00004F0900074E0D394704016121A7FE490CF
:100E00000001F08008121A7FE4900001F090008544
:100E1000F0227B007A007927AF26AE251212292214
:100E2000E52B75F005A42489F582E4341BF583E4F1
:100E300093FB740193FA740293F9120A63FFAEF004
:100E4000E52B75F005A42489F582E4341BF583E4D1
:100E500093FB740193FA740293F922D29090007775
:100E6000E024FFFFE434FFFE7C007D08120A2D74AD
:100E7000042FF58274003EF58322FF900074E02475
:100E800004F582E43400F58322120B51AB07AA0665
:100E9000E4F9F87F407E427D0FFC120B51E47BFFAA
:100EA000FAF9F8120AC6A804A905AA06AB077F201A
:100EB0007ED77D757C01120B51EFF40422AE28AF72
:100EC000297C007D1F1209D88E2C8F2D7C007D057A
:100ED0001209D8C3E52D9FFDE52C9EFCD3E5279D87
:100EE000E5269C2290000B120987FF900077E022F4
:100EF000900083E0FF90007DE06F22E52725E0244D
:100F00008AF582E43400F5832290007DEFF09000B2
:100F1000887408F02275F0FFA4FFAEF07C007D64B9
:100F20000209D8E53524C8FFE43534FEC3ED9FEC53
:100F30009E2275F005A42488F582E4341BF583E431
:100F4000931422E0FF900088E0FE22900088E014D5
:100F5000F0900077E004F022E5352438FFE53434E2
:100F6000FFFED3ED9FEC9E22E52D2FFFE52C3EFEEC
:100F7000C3E5279FE5269E2253DAFE53F7DF53F79A
:100F8000BF22AB43AA44A945854882758300020964
:100F900087900078E525F0A3E526F022900081E017
:100FA000FF900077E0D39F22E50EF0A3E50FF0223B
:100FB0007C007D64020C09540F75F002A4F5828553
:100FC000F08322D3E5299494E5289411228F258C6F
:100FD000268D278A288B29752A80E5257052E4F50D
:100FE0002B7F0112002EEF652B701B120FC34035B3
:100FF000E5299450E5289446502B120EBD40261248
:101000000F6850218054E52B120F32600D047015CB
:10101000120E20121060500D8008120E2012106067
:101020005003852B2A052BE52BC3940640B3802D56
:10103000AF2512002E8F2B7F0112002EEF652B7033
:101040001C120FC34017E5299450E5289446500D13
:10105000120EBD4008120F685003852B2AAF2A22BA
:10106000900002120A8EF53585F034AB07AA06AD62
:1010700029AC28AF27AE2612163B22C0E0C0F0C034
:1010800083C082C0D075D000C000C001C002C003C0
:10109000C004C005C006C007E5985403F54FF452DC
:1010A00098E54F30E017121AC49000C0121745EFB0
:1010B000F09000C0E004F0E0B41402E4F0E54F303A
:1010C000E12E9000C2E0D39400401A9000BFE024CB
:1010D00050F8E6FF121AC19000BFE004F09000C281
:1010E000E014F08002D2029000BFE0B42002E4F0ED
:1010F000D007D006D005D004D003D002D001D00054
:10110000D0D0D082D083D0F0D0E0324200C70000EF
:101110004200C300004200C900004200C500004177
:1011200000CC004100CB004100840041008500411B
:1011300000A8004100750041007C00410076564146
:101140000089AB410000004100820042007F0000A6
:101150004200020000420086000042007A00004186
:10116000008100410088004100770041007E00417D
:101170000074004100830041007D004100010041F6
:1011800000C0004100C1004100BE004100BF00415D
:1011900000C2004100BD00C10200121ACA787FE4FB
:1011A000F6D8FD75816F0211E4020076E493A3F88E
:1011B000E493A34003F68001F208DFF48029E4936E
:1011C000A3F85407240CC8C333C4540F4420C88365
:1011D0004004F456800146F6DFE4800B0102040867
:1011E0001020408090110BE47E019360BCA3FF545B
:1011F0003F30E509541FFEE493A360010ECF54C0B5
:1012000025E060A840B8E493A3FAE493A3F8E4933C
:10121000A3C8C582C8CAC583CAF0A3C8C582C8CA44
:10122000C583CADFE9DEE780BE8E288F298B2A8A34
:101230002B892CC200E4F52D900001E0FFE52DC3C1
:101240009F506BE529AE287803CEC313CE13D8F98F
:10125000FDAC06E529AE287802CEC313CE13D8F92B
:101260002DF52FEE3CF52EE52D120EFDE0FEA3E050
:10127000FFC3952FFDEE952EFCC3ED9529EC952827
:101280005028E52F2FFFE52E3EFEC3E5299FE528D8
:101290009E5017E52C452B452A600BAB2AAA2BA99B
:1012A0002CE52D1209B4D2008004052D808AA200FD
:1012B00022C0E0C0F0C083C082C0D075D000C000A2
:1012C000C001C002C003C004C005C006C007E5D805
:1012D0005487F521F452D8E5F730E508E5F730E614
:1012E000031217FE53F7DFE52130E708E5D930E0B8
:1012F00003121ACBE52130E008E5DA30E0031219D9
:1013000002E52130E108E5DB30E003120660E5216B
:1013100030E208E5DC30E003121ACCD007D006D06A
:1013200005D004D003D002D001D000D0D0D082D0DC
:1013300083D0F0D0E0328B408A41894253DBFE12E9
:101340000F7853E2FDE4F548E548C39546504FABAE
:1013500040AA41A942C003C002C001120F82C412B8
:101360000FB7D001D002D003120A8EF54A85F0499A
:10137000D2801213ADAB40AA41A942C003C002C043
:1013800001120F82120FB7D001D002D003120A8EC1
:10139000F54A85F049C2801213AD054880AAB29083
:1013A000AF471547EF709E43E202C29022FDAC4961
:1013B0007F0A7E0012182F121AA922AE07E4F54008
:1013C00012194E900001E004FF12195512143690C4
:1013D0000001E0FFE540C39F501212173912172C8D
:1013E000121739F583121733054080E3900078E037
:1013F000FF121955900078121733121436E4F54095
:10140000900074E02401FFE433FEC3E5409FEE64E6
:1014100080F87480985017740425401217270540EF
:10142000E540541F70DA121ABE121AB780D27F55E7
:10143000121955021ABE121ABE121AB7228E408F06
:10144000418C428D43AE02AF03120FB0C007AF46CE
:10145000AB07E4FAF9F8D007120E89900000F0AE5D
:1014600047AF48120FB0C007AF49AB07E4FAF9F82D
:10147000D007120E89900082F0E546120F159000F9
:1014800076EFF0E549120F15900089EFF090007F9C
:10149000E540F0A3E541F0900002E542F0A3E5430A
:1014A000F0900081E54AF043DA0153F7DF43F7405B
:1014B00053DBFE75F9FF22AC05AB07E4FEFDFA7FB6
:1014C000AA121955AF03121955EC75F005A424F4AE
:1014D000F582E4341BF583E49314600B047012125C
:1014E000170D90000B800612170D90000A12098745
:1014F000FAEEC39A500774082EFE0D80F4ED04FF37
:10150000121955EC75F005A424F3F582E4341BF5AB
:1015100083E493FF121955E4FEEEC39D5009740451
:101520002E1217270E80F27F55121955021ABE7C13
:10153000007D64120C09A804A905AA06AB07900057
:1015400006E0FEA3E0FFA3E0FCA3E02FFDEC3EAF2E
:1015500005FEE4FDC8FCEDC9FDEECAFEEFCBFF02BF
:101560000B51E53E75F005A4241DF582E4341BF50E
:1015700083E493FB740193FA740293F922E53E75B8
:10158000F005A4241CF582E4341BF583E493229037
:10159000000C020987C0E0C083C082C0D075D000B3
:1015A000C004C005C006C00753C87F9000C7E0FE56
:1015B000A3E0FF4E700353C8FB9000C31217025004
:1015C000099000C7E4F0A3F0800DC39000C8E09D2F
:1015D000F09000C7E09CF0D007D006D005D004D032
:1015E000D0D082D083D0E032C0E0C083C082C0D0EF
:1015F00075D000C004C005C006C00753917F90009D
:10160000C9E0FEA3E0FF4E70035391FB9000C512AA
:10161000170250099000C9E4F0A3F0800DC39000B8
:10162000CAE09DF09000C9E09CF0D007D006D0053C
:10163000D004D0D0D082D083D0E032C200D3EB949B
:1016400000EA9400402FEB2438F582EA34FFF5835A
:10165000D3EF9582EE95834028EB24C8FBE43AFA59
:10166000C3EF9BEE9A501A120F584015120F2350D9
:1016700010D200800C120F584007120F235002D2D4
:1016800000A20022AE07E4FDF54012194E900002C0
:10169000E0FF12195590000212173390007AE0FF14
:1016A00012195590007A121733900086E0FF121934
:1016B0005590008612173374042D1217270DBD03A1
:1016C000F67F55121955021ABEAB07AA06E4F9F8BF
:1016D0007F407E427D0FFC120B51A804A905AA068B
:1016E000AB077F207ED77D757C01120B51C3E49F31
:1016F000FFE49EFE22AB07AA06E4F9F87FE87E032A
:10170000FD22E0FCA3E0FDC3EF9DEE9C22EC75F012
:1017100005A424F5F582E4341BF583E493FB7401FE
:1017200093FA740293F922F582E43400F583E0FF22
:10173000021955A3E0FF021955E54025E0248AF57A
:1017400082E4340022E024A9F582E43400F5832207
:101750008F4090007CE0F5417F0B121AC743DB01FC
:10176000120F781200707D0A7C007F017E00121833
:10177000D9121AA943E202E4900085F0900084F0A7
:101780009000CBE540F090007CF0AF4122AD07AC7B
:1017900006900078E0FEA3E07802CEC313CE13D803
:1017A000F9FFC3900079E09FFB900078E09EFAC3B8
:1017B000EB9DEA9C5010A3E02FFF900078E03E12D2
:1017C0000F2B50028001C3229000C0E0FF9000BEAA
:1017D000E0B507057E017F00229000BE121745E0AC
:1017E000FD7C009000BEE004F0E0B41402E4F09050
:1017F00000BDE0FEEE4204E4F0AE04AF0522120F9D
:101800009C400302198F120E7B120F43EFA80608AB
:101810008002C313D8FC30E00B900000E0FF121AE6
:10182000C7D29022900082E0FF121AC7C290228E87
:101830004B8F4C8C4D8D4E1216C9121A0FE54E244B
:10184000BF9000CAF0E54D34FF9000C9F09000C58C
:10185000E54BF0A3E54CF043910422D29053E2FD16
:10186000D28090007F121876C290C280900002123F
:10187000187643E20222E0FCA3E0FD7F0A7E00121C
:10188000182F121AA92212002A121A86121A8D1261
:101890001A3E121AAF1219DF121A5C121A48121AE3
:1018A00052121A1B121A94121A9B121AB3021AA27B
:1018B0008E288F298C2A8D2B1216F51216D6121A05
:1018C000039000C7E52AF0A3E52BF09000C3E528BC
:1018D000F0A3E529F043C804228E428F438C448D47
:1018E000451216F51216D6121A0F9000C9E544F0EB
:1018F000A3E545F09000C5E542F0A3E543F0439130
:101900000422900088E07008900074E004120F0D2B
:10191000120F51900088E014F0120F9C500302192E
:101920002753E2FDC28022120E7B120F43EFA8065E
:10193000088002C313D8FC30E00590007680039045
:101940000089E07D00FCE4FF12197122AE077FAA36
:10195000121955AF06C2029000C1E0B42002E4F0B3
:101960009000C1E02450F8A607E004F0A3E004F0E2
:1019700022AB07AF04EB14600C14600E2402700E4F
:101980008DFB8FFC228DE98FEA228DEB8FEC22E418
:10199000FDFCFF121971120F78121ABB53D878533D
:1019A000E2FDC280C2909000857404F022120F0EF6
:1019B000E014F09000777401F09000857403F01249
:1019C000192712185B0200707E1DE4FDEF30E70658
:1019D00025E06EFF8004EF25E0FF0DBD08EE22AF8D
:1019E000885388AF758CA0758DCBEF5440FEEF54B3
:1019F000104E428822C3EF94ACEE940D4003D38086
:101A000001C322AD07AC06ECF5CBAF058FCA22AD02
:101A100007AC06ECF593AF058F9222C2DE75D905AF
:101A200075F9FF75960122EE30E707C3E49FFFE4E6
:101A30009EFE2212194C7F55121955021ABE75E3EB
:101A40004075E10175E20222E59154045391FB4295
:101A50009122758E5475892243885022E5C854041A
:101A600053C8FB42C82253984FEB4F4DF59822E5DF
:101A7000C8C320E201D322E591C320E201D322535F
:101A8000C8FB53C87F2275A41175D4CE2275A54119
:101A900075D5772253F77F75DA4A2253F77F75DBC6
:101AA000302275E69075A8B022E59120E2FB22E491
:101AB000F5A922439810223002FD22C2DE22D299DB
:101AC000228F9922AF99228F8C22222222019030DC
:101AD0007000064001904B19180012C005DC00028E
:101AE000BC012C461E28080BB8232800044C01908A
:101AF0004B191800251C0BB80003840140461E1822
:101B000000000072D80702BC012C264040000BB830
:101B10001C520190010303011846000100FF1ACD79
:101B20000200FF1ADA0300FF1AE70400FF1AF405A7
:101B300000FF1B010601FF1B0E01903070000640E4
:101B400001904B19180012C005DC0002BC012C46A4
:101B50001E28080BB8232800044C01904B191800CC
:101B6000251C0BB80003840140461E1800000072BB
:101B7000D80702BC012C264040000BB81C52019033
:101B8000010303011846000100FF1B390200FF1B7F
:101B9000460300FF1B530400FF1B600500FF1B6D85
:101BA0000601FF1B7A0190307000064001904B192E
:101BB000180012C005DC0002BC012C461E28080BD0
:101BC000B8232800044C01904B191800251C0BB8B1
:101BD0000003840140461E1800000072D80702BCB2
:101BE000012C264040000BB81C5201900103030158
:101BF0001846000100FF1BA50200FF1BB20300FFF7
:101C00001BBF0400FF1BCC0500FF1BD90601FF1BF7
:011C1000E6ED
:00000001FF
