:020000040000FA
:100000000213C67E1DE4FDEF30E70625E06EFF809B
:1000100004EF25E0FF0DBD08EE2253984FEB4F4D46
:10002000F598220213367597A522220217268E5ABA
:100030008F5B8C5C8D5D1218A4121AF8E55D24BFED
:100040009000DCF0E55C34FF9000DBF09000D7E539
:100050005AF0A3E55BF04391042222021455121BCF
:100060008953D87853DAFE121B54E4900080F022B2
:10007000D2DE22021779D202121A1BC290C296C295
:1000800080E4FBFD7F1012001A12068874A4F0D2DF
:10009000AF12170DD2969000D4E004F070069000D5
:1000A000D3E004F09000D3E0B427E9A3E0B410E477
:1000B000C29612002630020912195F8E3C8F3D80D5
:1000C00006753C01753D00E53D7004E53C6401703A
:1000D000469000BCE0700612170E02029A9000D300
:1000E000E475F001120A5FFED3E5F09410EE942758
:1000F0004002D296D39000D4E094309000D3E094A4
:1001000075500302029AE4F0A3F09000BCF0900056
:10011000A3F0C29602029A12170D9000BCE0146080
:100120002A14700302026C14700302022A14700372
:100130000202402404600302029AE53D64AA6003BF
:1001400002029A9000BC04F002029AE53D9000A3DE
:10015000F09000BC7402F0E53D120B870214A00180
:1001600081A10191A501B8A601C6A701CFA801EE02
:10017000A901D5B001DEB101A9C0029AFF000002B9
:100180001F12063FE49000A2F0900074F07FA1805F
:100190006D12005E9000BC7404F09000D27408F000
:1001A000E4F53F753E0902029A9000BC7404F0E445
:1001B000F53F753E0202029A1216F87FA61206B8A3
:1001C00074A6F002029A12068874A4F002029A90B1
:1001D00000D27408F09000BC7403F002029A900000
:1001E000747401F07FB11206B8EFF002029A1206A1
:1001F0003F9000A2E09000D1F01216F87FA91219EA
:100200002890007AEFF07D307C757F017E00121916
:10021000F202029A12069A90007AEFF0E48005E466
:100220009000A3F09000BCF08070E4F53FE53DF550
:100230003EE53ED394009000BC402C7404F0805AFC
:100240007403253FF582E43400F583E53DF0053F76
:10025000E53FB53E059000BC800DE53FC39470407E
:1002600039753E709000BC7402F0802EE53D6455F7
:1002700070289000BCF0C2029000A3E024606018D7
:1002800024FC600F24FE600B14600824F660042434
:100290001070077FA0121ADFD2029000A3E0120BA9
:1002A0008702C3A102EDA402FFA503A4A603BEA872
:1002B0000580A905B7B00628B10371C00392FF00FD
:1002C0000000B290007FE030E70F7DC87C0012068E
:1002D000717FA312185F02059A121B4C40030200A3
:1002E000B27DE87C031206717FA202062090007F97
:1002F000E020E7030200B27FA412185F0203B69069
:1003000000BCE060030200B21217156043240360D2
:10031000030200B21206BF900005E0FAA3E0FBFF63
:10032000AE02121704900007E0F8A3E088838583EB
:1003300048F54985834AF54B900005E0F54CA3E06C
:10034000F54DE4F54E754F18F550755106020552FE
:100350009000D2E0601112171C500302056E1206C5
:10036000A3121B7702056E12069AC2807FA00206B6
:10037000209000BCE060030200B21217047F017EEF
:10038000001219F2D296121B77C2967FA0121ADFC2
:10039000800A7F02121ADFE49000BCF0D20212063B
:1003A000AF0200B290007FE020E7030200B2547F6A
:1003B000FD7FA61217CCE490007FF00200B29000FF
:1003C000BCE060030200B212171570030205582446
:1003D0000360030200B2900003E0FF248070057503
:1003E00040FF80028F401206BF900003E0648060EF
:1003F0000302047BA3E0FCA3E0FD900008E0FAA365
:10040000E0FBFFAE021209C2C006C007900006E082
:10041000FCA3E0FDAF03AE021209C2C006C0079004
:10042000000AE0FF7E00900008E0FCA3E0FD120956
:10043000C2C006C00790000B1216F1C007C006909C
:10044000000C1216F1AA06AB0790000D1216F18EE1
:100450004C8F4D8A4A8B4BD048D04990000EE0F526
:100460004EA3E0F54FA3E0F55075510ED003D00236
:10047000D005D004D007D006020552E540F4700341
:100480000205E21216EA249CF582E4341BF583E4AB
:1004900093FF7E001216EA249FF582E4341BF58355
:1004A000E493FA740193FDAC021209C2C006C007BE
:1004B0001216EA249DF582E4341BF583E4931216A8
:1004C000F2C006C0071216EA24A1F582E4341B121A
:1004D00016CAC006C0071216EA24A2F582E4341B2D
:1004E0001216CAC007C0061216EA24A3F582E43425
:1004F0001B1216CAAA06AB071216EA24A4F582E458
:10050000341B1216CA1216EA249EF582E4341BF537
:1005100083E493FD1216EA24A5F582E4341BF583E7
:10052000E493FC1216EA24A8F582E4341BF583E474
:1005300093F5508C4F8D4E8E4C8F4D8A4A8B4BD0FD
:1005400048D049755101D003D002D005D004D0075E
:10055000D0061214DA0200B29000D2E06018E54032
:10056000F4600B12171C40061206A3121B77E490CE
:100570000080F00200B21206AFC2807FA002062007
:1005800090007FE030E71D7DC87C0012065290008D
:100590007FE0547FFD7FAB1217CCE490007FF0D258
:1005A000020200B2121B4C40030200B27DE87C0341
:1005B0001206527FAA8069900003E025E0F5419081
:1005C00000BCE060030200B212171560472403600C
:1005D000030200B212005EE5416007E53EC39404E9
:1005E0005008E49000A3F00200B274052541F9E43C
:1005F0003400754501F5468947C3E53E954124FE23
:10060000F548900004E0F5497B017A00790512165F
:100610005A0200B290007AE0FF121928C2807FA02F
:10062000121ADFD2020200B290007FE020E703023C
:1006300000B27FB112155EE490007FF00200B27D3F
:10064000327C007F017E001219F2D296121B77C213
:1006500096227F017E001219F2D296121B77C29663
:100660009000D1E09000A2F090007AE0FF121928EB
:10067000227F017E001219F2D296121B77C2969049
:10068000007AE0FF12192822E49000A2F090007492
:10069000F07FA412192890007A2290007AE0FF12CD
:1006A000192822EFFD7C007F017E001219F22290B2
:1006B000007AE0FF1219282212192890007A22905D
:1006C00000D2E014F012005E228C228D238A248B4B
:1006D00025AE07900080E014607F04600302095299
:1006E00090007FE06003020952C3E5239414E522E1
:1006F0009405500EC3E5259414E524940550030297
:1007000009529000A2E0FFAD0685242C85252DAB73
:1007100023AA221218E890007DEFF0648070030293
:100720000952900001E524F0A3E525F090008374C0
:1007300008F0E4900075F090007CF0F508F509FEF3
:100740007F70FD7B017A007903120BADE490007B92
:10075000F0D29090008004F02290007DE0FD75F0D2
:100760000DA4240EF582E4341C120DBE120DDFFC24
:10077000740193120E7990007DE075F00DA42406AB
:10078000F582E4341CF583E493FFD39400400B908E
:10079000007CE09F5004E004F02290007DE0F960CE
:1007A00051FD120DB3120DDF120EE49000C1120EB6
:1007B00034240AF582E4341C120DBE1209C29000E2
:1007C000C3120E34240BF582E4341C120DBEE91260
:1007D0000DE0120EE49000C5120E34240CF582E4F4
:1007E000341C120DBE1209C29000C7EEF0A3EFF048
:1007F000803E900078E0FEA3E0FF9000C1EEF0A301
:10080000EFF0900081E0FCA3E0FD9000C3ECF0A3CA
:10081000EDF0A3ECF0A3EDF0A3120E34240EF5825C
:10082000E4341C120DBE900078E0FCA3E0120E79B7
:10083000900083E014F0900075E004F0AE22AF2346
:10084000E4FCFD9000C9120B7BAE24AF25E4FCFD57
:100850009000CD120B7B120E899000C112095350EB
:100860000E9000CD120E8C9000C3120953400CC3A1
:10087000120EDB5020120DC6B5071A900078E52243
:10088000F0A3E523F0C290D3120EDD406A85220862
:100890008523098062120E899000C512096B500EE3
:1008A0009000CD120E8C9000C712096B400CD31231
:1008B0000EDB4033120DC66F702D900081E522F0E3
:1008C000A3E523F0D290120E17C083C082E0FF9000
:1008D0000083E0FE7401A806088002C333D8FC4FF1
:1008E000D082D083F08010E490007FF0C290A3F01B
:1008F00090007D7480F022900083E07012120E1739
:10090000120E60FF120003EFF09000837408F012E3
:100910000DC66F703D121B445005E490007EF0122E
:100920000E5D6027121B547D207C037F017E001228
:1009300019C990007BE090007EF090007DE090006F
:100940007FF04480F090007D7480F0C290E49000CD
:1009500080F022FFE0FCA3E0FDC3EF9DFFEE9CFED4
:10096000121B10C3EF9527EE952622FFE0FCA3E0B3
:10097000FDC3EF9DFFEE9CFE121B10C3EF9527EE0B
:10098000952622BB010CE58229F582E5833AF583A1
:10099000E0225006E92582F8E622BBFE06E9258220
:1009A000F8E222E58229F582E5833AF583E4932291
:1009B000BB010689828A83F0225002F722BBFE0126
:1009C000F322EF8DF0A4A8F0CF8CF0A428CE8DF008
:1009D000A42EFE22BC000BBE0029EF8DF084FFADDB
:1009E000F022E4CCF875F008EF2FFFEE33FEEC3385
:1009F000FCEE9DEC984005FCEE9DFE0FD5F0E9E481
:100A0000CEFD22EDF8F5F0EE8420D21CFEADF0759F
:100A1000F008EF2FFFED33FD4007985006D5F0F2B8
:100A200022C398FD0FD5F0EA22C2D5EC30E709B217
:100A3000D5E4C39DFDE49CFCEE30E715B2D5E4C3DC
:100A40009FFFE49EFE1209D4C3E49DFDE49CFC805C
:100A5000031209D430D507C3E49FFFE49EFE22C5EC
:100A6000F0F8A3E028F0C5F0F8E5821582700215D1
:100A700083E038F022BB0110E58229F582E5833A54
:100A8000F583E0F5F0A3E0225009E92582F886F02D
:100A900008E622BBFE0AE92582F8E2F5F008E22228
:100AA000E5832AF583E993F5F0A3E9932275F0082D
:100AB000758200EF2FFFEE33FECD33CDCC33CCC5A6
:100AC0008233C5829BED9AEC99E58298400CF582C1
:100AD000EE9BFEED9AFDEC99FC0FD5F0D6E4CEFB33
:100AE000E4CDFAE4CCF9A88222B800C1B90059BA21
:100AF000002DEC8BF084CFCECDFCE5F0CBF978184F
:100B0000EF2FFFEE33FEED33FDEC33FCEB33FB1048
:100B1000D703994004EB99FB0FD8E5E4F9FA227862
:100B200018EF2FFFEE33FEED33FDEC33FCC933C974
:100B300010D7059BE99A4007EC9BFCE99AF90FD87E
:100B4000E0E4C9FAE4CCFB2275F010EF2FFFEE339E
:100B5000FEED33FDCC33CCC833C810D7079BEC9ADD
:100B6000E899400AED9BFDEC9AFCE899F80FD5F066
:100B7000DAE4CDFBE4CCFAE4C8F922ECF0A3EDF022
:100B8000A3EEF0A3EFF022D083D082F8E4937012AA
:100B9000740193700DA3A393F8740193F582888375
:100BA000E4737402936860EFA3A3A380DFEF4E6049
:100BB00012EF60010EEDBB010B89828A83F0A3DF87
:100BC000FCDEFA2289F05007F709DFFCA9F022BB0E
:100BD000FEFCF309DFFCA9F0228E228F2390008017
:100BE000E014604A147003020CB624026003020D84
:100BF00094C29090007FE06003020D94AF23AE2278
:100C0000121AD14003020D94E4F524E524120D9844
:100C1000E4F0A3F00524E524B40FF0E4900000F024
:100C2000F524120EA29000807401F0D29022900060
:100C300076E0FCA3E0FDAE047802CEC313CE13D859
:100C4000F92DFFEC3EFED3E5239FE5229E400912DD
:100C50000EA2E4900000F022AF23AE22121818502A
:100C60001F900000E094004017E4900073F09000A3
:100C7000837404F0E490007BF09000807402F02212
:100C8000C3E5239464E52294005003020D85120EFF
:100C9000EE12114A5003020D94900000E0120D98DC
:100CA000120EA5900000E004F0E0D3940F50030270
:100CB0000D94E4020D8FB290120EEE121294505960
:100CC000900083E0B40410E524C454F0120DA4EFA6
:100CD000F0E4900083F022900073E0FF120DA9E091
:100CE000FEE524540FFDEE4DF074032F120DAB12F0
:100CF0000E60FF120003EFF0900073E004F090002C
:100D0000837404F0900073E0D394705003020D9448
:100D1000121B54E49000008076AF23AE2212181804
:100D20005066121B445005E490007EF0120E5D6088
:100D300052121B547DF47C017F017E001219C99070
:100D4000007BE090007EF0900083E07019120DA50A
:100D5000C083C082E0FF900000E0540FFEEF4ED051
:100D600082D083F0800E900000E0C454F0440F1253
:100D70000DA4EFF0900073E0FF120F0A90007FE0E7
:100D80004480F0C290E48008121B54E4900000F00C
:100D9000900080F022FCE52A25E02484F582E434EA
:100DA00000F58322FF900073E02403F582E4340011
:100DB000F5832275F00DA42409F582E4341CF58333
:100DC000E493FF7E002290007DE075F00DA4240DD9
:100DD000F582E4341CF583E493FF900075E022ED86
:100DE00075F00DA42407F582E4341CF583E4932206
:100DF0007C007D641209D47C007D0A1209C2D3EF05
:100E000094F4EE940122EF75F00DA42410F582E421
:100E1000341CF583E49322900075E024FFFFE43452
:100E2000FFFE7C007D08120A2974032FF5827400EE
:100E30003EF58322EEF0A3EFF0E975F00DA4228ECB
:100E40003A8F3BE53075F00DA422E4F9C3ED9BF534
:100E500082EC9AF583D3EF9582EE95832290007E03
:100E6000E0FF90007BE06F22E0FCA3E0FDEC547F0C
:100E7000FAD3ED9400EA940022FD1209C27C007DB1
:100E8000641209D48E268F27229000C9A3A3E0FE06
:100E9000A3E022AB45AA46A947854B827583000291
:100EA0000983900076E522F0A3E523F0228E3A8FA5
:100EB0003BC3E53B9464E53A940022852C34852DB0
:100EC00035AB2BAA2AAD2922ED2BFDEC3AFCC3EF62
:100ED0009DEE9C22AC38AD390209C2E5239509E5A7
:100EE00022950822FA740193FDAC020209C27B002C
:100EF0007A007924AF23AE2222E0FEA3E0FFC322D2
:100F0000EC4480AF05F0A3EFF0228F25E4F527F540
:100F100026E5252401FFE433FEC3E5269FEE648029
:100F2000F8748098503974032526120DABE0C45430
:100F30000FFF120D98120E684007EF120D98120F56
:100F40000074032526120DABE0540FFF120D98120A
:100F50000E684007EF120D98120F00052680B2E4CC
:100F6000F526900000E0FFE526C39F40030210260F
:100F7000E526120D98E030E703021018AF26900026
:100F800000E0FEEFC39E4003021014EF25E024862C
:100F9000F582E43400F583E0FCA3E0FDEF120D9848
:100FA000ECF0A3EDF0E4FEE5252401FDE433FCEED6
:100FB000C39DEC6480F8748098505574032E120D14
:100FC000ABE0F9C4540FFDEF2401FBE433FAEDB5B7
:100FD0000316E4B50212E9540FFDEFC454F04DFDC1
:100FE00074032E120DABEDF0EF2401FDE433FC741D
:100FF000032E120DABE0F9540FB50511E4B5040D45
:10100000E954F04FFD74032E120DABEDF00E8097F6
:101010000F020F7E05278009E526120D98E0547F08
:10102000F00526020F62900000E0C39527F0228FA2
:1010300030E4F536F537120E066D6006E5365537A5
:10104000FF22E5307014901C0593FD7C00AE34AF98
:10105000351209D48E388F39800CE530120DE0F549
:1010600038740193F539120E432404F582E4341CDC
:10107000F583E493D3940040477C007D64AF03AED6
:1010800002120DF440067E017FF48000120EAD5076
:10109000067E007F648004AE3AAF3B120E3F24040C
:1010A000F582E4341C120DBE120ED4AC06AD07AFAF
:1010B00003AE02AB3BAA3A121AB5EF6003753601D4
:1010C000120E432405F582E4341CF583E493D39493
:1010D000004043AE34AF35120DF040067E017FF480
:1010E0008000120EAD50067E007F648004AE3AAFE1
:1010F0003B120E3F2405F582E4341C120DBE120E85
:10110000D4AC06AD07AB3BAA3AAF35AE34121AC326
:10111000EF6003753701E5365537FB64017028E54C
:1011200030120DB3120ED4900078EEF0A3EFF0124F
:101130000E43240BF582E4341C120DBE1209C2903A
:101140000081EEF0A3EFF0AF03228E258F268B27D0
:101150008A288929C2001212945005D2000211EE89
:10116000E4F52A900000E0FFE52AC39F4003021146
:10117000EE120D96E0FCA3E0FDAE047803CEC3139F
:10118000CE13D8F9FBAA06EDAE047802CEC313CE77
:1011900013D8F92BFDEE3A120D95E0C4F854F0C8BF
:1011A00068FEA3E0C4540F482DFFEC3EFEC3E526C5
:1011B0009FFDE5259E120D95E0FAA3E0FBD39DEA85
:1011C0009C4026E5262FFFE5253EFEC3EB9FEA9EC9
:1011D0005017E52945284527600BAB27AA28A929E0
:1011E000E52A1209B0D2008005052A021163A20087
:1011F00022AFFBAEFC7C007D0A1209C29000BFEE5C
:10120000F0A3EFF09000BF120EF99464EE9400503A
:101210000302129330933B8E0A8F0BC3EF950DF5AB
:1012200011EE950CF510900074E014601F047063CB
:1012300090007DE0FF64806007120E066401605339
:10124000AB11AA10AD0FAC0EE4FF803DAF11AE1094
:10125000803E9000BFE0FEA3E08E0CF50DC3950B21
:10126000F50FEE950AF50E900074E014601E047000
:101270002290007DE0FF64806005120E066014ABD2
:101280000FAA0EAD11AC107F010206C9AF0FAE0E52
:10129000120BD9228E2B8F2C8B2D8A2E892FC201D7
:1012A000E4F530900000E0FFE530C39F40030213F7
:1012B00033E52CAE2B7803CEC313CE13D8F9FDAC97
:1012C00006E52CAE2B7802CEC313CE13D8F92DF53C
:1012D00032EE3CF531E530120D98120EF99532EEF2
:1012E000953150028004AE31AF328E318F32E5300D
:1012F000120D98120EF99532FDEE9531FCC3ED9565
:101300002CEC952B5028E5322FFFE5313EFEC3E54E
:101310002C9FE52B9E5017E52F452E452D600BABDE
:101320002DAA2EA92FE5301209B0D2018005053073
:101330000212A3A20122C0E0C0F0C083C082C0D0CC
:1013400075D000C000C001C002C003C004C005C009
:1013500006C007E5985403F55EF45298E55E30E068
:1013600017121B929000BB121A5EEFF09000BBE0C8
:1013700004F0E0B41402E4F0E55E30E12E9000BE2B
:10138000E0D39400401A9000BAE0245FF8E6FF1220
:101390001B8F9000BAE004F09000BEE014F08002D1
:1013A000D2039000BAE0B42002E4F0D007D006D017
:1013B00005D004D003D002D001D000D0D0D082D04C
:1013C00083D0F0D0E03212005A787FE4F6D8FD7571
:1013D000817E021410020076E493A3F8E493A34004
:1013E00003F68001F208DFF48029E493A3F85407A0
:1013F000240CC8C333C4540F4420C8834004F4569B
:10140000800146F6DFE4800B0102040810204080D2
:101410009015E0E47E019360BCA3FF543F30E509E2
:10142000541FFEE493A360010ECF54C025E060A8D2
:1014300040B8E493A3FAE493A3F8E493A3C8C58265
:10144000C8CAC583CAF0A3C8C582C8CAC583CADFD3
:10145000E9DEE780BEC0E0C0F0C083C082C0D075C6
:10146000D000C000C001C002C003C004C005C00657
:10147000C007E5D85487F521F452D8E5F730E508E0
:10148000E5F730E603121B9953F7DFE52130E70853
:10149000E5D930E003121B98E52130E008E5DA30A9
:1014A000E0031211F1E52130E108E5DB30E0031241
:1014B0001B9AE52130E208E5DC30E003121B9BD0EB
:1014C00007D006D005D004D003D002D001D000D080
:1014D000D0D082D083D0F0D0E0328A468B478D8244
:1014E0008C83AD07AC06855153755480AB82AA83BB
:1014F000AF50121995E54ED39400401BE4F552E528
:1015000052C3954E5011AB4DAA4CAD4BAC4AAF50A7
:10151000121995055280E8E4F552E552C3954F50F3
:101520003474032553120DABE05554600AAB4DAA39
:101530004CAD4BAC4A8008AB49AA48AD47AC46AF6E
:1015400050121995E554C313F5547005055375549D
:1015500080055280C5C2909000807403F022AE07CF
:10156000E4F542121A42900000E004FF121A7212CF
:1015700015D9900000E0FFE542C39F5012121A52A5
:10158000121A6E121A52F583121A4C054280E39019
:101590000076E0FF121A72900076121A4C1215D9DA
:1015A000E4F542900073E02401FFE433FEC3E5421A
:1015B0009FEE6480F8748098501774032542121AC5
:1015C000690542E542541F70DA121B8C121B85809C
:1015D000D27F55121A72021B8C121B8C121B852291
:1015E0004200D900004200D500004200DB0000426A
:1015F00000D7000041007F00410080004100A28030
:101600004100740041007D8041007A0042000100E9
:101610000042008100004200780000410083004148
:1016200000750041007C004100730041007E0041D4
:10163000007B00410000004100BB004100BD0041B3
:1016400000B9004100BA004100BE004100B800C12D
:10165000034100BC004100A300008B428A4389443F
:10166000754A01E4F54BE54BC39548502B120E9398
:10167000C4540FFF640F60091216A870027F018F17
:101680004A120E93FF540F640F60091216A87002DD
:101690007F018F4A054B80CEAF491549EF70C1C21B
:1016A000909000807403F022AB42AA43A944EF5407
:1016B0000775F002A4F58285F083120A75FDACF07F
:1016C000AF4A121AA4E54A7F0022F583E493FF7E15
:1016D00000E54075F00DA4249FF582E4341BF583EA
:1016E000E493FC740193FD0209C2E54075F00DA47A
:1016F00022E0FF7E000209C29000A27480F0E49014
:101700000074F022900003E0FCA3E0FD22E49000CE
:10171000D3F0A3F022900080E024FD22901BA7E4E8
:1017200093FFD3940022C0E0C083C082C0D075D0A4
:1017300000C004C005C006C00753C87F9000D9E0B0
:10174000FEA3E0FF4E700353C8FB9000D51218DDD6
:1017500050099000D9E4F0A3F0800DC39000DAE0C6
:101760009DF09000D9E09CF0D007D006D005D004C1
:10177000D0D0D082D083D0E032C0E0C083C082C05D
:10178000D075D000C004C005C006C00753917F903B
:1017900000DBE0FEA3E0FF4E70035391FB9000D707
:1017A0001218DD50099000DBE4F0A3F0800DC39027
:1017B00000DCE09DF09000DBE09CF0D007D006D08C
:1017C00005D004D0D0D082D083D0E032AE05AD07B2
:1017D000E4FCFB7FAA121A72AF05121A72EE75F0C2
:1017E0000DA42475F582E4341CF583E493FFECC367
:1017F0009F500774082CFC0B80F4EB04FF121A4472
:10180000E4FCECC39B500974032C121A690C80F29F
:101810007F55121A72021B8CAB07AA06900076E065
:10182000FEA3E0FF120DF040050C7DF48004AC0631
:10183000AD07AE04AF05C3900077E09FFD90007642
:10184000E09EFCC3ED9BEC9A5013A3E02FFF9000A9
:1018500076E03EFEC3EB9FEA9E50028001C322AEBB
:1018600007E4FDF542121A42900001E0FF121A72DD
:10187000900001121A4C900078E0FF121A7290004A
:1018800078121A4C900081E0FF121A7290008112B7
:101890001A4C74032D121A690DBD03F67F55121AE6
:1018A00072021B8CAB07AA06E4F9F87F407E427DEA
:1018B0000FFC120AE9A804A905AA06AB077F207E3F
:1018C000D77D757C01120AE9C3E49FFFE49EFE22E6
:1018D000AB07AA06E4F9F87FE87E03FD22E0FCA34B
:1018E000E0FDC3EF9DEE9C228F288D298A2A8B2B49
:1018F000752E80E5282480701EE4F52F120EBBAFF4
:101900002F12102FEF6005852F2E8019052FE52F40
:10191000C3940840E7800E120EBBAF2812102FEFC1
:10192000600385282EAF2E228F4290007AE0F54387
:101930007F0B121B9543DA011200707D0A7C007F39
:10194000017E001219F2121B77E4900080F09000E3
:101950007FF09000A3E542F090007AF0AF43229030
:1019600000BBE0FF9000B9E0B507057E017F0022D3
:101970009000B9121A5EE0FD7C009000B9E004F01E
:10198000E0B41402E4F09000B8E0FEEE4204E4F0AB
:10199000AE04AF05228F558C568D578A588B59D27D
:1019A00090E555640124FF92807F0A7E0012002E8C
:1019B000121B77C290E55524FF9280AD59AC587F39
:1019C0000A7E0012002E021B778E288F298C2A8D0A
:1019D0002B1218D01218B1121AEC9000D9E52AF087
:1019E000A3E52BF09000D5E528F0A3E529F043C846
:1019F00004228E448F458C468D471218D01218B1A0
:101A0000121AF89000DBE546F0A3E547F09000D706
:101A1000E544F0A3E545F04391042212002A121B8D
:101A20005B121B62121B1C121B7D121A8E121B3AB8
:101A3000121B26121B30121B04121B69121B81027F
:101A40001B707FAA121A72AF06021A72A3E0FF027D
:101A50001A72E54225E02484F582E4340022E02471
:101A6000A4F582E43400F58322F582E43400F583A2
:101A7000E0FFC2039000BDE0B42002E4F09000BD9E
:101A8000E0245FF8A607E004F0A3E004F022AF88AA
:101A90005388AF758CA0758DCBEF5440FEEF54107A
:101AA0004E428822D290EF24FF92807F0A7E00125D
:101AB000002E021B77120E4A4006120EC850010972
:101AC000AF0122120E4A4006120EC8500109AF01A2
:101AD00022C3EF9414EE94054003D38001C322AED9
:101AE00007121A427F55121A72021B8CAD07AC0600
:101AF000ECF5CBAF058FCA22AD07AC06ECF593AF82
:101B0000058F9222C2DE75D90575F9FF75960122FF
:101B1000EE30E707C3E49FFFE49EFE2275E34075C5
:101B2000E10175E20122E59154045391FB429122B7
:101B3000758E5475892243885022E5C8540453C8D1
:101B4000FB42C822E5C8C320E201D322E591C320AD
:101B5000E201D32253C8FB53C87F2275A41175D468
:101B6000CF2275A54175D5772253F77F75DA3022DC
:101B700075E69075A8B022E59120E2FB22E4F5A974
:101B800022439810223003FD22C2DE22D299228FF6
:101B90009922AF99228F8C2222222222011F00013A
:101BA0005E01030301183C00000D040001720102F4
:101BB0000201283C080008170001860103030118F0
:101BC0003C00001F0A00012C01030301183C000027
:101BD000003B0701F403020102403C000007120031
:101BE000019001030301183C000017010001C2012C
:101BF000020201183C000124010000D2010202018E
:101C00000C3C0001011F00015E01030301183C00B0
:101C1000000D0400017201020201283C08000817AF
:101C200000018601030301183C00001F0A00012C7B
:101C300001030301183C0000003B0701F40302010B
:101C400002403C0000071200019001030301183C10
:101C5000000017010001C201020201183C0001242A
:101C6000010000D2010202010C3C0001011F000131
:101C70005E01030301183C00000D04000172010223
:101C80000201283C0800081700018601030301181F
:101C90003C00001F0A00012C01030301183C000056
:101CA000003B0701F403020102403C000007120060
:101CB000019001030301183C000017010001C2015B
:101CC000020201183C000124010000D201020201BD
:041CD0000C3C0001C7
:00000001FF
