:020000040000FA
:10000000021560ED24F8FEEFD39E4015ED2408FDA7
:10001000E433FCC3EF9DEC6480F874809850028058
:1000200001C3220214D07597A5222202196E7EFF09
:10003000EFD394004022EF9480501DE4FDED75F065
:1000400005A42442F582E4341FF583E493B5070444
:10005000AE0580040DBD06E5AF0622021703121E91
:100060007653D87853DBFE121E3AE4900085F022D6
:10007000D2DE220219C1D202121BF0C290C296D265
:1000800080E4FBFD7F10121E211206CE74A4F0D274
:10009000AFE4F539F53AD296053AE53A70020539FA
:1000A000B410F3E539B427EEC296120026300209E7
:1000B000121B2A8E3C8F3D8006753C01753D00E584
:1000C0003D7004E53C640170409000CCE07007F5A1
:1000D00039F53A02028D053AE53A70020539D394B2
:1000E00010E53994274002D296D3E53A9430E539A9
:1000F0009475500302028DE4F539F53A9000CCF086
:100100009000CBF0C29602028DE4F539F53A9000EA
:10011000CCE014602A14700302025F147003020220
:100120001D1470030202332404600302028DE53DB6
:1001300064AA600302028D9000CC04F002028DE5F7
:100140003D9000CBF0A37402F0E53D120C3902059E
:10015000A00173A10185A501A9A601BDA701C6A89B
:1001600001E2A901C9B001D2B1019AC0028DFF001C
:100170000002141206879000A87401F0E490007544
:10018000F07FA1806E12005E9000CC7404F0753B8D
:1001900008E4F53F753E0902028D9000CC7404F02E
:1001A000E4F53F753E0202028DE49000A8F0900055
:1001B00075F07FA612071174A6F002028D1206CE0A
:1001C00074A4F002028D753B089000CC7403F00219
:1001D000028D9000757401F07FB1120711EFF002EB
:1001E000028D1206879000A8E0F538E4F0900075C3
:1001F000F07FA9121AED90007CEFF07D307C751233
:10020000070002028D1206EE90007CEFF0E49000F1
:10021000CCF08079E49000CBF0A3F08070E4F53F5F
:10022000E53DF53EE53ED394009000CC402C7404AF
:10023000F0805A7404253FF582E43400F583E53DEF
:10024000F0053FE53FB53E059000CC800DE53FC38E
:1002500094704039753E709000CC7402F0802EE5A9
:100260003D645570289000CCF0C2029000CBE02491
:1002700060601824FC600F24FE600B14600824F6F4
:100280006004241070077FA0121DEED2029000CBF4
:10029000E0120C3902B6A102E0A402F2A503DAA62C
:1002A00003F6A805C0A905FDB00670B103A6C003FA
:1002B000C8FF000000AA900084E030E70F7DC87CF2
:1002C000001206B77FA3121A640205DA121E32402A
:1002D000030200AA7DE87C031206B77FA20205F59F
:1002E000900084E020E7030200AA7FA4121A6402AF
:1002F00003EE9000CCE060030200AA900085E024A9
:10030000FC6070240460030200AA153B900008E022
:10031000FEA3E0FF7C007D64120C5FC006C00712E4
:1003200016A9D007D006120BA78F49900006E0FE51
:10033000A3E0FF8E4AF54B7C007D64120C5FC00683
:10034000C0071216A9D007D006120BA78F4C754D07
:1003500018900008E0FAA3E0FB900004E0FCA3E0A2
:10036000FDA3E0FEA3E0FF12188C9000747406F069
:100370000204B97F0112002E1216CF60030200AAF8
:10038000E53B601A7F0112002EEF12167F1216C392
:1003900050030205B81206E2121E640205B81206E6
:1003A000EE7FA00205F59000CCE060030200AA9069
:1003B0000004E0FCA3E0FD120700D296121E64C206
:1003C000967FA0121DEE800A7F01121DEEE49000C0
:1003D000CCF0D2021206F70200AA900084E020E7D7
:1003E000030200AA547FF541FD7FA61215EFE490A9
:1003F0000084F00200AA9000CCE060030200AA9002
:100400000085E024FC7003020569240460030200F7
:10041000AA900004E0FF2480600804700DE4F51D3C
:100420008003751D017540FF800F12002E8F40E57F
:1004300040F460051216CFF51D153B12005EE51D58
:1004400014607C0460030200AA900004E0647F70E2
:1004500024A31216F0A3E0FAA3E0FBA3E0F549A35E
:10046000E0F54AA3E0F54BA3E0F54CA3E012070842
:10047000740CF0803BE540F4603112167DF5828EFD
:10048000831216E0740593FA740693FB740993F5CE
:1004900049740793F54A740893F54B740A93F54C25
:1004A000740B931207087401F08005E49000CBF000
:1004B0009000CBE070030200AA121D260200AA9051
:1004C0000004E06480704E900074740CF090000B97
:1004D000E0FF7E00900009E0FCA3E0FD120A47C0A7
:1004E00006C00790000C1216FCC007C00690000D55
:1004F0001216FCAA06AB0790000E1216FC8E4D8F4A
:100500004E8A4B8B4CD049D04A9000051216F09081
:10051000000FE08048E540F4700302062F12167DBC
:100520009000747401F08542828E83740612169ACC
:10053000C006C007740712169AC007C006740812D6
:10054000169AAA06AB07740912169A8E4D8F4E8A18
:100550004B8B4CD049D04A1216E0740A93F54FD019
:1005600003D0021219060200AAE53B70101206F72A
:100570007FA0121DEED202E4F51D0200AAE51D14B3
:10058000601B0460030200AAE540F4600E12167DB1
:100590001216C340061206E2121E64801BE540F4E8
:1005A000601612167D1216C3400EEFFD7C007F010F
:1005B0007E00121C43121E64E4900085F00200AA23
:1005C000900084E0FF30E71C547FF5417DC87C003B
:1005D00012069AAD417FAB1215EFE4900084F0D281
:1005E000020200AA121E3240030200AA7DE87C0328
:1005F00012069A7FAA121DEED2020200AA900004EF
:10060000E025E0F5419000CCE060030200AA9000F4
:1006100085E0700512005E800B900085E064046048
:10062000030200AAE5416007E53EC394045008E4D4
:100630009000CBF00200AA74062541F9E43400755D
:100640004601F5478948C3E53E954124FEF54990AA
:100650000005E0F54A7B017A0079061217887FA031
:10066000121DEE90007CE0FF121AEDD2020200AAE9
:10067000900084E020E7030200AA7FB112180AE488
:10068000900084F00200AA7D327C007F017E00127F
:100690001C43D296121E64C296227F017E00121C59
:1006A00043D296121E64C2969000A8E538F09000DE
:1006B0007CE0FF121AED227F017E00121C43D296CD
:1006C000121E64C29690007CE0FF121AED22900088
:1006D000A87401F0E4900075F07FA4121AED900068
:1006E0007C22EFFD7C007F017E00121C43229000E3
:1006F0007CE0FF121AED2290007CE0FF121AED223E
:100700007F017E00121C4322F54D12188C9000745C
:1007100022121AED90007C22AFE9AEEA120DB78EDC
:10072000088F092093030209A285080A85090BC3D3
:10073000E509950DF511E508950CF510900075E0AB
:1007400014700302099C0460030209C3900085E051
:100750001460650460030209C3900084E060030232
:1007600009C39000A8E0FFAB11AA10AD0FAC0E12A8
:1007700011898F1AE51A648070030209C390007F03
:10078000120E7D900002E510F0A3E511120DC2E4F7
:10079000900074F0900077F090007EF0F51BF51C4F
:1007A000FE7F70FD7B017A007904120C8CE49000CE
:1007B0007DF090008504F022E51A120D9A8E23F543
:1007C00024E51A120E0C70030208D004600302091B
:1007D000C3900004120CD9FFD39400400B90007E0C
:1007E000E09F5004E004F022120E25AE10AF11ABD2
:1007F00007AA06E50F2BFFE50E3AFEE433FDE433CE
:10080000FCC004A905AA06AB07AE0EAF0F120E85F9
:10081000D000120BA78F22120D81FD120003401988
:1008200090000A120D84FDAF22120003400B120C3F
:10083000D6120E766003020954120D81FDAF22120A
:1008400000035009120CD6C3120E564013D3E50F05
:10085000951CE50E951B402B120CD6120E767023BC
:10086000900086120E7D120CE2C083C082120E1D13
:100870007401A806088002C333D8FC4FD082D0830D
:10088000F0801790007A120E7DC290D3951CE50E71
:10089000951B4006850E1B850F1C900088E0700D8F
:1008A000120CE4120D79FF121D83120DBE120CD62C
:1008B000120E7660030209C3121E2A5005E490004E
:1008C00083F0120D7670030209941209D70209947D
:1008D000120CD6FF7E00900004120AE4FDACF01268
:1008E0000A47120DF38E258F26120E25E4850F156B
:1008F000850E14F513F512851119851018F517F5E5
:1009000016900006120D071209C4500F900007122E
:100910000D011209F55004C2908043900008120D99
:10092000011209C4502EAA23A9247BFF90000912AA
:100930000D071209F5501D120CE2C083C082120E81
:100940001D7401A806088002C333D8FC4FD082D0A2
:1009500083F0800AE4900084F0C290A3F02290001B
:1009600088E0700D120CE4120D79FF121D83120D38
:10097000BEAA23A9247BFF90000A120A08120E7651
:100980007041121E2A5005E4900083F0120D76602B
:10099000031209D7C290E4900085F022AF11AE1087
:1009A000801E85080C85090DC3E509950BF50FE53B
:1009B00008950AF50E900075E0147007AF0FAE0EA3
:1009C000120EB722E5159FFFE5149EFE121DE2C32D
:1009D000EF9526EE952522121E3A7D207C037F019D
:1009E0007E00121C1A90007DE0900083F0A3E51AAF
:1009F000F04480F022E5199FFFE5189EFE121DE2EB
:100A0000C3EF9526EE952522BB010CE58229F582E0
:100A1000E5833AF583E0225006E92582F8E622BB19
:100A2000FE06E92582F8E222E58229F582E5833A8D
:100A3000F583E49322BB010689828A83F022500267
:100A4000F722BBFE01F322EF8DF0A4A8F0CF8CF0CB
:100A5000A428CE8DF0A42EFE22BC000BBE0029EFF0
:100A60008DF084FFADF022E4CCF875F008EF2FFF95
:100A7000EE33FEEC33FCEE9DEC984005FCEE9DFE63
:100A80000FD5F0E9E4CEFD22EDF8F5F0EE8420D2AA
:100A90001CFEADF075F008EF2FFFED33FD40079819
:100AA0005006D5F0F222C398FD0FD5F0EA22C2D548
:100AB000EC30E709B2D5E4C39DFDE49CFCEE30E7E1
:100AC00015B2D5E4C39FFFE49EFE120A59C3E49D0C
:100AD000FDE49CFC8003120A5930D507C3E49FFF54
:100AE000E49EFE22BB0110E58229F582E5833AF5FA
:100AF00083E0F5F0A3E0225009E92582F886F008AA
:100B0000E622BBFE0AE92582F8E2F5F008E222E5DA
:100B1000832AF583E993F5F0A3E99322E88FF0A403
:100B2000CC8BF0A42CFCE98EF0A42CFC8AF0EDA474
:100B30002CFCEA8EF0A4CDA8F08BF0A42DCC3825A7
:100B4000F0FDE98FF0A42CCD35F0FCEB8EF0A4FE87
:100B5000A9F0EB8FF0A4CFC5F02ECD39FEE43CFC1C
:100B6000EAA42DCE35F0FDE43CFC2275F008758238
:100B700000EF2FFFEE33FECD33CDCC33CCC5823327
:100B8000C5829BED9AEC99E58298400CF582EE9B2C
:100B9000FEED9AFDEC99FC0FD5F0D6E4CEFBE4CD4A
:100BA000FAE4CCF9A88222B800C1B90059BA002DE4
:100BB000EC8BF084CFCECDFCE5F0CBF97818EF2F9D
:100BC000FFEE33FEED33FDEC33FCEB33FB10D703CC
:100BD000994004EB99FB0FD8E5E4F9FA227818EF75
:100BE0002FFFEE33FEED33FDEC33FCC933C910D7D4
:100BF000059BE99A4007EC9BFCE99AF90FD8E0E4E1
:100C0000C9FAE4CCFB2275F010EF2FFFEE33FEEDB6
:100C100033FDCC33CCC833C810D7079BEC9AE89986
:100C2000400AED9BFDEC9AFCE899F80FD5F0DAE468
:100C3000CDFBE4CCFAE4C8F922D083D082F8E49367
:100C40007012740193700DA3A393F8740193F5824D
:100C50008883E4737402936860EFA3A3A380DFEC3E
:100C60008EF0A4CCC5F0CCCDF8EFA4CEC5F02DFD10
:100C7000E43CFCE8A42EC8C5F03DFDE43CFCEFA438
:100C8000FFE5F028FEE43DFDE43CFC22EF4E60125F
:100C9000EF60010EEDBB010B89828A83F0A3DFFCBC
:100CA000DEFA2289F05007F709DFFCA9F022BBFE2B
:100CB000FCF309DFFCA9F022FCE52F25E0248AF5EE
:100CC00082E43400F58322FF900074E02404F5826E
:100CD000E43400F5832290000BAA23A9247BFF02B1
:100CE0000A08D290900077E024FFFFE434FFFE7CF6
:100CF000007D08120AAE74042FF58274003EF5835D
:100D000022AA23A9247BFF120A08FD7C009000047C
:100D1000120AE4FFAEF0120A47C322120BA7AB0778
:100D2000AA06E4F9F87F407E427D0FFC120BA7E48F
:100D30007BFFFAF9F8120B1CA804A905AA06AB0759
:100D40007F207ED77D757C01120BA7EFF40422AEC5
:100D50002AAF2B7C007D1F120A598E2E8F2F7C000C
:100D60007D05120A59C3E52F9FFDE52E9EFCD3E5B4
:100D7000299DE5289C22900083E0FF90007DE06F94
:100D800022900009AA23A9247BFF020A0853DBFE54
:100D900053DAFE53F7DF53F7BF2275F005A424445E
:100DA000F582E4341FF583E4740193FA740293AE80
:100DB00002227D64120A597C007D0A020A479000D3
:100DC0007DEFF09000887408F022C3E5379FFDE5C1
:100DD000369ED3FCE5339DE5329C22E0FCA3E0FD8A
:100DE000EC547FFAEDD39400EA94002275F0FFA44E
:100DF000FFAEF07C007D64020A59AA2EA92F7BFF6A
:100E0000900002120AE4F53785F0362275F005A449
:100E10002443F582E4341FF583E4931422E0FF9029
:100E20000088E0FE22900088E014F0900077E00453
:100E3000F022E52F2FFFE52E3EFEC3E5299FE52892
:100E40009E22AB46AA47A948854B82758300020AB9
:100E500008900081E0D3FF900077E09F2290007817
:100E6000E527F0A3E528F022852F82852E83E493E1
:100E7000FA740193FB22FF900077E06F22E50EF0F9
:100E8000A3E50FF0227C007D64020C5F540F75F027
:100E900002A4F58285F083227B007A007929AF28AD
:100EA000AE2722D3E52B9494E52A941122EC4480BA
:100EB000AF05F0A3EFF0228E278F28900085E01475
:100EC000604A147003020F942402600302106DC282
:100ED00090900084E0600302106DAF28AE27121DD1
:100EE000B0400302106DE4F529E529120CBBE4F0D3
:100EF000A3F00529E529B40FF0E4900001F0F529ED
:100F0000120E5D9000857401F0D29022900078E07E
:100F1000FCA3E0FDAE047802CEC313CE13D8F92DA6
:100F2000FFEC3EFED3E5289FE5279E4009120E5DAB
:100F3000E4900001F022AF28AE27121A14501F903F
:100F40000001E094004017E4900074F09000887471
:100F500004F0E490007DF09000857402F022C3E577
:100F6000289464E5279400500302105E120E981234
:100F70001397500302106D900001E0120CBB120E8B
:100F800060900001E004F0E0D3940F500302106D74
:100F9000E4021068B290120E981212EF50599000AD
:100FA00088E0B40410E529C454F0120CC7EFF0E453
:100FB000900088F022900074E0FF120CCCE0FEE577
:100FC00029540FFDEE4DF074042F120CCE120D7942
:100FD000FF121D83EFF0900074E004F0900088741D
:100FE00004F0900074E0D39470500302106D121E50
:100FF0003AE49000018071AF28AE27121A145061B4
:10100000121E2A5005E4900083F0120D76604D12F6
:101010001E3A7DF47C017F017E00121C1A90007D37
:10102000E0900083F0900088E07019120CC8C08333
:10103000C082E0FF900001E0540FFEEF4ED082D05E
:1010400083F0800E900001E0C454F0440F120CC7EE
:10105000EFF012106E900084E04480F0C290E480C3
:1010600008121E3AE4900001F0900085F022E4F5A9
:101070002BF52A900074E0FFE52AC39F50397404D1
:10108000252A120CCEE0C4540FFF120CBB120DDB4C
:101090004007EF120CBB120EAD7404252A120CCEC1
:1010A000E0540FFF120CBB120DDB4007EF120CBB1C
:1010B000120EAD052A80BCE4F52A900001E0FFE5A0
:1010C0002AC39F4003021180E52A120CBBE030E7DF
:1010D00003021172AF2A900001E0FEEFC39E4003AD
:1010E00002116EEF25E0248CF582E43400F583E0F4
:1010F000FCA3E0FDEF120CBBECF0A3EDF0E4FE90DE
:101100000074E02401FDE433FCEEC39DEC6480F840
:10111000748098505574042E120CCEE0F9C4540F0C
:10112000FDEF2401FBE433FAEDB50316E4B502123A
:10113000E9540FFDEFC454F04DFD74042E120CCE93
:10114000EDF0EF2401FDE433FC74042E120CCEE02C
:10115000F9540FB50511E4B5040DE954F04FFD74D1
:10116000042E120CCEEDF00E80950F0210D6052B3A
:101170008009E52A120CBBE0547FF0052A0210BA60
:10118000900001E0C3952BF0228F278C288D298AAF
:101190002A8B2B752C80E5277071E4F52D7F0112C9
:1011A000002EEF652D701B120EA34054E52B9450BA
:1011B000E52A9446504A120D4F4045120E325040D7
:1011C0008073E52D120D9A8E2EF52FE52D120E0C43
:1011D000601804702B120E68C002C003120DFAD002
:1011E00003D00212123B50188013120E68C002C0C6
:1011F00003120DFAD003D00212123B5003852D2C9E
:10120000052DE52DC394064094802DAF2712002EA6
:101210008F2D7F0112002EEF652D701C120EA34042
:1012200017E52B9450E52A9446500D120D4F4008B7
:10123000120E325003852D2CAF2C22AD2BAC2AAFD1
:1012400029AE28121247228E308F318C328D33C254
:10125000007C007D64AF03AE02120DB48F828E83DA
:10126000AE36AF37120DB2D3E58294F4E583940124
:1012700040050C7DF48004AC83AD828C838D82D3D9
:10128000EF94F4EE940140067C017DF48004AC06FA
:10129000AD07AE04AF05EB120DE54038EB9582FDCE
:1012A000EA9583FCD3E5319DE5309C403FEB2582F8
:1012B000FDEA3583FCC3E5319DE5309C502E120DCF
:1012C000CA4029E5372FFDE5363EC3120DD3501C29
:1012D000D2008018120DCA4013E5372FFFE5363EC5
:1012E000FEC3E5339FE5329E5002D200A200228E5B
:1012F000308F318B328A338934C201E4F535900066
:1013000001E0FFE535C39F4003021394E531AE30A1
:101310007803CEC313CE13D8F9FDAC06E531AE3059
:101320007802CEC313CE13D8F92DF537EE3CF5363F
:10133000E535120CBBE0FEA3E0FFC39537EE953612
:1013400050028004AE36AF378E368F37E535120C3B
:10135000BBE0FEA3E0FFC39537FDEE9536FCC3ED81
:101360009531EC95305028E5372FFFE5363EFEC32A
:10137000E5319FE5309E5017E53445334532600B2B
:10138000AB32AA33A934E535120A35D201800505FE
:10139000350212FEA201228E2A8F2B8B2C8A2D89D8
:1013A0002EC2001212EF5005D20002143BE4F52FBA
:1013B000900001E0FFE52FC39F400302143B120C95
:1013C000B9E0FCA3E0FDAE047803CEC313CE13D87E
:1013D000F9FBAA06EDAE047802CEC313CE13D8F9FA
:1013E0002BFDEE3A120CB8E0C4F854F0C868FEA326
:1013F000E0C4540F482DFFEC3EFEC3E52B9FFDE5F6
:101400002A9E120CB8E0FAA3E0FBD39DEA9C40268A
:10141000E52B2FFFE52A3EFEC3EB9FEA9E5017E522
:101420002E452D452C600BAB2CAA2DA92EE52F1295
:101430000A35D2008005052F0213B0A20022420017
:10144000C700004200C300004200C900004200C5BE
:1014500000004100CC004100CB00011D0041008490
:1014600000410085004100A8004100750041007C5A
:101470000041007656410089AB41000000410082E6
:101480000042007F0000420002000042008600008F
:1014900042007A000041008100410088004100774D
:1014A0000041007E00410074004100830041007D46
:1014B00000410001004100C0004100C1004100BEE8
:1014C000004100BF004100C2004100BD00C1030057
:1014D000C0E0C0F0C083C082C0D075D000C000C0E2
:1014E00001C002C003C004C005C006C007E598548F
:1014F00003F558F45298E55830E017121E7F90001B
:10150000C0121B88EFF09000C0E004F0E0B41402B9
:10151000E4F0E55830E12E9000C2E0D39400401A88
:101520009000BFE02459F8E6FF121E7C9000BFE057
:1015300004F09000C2E014F08002D2039000BFE0FB
:10154000B42002E4F0D007D006D005D004D003D0F8
:1015500002D001D000D0D0D082D083D0F0D0E03201
:10156000121E85787FE4F6D8FD7581780215AA02EF
:101570000076E493A3F8E493A34003F68001F20815
:10158000DFF48029E493A3F85407240CC8C333C4C0
:10159000540F4420C8834004F456800146F6DFE42B
:1015A000800B010204081020408090143EE47E016C
:1015B0009360BCA3FF543F30E509541FFEE493A39E
:1015C00060010ECF54C025E060A840B8E493A3FAB0
:1015D000E493A3F8E493A3C8C582C8CAC583CAF03C
:1015E000A3C8C582C8CAC583CADFE9DEE780BE8F4B
:1015F000438D44E4FEFDF545121B7524B0F582E4ED
:10160000341FF583740193FA7402938A46F5477F79
:10161000AA121CE6AF43121B7224AFF582E4341FFA
:10162000F583E49314600E047019AA46A9477BFF62
:1016300090000B8009AA46A9477BFF90000A120A76
:1016400008F545EEC39545500774082EFE0D80F34E
:10165000ED04FF121B7224AEF582E4341FF583E41F
:1016600093FF121CE6E4FEEEC39D500974042E1293
:101670001B600E80F27F55121CE6021E79E5407554
:10168000F005A424D8F582E4341EF583740193FA9E
:10169000740293AE028E41F5422293FF7E007404E1
:1016A00093FC740593FD020A47900006E0FEA3E058
:1016B000FF900009E02FFF900008E03EAB07FAE43E
:1016C000F9F822F5828E83740C93FFD3940022EFF5
:1016D00075F005A424D7F582E4341EF583E4932243
:1016E000E493FE740193FF740293FC740393FD2250
:1016F000E0FEA3E0FFA3E0FCA3E0FD22E0FF7E000C
:10170000020A47C0E0C0F0C083C082C0D075D000DC
:10171000C000C001C002C003C004C005C006C007AD
:10172000E5D85487F521F452D8E5F730E508E5F718
:1017300030E603121B9353F7DFE52130E708E5D9C4
:1017400030E003121E86E52130E008E5DA30E003E0
:10175000121C93E52130E108E5DB30E003120718A5
:10176000E52130E208E5DC30E003121E87D007D027
:1017700006D005D004D003D002D001D000D0D0D004
:1017800082D083D0F0D0E0328B438A448945120D59
:101790008D53E2FDE4F54BE54BC39549504FAB4308
:1017A000AA44A945C003C002C001120E42C4120ED1
:1017B0008CD001D002D003120AE4F54D85F04CD252
:1017C000801217FCAB43AA44A945C003C002C00164
:1017D000120E42120E8CD001D002D003120AE4F590
:1017E0004D85F04CC2801217FC054B80AAB290AF19
:1017F0004A154AEF709E43E202C29022FDAC4C7F34
:101800000A7E00121BC4121E6422AE07E4F54312C6
:101810001CDF900001E004FF121CE6121885900006
:1018200001E0FFE543C39F5012121B7C121B65129F
:101830001B7CF583121B6C054380E3900078E0FF6E
:10184000121CE6900078121B6C121885E4F5439088
:101850000074E02401FFE433FEC3E5439FEE64809F
:10186000F8748098501774042543121B600543E5F3
:1018700043541F70DA121E79121E7280D27F5512E5
:101880001CE6021E79121E79121E72228E438F44AC
:101890008C458D46AE02AF03120E85C007AF49AB33
:1018A00007E4FAF9F8D007120D1B900000F0AE4AD9
:1018B000AF4B120E85C007AF4CAB07E4FAF9F8D076
:1018C00007120D1B900082F0E549120DEC90007696
:1018D000EFF0E54C120DEC900089EFF090007FE501
:1018E00043F0A3E544F0900002E545F0A3E546F09F
:1018F000900081E54DF043DA0153F7DF43F74053A1
:10190000DBFE75F9FF228A478B48755180120D8DD9
:1019100053E2FD90007FEEF0A3EFF0900002ECF0B8
:10192000A3EDF0121C6CE4F550E550C3954F503216
:10193000120CC8E05551600AAD4EAC4DAF4CAE4BE9
:101940008008AD4AAC49AF48AE47121D02E551C30D
:1019500013F5517009900074E004F0755180055042
:1019600080C743E202C2909000857404F022C0E078
:10197000C083C082C0D075D000C004C005C006C0FE
:101980000753C87F9000C7E0FEA3E0FF4E700353EB
:10199000C8FB9000C3121AE250099000C7E4F0A3FC
:1019A000F0800DC39000C8E09DF09000C7E09CF06F
:1019B000D007D006D005D004D0D0D082D083D0E0DC
:1019C00032C0E0C083C082C0D075D000C004C00562
:1019D000C006C00753917F9000C9E0FEA3E0FF4E10
:1019E00070035391FB9000C5121AE250099000C990
:1019F000E4F0A3F0800DC39000CAE09DF09000C910
:101A0000E09CF0D007D006D005D004D0D0D082D052
:101A100083D0E032AB07AA06900078E0FEA3E0FF97
:101A20007C00120DB2D3EF94F4EE940140050C7DCE
:101A3000F48004AC06AD07AE04AF05C3900079E0B6
:101A40009FFD900078E09EFCC3ED9BEC9A5013A3A1
:101A5000E02FFF900078E03EFEC3EB9FEA9E50022D
:101A60008001C322AE07E4FDF543121CDF900002A3
:101A7000E0FF121CE6900002121B6C90007AE0FF5F
:101A8000121CE690007A121B6C900086E0FF121C7C
:101A9000E6900086121B6C74042D121B600DBD03B2
:101AA000F67F55121CE6021E79AB07AA06E4F9F888
:101AB0007F407E427D0FFC120BA7A804A905AA0651
:101AC000AB077F207ED77D757C01120BA7C3E49FF7
:101AD000FFE49EFE22AB07AA06E4F9F87FE87E0346
:101AE000FD22E0FCA3E0FDC3EF9DEE9C228F43901E
:101AF000007CE0F5447F0B121E8243DB01120D9047
:101B00001200707D0A7C007F017E00121C43121EB1
:101B10006443E202E4900085F0900084F09000CBF2
:101B2000E543F090007CF0AF44229000C0E0FF90CD
:101B300000BEE0B507057E017F00229000BE121BAB
:101B400088E0FD7C009000BEE004F0E0B41402E404
:101B5000F09000BDE0FEEE4204E4F0AE04AF0522DA
:101B6000F582E43400F583E0FF021CE6A3E0FF0207
:101B70001CE6121CE6E54475F005A422E54325E0C9
:101B8000248AF582E4340022E024A9F582E43400BA
:101B9000F58322120E514003021D65120CC8120E6D
:101BA0001DEFA806088002C313D8FC30E00B90009C
:101BB00000E0FF121E82D29022900082E0FF121EEF
:101BC00082C290228E548F558C568D57121AA912AC
:101BD0001DCAE55724BF9000CAF0E55634FF9000B7
:101BE000C9F09000C5E554F0A3E555F043910422F7
:101BF00012002A121E41121E48121DF9121E6A12EC
:101C00001D9A121E17121E03121E0D121DD6121E31
:101C10004F121E56121E6E021E5D8E2A8F2B8C2CAA
:101C20008D2D121AD5121AB6121DBE9000C7E52CC2
:101C3000F0A3E52DF09000C3E52AF0A3E52BF043D7
:101C4000C804228E458F468C478D48121AD5121A29
:101C5000B6121DCA9000C9E547F0A3E548F0900010
:101C6000C5E545F0A3E546F043910422D290D28029
:101C700090007F121C86121E64C290C280900002E7
:101C8000121C86021E64E0FCA3E0FD7F0A7E0012A7
:101C90001BC422900088E07008900074E004120DCC
:101CA000C2120E2B900088E014F0120E5150030265
:101CB0001CB853E2FDC28022120CC8120E1DEFA800
:101CC00006088002C313D8FC30E00590007680033C
:101CD000900089E07D00FCE4FF121D4722AE077FE3
:101CE000AA121CE6AF06C2039000C1E0B42002E4D1
:101CF000F09000C1E02459F8A607E004F0A3E00446
:101D0000F0228C528D53D280AD07AC067F0A7E0044
:101D1000121BC4121E64C280AD53AC527F0A7E00F7
:101D2000121BC4021E64120DC3E014F090007774FD
:101D300001F09000857403F0121CB853E2FD121CF0
:101D40006C43E202020070AB07AF04EB14600C14AA
:101D5000600E2402700E8DFB8FFC228DE98FEA222B
:101D60008DEB8FEC22E4FDFCFF121D47120D90124B
:101D70001E7653D87853E2FDC280C29090008574DD
:101D800004F0227E1DE4FDEF30E70625E06EFF80C3
:101D900004EF25E0FF0DBD08EE22AF885388AF7534
:101DA0008CA0758DCBEF5440FEEF54104E4288222C
:101DB000C3EF94ACEE940D4003D38001C322AD0772
:101DC000AC06ECF5CBAF058FCA22AD07AC06ECF53F
:101DD00093AF058F9222C2DE75D90575F9FF75960E
:101DE0000122EE30E707C3E49FFFE49EFE22121CAF
:101DF000DD7F55121CE6021E7975E34075E1017521
:101E0000E20222E59154045391FB429122758E54D3
:101E100075892243885022E5C8540453C8FB42C840
:101E20002253984FEB4F4DF59822E5C8C320E201AD
:101E3000D322E591C320E201D32253C8FB53C87FCC
:101E40002275A41175D4CE2275A54175D57722537C
:101E5000F77F75DA4A2253F77F75DB302275E690FB
:101E600075A8B022E59120E2FB22E4F5A92243986F
:101E700010223003FD22C2DE22D299228F9922AF96
:101E800099228F8C2222222201903070000640017C
:101E9000904B19180012C005DC0002BC012C461E34
:101EA00028080BB8232800044C01904B1918002572
:101EB0001C0BB80003840140461E1800000072D8B5
:101EC0000702BC012C264040000BB81C52019001B7
:101ED0000303011846000100FF1E880200FF1E9543
:101EE0000300FF1EA20400FF1EAF0500FF1EBC067C
:101EF00001FF1EC90190307000064001904B191877
:101F00000012C005DC0002BC012C461E28080BB8DC
:101F1000232800044C01904B191800251C0BB80015
:101F200003840140461E1800000072D80702BC015D
:101F30002C264040000BB81C5201900103030118ED
:101F400046000100FF1EF40200FF1F010300FF1FF7
:101F50000E0400FF1F1B0500FF1F280601FF1F3591
:101F60000190307000064001904B19180012C00516
:101F7000DC0002BC012C461E28080BB823280004F4
:101F80004C01904B191800251C0BB800038401402C
:101F9000461E1800000072D80702BC012C264040E3
:101FA000000BB81C52019001030301184600010008
:101FB000FF1F600200FF1F6D0300FF1F7A0400FF78
:0C1FC0001F870500FF1F940601FF1FA1F2
:00000001FF
