:020000040000FA
:10000000021168A2029290A2029280AD40AC3F7FA2
:100010000A7E0012002E12001DA202B322E59120DA
:10002000E2FB220210D87597A5222202143D8E41D0
:100030008F428C438D441216551218B2E54424BFEA
:100040009000E8F0E54334FF9000E7F09000E3E52E
:1000500041F0A3E542F043910422220211F7121964
:100060004653D87853DAFE121917E4900087F0222D
:10007000D2DE220214901217E4C290C296C280E42B
:10008000FBFD7F101218FE12053174A4F0D2AF12DE
:10009000172ED2969000ECE004F070069000EBE092
:1000A00004F09000EBE0B427E9A3E0B410E4C296BA
:1000B0001200263003091216D58E228F2380067572
:1000C0002201752300E5237004E522640170469047
:1000D00000DEE0700612172F0202959000EBE47527
:1000E000F001120807FED3E5F09410EE94274002C9
:1000F000D296D39000ECE094309000EBE0947550F1
:1001000003020295E4F0A3F09000DEF0900099F075
:10011000C29602029512172E9000DEE014602A1497
:1001200070030202591470030202171470030202D2
:100130003024046003020295E52364AA60030202EE
:10014000959000DE04F0020295E523900099F0906E
:1001500000DE7402F0E52312092F0201A0017FA145
:10016000018BA501A9A601BDA701C6A801DDA901B2
:10017000CCB001D5B1019DC00295FF0000020C1268
:10018000051EE490008AF07FA1806512054E900064
:10019000EA7408F0E4F52575240902029512054E6B
:1001A000E4F52575240202029590008A7401F07F1F
:1001B000A61215CA90007974A6F0020295120531B4
:1001C00074A4F00202959000EA7408F09000DE74C6
:1001D00003F00202957FB112056202029512051E1C
:1001E00090008AE09000E9F090008A7401F07FA905
:1001F0001205627D307C757F017E001217BB020202
:100200009512056B900079EFF0E48005E490009979
:10021000F09000DEF0807EE4F525E523F524E5246A
:10022000D39400402C12005E9000DE7404F08065D0
:1002300074032525F582E43400F583E523F00525D4
:10024000E525B52402800AE525C39470404775244E
:10025000709000DE7402F0803CE5236455703690A7
:1002600000DEF0C203900099E02460601B24FC6073
:100270001224FE600E14600B24F760101460042436
:100280001070127FA0121899D2038009900004E028
:10029000049000EAF0900099E012092F02BEA10339
:1002A00033A40377A50333A60447A802BEA9047CA0
:1002B000B004E5B1041EC00442FF000000B090008D
:1002C00086E030E73F7DC87C0012053F900099E052
:1002D0002457600E2408701F12056B7FA31216109E
:1002E00080159000E9E090008AF0900079E0FF121C
:1002F00015CA7FAB12057CE4900086F043DA01D288
:10030000030200B012190F50207DE87C0312053F54
:10031000900099E02457600C240860030200B07F2D
:10032000A20204D77FAA0204D71205744003020078
:10033000B0802E900086E030E71F900099E0245AAC
:10034000600F240260030204F17FA412161002045D
:10035000F17FA612057C0204F1120574400302002D
:10036000B012170BC006C00712171A9200D007D0A0
:10037000061209810200B09000DEE060030200B0C6
:100380001217367003020411240560030200B01234
:100390000558900005E0FFA3E090008BCFF0A3EF9D
:1003A000F0900007E0FFA3E090008DCFF0A3EFF006
:1003B000900003E0FFA3E090008FCFF0A3EFF07B6D
:1003C000017A00798B901A56E493FC740193FD90A6
:1003D0001A58E493F52E1217268E2FF530901A5BDB
:1003E000E493F5311217268E32F533901A5EE493BA
:1003F000F5341217268E35F536901A61E493F537E9
:10040000A3E493F538753900753A09120EB8020065
:10041000B09000EAE07063C2807FA00204D7900031
:10042000DEE060030200B0900003E0FCA3E0FD7F8B
:10043000017E001217BBD29612001DC2967FA00249
:1004400004D77F030204D79000DEE060030200B00F
:100450001217366019240560030200B01205589087
:100460000003E0FF7C007D041210440200B0900005
:10047000EAE07006C2807FA0805D80619000DEE0CF
:1004800060030200B01217366043240560030200C7
:10049000B09000EAE014F012005E7E007F05C00616
:1004A000C007900003E0FB25E0FFE433FE74052F56
:1004B000F58274003EAD82FCEB25E0FFE52424FECE
:1004C000C39FFBD007D006120FA30200B09000EA32
:1004D000E0700AC2807FA012188C0200B0E4900085
:1004E00087F00200B0900086E030E7107FB1121272
:1004F0007CE4900086F043DA010200B07E007FEDDC
:1005000012157F40030200B012170BC006C007127D
:10051000171A9200D007D006120D120200B07D32D9
:100520007C007F017E001217BBD29612001DC2967E
:1005300022E490008AF07FA41215CA900079227FED
:10054000017E001217BBD29612001DC29622120025
:100550005E9000DE7404F0229000EAE014F01200D5
:100560005E221215CA900079EFF022900079E0FF28
:100570001215CA227E007FED12157F22900086E0C0
:10058000547FFD121532228F29E4F536EF25E02540
:10059000E02468F8E6701EEF25E025E02469F8768F
:1005A000087E007F707D007B017A00790312095577
:1005B000E490007AF0AB2CAA2DA92EC001120B7684
:1005C0002466F9E7540F120CB5120B95D0011214E2
:1005D000E3503D120B762466F9E7540FFF120CB579
:1005E000120C6E300101B34031EF700A900077E5D4
:1005F0002AF0A3E52BF0120B76120CC12401FFEFB9
:10060000FEEC54F04EFEEDFF120B76120C78800AD1
:10061000120B762466F874F056F6AB2CAA2DA92E90
:10062000C001120B76120CCD120BE2120CD9120B78
:1006300095D0011214E35052120B76120CCD120B0E
:10064000E2FF120CD95408FE120C70300101B340C5
:1006500043EF700A900088E52AF0A3E52BF0120B17
:1006600076120BD32401FFE433FEEFC4F8540FC815
:1006700068FFEEC454F048FEED540FFDEC4EFEED65
:100680004FFF120B76120C78800A120B762467F853
:10069000740F56F6120B76120CC1FB700F120BDBA7
:1006A000700A120B5C2469F8E4F6C322120B76245C
:1006B00068F8E53514667003753601C3E531953683
:1006C0006B7020D290120B762466F874F056F67494
:1006D0000F0856120B752468F806120B762469F879
:1006E00016804C120B76120BD3FFC3E53495366F90
:1006F000703DD290120B762466F8EC54F0FEED5467
:100700000FA60608120B752468F806120B762469EA
:10071000F816120B76120BE9E0FF120B762469F83B
:10072000E6FE7401A806088002C333D8FC4FF0121D
:100730000B762469F8E67017120B76120BE9120C8F
:1007400066FF121851EFF0120B762469F876081242
:100750000B762468F8E6C395354031121907500529
:10076000E4900085F0120C6360181219177D207C4C
:10077000037F017E00121792120CE5A3E529F044D5
:1007800080F0120B5C2469F8E4F6D322C322BB018B
:100790000689828A83F0225002F722BBFE01F322EF
:1007A000EF8DF0A4A8F0CF8CF0A428CE8DF0A42E6D
:1007B000FE22BC000BBE0029EF8DF084FFADF022BD
:1007C000E4CCF875F008EF2FFFEE33FEEC33FCEECF
:1007D0009DEC984005FCEE9DFE0FD5F0E9E4CEFDC2
:1007E00022EDF8F5F0EE8420D21CFEADF075F00895
:1007F000EF2FFFED33FD4007985006D5F0F222C3EE
:1008000098FD0FD5F0EA22C5F0F8A3E028F0C5F076
:10081000F8E582158270021583E038F022BB0110E2
:10082000E58229F582E5833AF583E0F5F0A3E0223D
:100830005009E92582F886F008E622BBFE0AE92580
:1008400082F8E2F5F008E222E5832AF583E993F5E0
:10085000F0A3E9932275F008758200EF2FFFEE33C5
:10086000FECD33CDCC33CCC58233C5829BED9AEC23
:1008700099E58298400CF582EE9BFEED9AFDEC998D
:10088000FC0FD5F0D6E4CEFBE4CDFAE4CCF9A88297
:1008900022B800C1B90059BA002DEC8BF084CFCE3C
:1008A000CDFCE5F0CBF97818EF2FFFEE33FEED33FA
:1008B000FDEC33FCEB33FB10D703994004EB99FBC1
:1008C0000FD8E5E4F9FA227818EF2FFFEE33FEEDAA
:1008D00033FDEC33FCC933C910D7059BE99A4007B7
:1008E000EC9BFCE99AF90FD8E0E4C9FAE4CCFB22CE
:1008F00075F010EF2FFFEE33FEED33FDCC33CCC897
:1009000033C810D7079BEC9AE899400AED9BFDECA1
:100910009AFCE899F80FD5F0DAE4CDFBE4CCFAE4E0
:10092000C8F922A42582F582E5F03583F58322D02B
:1009300083D082F8E4937012740193700DA3A39393
:10094000F8740193F5828883E4737402936860EF0E
:10095000A3A3A380DFEF4E6012EF60010EEDBB0199
:100960000B89828A83F0A3DFFCDEFA2289F050072C
:10097000F709DFFCA9F022BBFEFCF309DFFCA9F0BC
:10098000228E268F27E4F528C3E5279464E5269474
:10099000005017E4F528E528120BA12469F8E4F6C5
:1009A0000528E528B412EFC2902290008AE0147066
:1009B00003020A6F046003020B5B7866E6C4540FFF
:1009C000F97065D3E5279494E52694115003020B42
:1009D0005B300003020B5BE9120C45E6540FFC0888
:1009E000E6FDEC4E18F6ED08F618120C3CEC540F30
:1009F0004E18F6ED08F6900001E526F0A3E527F085
:100A0000AE26FF7C007D1F1207B290008BEEF0A394
:100A1000EFF07C007D031207A0A3EEF0A3EFF0A39C
:100A2000E526F0A3E527F0227866E6C4540F6402B9
:100A30006003020B5B120CFD752C01752D00752EE9
:100A40008B901C7393FE7401938E2FF530901C7560
:100A5000E493F531A3120BCC8E32F533901C78E47D
:100A600093F534901C7CE493F535E4FF020587E4AC
:100A7000F528120BB7120D08FF120C4E120C81F95B
:100A8000EFC399506DE528120C0AF5828C832FF57F
:100A900082E43583F583E493FF120C6E300001B3DA
:100AA0005003020B4F120C4E246DF582E5F0341CFE
:100AB000120C16F5828C83EF540775F0021209238D
:100AC000120C18FDAF27AE261214EDE5285019259B
:100AD000E025E02466F8120C3CEC540F4EFEEDFFCE
:100AE000120BB7120C788067120BA12469F8E4F698
:100AF000805D120BB7120D08697054120CFDE528C9
:100B0000120BBEAA06752CFF8A2DF52E120C4E2450
:100B100073F582E5F0341C120BCA8E2FF530120CDF
:100B20004E120C8EF531120C4E2476F582E5F0341F
:100B30001C120BCA8E32F533120C4E120C9BF5347C
:100B4000120C4E120CA8F535AF28120587400C0583
:100B500028E528C394125003020A7222C290E529A4
:100B600025E025E02466F8E4F608F6E52925E025E9
:100B7000E02468F8E4F6E52925E025E022F583E4A1
:100B800093FF5408FE131313541F24FF9202AB2942
:100B9000AA2AA92BEF540775F002A4F58285F083E9
:100BA0002225E025E02466F8E4F608F6E52825E0AD
:100BB00025E02468F8E4F6E52825E025E02275F034
:100BC00010A4246DF582E5F0341CF583E493FE74E3
:100BD0000193222466F8E6FC08E6FDECC4F854F024
:100BE000C8EDC4540F48540F222468F8E6141313B8
:100BF00013541F2403F582E43400F58322E52925EC
:100C00002BF582E43528F583E02275F010A42470DA
:100C1000F582E5F0341CF583E493FC74019322A281
:100C200000E433C433333354804526FFE527900076
:100C300074CFF0A3EFF0E490007BF022E6FC08E62E
:100C4000FDECC4540F2401FFEFC454F0FE2275F0F4
:100C500010E528A422E52E25E0248BF582E434005B
:100C6000F58322900085E0FF90007AE06F2254081F
:100C7000131313541F24FF222466F8A60608A607A0
:100C8000222472F582E5F0341CF583E49322247566
:100C9000F582E5F0341CF583E493222478F582E5AF
:100CA000F0341CF583E49322247CF582E5F0341CB7
:100CB000F583E493222530F582E4352FF583E49320
:100CC000222466F8E6FC08E6FDEC540F222466F9BF
:100CD000E7C4F854F0C809E7222533F582E4353239
:100CE000F583E4932290007AE0900085F053DAFED9
:100CF0002225E0247DF582E43400F58322A20092CF
:100D00000185262A85272B222466F8E6FEEEC454A8
:100D10000F228E268F27C3E5279464E52694005082
:100D200003020EA6900087E024FE602514700302E3
:100D30000DB324036003020EABC290AF27AE2612A0
:100D4000187E4003020EAB120C1F9000877402F055
:100D500022120EAC503090007BE094044021D290DF
:100D6000E4900000F0900073F0C20490007CF090DA
:100D7000007AF0900003F09000877403F08025E47F
:100D8000900087F0801E900074E0547FFEA3E0FF87
:100D9000D3E5279FE5269E4005120C1F8006900094
:100DA0007BE004F090007BE0C394E05003020EABC4
:100DB000020EA690007CE004F090007BE0FFA3E030
:100DC000D39F4003020E547B007A007928AF27AEF0
:100DD0002612136F4022900000E0FF120C57E52608
:100DE000F0A3E527F08F28900000E004F0E0D39412
:100DF000074005E4900087F030041DA200E433C4EE
:100E00003333335480FFE528C454F04FFF90007310
:100E1000E0120BF3EFF08039900073E0FF120BF358
:100E2000E0FEA200E43333333354F84528FDEE4DA1
:100E3000F074032F120BF5120C66FF121851EFF02D
:100E4000900073E004F0E0D394704005E4900087D4
:100E5000F0B20422120EAC504D1219075005E49066
:100E60000085F0120C63603A1219177D207C037F15
:100E7000017E00121792120CE5900003E0FD900035
:100E800074E05480FF900000E0C454F04FFFED4F39
:100E9000900003F0900074E0547FF0900086E044EE
:100EA00080F0C2908000E4900087F022A2009201BE
:100EB000AF27AE26121768228B298A2A892B8C2C01
:100EC0008D2DE4F53D753E80F53BE53BC3952E50F9
:100ED00010E52D253BF582E4352C120F68053B808B
:100EE000E9E4F53BE53BC395385057E53A253DF538
:100EF00082E43539F583E0553E7019F53CE53CC395
:100F00009531502DE530253CF582E4352F120F68E0
:100F1000053C80E9E4F53CE53CC395345013E533EA
:100F2000253CF582E43532120B7D120F97053C808B
:100F3000E6E53EC313F53E7005053D753E80053B75
:100F400080A2E4F53BE53BC395375013E536253BDE
:100F5000F582E43535120B7D120F97053B80E6C212
:100F6000909000877405F022F583E493FF5408FE07
:100F7000131313541F24FF9202AB29AA2AA92BEFA3
:100F8000540775F002A4F58285F08312081DF54020
:100F900085F03F1200032212081DF54085F03F1234
:100FA0000003228E268F278C288D298B2AD200C2FF
:100FB00001852982852883E05488D394004003D397
:100FC0008001C39201E4F52BE52BC3952A505930DB
:100FD000010D120BFDC4131313540124FF8002A250
:100FE000009202852782852683C083C082120BFD72
:100FF000FFC45407D082D08312103130010C120B81
:10100000FDFF131313541F138002A20092028527C1
:1010100082852683C083C082120BFD5407D082D004
:1010200083121031052B80A0C2909000877405F0C8
:101030002275F002120923E0F53FA3E0F54012000B
:10104000039200228F268C278D28EF120BBEAA0652
:10105000F97BFFEF120C0AFD75F010EFA4120C8162
:10106000F52E75F010EFA42473F582E5F0341C1210
:101070000BCA8E2FF53075F010EFA4120C8EF531DF
:1010800075F010EFA42476F582E5F0341C120BCA3B
:101090008E32F53375F010EFA4120C9BF53475F019
:1010A00010EFA42479F582E5F0341C120BCA8E35BA
:1010B000F53675F010EFA4247BF582E5F0341CF5CD
:1010C00083E493F53775F010EFA4120CA8F538857A
:1010D000273985283A020EB8C0E0C0F0C083C0822C
:1010E000C0D075D000C000C001C002C003C004C0A1
:1010F00005C006C007E5985403F545F45298E54548
:1011000030E01712194F9000DD12175DEFF09000DC
:10111000DDE004F0E0B44002E4F0E54530E12E907B
:1011200000E0E0D39400401A9000DCE02446F8E6AA
:10113000FF12194C9000DCE004F09000E0E014F0A5
:101140008002D2059000DCE0B42002E4F0D007D0A9
:1011500006D005D004D003D002D001D000D0D0D02A
:1011600082D083D0F0D0E03212005A787FE4F6D8F3
:10117000FD7581AD0211B2020076E493A3F8E49309
:10118000A34003F68001F208DFF48029E493A3F87A
:101190005407240CC8C333C4540F4420C8834004EC
:1011A000F456800146F6DFE4800B010204081020AB
:1011B00040809012F6E47E019360BCA3FF543F3060
:1011C000E509541FFEE493A360010ECF54C025E04F
:1011D00060A840B8E493A3FAE493A3F8E493A3C807
:1011E000C582C8CAC583CAF0A3C8C582C8CAC58398
:1011F000CADFE9DEE780BEC0E0C0F0C083C082C0C5
:10120000D075D000C000C001C002C003C004C0053A
:10121000C006C007E5D85487F521F452D8E5F73069
:10122000E508E5F730E60312195653F7DFE52130FC
:10123000E708E5D930E003121955E52130E008E56B
:10124000DA30E003121699E52130E108E5DB30E001
:1012500003121957E52130E208E5DC30E0031219EA
:1012600058D007D006D005D004D003D002D001D08A
:1012700000D0D0D082D083D0F0D0E032AE07E4F5F9
:101280002612182E900000E004FF1218351212EFFB
:10129000900000E0FFE526C39F501412174FE05462
:1012A0007FFF12183512174F121749052680E1905B
:1012B0000074E0547FFF1218359000741217491221
:1012C00012EFE4F526900073E0FFE526C39F501768
:1012D0007403252612173D0526E526541F70E612D5
:1012E000194912194280DE7F551218350219491228
:1012F0001949121942224200E500004200E10000B3
:101300004200E700004200E30000C1834100860084
:101310004100870041008A0041007900420001003D
:101320000042008800004200770000C104410073C1
:10133000004100850041007A004100000048007D26
:101340000000000000000000410076004100DD00C8
:101350004100DF004100DB004100DC004100E00013
:101360004100DA00C1054100DE0041009900008E15
:10137000298F2A8B2B8A2C892DE4F52E900000E0F2
:10138000FFE52EC39F505EE52AAE297803CEC31336
:10139000CE13D8F9FDAC06E52AAE297802CEC313E8
:1013A000CE13D8F92DFFEE3CAB07FA120C55E0FE38
:1013B000A3E0FFC39BEE9A50028004AE02AF03AAE3
:1013C00006AB07120C55E0FCA3E0FDAF2AAE2912D4
:1013D000180B500DAB2BAA2CA92DE52E12078ED37E
:1013E00022052E8097C322900076E0FDC4540F247E
:1013F00001FBE433FAED540FF96B7001EA603DE94B
:101400007010E0C4540F2401FDE433FCED64044C7F
:10141000602A900076E0C4540FFD540F120CF1EED8
:10142000F0A3EFF0ED04C454F049900076F0E0FF33
:10143000C4540FC394044004EF540FF022C0E0C022
:1014400083C082C0D075D000C004C005C006C007EC
:1014500053C87F9000E5E0FEA3E0FF4E700353C841
:10146000FB9000E112168E50099000E5E4F0A3F025
:10147000800DC39000E6E09DF09000E5E09CF0D088
:1014800007D006D005D004D0D0D082D083D0E032AF
:10149000C0E0C083C082C0D075D000C004C005C009
:1014A00006C00753917F9000E7E0FEA3E0FF4E7077
:1014B000035391FB9000E312168E50099000E7E46D
:1014C000F0A3F0800DC39000E8E09DF09000E7E00D
:1014D0009CF0D007D006D005D004D0D0D082D083E5
:1014E000D0E03212081DFDACF0AF2BAE2A8F828EF9
:1014F00083AF05AE041218CAAB07AA06D3EB94F467
:10150000EA940140067E017FF48004AE02AF03AA94
:1015100006AB07C3EB9464EA940050067E007F6438
:101520008004AE02AF03AA06AB07AF82AE831218E7
:101530000B22AE05AD07E4FCFB7FAA121835AF0500
:1015400012183575F010EEA42496F582E5F0341EDD
:10155000F583E493FFECC39F500774082CFC0B80C9
:10156000F4EB04FF121830E4FCECC39B5009740345
:101570002C12173D0C80F27F55121835021949AD17
:1015800007AC06ABDA900076E0FEC4540FFFEE54D1
:101590000FFEB50702C32253DAFE900076E0FAEEA2
:1015A000120CF1E0FFA3E08D828C83CFF0A3EFF06B
:1015B000EA54F0FF900076E0044FF0540FC3940417
:1015C0004004E054F0F08BDAD3228F26900079E0CB
:1015D000F5277E007F487D007B007A00796612093E
:1015E000557F0B12195243DA011200707D0A7C00FC
:1015F0007F017E001217BB12001DE4900087F0905F
:101600000086F0900099E526F0900079F0AF27224F
:10161000AE07E4FDF52612182E900001E0FF121827
:1016200035900001121749900077E0FF12183590AD
:101630000077121749900088E0FF12183590008853
:1016400012174974032D12173D0DBD03F67F551275
:101650001835021949AB07AA06E4F9F87F407E4223
:101660007D0FFC120891A804A905AA06AB077F20EC
:101670007ED77D757C01120891C3E49FFFE49EFE36
:1016800022AB07AA06E4F9F87FE87E03FD22E0FC1E
:10169000A3E0FDC3EF9DEE9C22AFFBAEFC7C007D82
:1016A0000A1207A0AD07AC06AFD953D9BFE4F5FACB
:1016B000F5F98FD9C3EC948050157F002093027FF9
:1016C00001EFC433333354804CFEEDFF0213E7E4E3
:1016D000900076F0229000DDE0FF9000DBE0B5079F
:1016E000057E017F00229000DB12175DE0FD7C008B
:1016F0009000DBE004F0E0B44002E4F09000DAE0B7
:10170000FEEE4204E4F0AE04AF05229000EDE0FCF2
:10171000A3E0FDEC547FFEAF0522EC5480C413130C
:1017200013540124FF22A3E493FE74019322E49056
:1017300000EBF0A3F022900087E024FB22F582E486
:101740003400F583E0FF021835A3E0FF021835E509
:101750002625E0248BF582E43400F58322E0249AE8
:10176000F582E43400F58322AD07AC06900074E006
:10177000FAA3E0FBEA5480C413131354017005303C
:101780000102C322AF05AE04EA547FFCAD0312147C
:10179000ED228E378F388C398D3A121681121662EF
:1017A0001218A69000E5E539F0A3E53AF09000E1C3
:1017B000E537F0A3E538F043C804228E288F298C42
:1017C0002A8D2B1216811216621218B29000E7E5CC
:1017D0002AF0A3E52BF09000E3E528F0A3E529F03B
:1017E0004391042212002A12191E1219251218D62A
:1017F00012193A1218681218F41218E01218EA12A4
:1018000018BE12192C12193E021933C3ED9BF58232
:10181000EC9AF583C3E5829FE5839E500FED2BFD87
:10182000EC3AFCC3EF9DEE9C50028001C3227FAADC
:10183000121835AF06C2059000DFE0B42002E4F0D4
:101840009000DFE02446F8A607E004F0A3E004F0EF
:10185000227E1DE4FDEF30E70625E06EFF8004EFF9
:1018600025E0FF0DBD08EE22AF885388AF758CA030
:10187000758DCBEF5440FEEF54104E428822C3EFDB
:10188000942CEE94014003D38001C322121899D204
:1018900003900079E0FF0215CAAE0712182E7F559B
:1018A000121835021949AD07AC06ECF5CBAF058F20
:1018B000CA22AD07AC06ECF593AF058F9222C2DECB
:1018C00075D90575F9FF75960122EF7802CEC3131D
:1018D000CE13D8F9FF2275E34075E10175E20122CC
:1018E000E59154045391FB429122758E54758922DF
:1018F00043885022E5C8540453C8FB42C822539879
:101900004FEB4F4DF59822E5C8C320E201D322E505
:1019100091C320E201D32253C8FB53C87F2275A490
:101920001175D4CF2275A54175D5772253F77F75F0
:10193000DA302275E69075A8B022E4F5A922439822
:1019400010223005FD22C2DE22D299228F9922AFC9
:1019500099228F8C2222222222015E041A2A6208F6
:101960000208010900019004B00BB81C520A0308D8
:1019700001090001C20384286E0208000901080061
:10198000D201A41D8802080009010800C8017C1BBF
:1019900026020800090108015E028A32C802080016
:1019A000090108015E02BC3D22020800090108028B
:1019B0008A1E82071C0F8C080108020803016802B6
:1019C000D012C005DC0A0308010900024E05DC0143
:1019D000AE348A0A0308010900012C0A00008C04B5
:1019E0007E27F6080108030802080208030804011C
:1019F000040A9A051428A008010800080208020831
:101A00000008030172043819820208010800090263
:101A10009407D00FA0232808030801080208010634
:101A20001802D000D208010A0109020A0101D603F6
:101A3000FC0BFE020801080009019002D0132E01E0
:101A40000A00090108023007760F322274030801E8
:101A5000080208195903195F02196102196302008B
:101A6000000018196504196D02196F02197102003E
:101A7000000018197303197902197B02197D0200FD
:101A8000000018197F0319850219870219890200BD
:101A900000000C198B031991021993021995020089
:101AA00000000C199703199D02199F0219A1020049
:101AB00000000C19A30319A90219AB0219AD020009
:101AC00000001219AF0419B70219B90219BB0200BC
:101AD00000002819BD0419C50219C70219C902005E
:101AE00000002819CB0419D30219D50219D7020016
:101AF00000001819D90519E30219E50419E90419B8
:101B0000ED022019EF0419F70219F90419FD041A5E
:101B10000102201A03031A09021A0B021A0D02000D
:101B20000000111A0F041A17021A19021A1B021ABE
:101B30001D02241A1F031A25021A27021A29021A43
:101B40002B02281A2D031A33021A35021A37020003
:101B50000000141A39031A3F021A41021A43020004
:101B60000000271A45041A4D021A4F021A510200AA
:101B7000000024015E041A2A62080208010900011B
:101B80009004B00BB81C520A030801090001C203FB
:101B900084286E02080009010800D201A41D8802F1
:101BA000080009010800C8017C1B26020800090181
:101BB00008015E028A32C8020800090108015E02BB
:101BC000BC3D22020800090108028A1E82071C0F80
:101BD0008C080108020803016802D012C005DC0A63
:101BE0000308010900024E05DC01AE348A0A03082D
:101BF000010900012C0A00008C047E27F608010868
:101C000003080208020803080401040A9A051428BC
:101C1000A008010800080208020800080301720475
:101C2000381982020801080009029407D00FA02386
:101C3000280803080108020801061802D000D2088B
:101C4000010A0109020A0101D603FC0BFE02080188
:101C5000080009019002D0132E010A0009010802B0
:101C60003007760F3222740308010802081B730341
:101C70001B79021B7B021B7D02000000181B7F04E6
:101C80001B87021B89021B8B02000000181B8D039F
:101C90001B93021B95021B9702000000181B99035F
:101CA0001B9F021BA1021BA3020000000C1BA5032B
:101CB0001BAB021BAD021BAF020000000C1BB103EB
:101CC0001BB7021BB9021BBB020000000C1BBD03AB
:101CD0001BC3021BC5021BC702000000121BC90464
:101CE0001BD1021BD3021BD502000000281BD70406
:101CF0001BDF021BE1021BE302000000281BE504BE
:101D00001BED021BEF021BF102000000181BF30584
:101D10001BFD021BFF041C03041C0702201C0904FA
:101D20001C11021C13041C17041C1B02201C1D0385
:101D30001C23021C25021C2702000000111C290480
:101D40001C31021C33021C35021C3702241C3903CF
:101D50001C3F021C41021C43021C4502281C470375
:101D60001C4D021C4F021C5102000000141C5303A6
:101D70001C59021C5B021C5D02000000271C5F0452
:101D80001C67021C69021C6B0200000024015E0437
:101D90001A2A62080208010900019004B00BB81C5D
:101DA000520A030801090001C20384286E020800D8
:101DB00009010800D201A41D8802080009010800D9
:101DC000C8017C1B26020800090108015E028A3254
:101DD000C8020800090108015E02BC3D2202080099
:101DE000090108028A1E82071C0F8C0801080208DC
:101DF00003016802D012C005DC0A030801090002D1
:101E00004E05DC01AE348A0A0308010900012C0AE0
:101E100000008C047E27F608010803080208020867
:101E200003080401040A9A051428A0080108000800
:101E3000020802080008030172043819820208012E
:101E4000080009029407D00FA023280803080108FE
:101E5000020801061802D000D208010A0109020A8C
:101E60000101D603FC0BFE020801080009019002E3
:101E7000D0132E010A00090108023007760F322222
:101E8000740308010802081D8D031D93021D9502AD
:101E90001D9702000000181D99041DA1021DA30238
:101EA0001DA502000000181DA7031DAD021DAF02F5
:101EB0001DB102000000181DB3031DB9021DBB02B5
:101EC0001DBD020000000C1DBF031DC5021DC70281
:101ED0001DC9020000000C1DCB031DD1021DD30241
:101EE0001DD5020000000C1DD7031DDD021DDF0201
:101EF0001DE102000000121DE3041DEB021DED02B6
:101F00001DEF02000000281DF1041DF9021DFB0257
:101F10001DFD02000000281DFF041E07021E09020D
:101F20001E0B02000000181E0D051E17021E1904CC
:101F30001E1D041E2102201E23041E2B021E2D0422
:101F40001E31041E3502201E37031E3D021E3F02B5
:101F50001E4102000000111E43041E4B021E4D02D2
:101F60001E4F021E5102241E53031E59021E5B0205
:101F70001E5D021E5F02281E61031E67021E6902AB
:101F80001E6B02000000141E6D031E73021E7502FC
:101F90001E7702000000271E79041E81021E8302A4
:071FA0001E85020000002471
:00000001FF
