:020000040000FA
:10000000020E3EED24F8FEEFD39E4015ED2408FDD0
:10001000E433FCC3EF9DEC6480F874809850028058
:1000200001C322020DAE8E428F438C448D45AB0737
:10003000AA06E4F9F87FE87E03FD12140C9000C3D1
:10004000E544F0A3E545F09000C1E542F0A3E543A7
:10005000F043910422E59120E2FB22020FE1121607
:100060006353D87853DBFEE4900083F022E4F5A9D3
:100070002222220211DFD2011214B0C290C296D203
:1000800080E4FBFD7F1012161D1205A674A4F0D2A9
:10009000AFE4F52FF530D2960530E5307002052F2C
:1000A000B410F3E52FB427EEC29630010912137D88
:1000B0008E318F328006753101753200E532700461
:1000C000E531640170409000C6E07007F52FF5300F
:1000D0000202720530E5307002052FD39410E52F2F
:1000E00094274002D296D3E5309430E52F94755092
:1000F00003020272E4F52FF5309000C6F09000C5BF
:10010000F0C296020272E4F52FF5309000C6E014BA
:10011000602A14700302024414700302020914706E
:100120000302021F24046003020272E53264AA6023
:10013000030202729000C604F0020272E5329000DF
:10014000C5F0A37402F0E53212080201F1A0016DBE
:10015000A1017FA50194A601A8A701B1A801CAA980
:1001600001B1B001BAB1018BC00000020012055FFD
:100170009000A67401F0E4900075F07FA1805C12FD
:10018000005E1215A47533090202721215A47533AC
:1001900002020272E49000A6F0900075F07FA612B1
:1001A00005C374A6F00202721205A674A4F002023E
:1001B000729000C67403F00202729000757401F030
:1001C0007FB11205C3EFF002027212055F9000A624
:1001D000E0F52EE4F0900075F07FA91213E0900096
:1001E0007CEFF07D307C757F017E001200260202DC
:1001F000721205BA90007CEFF0E49000C6F08072B5
:10020000E49000C5F0A3F08069E4F534E532F533FD
:10021000E533D394009000C640257404F0805374F5
:10022000042534F582E43400F583E532F00534E545
:100230003465336007E534C3947040369000C6746B
:1002400002F0802EE532645570289000C6F0C2019D
:100250009000C5E02460601824FC600F24FE600B51
:1002600014600824F66004241070077FA01215FEA5
:10027000D2019000C5E01208020298A102C2A402B5
:10028000D4A50362A6037EA80498A904D5B00548A6
:10029000B10339C0000000AA900082E030E70F7D72
:1002A000C87C0012058F7FA312128E0204B21216B0
:1002B0002640030200AA7DE87C0312058F7FA2027C
:1002C00004CD900082E020E7030200AA7FA412126E
:1002D0008E0203769000C6E060030200AA900083BD
:1002E000E024FC604C240460030200AA900004E0B7
:1002F000FEA3E0FF7C007D80120828E47B807A0F5B
:10030000F9F8120770900004E0FCA3E0FD900008EB
:10031000E0FAA3E0FB753D4B900006E0F53EA3E05C
:10032000F53F7540197541181205CA7406F00204AC
:10033000861205BA7FA00204CD9000C6E0600302D9
:1003400000AA900004E0FCA3E0FD7F017E00120003
:1003500026D296120055C2967FA01215FED2010237
:100360000507900082E020E7030200AA547FF536DB
:10037000FD7FA6121237E4900082F00200AA9000DE
:10038000C6E060030200AA900083E024FC70030230
:10039000048C240460030200AA12005E900004E0B2
:1003A000647F702FA3E0FEA3E0FFA3E0FCA3E0FDC9
:1003B000A3E0FAA3E0FBA3E0F53DA3E0F53EA3E054
:1003C000F53FA3E0F540A3E0F5411205CA740CF037
:1003D00002047D900004E0FF1213B38F35E535F47D
:1003E0007003020478EF75F00DA42474F582E434F0
:1003F00016F583E493FE740193FFC006C00712153F
:100400009D2476F582E434161215AEC004C00512A0
:10041000159D2479F582E43416F583E493FA74018A
:1004200093FB12159D247DF582E43416F583E49345
:10043000FF12159D247BF582E434161215AE1215B9
:100440009D247EF582E43416F583E493FE12159D17
:10045000247FF582E43416F583E493F5418E408CD5
:100460003E8D3F8F3DD005D004D007D006121165D8
:100470009000747401F08005E49000C5F09000C510
:10048000E070030200AA12157F0200AA90007CE02F
:10049000FF1213E07FA08035900082E0FF30E71C60
:1004A000547FF5367DC87C00120572AD367FAB12E5
:1004B0001237E4900082F0D2010200AA1216264000
:1004C000030200AA7DE87C031205727FAA1215FEC2
:1004D000D2010200AA900004E025E0F5369000C6A3
:1004E000E060030200AA900083E0700512005E80C5
:1004F0000B900083E0640460030200AAE536600705
:10050000E533C394045008E49000C5F00200AA74D7
:10051000062536F9E43400753A01F53B893CC3E51C
:1005200033953624FEF53D900005E0F53E7B017ADB
:10053000007906120ECD7FA01215FE90007CE0FF20
:100540001213E0D2010200AA900082E020E7030229
:1005500000AA7FB1121066E4900082F00200AA7D2A
:10056000327C007F017E00120026D296120055C216
:1005700096227F017E00120026D296120055C29666
:100580009000A6E52EF090007CE0FF1213E0227FA1
:10059000017E00120026D296120055C29690007C71
:1005A000E0FF1213E0229000A67401F0E4900075C1
:1005B000F07FA41213E090007C2290007CE0FF12F8
:1005C00013E0221213E090007C2212116590007457
:1005D00022BB010CE58229F582E5833AF583E0220E
:1005E0005006E92582F8E622BBFE06E92582F8E2FC
:1005F00022E58229F582E5833AF583E49322BB0163
:100600000689828A83F0225002F722BBFE01F32280
:10061000EF8DF0A4A8F0CF8CF0A428CE8DF0A42EFE
:10062000FE22BC000BBE0029EF8DF084FFADF0224E
:10063000E4CCF875F008EF2FFFEE33FEEC33FCEE60
:100640009DEC984005FCEE9DFE0FD5F0E9E4CEFD53
:1006500022EDF8F5F0EE8420D21CFEADF075F00826
:10066000EF2FFFED33FD4007985006D5F0F222C37F
:1006700098FD0FD5F0EA22C2D5EC30E709B2D5E4F7
:10068000C39DFDE49CFCEE30E715B2D5E4C39FFFAB
:10069000E49EFE120622C3E49DFDE49CFC8003124E
:1006A000062230D507C3E49FFFE49EFE22BB011063
:1006B000E58229F582E5833AF583E0F5F0A3E022AF
:1006C0005009E92582F886F008E622BBFE0AE925F2
:1006D00082F8E2F5F008E222E5832AF583E993F552
:1006E000F0A3E99322E88FF0A4CC8BF0A42CFCE9D2
:1006F0008EF0A42CFC8AF0EDA42CFCEA8EF0A4CDA4
:10070000A8F08BF0A42DCC3825F0FDE98FF0A42CB7
:10071000CD35F0FCEB8EF0A4FEA9F0EB8FF0A4CF6A
:10072000C5F02ECD39FEE43CFCEAA42DCE35F0FD1B
:10073000E43CFC2275F008758200EF2FFFEE33FEDB
:10074000CD33CDCC33CCC58233C5829BED9AEC99A9
:10075000E58298400CF582EE9BFEED9AFDEC99FC4B
:100760000FD5F0D6E4CEFBE4CDFAE4CCF9A8822292
:10077000B800C1B90059BA002DEC8BF084CFCECDB2
:10078000FCE5F0CBF97818EF2FFFEE33FEED33FDEB
:10079000EC33FCEB33FB10D703994004EB99FB0FD0
:1007A000D8E5E4F9FA227818EF2FFFEE33FEED33A7
:1007B000FDEC33FCC933C910D7059BE99A4007EC1F
:1007C0009BFCE99AF90FD8E0E4C9FAE4CCFB227566
:1007D000F010EF2FFFEE33FEED33FDCC33CCC833FA
:1007E000C810D7079BEC9AE899400AED9BFDEC9A5C
:1007F000FCE899F80FD5F0DAE4CDFBE4CCFAE4C8D4
:10080000F922D083D082F8E4937012740193700DB2
:10081000A3A393F8740193F5828883E4737402931D
:100820006860EFA3A3A380DFEC8EF0A4CCC5F0CC6E
:10083000CDF8EFA4CEC5F02DFDE43CFCE8A42EC815
:10084000C5F03DFDE43CFCEFA4FFE5F028FEE43DEF
:10085000FDE43CFC22EF4E6012EF60010EEDBB01A7
:100860000B89828A83F0A3DFFCDEFA2289F050072D
:10087000F709DFFCA9F022BBFEFCF309DFFCA9F0BD
:1008800022AFE9AEEA7C007D0A1206108E088F09BD
:10089000209303020A4B85080A85090BC3E50995D5
:1008A0000DF511E508950CF510900075E014700336
:1008B000020A45046003020A6C900083E01460653C
:1008C000046003020A6C900082E06003020A6C90EC
:1008D00000A6E0FFAB11AA10AD0FAC0E120CF18F09
:1008E00012E51264807003020A6C90007E120CCB39
:1008F000900002E510F0A3E511F09000867408F076
:10090000E4900074F0900077F090007DF0F513F51E
:1009100014FE7F70FD7B017A007904120855900067
:10092000837401F022E51275F00DA424B9F582E478
:100930003416F583E493FFD39400400B90007DE0E0
:100940009F5004E004F022900086E014F0900077BD
:10095000E004F0AE10AF11AB07AA06E50F2BFFE5E0
:100960000E3AFEE433FDE433FCC004A905AA06AB4D
:1009700007AE0EAF0F120CD3D0001207708F2212E9
:100980000C3E1200034029E51275F00DA424BFF5BA
:1009900082E43416F583E493FDAF22120003401085
:1009A000120BB26F600AE4900082F0C290A3F022B2
:1009B000120C3EAF221200035007120BB2C39F402D
:1009C00011D3E50F9514E50E95134044120BB26F49
:1009D000703E900084120CCBD290900077E024FF00
:1009E000FFE434FFFE7C007D0812067774042FF5C7
:1009F0008274003EF583C083C082120CC37401A8C8
:100A000006088002C333D8FC4FD082D083F0801711
:100A100090007A120CCBC290D39514E50E9513403A
:100A200006850E13850F14900086E070037408F09D
:100A3000120BB26F7036900082E512F04480F0C263
:100A400090E4A3F022AF11AE10801E85080C85093A
:100A50000DC3E509950BF50FE508950AF50E900015
:100A600075E0147007AF0FAE0E120A6D228E238F41
:100A700024900083E0146035147003020B422402BA
:100A80006003020BA3C290900082E06003020BA3FC
:100A9000AF24AE231215E44003020BA3E49000013F
:100AA000F0120C979000837401F0D290229000789D
:100AB000E0FCA3E0FDAE047802CEC313CE13D8F958
:100AC0002DFFEC3EFED3E5249FE5239E4009120C4A
:100AD00097E4900001F022AF24AE231212D3501AF3
:100AE000900001E094004012E4900074F0900086C1
:100AF0007404F09000837402F022C3E5249464E54A
:100B0000239400403A120BA4501C120C30E0FEA3B8
:100B1000E02524FFE5233EC313FEEF13FF120C3044
:100B2000EEF0A3EFF022900001E0120C32120C9ACA
:100B3000900001E004F0E0D3941E4067E48058E4A4
:100B4000805DB290AF24AE231212D3500D9000827C
:100B5000E04480F0C290E4A3F022120BA4503B903A
:100B60000086E0B40411E525C454F0FF120C22EF16
:100B7000F0E4900086F022120C22E0FFE525540FED
:100B8000FEEF4EF0120CB07404F0900074E0D394B9
:100B9000704010E4900001F08005E4900001F090B6
:100BA0000083F0227B007A007925AF24AE23120F58
:100BB0005922E51275F00DA424C0F582E43416F52F
:100BC00083E493FF900077E022120770AB07AA0638
:100BD000E4F9F87F407E427D0FFC120770E47BFF52
:100BE000FAF9F81206E5A804A905AA06AB077F20C2
:100BF0007ED77D757C01120770EFF40422E528751D
:100C0000F00DA424B7F582E43416F583E493FC7464
:100C10000193FD2438FBEC34FFFAD3E5269BE52550
:100C20009A22900074E02404F582E43400F58322D3
:100C3000E52525E02488F582E43400F58322E512D9
:100C400075F00DA424BEF582E43416F583E493FD1B
:100C500022E52875F00DA424B5F582E43416F58359
:100C60002253DAFE53F7DF53F7BF22AB3AAA3BA970
:100C70003C853F827583000205D1ED24C8FDE43C2C
:100C8000FCC3E5269DE5259C2275F0FFA4FFAEF090
:100C90007C007D64020622900078E523F0A3E52421
:100CA000F02253E2FDD2807D077C007F017E00228E
:100CB000900074E004F090008622D3FCE5249DE5CA
:100CC000239C22E0FF900086E0FE22E50EF0A3E5E3
:100CD0000FF0227C007D64020828540F75F002A4F6
:100CE000F58285F08322C2807D647C007F0A7E00CD
:100CF000228C238D248A258B26752780EF7056E45D
:100D0000F528120C51E493FC740193FDD39400EC8C
:100D10009400402BED2438FDEC34FF120CBA402B2C
:100D2000120C5174019324C8FDE4933400C3120CD7
:100D3000BB5018120BFD4013120C7A500E80691232
:100D40000BFD4007120C7A5002805D0528E52864EF
:100D50000570AF80561213B38F28E528F4604CD38A
:100D6000E5269470E52594174041E5269450E52545
:100D700094465037AE25AF267C007D1F1206228E8A
:100D8000298F2A7C007D0A120622C3E52A9FFDE5F1
:100D9000299E120CBA4014E52A2FFFE5293EFEC316
:100DA000E5249FE5239E5003852827AF2722C0E036
:100DB000C0F0C083C082C0D075D000C000C001C0E8
:100DC00002C003C004C005C006C007E5985403F57F
:100DD00046F45298E54630E01712166C9000BE12A9
:100DE000147DEFF09000BEE004F0E0B41402E4F0F3
:100DF000E54630E12E9000C0E0D39400401A900008
:100E0000BDE02447F8E6FF1216699000BDE004F04B
:100E10009000C0E014F08002D2029000BDE0B42047
:100E200002E4F0D007D006D005D004D003D002D021
:100E300001D000D0D0D082D083D0F0D0E0321200E8
:100E400071787FE4F6D8FD758166020E880200761F
:100E5000E493A3F8E493A34003F68001F208DFF4DF
:100E60008029E493A3F85407240CC8C333C4540F57
:100E70004420C8834004F456800146F6DFE4800B2A
:100E800001020408102040809010E8E47E01936085
:100E9000BCA3FF543F30E509541FFEE493A3600157
:100EA0000ECF54C025E060A840B8E493A3FAE493C1
:100EB000A3F8E493A3C8C582C8CAC583CAF0A3C86F
:100EC000C582C8CAC583CADFE9DEE780BE8B378A20
:100ED00038893953DBFE120C61120CA21200261263
:100EE0000055120CE6121311120055E4F53FE53FD0
:100EF000C3953D5055AB37AA38A939C003C002C0CD
:100F000001120C6BC4120CDAD001D002D00312060D
:100F1000ADF54185F040D280FFAE40121436AB37BC
:100F2000AA38A939C003C002C001120C6B120CDA36
:100F3000D001D002D0031206ADF54185F040C28049
:100F4000FFAE40121436053F80A4B290AF3E153E6E
:100F5000EF709843E202C290228E268F278B288A58
:100F600029892AC200E4F52B900001E0FFE52BC39C
:100F70009F506BE527AE267803CEC313CE13D8F966
:100F8000FDAC06E527AE267802CEC313CE13D8F902
:100F90002DF52DEE3CF52CE52B120C32E0FEA3E0F6
:100FA000FFC3952DFDEE952CFCC3ED9527EC952602
:100FB0005028E52D2FFFE52C3EFEC3E5279FE526B3
:100FC0009E5017E52A45294528600BAB28AA29A978
:100FD0002AE52B1205FED2008004052B808AA20090
:100FE00022C0E0C0F0C083C082C0D075D000C00075
:100FF000C001C002C003C004C005C006C007E5D8D8
:101000005487F521F452D8E5F730E508E5F730E6E6
:101010000312152153F7DFE52130E708E5D930E069
:1010200003120072E52130E008E5DA30E003121423
:1010300088E52130E108E5DB30E003120881E52195
:1010400030E208E5DC30E003121672D007D006D09B
:1010500005D004D003D002D001D000D0D0D082D0AF
:1010600083D0F0D0E032AE07E4F5371214FE9000E2
:1010700001E004FF1215051210E1900001E0FFE508
:1010800037C39F5012121471121464121471F58335
:1010900012146B053780E3900078E0FF121505907D
:1010A000007812146B1210E1900086E07006900038
:1010B00074E004F0E4F537900074E0FFE537C39F77
:1010C00050177404253712145F0537E537541F7025
:1010D000E612166612165C80DE7F551215050216A2
:1010E0006612166612165C224200C300004200C15E
:1010F00000004100C6004100C500410082004100DF
:1011000083004100A6004100750041007C004100C1
:101110007656410087AB410000004100810042004B
:101120007E00004200020000420084000042007A7B
:10113000000041008000410086004100770041002E
:101140007D0041007400410001004100BE004100EB
:10115000BF004100BC004100BD004100C000410093
:10116000BB00C102008E378F388C398D3AAE02AF8A
:1011700003120CD3C007AF3DAB07E4FAF9F8D00770
:10118000120BC9900000F0AE3EAF3F120CD3C00767
:10119000AF40AB07E4FAF9F8D007120BC990008111
:1011A000F0E53D120C89900076EFF0E540120C89D5
:1011B000900087EFF090007EE537F0A3E538F090DF
:1011C0000002E539F0A3E53AF0900080E541F043F4
:1011D000DA0153F7DF43F74053DBFE75F9FF22C016
:1011E000E0C083C082C0D075D000C004C005C00676
:1011F000C00753917F9000C3E0FEA3E0FF4E700351
:101200005391FB9000C1E0FCA3E0FDC3EF9DEE9C79
:101210005007A3E4F0A3F0800DC39000C4E09DF05C
:101220009000C3E09CF0D007D006D005D004D0D009
:10123000D082D083D0E032AE07E4FCFB1214FEED86
:1012400075F00DA42401F582E43417F583E493FFCF
:10125000ECC39F500774082CFC0B80E3EB04FF12D7
:101260001505ED75F00DA424F5F582E43416F5832B
:10127000E493FF121505E4FCECC39B500974042CA5
:1012800012145F0C80F27F55121505021666AE0728
:10129000E4FDF5371214FE900002E0FF12150590F0
:1012A000000212146B90007AE0FF12150590007A8C
:1012B00012146B900084E0FF121505900084121444
:1012C0006B74042D12145F0DBD03F67F55121505C6
:1012D000021666AD07AC06900078E0FEA3E0780247
:1012E000CEC313CE13D8F9FFC3900079E09FFB90D3
:1012F0000078E09EFAC3EB9DEA9C5013A3E02FFF19
:10130000900078E03EFEC3ED9FEC9E50028001C34A
:10131000228E428F438C448D45AB07AA06E4F9F830
:101320007F407E427D0F12140CE545246A9000C474
:10133000F0E54434FF9000C3F09000C1E542F0A313
:10134000E543F043910422120CA21200261200552C
:10135000120CE6121311120055D28090007E121367
:101360006DC28090000212136D43E20222E0FCA3E2
:10137000E0FD7F057E00121311120055229000BE81
:10138000E0FF9000BCE0B507057E017F00229000E1
:10139000BC12147DE0FD7C009000BCE004F0E0B4E1
:1013A0001402E4F09000BBE0FEEE4204E4F0AE0470
:1013B000AF05227EFFEFD394004022EF9480501DB2
:1013C000E4FDED75F00DA424B4F582E43416F58344
:1013D000E493B50704AE0580040DBD05E5AF062214
:1013E0008F3790007CE0F5387F0B12166F43DB01DE
:1013F000120C61121660E4900083F0900082F0906D
:1014000000C5E537F090007CF0AF3822FC12077081
:10141000A804A905AA06AB077F207ED77D757C01AD
:10142000120770C3E49FFFE49EFEAD07AC06ECF527
:1014300093AF058F9222C3EF9414EE9400401F7473
:10144000EC2FFF74FF3EFEEF25E0FFEE33FED3EFFF
:101450009400EE94004007EF1F70F31E80F022F519
:1014600082E43400F583E0FF021505A3E0FF0215D6
:1014700005E53725E02488F582E4340022E024A73E
:10148000F582E43400F58322900086E07006120CA9
:10149000B07408F0900080E0FF900077E0B507039B
:1014A000021542900077120CB3E014F01214D72208
:1014B00012162E12163512163C12160912006D1253
:1014C00015B81215CE1216131215F2121643121673
:1014D0004A121658021651120C22120CC3EFA8061B
:1014E000088002C313D8FC30E0059000768003909A
:1014F0000087E07D00FCE4FF12156122AE077FAAA1
:10150000121505AF06C2029000BFE0B42002E4F05D
:101510009000BFE02447F8A607E004F0A3E004F041
:1015200022120C22120CC3EFA806088002C313D8A3
:10153000FC30E0059000008003900081E0FF12166F
:101540006F22E4FDFCFF121561120C611216635349
:10155000D87853E2FDC28043E2029000837404F025
:1015600022AB07AF04EB14600C14600E2402700E63
:101570008DFB8FFC228DE98FEA228DEB8FEC229080
:1015800000867408F0E014F09000777401F0900089
:10159000837403F01214D7121347021660E53575F1
:1015A000F00DA4229000C67404F0E4F53422F58313
:1015B000E493FC740193FD22AF885388AF758CA02F
:1015C000758DCBEF5440FEEF54104E428822E591CA
:1015D00054045391FB7595FF7594FF7593FF7592B5
:1015E00086429122C3EF94ACEE940D4003D3800168
:1015F000C322C2DE75D90575F9FF75960122121452
:10160000FC7F5512150502166675E34075E10175FC
:10161000E20222758E447589224388502253984FE6
:10162000EB4F4DF59822E591C320E201D322759747
:10163000DE7597AD2275A41175D4CE2275A54175BE
:10164000D5772253F77F75DA4A2253F77F75DB305F
:101650002275E69075A89022439810223002FD2250
:10166000D2DE22C2DE22D299228F9922AF99228F16
:101670008C2222010000000000000000004B19181D
:101680000212C005DC0002BC012C461E28030BB868
:10169000232800044C01904B191804251C0BB8009A
:1016A00003840140461E1805000072D80702BC01E1
:1016B0002C264040010000000000000000004B19F3
:1016C000180212C005DC0002BC012C461E28030BC8
:1016D000B8232800044C01904B191804251C0BB8A2
:1016E0000003840140461E1805000072D80702BCA2
:1016F000012C264040010000000000000000004BCB
:1017000019180212C005DC0002BC012C461E280379
:101710000BB8232800044C01904B191804251C0B0E
:10172000B80003840140461E1805000072D8070265
:06173000BC012C26404024
:00000001FF
