:020000040000FA
:1000000002120CED24F8FEEFD39E4015ED2408FDFE
:10001000E433FCC3EF9DEC6480F874809850028058
:1000200001C3220210EDE4F5A922220215857EFF0C
:10003000EFD394004022EF9480501DE4FDED75F065
:1000400005A42487F582E4341BF583E493B5070403
:10005000AE0580040DBD06E5AF0622021323121A79
:10006000BC53D87853DBFE121A7DE4900085F02251
:10007000D2DE220215D8D201121884C290C296D2C2
:1000800080E4FBFD7F10121A6412061E74A4F0D2E5
:10009000AFE4F537F538D2960538E5387002053704
:1000A000B410F3E537B427EEC2963001091217C633
:1000B0008E3A8F3B8006753A01753B00E53B700434
:1000C000E53A640170409000CCE07007F537F538F0
:1000D0000202870538E53870020537D39410E537FA
:1000E00094274002D296D3E5389430E53794755082
:1000F00003020287E4F537F5389000CCF09000CB8E
:10010000F0C296020287E4F537F5389000CCE0148F
:10011000602A14700302025914700302021E147044
:100120000302023424046003020287E53B64AA60F0
:10013000030202879000CC04F0020287E53B9000A6
:10014000CBF0A37402F0E53B120BE00206A00170B5
:10015000A10182A501A6A601BAA701C3A801DFA932
:1001600001C6B001CFB10197C00287FF00000215A0
:100170001205D79000A87401F0E4900075F07FA1FB
:10018000806E12005E9000CC7404F0753908E4F5BE
:100190003D753C090202879000CC7404F0E4F53D03
:1001A000753C02020287E49000A8F0900075F07F91
:1001B000A612064F74A6F002028712061E74A4F05F
:1001C0000202877539089000CC7403F00202879010
:1001D00000757401F07FB112064FEFF00202871232
:1001E00005D79000A8E0F536E4F0900075F07FA9FF
:1001F00012174E90007CEFF07D307C757F017E0001
:100200001218D702028712063290007CEFF0E490B9
:1002100000CCF08072E49000CBF0A3F08069E4F5AC
:100220003DE53BF53CE53CD394009000CC40257483
:1002300004F080537404253DF582E43400F583E531
:100240003BF0053DE53D653C6007E53DC3947040EE
:10025000369000CC7402F0802EE53B6455702890F7
:1002600000CCF0C2019000CBE02460601824FC6058
:100270000F24FE600B14600824F66004241070073D
:100280007FA0121A31D2019000CBE0120BE002B035
:10029000A102DAA402ECA503B5A603D1A804F1A932
:1002A000052EB005A1B1037DC003A3FF000000AA85
:1002B000900084E030E70F7DC87C001206077FA322
:1002C0001216C502050B121A7540030200AA7DE83A
:1002D0007C031206077FA2020526900084E020E737
:1002E000030200AA7FA41216C50203C99000CCE045
:1002F00060030200AA900085E024FC6049240460A9
:10030000030200AA1539900008E0FEA3E0FF1215D1
:100310001F8F46900006E0FEA3E0FF8E47F54812CF
:10032000151F8F49754A18900008E0FAA3E0FB906A
:100330000004E0FCA3E0FDA3E0FEA3E0FF120656EC
:100340007406F00204BD7F0112002EEF12156F60DB
:10035000030200AAE539601D1205B812157FD39477
:100360000050030204E21205B812157F12063B1278
:100370001AAE0204E21206327FA00205269000CCDB
:10038000E060030200AA900004E0FCA3E0FD7F010E
:100390007E001218D7D296121AAEC2967FA0121AF9
:1003A00031800AE4FF121A31E49000CCF0D201123D
:1003B00006460200AA900084E020E7030200AA5447
:1003C0007FF53FFD7FA61214A7E4900084F00200A1
:1003D000AA9000CCE060030200AA900085E024FC13
:1003E00070030204C3240460030200AA12156D60A6
:1003F000030200AA153912005E900004E0647F70C9
:1004000036A3E0FCA3E0FFAE04900009E0FCA3E00B
:10041000FBAA04A3E0F546A3E0F547A3E0F548A353
:10042000E0F549A3E0F54A900007E0FCA3E0FD12E7
:100430000656740CF0807D900004E0FF12002E8FB1
:100440003EE53EF46069EF121554120A60FFAEF00B
:10045000C006C007121552900002120A8BFFAEF0C0
:10046000C006C007900005120A8BFDACF0C004C0A6
:1004700005900009120984FF900007120A8BFDAC59
:10048000F090000A120984FE90000B120984F54ACC
:100490008E498C478D488F46D003D002D005D004BA
:1004A000D007D00612142D9000747401F08005E47A
:1004B0009000CBF09000CBE070030200AA1219ABC1
:1004C0000200AA12156D60030200AAE539601B1232
:1004D000155212157FFFD394004007EF12063B120E
:1004E0001AAEE4900085F00200AA1206467FA080B2
:1004F00035900084E0FF30E71C547FF53F7DC87CD9
:10050000001205EAAD3F7FAB1214A7E4900084F01F
:10051000D2010200AA121A7540030200AA7DE87CEB
:10052000031205EA7FAA121A31D2010200AA900032
:1005300004E025E0F53F9000CCE060030200AA90C3
:100540000085E0700512005E800B900085E0640479
:1005500060030200AAE53F6007E53CC3940450082D
:10056000E49000CBF00200AA7406253FF9E43400C1
:10057000754301F5448945C3E53C953F24FEF546A6
:10058000900005E0F5477B017A0079061213A87FF9
:10059000A0121A3190007CE0FF12174ED201020027
:1005A000AA900084E020E7030200AA7FB1120F9016
:1005B000E4900084F00200AA7F0112002EEF75F093
:1005C00005A4241DF582E4341BF583E493FB740138
:1005D00093FA740293F9227D327C007F017E00122F
:1005E00018D7D296121AAEC296227F017E00121838
:1005F000D7D296121AAEC2969000A8E536F09000B7
:100600007CE0FF12174E227F017E001218D7D2968F
:10061000121AAEC29690007CE0FF12174E22900094
:10062000A87401F0E4900075F07FA412174E9000BA
:100630007C2290007CE0FF12174E22FD7C007F019F
:100640007E001218D72290007CE0FF12174E221273
:10065000174E90007C2212142D90007422AFE9AE48
:10066000EA7C007D0A1209C38E088F0920930302D9
:1006700008EE85080A85090BC3E509950DF511E516
:1006800008950CF510900075E01470030208E8045A
:10069000600302090F900085E014606504600302A6
:1006A000090F900084E0600302090F9000A8E0FFAA
:1006B000AB11AA10AD0FAC0E12103F8F12E51264F1
:1006C00080700302090F90007F120DE6900002E592
:1006D00010F0A3E511120D4BE4900074F090007738
:1006E000F090007EF0F513F514FE7F70FD7B017A2B
:1006F000007904120C33E490007DF090008504F042
:1007000022E512120D70700302082A046003020928
:100710000FE512120C81900004120984FFD394009B
:10072000400B90007EE09F5004E004F022120D89FF
:10073000AE10AF11AB07AA06E50F2BFFE50E3AFE90
:10074000E433FDE433FCC004A905AA06AB07AE0EF2
:10075000AF0F120DEED000120B4E8F22E512120CCD
:1007600081900009120984FD120003401BE512125A
:100770000C8190000A12097A400EE512120C8112C7
:100780000D226F60030208A3E512120C819000098C
:1007900012097A500CE512120C81120D22C39F40EF
:1007A00016D3E50F9514E50E9513402EE512120CA5
:1007B00081120D226F7023900086120DE6120C9AA2
:1007C000C083C082120D817401A806088002C33361
:1007D000D8FC4FD082D083F0801790007A120DE6BB
:1007E000C290D39514E50E95134006850E13850F20
:1007F00014900088E0700D120C9C120D31FF12193C
:10080000C6120D47E512120C81120D226F60030211
:10081000090F121A6D5005E4900083F0120D2E702E
:10082000030208E012095C0208E0E512120C819054
:10083000000B120984FF7E00900004120A8BFDACAD
:10084000F01209C3120D5A8E238F24120D89E5125E
:10085000120C819000061209105011E512120C8141
:100860009000071209365004C2908041E512120C24
:1008700081900008120910502AE512120C81900094
:1008800009120936501D120C9AC083C082120D81C4
:100890007401A806088002C333D8FC4FD082D083ED
:1008A000F0800AE4900084F0C290A3F022900088C7
:1008B000E0700D120C9C120D31FF1219C6120D477B
:1008C000E512120C8190000A120D256F7041121A68
:1008D0006D5005E4900083F0120D2E600312095C48
:1008E000C290E4900085F022AF11AE10801E850802
:1008F0000C85090DC3E509950BF50FE508950AF57B
:100900000E900075E0147007AF0FAE0E120E0B22A2
:10091000120984FD7C00900004120A8BFFAEF012D5
:1009200009C3C3E50F9FFFE50E9EFE121A25C3EF14
:100930009524EE952322120984FD7C009000041278
:100940000A8BFFAEF01209C3C3E5119FFFE5109EAD
:10095000FE121A25C3EF9524EE952322121A7D7DEF
:10096000207C037F017E001218AE90007DE0900095
:1009700083F0A3E512F04480F022120984FDAF2237
:1009800012000322BB010CE58229F582E5833AF5CA
:1009900083E0225006E92582F8E622BBFE06E9251F
:1009A00082F8E222E58229F582E5833AF583E49331
:1009B00022BB010689828A83F0225002F722BBFE05
:1009C00001F322EF8DF0A4A8F0CF8CF0A428CE8DF7
:1009D000F0A42EFE22BC000BBE0029EF8DF084FF98
:1009E000ADF022E4CCF875F008EF2FFFEE33FEEC0B
:1009F00033FCEE9DEC984005FCEE9DFE0FD5F0E932
:100A0000E4CEFD22EDF8F5F0EE8420D21CFEADF030
:100A100075F008EF2FFFED33FD4007985006D5F035
:100A2000F222C398FD0FD5F0EA22C2D5EC30E709D7
:100A3000B2D5E4C39DFDE49CFCEE30E715B2D5E4ED
:100A4000C39FFFE49EFE1209D5C3E49DFDE49CFC18
:100A500080031209D530D507C3E49FFFE49EFE2230
:100A6000BB010A89828A83E0F5F0A3E02250068761
:100A7000F009E71922BBFE07E3F5F009E319228923
:100A8000828A83E493F5F074019322BB0110E5821E
:100A900029F582E5833AF583E0F5F0A3E0225009D9
:100AA000E92582F886F008E622BBFE0AE92582F8ED
:100AB000E2F5F008E222E5832AF583E993F5F0A355
:100AC000E99322E88FF0A4CC8BF0A42CFCE98EF003
:100AD000A42CFC8AF0EDA42CFCEA8EF0A4CDA8F0A6
:100AE0008BF0A42DCC3825F0FDE98FF0A42CCD356A
:100AF000F0FCEB8EF0A4FEA9F0EB8FF0A4CFC5F0D4
:100B00002ECD39FEE43CFCEAA42DCE35F0FDE43CCC
:100B1000FC2275F008758200EF2FFFEE33FECD3317
:100B2000CDCC33CCC58233C5829BED9AEC99E5825E
:100B300098400CF582EE9BFEED9AFDEC99FC0FD5EA
:100B4000F0D6E4CEFBE4CDFAE4CCF9A88222B800DA
:100B5000C1B90059BA002DEC8BF084CFCECDFCE5A5
:100B6000F0CBF97818EF2FFFEE33FEED33FDEC33C9
:100B7000FCEB33FB10D703994004EB99FB0FD8E54E
:100B8000E4F9FA227818EF2FFFEE33FEED33FDEC97
:100B900033FCC933C910D7059BE99A4007EC9BFC8D
:100BA000E99AF90FD8E0E4C9FAE4CCFB2275F01019
:100BB000EF2FFFEE33FEED33FDCC33CCC833C8103E
:100BC000D7079BEC9AE899400AED9BFDEC9AFCE86C
:100BD00099F80FD5F0DAE4CDFBE4CCFAE4C8F922B9
:100BE000D083D082F8E4937012740193700DA3A3A4
:100BF00093F8740193F5828883E4737402936860B8
:100C0000EFA3A3A380DFEC8EF0A4CCC5F0CCCDF88D
:100C1000EFA4CEC5F02DFDE43CFCE8A42EC8C5F041
:100C20003DFDE43CFCEFA4FFE5F028FEE43DFDE4DF
:100C30003CFC22EF4E6012EF60010EEDBB010B8910
:100C4000828A83F0A3DFFCDEFA2289F05007F709DD
:100C5000DFFCA9F022BBFEFCF309DFFCA9F022E5D2
:100C60002B75F005A42489F582E4341BF583E49305
:100C7000FB740193FA740293F9120A60FFAEF0E577
:100C80002B75F005A42489F582E4341BF583E493E5
:100C9000FB740193FA740293F922D290900077E0EA
:100CA00024FFFFE434FFFE7C007D08120A2A74044E
:100CB0002FF58274003EF58322120B4EAB07AA0675
:100CC000E4F9F87F407E427D0FFC120B4EE47BFF7F
:100CD000FAF9F8120AC3A804A905AA06AB077F20EF
:100CE0007ED77D757C01120B4EEFF40422900074C8
:100CF000E02404F582E43400F58322AE28AF297C99
:100D0000007D1F1209D58E2C8F2D7C007D051209C8
:100D1000D5C3E52D9FFDE52C9EFCD3E5279DE5265B
:100D20009C2290000B120984FF900077E022900033
:100D300083E0FF90007DE06F22E52725E0248AF51F
:100D400082E43400F5832290007DEFF090008874F7
:100D500008F02275F0FFA4FFAEF07C007D6402096C
:100D6000D5E53524C8FFE43534FEC3ED9FEC9E2263
:100D700075F005A42488F582E4341BF583E493140C
:100D800022E0FF900088E0FE22900088E014F090BE
:100D90000077E004F022E5352438FFE53434FFFE27
:100DA000D3ED9FEC9E22E52D2FFFE52C3EFEC3E503
:100DB000279FE5269E2253DAFE53F7DF53F7BF2223
:100DC000AB43AA44A94585488275830002098490F3
:100DD0000078E525F0A3E526F022900081E0FF9061
:100DE0000077E0D39F22E50EF0A3E50FF0227C0010
:100DF0007D64020C06540F75F002A4F58285F08321
:100E000022D3E5299470E5289417228E258F269009
:100E10000085E0146035147003020EE624026003BE
:100E2000020F81C290900084E06003020F81AF2620
:100E3000AE251219F34003020F81E4900001F01275
:100E40000DCF9000857401F0D29022900078E0FCE4
:100E5000A3E0FDAE047802CEC313CE13D8F92DFF64
:100E6000EC3EFED3E5269FE5259E4009120DCFE41A
:100E7000900001F022AF26AE2512178B501F900074
:100E800001E094004017E4900074F090008874042E
:100E9000F0E490007DF09000857402F022C3E52616
:100EA0009464E52594004075120F82501C120D3990
:100EB000E0FEA3E02526FFE5253EC313FEEF13FF6A
:100EC000120D39EEF0A3EFF022900001E0120D3B7D
:100ED000120DD2900001E004F0E0D3941E50030202
:100EE0000F81E4020F72B290AF26AE2512178B501D
:100EF0002F121A6D5005E4900083F0120D2E601B26
:100F0000121A7D7DF47C017F017E001218AE9000E4
:100F10007DE0900083F0A3E04480F0C290E4805D27
:100F2000120F825050900088E0B40411E527C45499
:100F3000F0FF120CEDEFF0E4900088F022120CEDBF
:100F4000E0FFE527540FFEEF4EF0900074E004F050
:100F50009000887404F0120CED120D31FF1219C6C6
:100F6000EFF0900074E0D394704016121A7DE49074
:100F70000001F08008121A7DE4900001F0900085D5
:100F8000F0227B007A007927AF26AE2512129B2231
:100F9000AE07E4F54012194C900001E004FF12196D
:100FA00053121038900001E0FFE540C39F50121229
:100FB000166512164A121665F58312165105408001
:100FC000E3900078E0FF1219539000781216511246
:100FD0001038900088E0B4040F900001E0C454F091
:100FE000FF121657EFF08017121657C083C082E029
:100FF000FF900001E0540FFEEF4ED082D083F0E46A
:10100000F540900074E02401FFE433FEC3E5409F07
:10101000EE6480F8748098501774042540121645C9
:101020000540E540541F70DA121ABF121AB880D278
:101030007F55121953021ABF121ABF121AB8228F03
:10104000258C268D278A288B29752A80E5257052C4
:10105000E4F52B7F0112002EEF652B701B120E01A1
:101060004035E5299450E5289446502B120CFB405E
:1010700026120DA650218054E52B120D70600D0430
:101080007015120C5F1210D2500D8008120C5F12F6
:1010900010D25003852B2A052BE52BC3940640B3B1
:1010A000802DAF2512002E8F2B7F0112002EEF65B1
:1010B0002B701C120E014017E5299450E528944628
:1010C000500D120CFB4008120DA65003852B2AAFC1
:1010D0002A22900002120A8BF53585F034AB07AA5C
:1010E00006AD29AC28AF27AE2612167C22C0E0C080
:1010F000F0C083C082C0D075D000C000C001C00263
:10110000C003C004C005C006C007E5985403F54FEE
:10111000F45298E54F30E017121AC59000C012162D
:1011200071EFF09000C0E004F0E0B41402E4F0E5E8
:101130004F30E12E9000C2E0D39400401A9000BFDF
:10114000E02450F8E6FF121AC29000BFE004F090CD
:1011500000C2E014F08002D2029000BFE0B420028E
:10116000E4F0D007D006D005D004D003D002D001DF
:10117000D000D0D0D082D083D0F0D0E0324200C7AF
:1011800000004200C300004200C900004200C50048
:10119000004100CC004100CB0041008400410085AB
:1011A000004100A8004100750041007C004100762C
:1011B00056410089AB410000004100820042007F9F
:1011C00000004200020000420086000042007A0057
:1011D0000041008100410088004100770041007E0D
:1011E00000410074004100830041007D0041000186
:1011F000004100C0004100C1004100BE004100BFED
:10120000004100C2004100BD00C1020012002A7866
:101210007FE4F6D8FD75816F021256020076E493E2
:10122000A3F8E493A34003F68001F208DFF48029D9
:10123000E493A3F85407240CC8C333C4540F4420C8
:10124000C8834004F456800146F6DFE4800B0102B7
:1012500004081020408090117DE47E019360BCA3BF
:10126000FF543F30E509541FFEE493A360010ECF05
:1012700054C025E060A840B8E493A3FAE493A3F82F
:10128000E493A3C8C582C8CAC583CAF0A3C8C582EF
:10129000C8CAC583CADFE9DEE780BE8E288F298BE6
:1012A0002A8A2B892CC200E4F52D900001E0FFE58D
:1012B0002DC39F506BE529AE287803CEC313CE1300
:1012C000D8F9FDAC06E529AE287802CEC313CE13BB
:1012D000D8F92DF52FEE3CF52EE52D120D3BE0FE55
:1012E000A3E0FFC3952FFDEE952EFCC3ED9529ECF1
:1012F00095285028E52F2FFFE52E3EFEC3E5299FB8
:10130000E5289E5017E52C452B452A600BAB2AAAF1
:101310002BA92CE52D1209B1D2008004052D808A5D
:10132000A20022C0E0C0F0C083C082C0D075D0004F
:10133000C000C001C002C003C004C005C006C00791
:10134000E5D85487F521F452D8E5F730E508E5F7FC
:1013500030E6031217FC53F7DFE52130E708E5D943
:1013600030E003121ACBE52130E008E5DA30E00383
:10137000121900E52130E108E5DB30E00312065DDB
:10138000E52130E208E5DC30E003121ACCD007D0CA
:1013900006D005D004D003D002D001D000D0D0D0E8
:1013A00082D083D0F0D0E0328B408A41894253DB37
:1013B000FE120DB653E2FDE4F548E548C3954650EC
:1013C0004FAB40AA41A942C003C002C001120DC0E8
:1013D000C4120DF5D001D002D003120A8BF54A8554
:1013E000F049D28012141FAB40AA41A942C003C0E9
:1013F00002C001120DC0120DF5D001D002D00312AF
:101400000A8BF54A85F049C28012141F054880AA4C
:10141000B290AF471547EF709E43E202C29022FDA3
:10142000AC497F0A7E0012182D121AAE228E408F10
:10143000418C428D43AE02AF03120DEEC007AF46A2
:10144000AB07E4FAF9F8D007120CB9900000F0AE3F
:1014500047AF48120DEEC007AF49AB07E4FAF9F801
:10146000D007120CB9900082F0E546120D5390009F
:1014700076EFF0E549120D53900089EFF090007F70
:10148000E540F0A3E541F0900002E542F0A3E5431A
:10149000F0900081E54AF043DA0153F7DF43F7406B
:1014A00053DBFE75F9FF22AC05AB07E4FEFDFA7FC6
:1014B000AA121953AF03121953EC75F005A424F4C2
:1014C000F582E4341BF583E49314600B047012126C
:1014D000162B90000B800612162B90000A1209841E
:1014E000FAEEC39A500774082EFE0D80F4ED04FF47
:1014F000121953EC75F005A424F3F582E4341BF5BE
:1015000083E493FF121953E4FEEEC39D5009740463
:101510002E1216450E80F27F55121953021ABF7C07
:10152000007D64120C06A804A905AA06AB0790006A
:1015300006E0FEA3E0FFA3E0FCA3E02FFDEC3EAF3E
:1015400005FEE4FDC8FCEDC9FDEECAFEEFCBFF02CF
:101550000B4EE53E75F005A4241DF582E4341BF521
:1015600083E493FB740193FA740293F922E53E75C8
:10157000F005A4241CF582E4341BF583E493229047
:10158000000C020984C0E0C083C082C0D075D000C6
:10159000C004C005C006C00753C87F9000C7E0FE66
:1015A000A3E0FF4E700353C8FB9000C312174350D3
:1015B000099000C7E4F0A3F0800DC39000C8E09D3F
:1015C000F09000C7E09CF0D007D006D005D004D042
:1015D000D0D082D083D0E032C0E0C083C082C0D0FF
:1015E00075D000C004C005C006C00753917F9000AD
:1015F000C9E0FEA3E0FF4E70035391FB9000C512BB
:10160000174350099000C9E4F0A3F0800DC3900087
:10161000CAE09DF09000C9E09CF0D007D006D0054C
:10162000D004D0D0D082D083D0E032EC75F005A4C5
:1016300024F5F582E4341BF583E493FB740193FAFB
:10164000740293F922F582E43400F583E0FF021975
:1016500053A3E0FF021953900074E02404F582E4E0
:101660003400F58322E54025E0248AF582E4340045
:1016700022E024A9F582E43400F58322C200D3EBF2
:101680009400EA9400402FEB2438F582EA34FFF509
:1016900083D3EF9582EE95834028EB24C8FBE43A90
:1016A000FAC3EF9BEE9A501A120D964015120D6177
:1016B0005010D200800C120D964007120D6150029E
:1016C000D200A20022AE07E4FDF54012194C9000B2
:1016D00002E0FF12195390000212165190007AE0B6
:1016E000FF12195390007A121651900086E0FF12F3
:1016F000195390008612165174042D1216450DBD13
:1017000003F67F55121953021ABFAB07AA06E4F974
:10171000F87F407E427D0FFC120B4EA804A905AA5B
:1017200006AB077F207ED77D757C01120B4EC3E48C
:101730009FFFE49EFE22AB07AA06E4F9F87FE87E4D
:1017400003FD22E0FCA3E0FDC3EF9DEE9C228F4051
:1017500090007CE0F5417F0B121AC843DB01120DAB
:10176000B61200707D0A7C007F017E001218D7122D
:101770001AAE43E202E4900085F0900084F09000FD
:10178000CBE540F090007CF0AF4122AD07AC069075
:101790000078E0FEA3E07802CEC313CE13D8F9FFA1
:1017A000C3900079E09FFB900078E09EFAC3EB9D28
:1017B000EA9C5010A3E02FFF900078E03E120D69E4
:1017C00050028001C3229000C0E0FF9000BEE0B54F
:1017D00007057E017F00229000BE121671E0FD7C9D
:1017E000009000BEE004F0E0B41402E4F09000BD0C
:1017F000E0FEEE4204E4F0AE04AF0522120DDA4042
:101800000302198D120CED120D81EFA8060880025B
:10181000C313D8FC30E00B900000E0FF121AC8D2CE
:101820009022900082E0FF121AC8C290228E4B8F45
:101830004C8C4D8D4E12170A121A0DE54E24BF9096
:1018400000CAF0E54D34FF9000C9F09000C5E54BAB
:10185000F0A3E54CF043910422D29053E2FDD280F4
:1018600090007F121874C290C28090000212187407
:1018700043E20222E0FCA3E0FD7F0A7E0012182D65
:10188000121AAE22121A84121A8B121A92121A3CCF
:101890001200261219DD121A5A121A46121A501282
:1018A0001A19121A99121AA0121AB4021AA78E281B
:1018B0008F298C2A8D2B121736121717121A0190A6
:1018C00000C7E52AF0A3E52BF09000C3E528F0A3BC
:1018D000E529F043C804228E428F438C448D451283
:1018E0001736121717121A0D9000C9E544F0A3E538
:1018F00045F09000C5E542F0A3E543F04391042292
:10190000900088E07008900074E004120D4B120DF6
:101910008F900088E014F0120DDA5003021925535D
:10192000E2FDC28022120CED120D81EFA8060880A4
:1019300002C313D8FC30E005900076800390008944
:10194000E07D00FCE4FF12196F22AE077FAA121996
:1019500053AF06C2029000C1E0B42002E4F0900050
:10196000C1E02450F8A607E004F0A3E004F022ABA5
:1019700007AF04EB14600C14600E2402700E8DFB94
:101980008FFC228DE98FEA228DEB8FEC22E4FDFCA7
:10199000FF12196F120DB6121ABC53D87853E2FD1C
:1019A000C280C2909000857404F022120D4CE014A5
:1019B000F09000777401F09000857403F0121925FF
:1019C0001218590200707E1DE4FDEF30E70625E095
:1019D0006EFF8004EF25E0FF0DBD08EE22AF8853B7
:1019E00088AF758CA0758DCBEF5440FEEF54104E30
:1019F000428822C3EF94ACEE940D4003D38001C320
:101A000022AD07AC06ECF5CBAF058FCA22AD07AC13
:101A100006ECF593AF058F9222C2DE75D90575F9F4
:101A2000FF75960122EE30E707C3E49FFFE49EFEB8
:101A30002212194A7F55121953021ABF75E34075D5
:101A4000E10175E20222E59154045391FB42912297
:101A5000758E5475892243885022E5C8540453C8B2
:101A6000FB42C82253984FEB4F4DF59822E5C8C36F
:101A700020E201D322E591C320E201D32253C8FB27
:101A800053C87F227597DE7597AD2275A41175D462
:101A9000CE2275A54175D5772253F77F75DA4A2294
:101AA00053F77F75DB302275E69075A8B022E5917B
:101AB00020E2FB22439810223002FD22C2DE22D215
:101AC00099228F9922AF99228F8C22222201903065
:101AD0007000064001904B19180012C005DC00028E
:101AE000BC012C461E28080BB8232800044C01908A
:101AF0004B191800251C0BB80003840140461E1822
:101B000000000072D80702BC012C264040000BB830
:101B10001C520190010303011846000100FF1ACD79
:101B20000200FF1ADA0300FF1AE70400FF1AF405A7
:101B300000FF1B010601FF1B0E01903070000640E4
:101B400001904B19180012C005DC0002BC012C46A4
:101B50001E28080BB8232800044C01904B191800CC
:101B6000251C0BB80003840140461E1800000072BB
:101B7000D80702BC012C264040000BB81C52019033
:101B8000010303011846000100FF1B390200FF1B7F
:101B9000460300FF1B530400FF1B600500FF1B6D85
:101BA0000601FF1B7A0190307000064001904B192E
:101BB000180012C005DC0002BC012C461E28080BD0
:101BC000B8232800044C01904B191800251C0BB8B1
:101BD0000003840140461E1800000072D80702BCB2
:101BE000012C264040000BB81C5201900103030158
:101BF0001846000100FF1BA50200FF1BB20300FFF7
:101C00001BBF0400FF1BCC0500FF1BD90601FF1BF7
:011C1000E6ED
:00000001FF
