:020000040000FA
:10000000020FD1ED24F8FEEFD39E4015ED2408FD3C
:10001000E433FCC3EF9DEC6480F874809850028058
:1000200001C322020EB2E4F5A922220213457EFF8B
:10003000EFD394004022EF9480501DE4FDED75F065
:100040000EA4246DF582E43418F583E493B5070417
:10005000AE0580040DBD05E5AF06220210E81218BA
:100060001653D87853DBFE1217D7E4900085F022A0
:10007000D2DE22021398D2011215ADC290C296D2DE
:1000800080E4FBFD7F101217BE12062474A4F0D288
:10009000AFE4F52FF530D2960530E5307002052F2C
:1000A000B410F3E52FB427EEC2963001091214EF15
:1000B0008E328F338006753201753300E53370045C
:1000C000E532640170409000CCE07007F52FF53008
:1000D0000202870530E5307002052FD39410E52F1A
:1000E00094274002D296D3E5309430E52F94755092
:1000F00003020287E4F52FF5309000CCF09000CB9E
:10010000F0C296020287E4F52FF5309000CCE0149F
:10011000602A14700302025914700302021E147044
:100120000302023424046003020287E53364AA60F8
:10013000030202879000CC04F0020287E5339000AE
:10014000CBF0A37402F0E5331208940206A001700C
:10015000A10182A501A6A601BAA701C3A801DFA932
:1001600001C6B001CFB10197C00287FF00000215A0
:100170001205C79000A87401F0E4900075F07FA10B
:10018000806E12005E9000CC7404F0753108E4F5C6
:10019000357534090202879000CC7404F0E4F5351B
:1001A000753402020287E49000A8F0900075F07F99
:1001B000A612065574A6F002028712062474A4F053
:1001C0000202877531089000CC7403F00202879018
:1001D00000757401F07FB1120655EFF0020287122C
:1001E00005C79000A8E0F52EE4F0900075F07FA917
:1001F0001214B290007CEFF07D307C757F017E00A0
:1002000012160002028712063890007CEFF0E4908C
:1002100000CCF08072E49000CBF0A3F08069E4F5AC
:1002200035E533F534E534D394009000CC402574A3
:1002300004F0805374042535F582E43400F583E539
:1002400033F00535E53565346007E535C394704016
:10025000369000CC7402F0802EE5336455702890FF
:1002600000CCF0C2019000CBE02460601824FC6058
:100270000F24FE600B14600824F66004241070073D
:100280007FA012178BD2019000CBE012089402B02D
:10029000A102DAA402ECA503A6A603C2A80500A940
:1002A000053DB005B0B1036EC00394FF000000AA85
:1002B000900084E030E70F7DC87C001205F77FA333
:1002C0001213EB02051A1217CF40030200AA7DE8B1
:1002D0007C031205F77FA2020535900084E020E739
:1002E000030200AA7FA41213EB0203BA9000CCE031
:1002F00060030200AA900085E024FC604E240460A4
:10030000030200AA1531900004E0FEA3E0FF7C0088
:100310007D801208BAE47B807A0FF9F81208029007
:100320000004E0FCA3E0FD900008E0FAA3E0FB7508
:100330003E4B900006E0F53FA3E0F540754119758E
:10034000421812065C7406F00204CCE53160171204
:10035000060ED3940050030204F112060E12064159
:100360001218080204F11206387FA0020535900029
:10037000CCE060030200AA900004E0FCA3E0FD7F53
:10038000017E00121600D296121808C2967FA012A3
:10039000178B800AE4FF12178BE49000CCF0D20197
:1003A00012064C0200AA900084E020E7030200AA93
:1003B000547FF537FD7FA61212EEE4900084F00220
:1003C00000AA9000CCE060030200AA900085E0241F
:1003D000FC70030204D2240460030200AA15311247
:1003E000005E900004E0647F702FA3E0FEA3E0FFB6
:1003F000A3E0FCA3E0FDA3E0FAA3E0FBA3E0F53E4D
:10040000A3E0F53FA3E0F540A3E0F541A3E0F5420A
:1004100012065C740CF00204C3900004E0FF1200AA
:100420002E8F36E536F470030204BEEF75F00EA48D
:100430002428F582E43418F583E493FE740193FFD5
:10044000C006C007121748242AF582E43418121790
:100450004FC004C005121748242DF582E43418F566
:1004600083E493FA740193FB1217482431F582E474
:100470003418F583E493FF121748242FF582E434EF
:100480001812174F1217482432F582E43418F583F6
:10049000E493FE1217482433F582E43418F583E41C
:1004A00093F5428E418C3F8D408F3ED005D004D0D5
:1004B00007D0061212749000747401F08005E49065
:1004C00000CBF09000CBE070030200AA12170002EC
:1004D00000AAE53160231217482434F582E4341869
:1004E000F583E493FFD394004007EF1206411218FE
:1004F00008E4900085F00200AA12064C7FA0803527
:10050000900084E0FF30E71C547FF5377DC87C0005
:100510001205DAAD377FAB1212EEE4900084F0D210
:10052000010200AA1217CF40030200AA7DE87C0353
:100530001205DA7FAA12178BD2010200AA900004DA
:10054000E025E0F5379000CCE060030200AA9000BF
:1005500085E0700512005E800B900085E064046009
:10056000030200AAE5376007E534C394045008E4A9
:100570009000CBF00200AA74062537F9E434007528
:100580003B01F53C893DC3E534953724FEF53E90AB
:100590000005E0F53F7B017A00790612116D7FA01E
:1005A00012178B90007CE0FF1214B2D2010200AA55
:1005B000900084E020E7030200AA7FB11211F2E468
:1005C000900084F00200AA7D327C007F017E001240
:1005D0001600D296121808C296227F017E001216CB
:1005E00000D296121808C2969000A8E52EF090004E
:1005F0007CE0FF1214B2227F017E00121600D29618
:10060000121808C29690007CE0FF1214B2227F01FB
:1006100012002EEF75F00EA42434F582E43418F5A0
:1006200083E493229000A87401F0E4900075F07FB9
:10063000A41214B290007C2290007CE0FF1214B24D
:1006400022FD7C007F017E001216002290007CE0DB
:10065000FF1214B2221214B290007C221212749073
:10066000007422BB010CE58229F582E5833AF5830B
:10067000E0225006E92582F8E622BBFE06E9258243
:10068000F8E222E58229F582E5833AF583E49322B4
:10069000BB010689828A83F0225002F722BBFE0149
:1006A000F322EF8DF0A4A8F0CF8CF0A428CE8DF02B
:1006B000A42EFE22BC000BBE0029EF8DF084FFADFE
:1006C000F022E4CCF875F008EF2FFFEE33FEEC33A8
:1006D000FCEE9DEC984005FCEE9DFE0FD5F0E9E4A4
:1006E000CEFD22EDF8F5F0EE8420D21CFEADF075C3
:1006F000F008EF2FFFED33FD4007985006D5F0F2DC
:1007000022C398FD0FD5F0EA22C2D5EC30E709B23A
:10071000D5E4C39DFDE49CFCEE30E715B2D5E4C3FF
:100720009FFFE49EFE1206B4C3E49DFDE49CFC80A2
:10073000031206B430D507C3E49FFFE49EFE22BB3C
:100740000110E58229F582E5833AF583E0F5F0A30F
:10075000E0225009E92582F886F008E622BBFE0A6D
:10076000E92582F8E2F5F008E222E5832AF583E93B
:1007700093F5F0A3E99322E88FF0A4CC8BF0A42C9E
:10078000FCE98EF0A42CFC8AF0EDA42CFCEA8EF09F
:10079000A4CDA8F08BF0A42DCC3825F0FDE98FF086
:1007A000A42CCD35F0FCEB8EF0A4FEA9F0EB8FF07D
:1007B000A4CFC5F02ECD39FEE43CFCEAA42DCE3505
:1007C000F0FDE43CFC2275F008758200EF2FFFEE8F
:1007D00033FECD33CDCC33CCC58233C5829BED9A6D
:1007E000EC99E58298400CF582EE9BFEED9AFDECCB
:1007F00099FC0FD5F0D6E4CEFBE4CDFAE4CCF9A811
:100800008222B800C1B90059BA002DEC8BF084CF18
:10081000CECDFCE5F0CBF97818EF2FFFEE33FEEDEF
:1008200033FDEC33FCEB33FB10D703994004EB9919
:10083000FB0FD8E5E4F9FA227818EF2FFFEE33FE2C
:10084000ED33FDEC33FCC933C910D7059BE99A4061
:1008500007EC9BFCE99AF90FD8E0E4C9FAE4CCFB79
:100860002275F010EF2FFFEE33FEED33FDCC33CCCD
:10087000C833C810D7079BEC9AE899400AED9BFD56
:10088000EC9AFCE899F80FD5F0DAE4CDFBE4CCFA69
:10089000E4C8F922D083D082F8E4937012740193F3
:1008A000700DA3A393F8740193F5828883E47374A5
:1008B00002936860EFA3A3A380DFEC8EF0A4CCC505
:1008C000F0CCCDF8EFA4CEC5F02DFDE43CFCE8A4BF
:1008D0002EC8C5F03DFDE43CFCEFA4FFE5F028FE8A
:1008E000E43DFDE43CFC22EF4E6012EF60010EEDB2
:1008F000BB010B89828A83F0A3DFFCDEFA2289F038
:100900005007F709DFFCA9F022BBFEFCF309DFFC6E
:10091000A9F022AFE9AEEA7C007D0A1206A28E0899
:100920008F09209303020B0285080A85090BC3E592
:1009300009950DF511E508950CF510900075E0147A
:100940007003020AFC046003020B23900085E0148C
:100950006065046003020B23900084E06003020BD7
:10096000239000A8E0FFAB11AA10AD0FAC0E120D42
:10097000F48F12E51264807003020B2390007F1243
:100980000C84900002E510F0A3E511120C40E490F5
:100990000074F0900077F090007EF0F513F514FEEF
:1009A0007F70FD7B017A0079041208E7E490007DF6
:1009B000F090008504F022E51275F00EA42472F583
:1009C00082E43418F583E493FFD39400400B900045
:1009D0007EE09F5004E004F022900088E014F09044
:1009E0000077E004F0AE10AF11AB07AA06E50F2BBD
:1009F000FFE50E3AFEE433FDE433FCC004A905AA8A
:100A000006AB07AE0EAF0F120C8CD0001208028F8F
:100A100022120C041200034029E51275F00EA424E2
:100A200078F582E43418F583E493FDAF22120003D5
:100A30004010120B246F600AE4900084F0C290A36F
:100A4000F022120C04AF221200035007120B24C331
:100A50009F4011D3E50F9514E50E9513402B120B13
:100A6000246F7025900086120C84D290120BD7C090
:100A700083C082120C7C7401A806088002C333D89C
:100A8000FC4FD082D083F0801790007A120C84C281
:100A900090D39514E50E95134006850E13850F141B
:100AA000900088E07015120BD7E0FF90007DE06F9A
:100AB000FF12171B90007DEF120C40120B246F7079
:100AC000621217C75005E4900083F0900083E0FFA6
:100AD00090007DE06F601D1217D77DF47C017F01CF
:100AE0007E001215D790007DE0900083F0A3E51200
:100AF000F04480F0C290E4900085F022AF11AE1077
:100B0000801E85080C85090DC3E509950BF50FE5D9
:100B100008950AF50E900075E0147007AF0FAE0E41
:100B2000120CA922E51275F00EA42479F582E434A2
:100B300018F583E493FF900077E022120802AB07D8
:100B4000AA06E4F9F87F407E427D0FFC120802E419
:100B50007BFFFAF9F8120777A804A905AA06AB07E4
:100B60007F207ED77D757C01120802EFF40422AE4F
:100B700026AF277C007D1F1206B48E2A8F2B7C00A7
:100B80007D051206B4C3E52B9FFDE52A9EFCD3E547
:100B9000259DE5249C22E52975F00EA42470F5829C
:100BA000E43418F583E493FE740193FF2438FDEEDA
:100BB00034FFFCD3E5279DE5269C22900074E024B9
:100BC00004F582E43400F58322E52525E0248AF546
:100BD00082E43400F58322900077E024FFFFE434C0
:100BE000FFFE7C007D0812070974042FF582740053
:100BF0003EF58322E52B2FFFE52A3EC3FEE5259F28
:100C0000E5249E22E51275F00EA42477F582E434E3
:100C100018F583E493FD22E52975F00EA4246EF502
:100C200082E43418F5832253DAFE53F7DF53F7BF1B
:100C300022AB3BAA3CA93D85408275830002066336
:100C4000F09000887408F022EF24C8FFE43EFEC351
:100C5000E5279FE5269E2275F0FFA4FFAEF07C00FD
:100C60007D640206B4900078E523F0A3E524F02229
:100C7000900081E0FF900077E0D39F22E0FF90009A
:100C800088E0FE22E50EF0A3E50FF0227C007D64F3
:100C90000208BA540F75F002A4F58285F08322D3BE
:100CA000E5279470E5269417228E238F24900085E3
:100CB000E0146035147003020D7E24026003020DFF
:100CC000E5C290900084E06003020DE5AF24AE23FE
:100CD0001217594003020DE5E4900001F0120C6573
:100CE0009000857401F0D29022900078E0FCA3E09F
:100CF000FDAE047802CEC313CE13D8F92DFFEC3E1F
:100D0000FED3E5249FE5239E4009120C65E4900084
:100D100001F022AF24AE23121474501A900001E0A7
:100D200094004012E4900074F09000887404F090F5
:100D300000857402F022C3E5249464E52394004006
:100D40003A120DE6501C120BC9E0FEA3E02524FF69
:100D5000E5233EC313FEEF13FF120BC9EEF0A3EF22
:100D6000F022900001E0120BCB120C68900001E021
:100D700004F0E0D3941E406DE4805EE48063B290A2
:100D8000AF24AE23121474500D900084E04480F020
:100D9000C290E4A3F022120DE65041900088E0B426
:100DA0000411E525C454F0FF120BBBEFF0E49000F2
:100DB00088F022120BBBE0FFE525540FFEEF4EF04A
:100DC000900074E004F09000887404F0900074E0E7
:100DD000D394704010E4900001F08005E49000018D
:100DE000F0900085F0227B007A007925AF24AE23B5
:100DF000121060228F238C248D258A268B2775283C
:100E000080E5236003020E87E4F529120C17E493B2
:100E1000FE740193FFD39400EE9400402BEF24382E
:100E2000FFEE34FFD3120BFC4052120C17740193E7
:100E300024C8FFE4933400120BFB5040120B964081
:100E40003B120C48503680647F0112002EEF65295A
:100E5000701E120C9F4025E5279450E526944650BD
:100E60001B120B6F4016120BF45011852928800CB1
:100E7000120B964007120C48500280300529E529D4
:100E8000C3940540868028AF2312002E8F29E529C0
:100E9000F4601C120C9F4017E5279450E5269446F9
:100EA000500D120B6F4008120BF45003852928AF28
:100EB0002822C0E0C0F0C083C082C0D075D000C07E
:100EC00000C001C002C003C004C005C006C007E5E1
:100ED000985403F547F45298E54730E01712181F6D
:100EE0009000C0121647EFF09000C0E004F0E0B4AC
:100EF0001402E4F0E54730E12E9000C2E0D3940004
:100F0000401A9000BFE02448F8E6FF12181C900039
:100F1000BFE004F09000C2E014F08002D202900022
:100F2000BFE0B42002E4F0D007D006D005D004D052
:100F300003D002D001D000D0D0D082D083D0F0D066
:100F4000E0324200C700004200C300004200C90076
:100F5000004200C500004100CC004100CB00410030
:100F60008400410085004100A80041007500410057
:100F70007C0041007656410089AB410000004100F1
:100F8000820042007F000042000200004200860012
:100F90000042007A000041008100410088004100C9
:100FA000770041007E004100740041008300410051
:100FB0007D00410001004100C0004100C10041002E
:100FC000BE004100BF004100C2004100BD00C1029F
:100FD0000012002A787FE4F6D8FD75816702101BA5
:100FE000020076E493A3F8E493A34003F68001F2B1
:100FF00008DFF48029E493A3F85407240CC8C33312
:10100000C4540F4420C8834004F456800146F6DFE0
:10101000E4800B0102040810204080900F42E47E1F
:10102000019360BCA3FF543F30E509541FFEE493D5
:10103000A360010ECF54C025E060A840B8E493A39C
:10104000FAE493A3F8E493A3C8C582C8CAC583CAC7
:10105000F0A3C8C582C8CAC583CADFE9DEE780BE7F
:101060008E268F278B288A29892AC200E4F52B90A7
:101070000001E0FFE52BC39F506BE527AE26780308
:10108000CEC313CE13D8F9FDAC06E527AE26780201
:10109000CEC313CE13D8F92DF52DEE3CF52CE52B50
:1010A000120BCBE0FEA3E0FFC3952DFDEE952CFCCB
:1010B000C3ED9527EC95265028E52D2FFFE52C3E16
:1010C000FEC3E5279FE5269E5017E52A45294528BA
:1010D000600BAB28AA29A92AE52B120690D2008022
:1010E00004052B808AA20022C0E0C0F0C083C08229
:1010F000C0D075D000C000C001C002C003C004C091
:1011000005C006C007E5D85487F521F452D8E5F7A5
:1011100030E508E5F730E60312152553F7DFE52142
:1011200030E708E5D930E003121825E52130E00862
:10113000E5DA30E003121652E52130E108E5DB3054
:10114000E003120913E52130E208E5DC30E0031288
:101150001826D007D006D005D004D003D002D00185
:10116000D000D0D0D082D083D0F0D0E0328B388A7B
:1011700039893A53DBFE120C2753E2FDE4F540E5D2
:1011800040C3953E504FAB38AA39A93AC003C002BC
:10119000C001120C31C4120C93D001D002D0031242
:1011A000073FF54285F041D2801211E4AB38AA39ED
:1011B000A93AC003C002C001120C31120C93D00135
:1011C000D002D00312073FF54285F041C2801211D0
:1011D000E4054080AAB290AF3F153FEF709E43E216
:1011E00002C29022FDAC417F0A7E001215561218F1
:1011F0000822AE07E4F5381216A1900001E004FFC2
:101200001216A812126D900001E0FFE538C39F503E
:101210001212163B12162E12163BF58312163505C6
:101220003880E3900078E0FF1216A890007812163C
:101230003512126D900088E07006900074E004F0A2
:10124000E4F538900074E0FFE538C39F501774044C
:1012500025381216290538E538541F70E61218197A
:1012600012181280DE7F551216A8021819121819CA
:10127000121812228E388F398C3A8D3BAE02AF0392
:10128000120C8CC007AF3EAB07E4FAF9F8D0071296
:101290000B3B900000F0AE3FAF40120C8CC007AF8C
:1012A00041AB07E4FAF9F8D007120B3B900082F04B
:1012B000E53E120C57900076EFF0E541120C579086
:1012C0000089EFF090007FE538F0A3E539F0900059
:1012D00002E53AF0A3E53BF0900081E542F043DA05
:1012E0000153F7DF43F74053DBFE75F9FF22AE07EA
:1012F000E4FCFB1216A1ED75F00EA424BFF582E408
:101300003418F583E493FFECC39F500774082CFC5A
:101310000B80E3EB04FF1216A8ED75F00EA424B3C6
:10132000F582E43418F583E493FF1216A8E4FCEC8C
:10133000C39B500974042C1216290C80F27F55129D
:1013400016A8021819C0E0C083C082C0D075D000B2
:10135000C004C005C006C00753C87F9000C7E0FEA8
:10136000A3E0FF4E700353C8FB9000C312146950F2
:10137000099000C7E4F0A3F0800DC39000C8E09D81
:10138000F09000C7E09CF0D007D006D005D004D084
:10139000D0D082D083D0E032C0E0C083C082C0D041
:1013A00075D000C004C005C006C00753917F9000EF
:1013B000C9E0FEA3E0FF4E70035391FB9000C512FD
:1013C000146950099000C9E4F0A3F0800DC39000A7
:1013D000CAE09DF09000C9E09CF0D007D006D0058F
:1013E000D004D0D0D082D083D0E032AE07E4FDF577
:1013F000381216A1900002E0FF1216A89000021207
:10140000163590007AE0FF1216A890007A12163571
:10141000900086E0FF1216A890008612163574041C
:101420002D1216290DBD03F67F551216A8021819A4
:10143000AB07AA06E4F9F87F407E427D0FFC120854
:1014400002A804A905AA06AB077F207ED77D757C7C
:1014500001120802C3E49FFFE49EFE22AB07AA0626
:10146000E4F9F87FE87E03FD22E0FCA3E0FDC3EF92
:101470009DEE9C22AD07AC06900078E0FEA3E078DC
:1014800002CEC313CE13D8F9FFC3900079E09FFBBF
:10149000900078E09EFAC3EB9DEA9C5013A3E02FE6
:1014A000FF900078E03EFEC3ED9FEC9E500280016D
:1014B000C3228F3890007CE0F5397F0B121822434D
:1014C000DB01120C271200707D0A7C007F017E0078
:1014D00012160012180843E202E4900085F0900012
:1014E00084F09000CBE538F090007CF0AF3922908A
:1014F00000C0E0FF9000BEE0B507057E017F00223E
:101500009000BE121647E0FD7C009000BEE004F0A3
:10151000E0B41402E4F09000BDE0FEEE4204E4F01A
:10152000AE04AF0522120C7040030216E2120BBB90
:10153000120C7CEFA806088002C313D8FC30E00B25
:10154000900000E0FF121822D29022900082E0FF6B
:10155000121822C290228E438F448C458D4612145D
:1015600030121773E54624BF9000CAF0E54534FFFA
:101570009000C9F09000C5E543F0A3E544F0439125
:101580000422D29053E2FDD28090007F12159DC2BA
:1015900090C28090000212159D43E20222E0FCA35B
:1015A000E0FD7F0A7E00121556121808221217DE7F
:1015B0001217E51217EC12179612002612173212A4
:1015C00017B41217A01217AA12177F1217F31217C7
:1015D000FA12180E0218018E238F248C258D2612E4
:1015E000145C12143D1217679000C7E525F0A3E5BF
:1015F00026F09000C3E523F0A3E524F043C80422BD
:101600008E3A8F3B8C3C8D3D12145C12143D1217A8
:10161000739000C9E53CF0A3E53DF09000C5E53AC4
:10162000F0A3E53BF043910422F582E43400F58316
:10163000E0FF0216A8A3E0FF0216A8E53825E02483
:101640008AF582E4340022E024A9F582E43400F52E
:101650008322900088E07008900074E004120C402F
:10166000900077E004F0900088E014F0120C7050C5
:101670000302167A53E2FDC28022120BBB120C7CCD
:10168000EFA806088002C313D8FC30E0059000766E
:101690008003900089E07D00FCE4FF1216C422AEB6
:1016A000077FAA1216A8AF06C2029000C1E0B420BC
:1016B00002E4F09000C1E02448F8A607E004F0A39B
:1016C000E004F022AB07AF04EB14600C14600E24AE
:1016D00002700E8DFB8FFC228DE98FEA228DEB8F3D
:1016E000EC22E4FDFCFF1216C4120C27121816534C
:1016F000D87853E2FDC280C2909000857404F02235
:10170000120C41E014F09000777401F090008574A1
:1017100003F012167A1215820200707E1DE4FDEFAE
:1017200030E70625E06EFF8004EF25E0FF0DBD08E1
:10173000EE22AF885388AF758CA0758DCBEF5440E7
:10174000FEEF54104E428822E53675F00EA422F5C5
:1017500083E493FC740193FD22C3EF94ACEE940DEB
:101760004003D38001C322AD07AC06ECF5CBAF0537
:101770008FCA22AD07AC06ECF593AF058F9222C25B
:10178000DE75D90575F9FF7596012212169F7F55F2
:101790001216A802181975E34075E10175E20222DC
:1017A000E59154045391FB429122758E5475892220
:1017B00043885022E5C8540453C8FB42C8225398BA
:1017C0004FEB4F4DF59822E5C8C320E201D322E547
:1017D00091C320E201D32253C8FB53C87F227597DF
:1017E000DE7597AD2275A41175D4CE2275A541750D
:1017F000D5772253F77F75DA4A2253F77F75DB30AE
:101800002275E69075A8B022E59120E2FB2243986C
:1018100010223002FD22C2DE22D299228F9922AFFD
:1018200099228F8C2222220100000000000000007B
:10183000004B1918000212C005DC0002BC012C4646
:101840001E2808030BB8232800044C01904B1918DC
:101850000004251C0BB80003840140461E18000537
:10186000000072D80702BC012C2640400001000095
:10187000000000000000004B1918000212C005DC37
:101880000002BC012C461E2808030BB823280004C4
:101890004C01904B19180004251C0BB8000384015F
:1018A00040461E180005000072D80702BC012C2615
:1018B000404000010000000000000000004B19182B
:1018C000000212C005DC0002BC012C461E280803E1
:1018D0000BB8232800044C01904B19180004251C58
:1018E0000BB80003840140461E180005000072D8A2
:0918F0000702BC012C2640400057
:00000001FF
