:020000040000FA
:10000000021027ED24F8FEEFD39E4015ED2408FDE5
:10001000E433FCC3EF9DEC6480F874809850028058
:1000200001C322020F08E4F5A9222202139B7EFFDE
:10003000EFD394004022EF9480501DE4FDED75F065
:100040000EA424DDF582E43418F583E493B50704A7
:10005000AE0580040DBD05E5AF062202113E121863
:100060008653D87853DBFE121847E4900085F022BF
:10007000D2DE220213EED20112162EC290C296D206
:1000800080E4FBFD7F1012182E12064374A4F0D2F8
:10009000AFE4F52FF530D2960530E5307002052F2C
:1000A000B410F3E52FB427EEC296300109121545BE
:1000B0008E328F338006753201753300E53370045C
:1000C000E532640170409000CCE07007F52FF53008
:1000D0000202870530E5307002052FD39410E52F1A
:1000E00094274002D296D3E5309430E52F94755092
:1000F00003020287E4F52FF5309000CCF09000CB9E
:10010000F0C296020287E4F52FF5309000CCE0149F
:10011000602A14700302025914700302021E147044
:100120000302023424046003020287E53364AA60F8
:10013000030202879000CC04F0020287E5339000AE
:10014000CBF0A37402F0E5331208B30206A00170ED
:10015000A10182A501A6A601BAA701C3A801DFA932
:1001600001C6B001CFB10197C00287FF00000215A0
:100170001205E69000A87401F0E4900075F07FA1EC
:10018000806E12005E9000CC7404F0753108E4F5C6
:10019000357534090202879000CC7404F0E4F5351B
:1001A000753402020287E49000A8F0900075F07F99
:1001B000A612067474A6F002028712064374A4F015
:1001C0000202877531089000CC7403F00202879018
:1001D00000757401F07FB1120674EFF0020287120D
:1001E00005E69000A8E0F52EE4F0900075F07FA9F8
:1001F00012150890007CEFF07D307C757F017E0049
:1002000012168102028712065790007CEFF0E490EC
:1002100000CCF08072E49000CBF0A3F08069E4F5AC
:1002200035E533F534E534D394009000CC402574A3
:1002300004F0805374042535F582E43400F583E539
:1002400033F00535E53565346007E535C394704016
:10025000369000CC7402F0802EE5336455702890FF
:1002600000CCF0C2019000CBE02460601824FC6058
:100270000F24FE600B14600824F66004241070073D
:100280007FA01217FBD2019000CBE01208B302B09E
:10029000A102DAA402ECA503C5A603E1A8051FA9E3
:1002A000055CB005CFB1038DC003B3FF000000AA09
:1002B000900084E030E70F7DC87C001206167FA313
:1002C00012144102053912183F40030200AA7DE8CA
:1002D0007C031206167FA2020554900084E020E7FA
:1002E000030200AA7FA41214410203D99000CCE0BB
:1002F00060030200AA900085E024FC606D24046085
:10030000030200AA1531900008E0FEA3E0FF7C0084
:100310007D641208D9C006C0071215D8D007D006D0
:100320001208218F3E900006E0FEA3E0FF8E3FF50D
:10033000407C007D641208D9C006C0071215D8D0D1
:1003400007D0061208218F41754218900008E0FA84
:10035000A3E0FB900004E0FCA3E0FDA3E0FEA3E02B
:10036000FF12067B7406F00204EBE53160171206FB
:100370002DD39400500302051012062D12066012B0
:1003800018780205101206577FA00205549000CC81
:10039000E060030200AA900004E0FCA3E0FD7F01FE
:1003A0007E00121681D296121878C2967FA012177C
:1003B000FB800AE4FF1217FBE49000CCF0D201129C
:1003C000066B0200AA900084E020E7030200AA5412
:1003D0007FF537FD7FA6121344E4900084F00200FD
:1003E000AA9000CCE060030200AA900085E024FC03
:1003F00070030204F1240460030200AA1531120004
:100400005E900004E0647F702FA3E0FEA3E0FFA3F2
:10041000E0FCA3E0FDA3E0FAA3E0FBA3E0F53EA32C
:10042000E0F53FA3E0F540A3E0F541A3E0F542127B
:10043000067B740CF00204E2900004E0FF12002E30
:100440008F36E536F470030204DDEF75F00EA42458
:1004500098F582E43418F583E493FE740193FFC0A9
:1004600006C0071215F2249AF582E434181215F921
:10047000C004C0051215F2249DF582E43418F583FA
:10048000E493FA740193FB1215F224A1F582E4348B
:1004900018F583E493FF1215F2249FF582E43418D3
:1004A0001215F91215F224A2F582E43418F583E44A
:1004B00093FE1215F224A3F582E43418F583E49335
:1004C000F5428E418C3F8D408F3ED005D004D00741
:1004D000D0061212CA9000747401F08005E49000F6
:1004E000CBF09000CBE070030200AA12178102004B
:1004F000AAE53160231215F224A4F582E43418F53C
:1005000083E493FFD394004007EF1206601218783B
:10051000E4900085F00200AA12066B7FA08035905F
:100520000084E0FF30E71C547FF5377DC87C001263
:1005300005F9AD377FAB121344E4900084F0D2018B
:100540000200AA12183F40030200AA7DE87C0312B1
:1005500005F97FAA1217FBD2010200AA900004E05D
:1005600025E0F5379000CCE060030200AA900085FA
:10057000E0700512005E800B900085E0640460036B
:100580000200AAE5376007E534C394045008E490FC
:1005900000CBF00200AA74062537F9E43400753B5D
:1005A00001F53C893DC3E534953724FEF53E9000C6
:1005B00005E0F53F7B017A0079061211C37FA01296
:1005C00017FB90007CE0FF121508D2010200AA90F0
:1005D0000084E020E7030200AA7FB1121248E490F1
:1005E0000084F00200AA7D327C007F017E0012169A
:1005F00081D296121878C296227F017E001216814F
:10060000D296121878C2969000A8E52EF090007C41
:10061000E0FF121508227F017E00121681D2961289
:100620001878C29690007CE0FF121508227F011214
:10063000002EEF75F00EA424A4F582E43418F5839F
:10064000E493229000A87401F0E4900075F07FA478
:1006500012150890007C2290007CE0FF1215082201
:10066000FD7C007F017E001216812290007CE0FF5D
:100670001215082212150890007C221212CA90004E
:100680007422BB010CE58229F582E5833AF583E00B
:10069000225006E92582F8E622BBFE06E92582F80B
:1006A000E222E58229F582E5833AF583E49322BBD1
:1006B000010689828A83F0225002F722BBFE01F3F1
:1006C00022EF8DF0A4A8F0CF8CF0A428CE8DF0A45A
:1006D0002EFE22BC000BBE0029EF8DF084FFADF092
:1006E00022E4CCF875F008EF2FFFEE33FEEC33FC7C
:1006F000EE9DEC984005FCEE9DFE0FD5F0E9E4CEB2
:10070000FD22EDF8F5F0EE8420D21CFEADF075F080
:1007100008EF2FFFED33FD4007985006D5F0F22289
:10072000C398FD0FD5F0EA22C2D5EC30E709B2D567
:10073000E4C39DFDE49CFCEE30E715B2D5E4C39F15
:10074000FFE49EFE1206D3C3E49DFDE49CFC8003FF
:100750001206D330D507C3E49FFFE49EFE22BB01FF
:1007600010E58229F582E5833AF583E0F5F0A3E010
:10077000225009E92582F886F008E622BBFE0AE944
:100780002582F8E2F5F008E222E5832AF583E99371
:10079000F5F0A3E99322E88FF0A4CC8BF0A42CFC15
:1007A000E98EF0A42CFC8AF0EDA42CFCEA8EF0A4D7
:1007B000CDA8F08BF0A42DCC3825F0FDE98FF0A466
:1007C0002CCD35F0FCEB8EF0A4FEA9F0EB8FF0A45D
:1007D000CFC5F02ECD39FEE43CFCEAA42DCE35F099
:1007E000FDE43CFC2275F008758200EF2FFFEE332C
:1007F000FECD33CDCC33CCC58233C5829BED9AEC94
:1008000099E58298400CF582EE9BFEED9AFDEC99FD
:10081000FC0FD5F0D6E4CEFBE4CDFAE4CCF9A88207
:1008200022B800C1B90059BA002DEC8BF084CFCEAC
:10083000CDFCE5F0CBF97818EF2FFFEE33FEED336A
:10084000FDEC33FCEB33FB10D703994004EB99FB31
:100850000FD8E5E4F9FA227818EF2FFFEE33FEED1A
:1008600033FDEC33FCC933C910D7059BE99A400727
:10087000EC9BFCE99AF90FD8E0E4C9FAE4CCFB223E
:1008800075F010EF2FFFEE33FEED33FDCC33CCC807
:1008900033C810D7079BEC9AE899400AED9BFDEC12
:1008A0009AFCE899F80FD5F0DAE4CDFBE4CCFAE451
:1008B000C8F922D083D082F8E49370127401937047
:1008C0000DA3A393F8740193F5828883E4737402F3
:1008D000936860EFA3A3A380DFEC8EF0A4CCC5F0F7
:1008E000CCCDF8EFA4CEC5F02DFDE43CFCE8A42E61
:1008F000C8C5F03DFDE43CFCEFA4FFE5F028FEE4B4
:100900003DFDE43CFC22EF4E6012EF60010EEDBBBA
:10091000010B89828A83F0A3DFFCDEFA2289F05082
:1009200007F709DFFCA9F022BBFEFCF309DFFCA9F5
:10093000F022AFE9AEEA7C007D0A1206C18E088F74
:1009400009209303020B1085080A85090BC3E509EA
:10095000950DF511E508950CF510900075E01470F3
:1009600003020B0A046003020B31900085E014605F
:1009700065046003020B31900084E06003020B31D8
:100980009000A8E0FFAB11AA10AD0FAC0E120E4BF9
:100990008F12E51264807003020B3190007F120CFD
:1009A0009D900002E510F0A3E511120C59E49000AF
:1009B00074F0900077F090007EF0F513F514FE7F50
:1009C00070FD7B017A007904120906E490007DF045
:1009D00090008504F022E51275F00EA424E2F58261
:1009E000E43418F583E493FFD39400400B90007E29
:1009F000E09F5004E004F022900088E014F09000A2
:100A000077E004F0AE10AF11AB07AA06E50F2BFF9D
:100A1000E50E3AFEE433FDE433FCC004A905AA0662
:100A2000AB07AE0EAF0F120CA5D0001208218F221B
:100A3000120C121200034029E51275F00EA424E8EE
:100A4000F582E43418F583E493FDAF2212000340ED
:100A500010120B326F600AE4900084F0C290A3F091
:100A600022120C12AF221200035007120B32C39F46
:100A70004011D3E50F9514E50E9513402B120B3260
:100A80006F7025900086120C9DD290120BE5C083EA
:100A9000C082120C957401A806088002C333D8FCEA
:100AA0004FD082D083F0801790007A120C9DC290B4
:100AB000D39514E50E95134006850E13850F1490FB
:100AC0000088E07011120BE5120C28FF12179C90A1
:100AD000007DEF120C59120B326F705512183750FF
:100AE00005E4900083F0120C2560171218477DF47E
:100AF0007C017F017E00121658120CB8E512F044FA
:100B000080F0C290E4900085F022AF11AE10801EFC
:100B100085080C85090DC3E509950BF50FE50895CA
:100B20000AF50E900075E0147007AF0FAE0E120CB0
:100B3000CC22E51275F00EA424E9F582E43418F510
:100B400083E493FF900077E022120821AB07AA0606
:100B5000E4F9F87F407E427D0FFC120821E47BFF20
:100B6000FAF9F8120796A804A905AA06AB077F2090
:100B70007ED77D757C01120821EFF4042290007469
:100B8000E02404F582E43400F58322AE26AF277C0E
:100B9000007D1F1206D38E2A8F2B7C007D05120646
:100BA000D3C3E52B9FFDE52A9EFCD3E5259DE524D7
:100BB0009C22E52975F00EA424E0F582E43418F5B2
:100BC00083E493FE740193FF2438FDEE34FFFCD3DD
:100BD000E5279DE5269C22E52525E0248AF582E48B
:100BE0003400F58322900077E024FFFFE434FFFE19
:100BF0007C007D0812072874042FF58274003EF5EE
:100C00008322E52B2FFFE52A3EC3FEE5259FE52441
:100C10009E22E51275F00EA424E7F582E43418F55F
:100C200083E493FD22900083E0FF90007DE06F223B
:100C3000E52975F00EA424DEF582E43418F583224C
:100C400053DAFE53F7DF53F7BF22AB3BAA3CA93D73
:100C5000854082758300020682F09000887408F057
:100C600022EF24C8FFE43EFEC3E5279FE5269E222F
:100C700075F0FFA4FFAEF07C007D640206D3900007
:100C800078E523F0A3E524F022900081E0FF9000B6
:100C900077E0D39F22E0FF900088E0FE22E50EF08F
:100CA000A3E50FF0227C007D640208D9540F75F093
:100CB00002A4F58285F0832290007DE0900083F00D
:100CC000A322D3E5279470E5269417228E238F2440
:100CD000900085E0146035147003020DA7240260B3
:100CE00003020E3CC290900084E06003020E3CAF11
:100CF00024AE231217C94003020E3CE4900001F019
:100D0000120C7E9000857401F0D29022900078E061
:100D1000FCA3E0FDAE047802CEC313CE13D8F92DA8
:100D2000FFEC3EFED3E5249FE5239E4009120C7E96
:100D3000E4900001F022AF24AE231214CA501F9099
:100D40000001E094004017E4900074F09000887473
:100D500004F0E490007DF09000857402F022C3E579
:100D6000249464E5239400406F120E3D501C120B36
:100D7000D7E0FEA3E02524FFE5233EC313FEEF13D7
:100D8000FF120BD7EEF0A3EFF022900001E0120B60
:100D9000D9120C81900001E004F0E0D3941E5003BE
:100DA000020E3CE4020E2DB290AF24AE231214CA00
:100DB00050291218375005E4900083F0120C25607A
:100DC000151218477DF47C017F017E00121658121F
:100DD0000CB8E04480F0C290E4805D120E3D5050AB
:100DE000900088E0B40411E525C454F0FF120B7D97
:100DF000EFF0E4900088F022120B7DE0FFE525542F
:100E00000FFEEF4EF0900074E004F0900088740440
:100E1000F0120B7D120C28FF12179CEFF09000745B
:100E2000E0D394704016121847E4900001F0800857
:100E3000121847E4900001F0900085F0227B007AC0
:100E4000007925AF24AE231210B6228F238C248D77
:100E5000258A268B27752880E523707CE4F5297F79
:100E60000112002EEF6529701B120CC2405FE527AE
:100E70009450E52694465055120B8B4050120C02AC
:100E8000504B807E120C30E493FE740193FFD39498
:100E900000EE9400402BEF2438FFEE34FFD3120C09
:100EA0000A402A120C3074019324C8FFE4933400E2
:100EB000120C095018120BB24013120C61500E8024
:100EC00041120BB24007120C61500280350529E532
:100ED00029C394054089802DAF2312002E8F297FCE
:100EE0000112002EEF6529701C120CC24017E52775
:100EF0009450E5269446500D120B8B4008120C02BC
:100F00005003852928AF2822C0E0C0F0C083C082EA
:100F1000C0D075D000C000C001C002C003C004C072
:100F200005C006C007E5985403F547F45298E54715
:100F300030E01712188F9000C01216C8EFF0900022
:100F4000C0E004F0E0B41402E4F0E54730E12E9094
:100F500000C2E0D39400401A9000BFE02448F8E6B5
:100F6000FF12188C9000BFE004F09000C2E014F073
:100F70008002D2029000BFE0B42002E4F0D007D09B
:100F800006D005D004D003D002D001D000D0D0D0FC
:100F900082D083D0F0D0E0324200C700004200C3CC
:100FA00000004200C900004200C500004100CC0022
:100FB0004100CB0041008400410085004100A800B1
:100FC0004100750041007C0041007656410089AB2C
:100FD000410000004100820042007F000042000208
:100FE0000000420086000042007A000041008100BB
:100FF000410088004100770041007E0041007400FC
:101000004100830041007D00410001004100C0001B
:101010004100C1004100BE004100BF004100C200CC
:101020004100BD00C1020012002A787FE4F6D8FD1D
:10103000758167021071020076E493A3F8E493A32C
:101040004003F68001F208DFF48029E493A3F8540A
:1010500007240CC8C333C4540F4420C8834004F48D
:1010600056800146F6DFE4800B01020408102040A0
:1010700080900F98E47E019360BCA3FF543F30E55D
:1010800009541FFEE493A360010ECF54C025E06015
:10109000A840B8E493A3FAE493A3F8E493A3C8C5E3
:1010A00082C8CAC583CAF0A3C8C582C8CAC583CAD4
:1010B000DFE9DEE780BE8E268F278B288A29892AE2
:1010C000C200E4F52B900001E0FFE52BC39F506BBD
:1010D000E527AE267803CEC313CE13D8F9FDAC06B0
:1010E000E527AE267802CEC313CE13D8F92DF52D01
:1010F000EE3CF52CE52B120BD9E0FEA3E0FFC395E7
:101100002DFDEE952CFCC3ED9527EC95265028E59A
:101110002D2FFFE52C3EFEC3E5279FE5269E5017A9
:10112000E52A45294528600BAB28AA29A92AE52BE1
:101130001206AFD2008004052B808AA20022C0E0F4
:10114000C0F0C083C082C0D075D000C000C001C054
:1011500002C003C004C005C006C007E5D85487F527
:1011600021F452D8E5F730E508E5F730E60312152B
:101170007B53F7DFE52130E708E5D930E0031218AB
:1011800095E52130E008E5DA30E0031216D3E521D9
:1011900030E108E5DB30E003120932E52130E208F6
:1011A000E5DC30E003121896D007D006D005D00455
:1011B000D003D002D001D000D0D0D082D083D0F0E4
:1011C000D0E0328B388A39893A53DBFE120C405317
:1011D000E2FDE4F540E540C3953E504FAB38AA39F7
:1011E000A93AC003C002C001120C4AC4120CACD010
:1011F00001D002D00312075EF54285F041D2801281
:10120000123AAB38AA39A93AC003C002C001120C85
:101210004A120CACD001D002D00312075EF5428511
:10122000F041C28012123A054080AAB290AF3F1539
:101230003FEF709E43E202C29022FDAC417F0A7EE6
:10124000001215AC12187822AE07E4F538121722F6
:10125000900001E004FF1217291212C3900001E070
:10126000FFE538C39F50121216BC1216AF1216BCFF
:10127000F5831216B6053880E3900078E0FF121768
:10128000299000781216B61212C3900088E07006FA
:10129000900074E004F0E4F538900074E0FFE53865
:1012A000C39F5017740425381216AA0538E5385420
:1012B0001F70E612188912188280DE7F55121729D6
:1012C000021889121889121882228E388F398C3AA6
:1012D0008D3BAE02AF03120CA5C007AF3EAB07E4D7
:1012E000FAF9F8D007120B49900000F0AE3FAF407A
:1012F000120CA5C007AF41AB07E4FAF9F8D007120A
:101300000B49900082F0E53E120C70900076EFF0F1
:10131000E541120C70900089EFF090007FE538F005
:10132000A3E539F0900002E53AF0A3E53BF0900028
:1013300081E542F043DA0153F7DF43F74053DBFE28
:1013400075F9FF22AE07E4FCFB121722ED75F00ED3
:10135000A4242FF582E43419F583E493FFECC39FB2
:10136000500774082CFC0B80E3EB04FF121729EDE7
:1013700075F00EA42423F582E43419F583E493FF79
:10138000121729E4FCECC39B500974042C1216AA12
:101390000C80F27F55121729021889C0E0C083C063
:1013A00082C0D075D000C004C005C006C00753C8B5
:1013B0007F9000C7E0FEA3E0FF4E700353C8FB9090
:1013C00000C31214BF50099000C7E4F0A3F0800DD1
:1013D000C39000C8E09DF09000C7E09CF0D007D01B
:1013E00006D005D004D0D0D082D083D0E032C0E087
:1013F000C083C082C0D075D000C004C005C006C084
:101400000753917F9000C9E0FEA3E0FF4E700353A5
:1014100091FB9000C51214BF50099000C9E4F0A3DD
:10142000F0800DC39000CAE09DF09000C9E09CF0F0
:10143000D007D006D005D004D0D0D082D083D0E061
:1014400032AE07E4FDF538121722900002E0FF12D9
:1014500017299000021216B690007AE0FF121729A1
:1014600090007A1216B6900086E0FF1217299000BD
:10147000861216B674042D1216AA0DBD03F67F55FA
:10148000121729021889AB07AA06E4F9F87F407EF3
:10149000427D0FFC120821A804A905AA06AB077F0C
:1014A000207ED77D757C01120821C3E49FFFE49E56
:1014B000FE22AB07AA06E4F9F87FE87E03FD22E0EE
:1014C000FCA3E0FDC3EF9DEE9C22AD07AC069000AF
:1014D00078E0FEA3E07802CEC313CE13D8F9FFC3A1
:1014E000900079E09FFB900078E09EFAC3EB9DEAC4
:1014F0009C5013A3E02FFF900078E03EFEC3ED9FC9
:10150000EC9E50028001C3228F3890007CE0F539B8
:101510007F0B12189243DB01120C401200707D0AFF
:101520007C007F017E0012168112187843E202E4EB
:10153000900085F0900084F09000CBE538F09000AA
:101540007CF0AF39229000C0E0FF9000BEE0B5070C
:10155000057E017F00229000BE1216C8E0FD7C00CF
:101560009000BEE004F0E0B41402E4F09000BDE0AE
:10157000FEEE4204E4F0AE04AF0522120C894003F3
:10158000021763120B7D120C95EFA806088002C3A8
:1015900013D8FC30E00B900000E0FF121892D290BC
:1015A00022900082E0FF121892C290228E438F4454
:1015B0008C458D461214861217E3E54624BF900031
:1015C000CAF0E54534FF9000C9F09000C5E543F04E
:1015D000A3E544F043910422900006E0FEA3E0FF5F
:1015E000900009E02FFF900008E03EAB07FAE4F915
:1015F000F822E53675F00EA422F583E493FC74011D
:1016000093FD22D29053E2FDD28090007F12161EED
:10161000C290C28090000212161E43E20222E0FC39
:10162000A3E0FD7F0A7E001215AC12187822121872
:101630004E12185512185C1218061200261217B313
:1016400012182412181012181A1217EF1218631217
:10165000186A12187E0218718E268F278C288D2901
:101660001214B21214931217D79000C7E528F0A3F2
:10167000E529F09000C3E526F0A3E527F043C80470
:10168000228E3A8F3B8C3C8D3D1214B21214931271
:1016900017E39000C9E53CF0A3E53DF09000C5E5F7
:1016A0003AF0A3E53BF043910422F582E43400F5DF
:1016B00083E0FF021729A3E0FF021729E53825E0A0
:1016C000248AF582E4340022E024A9F582E434007F
:1016D000F58322900088E07008900074E004120CFA
:1016E00059900077E004F0900088E014F0120C8923
:1016F00050030216FB53E2FDC28022120B7D120C36
:1017000095EFA806088002C313D8FC30E0059000CE
:10171000768003900089E07D00FCE4FF12174522EB
:10172000AE077FAA121729AF06C2029000C1E0B42B
:101730002002E4F09000C1E02448F8A607E004F09D
:10174000A3E004F022AB07AF04EB14600C14600EAE
:101750002402700E8DFB8FFC228DE98FEA228DEB27
:101760008FEC22E4FDFCFF121745120C4012188684
:1017700053D87853E2FDC280C2909000857404F083
:1017800022120C5AE014F09000777401F09000855A
:101790007403F01216FB1216030200707E1DE4FDA6
:1017A000EF30E70625E06EFF8004EF25E0FF0DBD7A
:1017B00008EE22AF885388AF758CA0758DCBEF549F
:1017C00040FEEF54104E428822C3EF94ACEE940DCD
:1017D0004003D38001C322AD07AC06ECF5CBAF05C7
:1017E0008FCA22AD07AC06ECF593AF058F9222C2EB
:1017F000DE75D90575F9FF759601221217207F5500
:1018000012172902188975E34075E10175E2022279
:10181000E59154045391FB429122758E54758922AF
:1018200043885022E5C8540453C8FB42C822539849
:101830004FEB4F4DF59822E5C8C320E201D322E5D6
:1018400091C320E201D32253C8FB53C87F2275976E
:10185000DE7597AD2275A41175D4CE2275A541759C
:10186000D5772253F77F75DA4A2253F77F75DB303D
:101870002275E69075A8B022E59120E2FB224398FC
:1018800010223002FD22C2DE22D299228F9922AF8D
:1018900099228F8C22222201019030700006400193
:1018A000904B1918000212C005DC0002BC012C4646
:1018B0001E2808030BB8232800044C01904B19186C
:1018C0000004251C0BB80003840140461E180005C7
:1018D000000072D80702BC012C2640400001019094
:1018E000307000064001904B1918000212C005DC50
:1018F0000002BC012C461E2808030BB82328000454
:101900004C01904B19180004251C0BB800038401EE
:1019100040461E180005000072D80702BC012C26A4
:10192000404000010190307000064001904B1918B2
:10193000000212C005DC0002BC012C461E28080370
:101940000BB8232800044C01904B19180004251CE7
:101950000BB80003840140461E180005000072D831
:091960000702BC012C26404000E6
:00000001FF
