:020000040000FA
:10000000020F4EED24F8FEEFD39E4015ED2408FDBF
:10001000E433FCC3EF9DEC6480F874809850028058
:1000200001C322020EBE120D354003021611120C3E
:10003000A2120D41EFA806088002C313D8FC30E0DD
:100040000B900000E0FF1216F7D29022900081E0A2
:10005000FF1216F7C29022E4F5A922021065E536D8
:1000600075F00EA422F583E493FC740193FD224302
:10007000981022021263D201121541C290C296D288
:1000800080E4FBFD7F101216A312061B74A4F0D2AD
:10009000AFE4F52FF530D2960530E5307002052F2C
:1000A000B410F3E52FB427EEC296300109121408FC
:1000B0008E328F338006753201753300E53370045C
:1000C000E532640170409000C6E07007F52FF5300E
:1000D00002028B0530E5307002052FD39410E52F16
:1000E00094274002D296D3E5309430E52F94755092
:1000F0000302028BE4F52FF5309000C6F09000C5A6
:10010000F0C29602028BE4F52FF5309000C6E014A1
:10011000602A14700302025914700302021E147044
:10012000030202342404600302028BE53364AA60F4
:100130000302028B9000C604F002028BE5339000AC
:10014000C5F0A37402F0E5331208820206A0017024
:10015000A10182A501A6A601BAA701C3A801DFA932
:1001600001C6B001CFB10197C0028BFF000002159C
:100170001205BE9000A67401F0E4900075F07FA116
:10018000806E12165B9000C67404F0753108E4F5B9
:100190003575340902028B9000C67404F0E4F5351D
:1001A00075340202028BE49000A6F0900075F07F97
:1001B000A612064374A6F002028B12061B74A4F06A
:1001C00002028B7531089000C67403F002028B9016
:1001D00000757401F07FB1120643EFF002028B123A
:1001E00005BE9000A6E0F52EE4F0900075F07FA922
:1001F00012139590007CEFF07D307C757F017E00BE
:1002000012143E02028B12062F90007CEFF0E49055
:1002100000C6F08076E49000C5F0A3F0806DE4F5B0
:1002200035E533F534E534D394009000C6402574A9
:1002300004F0805774042535F582E43400F583E535
:1002400033F00535E53565346007E535C394704016
:100250003A9000C67402F08032E5336455702C90F9
:1002600000C6F0C2019000C5E02460601C24FC6060
:100270001324FE600F14600C24F6600824B260049E
:10028000245E70077FA0121684D2019000C5E01290
:10029000088202B1A102DBA402EDA50398A603B473
:1002A000A804F7A90534B005A7B1036FC00000008A
:1002B000AA900082E030E70F7DC87C001205EE7F37
:1002C000A31213120205111216AC40030200AA7DFC
:1002D000E87C031205EE7FA202052C900082E0204C
:1002E000E7030200AA7FA41213120203AC9000C617
:1002F000E060030200AA900083E024FC604E240426
:1003000060030200AA1531900004E0FEA3E0FF7C28
:10031000007D801208A8E47B807A0FF9F81207F0BC
:10032000900004E0FCA3E0FD900008E0FAA3E0FBED
:10033000753E4B900006E0F53FA3E0F5407541198E
:1003400075421812064A7406F00204BEE5316017C1
:10035000120605D3940050030204E31206051206A8
:10036000381216DE0204E312062F7FA002052C903D
:1003700000C6E060030200AA900004E0FCA3E0FDD8
:100380007F017E0012143ED2961216DEC2967FA026
:10039000121684D201020566900082E020E7030273
:1003A00000AA547FF537FD7FA61212BBE4900082AD
:1003B000F00200AA9000C6E060030200AA90008349
:1003C000E024FC70030204C4240460030200AA15A4
:1003D0003112165B900004E0647F702FA3E0FEA34F
:1003E000E0FFA3E0FCA3E0FDA3E0FAA3E0FBA3E0B1
:1003F000F53EA3E0F53FA3E0F540A3E0F541A3E01F
:10040000F54212064A740CF00204B5900004E0FFB5
:1004100012146D8F36E536F470030204B0EF75F0F8
:100420000EA424FEF582E43416F583E493FE7401F1
:1004300093FFC006C00712005E2400F582E4341763
:10044000120065C004C00512005E2403F582E43486
:1004500017F583E493FA740193FB12005E2407F509
:1004600082E43417F583E493FF12005E2405F582DD
:10047000E4341712006512005E2408F582E4341794
:10048000F583E493FE12005E2409F582E43417F547
:1004900083E493F5428E418C3F8D408F3ED005D052
:1004A00004D007D0061211E99000747401F08005A1
:1004B000E49000C5F09000C5E070030200AA121598
:1004C000F30200AAE531602312005E240AF582E4FB
:1004D0003417F583E493FFD394004007EF120638F6
:1004E0001216DEE4900083F00200AA90007CE0FF88
:1004F0001213957FA08035900082E0FF30E71C54F6
:100500007FF5377DC87C001205D1AD377FAB121265
:10051000BBE4900082F0D2010200AA1216AC4003A4
:100520000200AA7DE87C031205D17FAA121684D2AC
:10053000010200AA900004E025E0F5379000C6E033
:1005400060030200AA900083E0700512165B800B26
:10055000900083E0640460030200AAE5376007E5C9
:1005600034C394045008E49000C5F00200AA740655
:100570002537F9E43400753B01F53C893DC3E5348A
:10058000953724FEF53E900005E0F53F7B017A00AB
:100590007906120E217FA012168490007CE0FF12D3
:1005A0001395D2010200AA900082E020E703020026
:1005B000AA7FB11210EAE4900082F00200AA7D3214
:1005C0007C007F017E0012143ED2961216DEC29687
:1005D000227F017E0012143ED2961216DEC2969041
:1005E00000A6E52EF090007CE0FF121395227F011B
:1005F0007E0012143ED2961216DEC29690007CE067
:10060000FF121395227F0112146DEF75F00EA424D2
:100610000AF582E43417F583E493229000A674016E
:10062000F0E4900075F07FA412139590007C229066
:10063000007CE0FF12139522FD7C007F017E0012FA
:10064000143E2212139590007C221211E99000743E
:1006500022BB010CE58229F582E5833AF583E0228D
:100660005006E92582F8E622BBFE06E92582F8E27B
:1006700022E58229F582E5833AF583E49322BB01E2
:100680000689828A83F0225002F722BBFE01F32200
:10069000EF8DF0A4A8F0CF8CF0A428CE8DF0A42E7E
:1006A000FE22BC000BBE0029EF8DF084FFADF022CE
:1006B000E4CCF875F008EF2FFFEE33FEEC33FCEEE0
:1006C0009DEC984005FCEE9DFE0FD5F0E9E4CEFDD3
:1006D00022EDF8F5F0EE8420D21CFEADF075F008A6
:1006E000EF2FFFED33FD4007985006D5F0F222C3FF
:1006F00098FD0FD5F0EA22C2D5EC30E709B2D5E477
:10070000C39DFDE49CFCEE30E715B2D5E4C39FFF2A
:10071000E49EFE1206A2C3E49DFDE49CFC8003124D
:1007200006A230D507C3E49FFFE49EFE22BB011062
:10073000E58229F582E5833AF583E0F5F0A3E0222E
:100740005009E92582F886F008E622BBFE0AE92571
:1007500082F8E2F5F008E222E5832AF583E993F5D1
:10076000F0A3E99322E88FF0A4CC8BF0A42CFCE951
:100770008EF0A42CFC8AF0EDA42CFCEA8EF0A4CD23
:10078000A8F08BF0A42DCC3825F0FDE98FF0A42C37
:10079000CD35F0FCEB8EF0A4FEA9F0EB8FF0A4CFEA
:1007A000C5F02ECD39FEE43CFCEAA42DCE35F0FD9B
:1007B000E43CFC2275F008758200EF2FFFEE33FE5B
:1007C000CD33CDCC33CCC58233C5829BED9AEC9929
:1007D000E58298400CF582EE9BFEED9AFDEC99FCCB
:1007E0000FD5F0D6E4CEFBE4CDFAE4CCF9A8822212
:1007F000B800C1B90059BA002DEC8BF084CFCECD32
:10080000FCE5F0CBF97818EF2FFFEE33FEED33FD6A
:10081000EC33FCEB33FB10D703994004EB99FB0F4F
:10082000D8E5E4F9FA227818EF2FFFEE33FEED3326
:10083000FDEC33FCC933C910D7059BE99A4007EC9E
:100840009BFCE99AF90FD8E0E4C9FAE4CCFB2275E5
:10085000F010EF2FFFEE33FEED33FDCC33CCC83379
:10086000C810D7079BEC9AE899400AED9BFDEC9ADB
:10087000FCE899F80FD5F0DAE4CDFBE4CCFAE4C853
:10088000F922D083D082F8E4937012740193700D32
:10089000A3A393F8740193F5828883E4737402939D
:1008A0006860EFA3A3A380DFEC8EF0A4CCC5F0CCEE
:1008B000CDF8EFA4CEC5F02DFDE43CFCE8A42EC895
:1008C000C5F03DFDE43CFCEFA4FFE5F028FEE43D6F
:1008D000FDE43CFC22EF4E6012EF60010EEDBB0127
:1008E0000B89828A83F0A3DFFCDEFA2289F05007AD
:1008F000F709DFFCA9F022BBFEFCF309DFFCA9F03D
:1009000022AFE9AEEA7C007D0A1206908E088F09BC
:10091000209303020ACB85080A85090BC3E50995D4
:100920000DF511E508950CF510900075E0147003B5
:10093000020AC5046003020AEC900083E0146065BB
:10094000046003020AEC900082E06003020AEC906B
:1009500000A6E0FFAB11AA10AD0FAC0E120D648F14
:1009600012E51264807003020AEC90007E120D49B9
:10097000900002E510F0A3E511F09000867408F0F5
:10098000E4900074F0900077F090007DF0F513F59E
:1009900014FE7F70FD7B017A0079041208D5900067
:1009A000837401F022E51275F00EA42448F582E468
:1009B0003417F583E493FFD39400400B90007DE05F
:1009C0009F5004E004F022900086E014F09000773D
:1009D000E004F0AE10AF11AB07AA06E50F2BFFE560
:1009E0000E3AFEE433FDE433FCC004A905AA06ABCD
:1009F00007AE0EAF0F120D51D0001207F08F22126A
:100A00000CBE1200034029E51275F00EA4244EF529
:100A100082E43417F583E493FDAF22120003401003
:100A2000120C326F600AE4900082F0C290A3F022B0
:100A3000120CBEAF221200035007120C32C39F40AB
:100A400011D3E50F9514E50E95134044120C326F47
:100A5000703E900084120D49D290900077E024FF00
:100A6000FFE434FFFE7C007D081206F774042FF5C6
:100A70008274003EF583C083C082120D417401A8C8
:100A800006088002C333D8FC4FD082D083F0801791
:100A900090007A120D49C290D39514E50E9513403B
:100AA00006850E13850F14900086E070037408F01D
:100AB000120C326F7036900082E512F04480F0C262
:100AC00090E4A3F022AF11AE10801E85080C8509BA
:100AD0000DC3E509950BF50FE508950AF50E900095
:100AE00075E0147007AF0FAE0E120AED228E238F41
:100AF00024900083E0146035147003020BC22402BA
:100B00006003020C23C290900082E06003020C2379
:100B1000AF24AE2312166A4003020C23E4900001B6
:100B2000F0120D179000837401F0D290229000789B
:100B3000E0FCA3E0FDAE047802CEC313CE13D8F9D7
:100B40002DFFEC3EFED3E5249FE5239E4009120DC8
:100B500017E4900001F022AF24AE23121357501A6D
:100B6000900001E094004012E4900074F090008640
:100B70007404F09000837402F022C3E5249464E5C9
:100B8000239400403A120C24501C120CB0E0FEA337
:100B9000E02524FFE5233EC313FEEF13FF120CB044
:100BA000EEF0A3EFF022900001E0120CB2120D1A49
:100BB000900001E004F0E0D3941E4067E48058E424
:100BC000805DB290AF24AE23121357500D90008277
:100BD000E04480F0C290E4A3F022120C24503B9039
:100BE0000086E0B40411E525C454F0FF120CA2EF16
:100BF000F0E4900086F022120CA2E0FFE525540FED
:100C0000FEEF4EF0120D227404F0900074E0D394C5
:100C1000704010E4900001F08005E4900001F09035
:100C20000083F0227B007A007925AF24AE23120FD7
:100C3000DD22E51275F00EA4244FF582E43417F599
:100C400083E493FF900077E0221207F0AB07AA0637
:100C5000E4F9F87F407E427D0FFC1207F0E47BFF51
:100C6000FAF9F8120765A804A905AA06AB077F20C0
:100C70007ED77D757C011207F0EFF40422E528751C
:100C8000F00EA42446F582E43417F583E493FC7453
:100C90000193FD2438FBEC34FFFAD3E5269BE525D0
:100CA0009A22900074E02404F582E43400F5832253
:100CB000E52525E02488F582E43400F58322E51259
:100CC00075F00EA4244DF582E43417F583E493FD0A
:100CD00022E52875F00EA42444F582E43417F58348
:100CE0002253DAFE53F7DF53F7BF22AB3BAA3CA9EE
:100CF0003D854082758300020651ED24C8FDE43C29
:100D0000FCC3E5269DE5259C2275F0FFA4FFAEF00F
:100D10007C007D640206A2900078E523F0A3E52420
:100D2000F022900074E004F090008622D3FCE524C9
:100D30009DE5239C22900080E0FF900077E0D39F08
:100D400022E0FF900086E0FE22E50EF0A3E50FF022
:100D5000227C007D640208A8540F75F002A4F5827D
:100D600085F083228C238D248A258B26752780EF9E
:100D70007056E4F528120CD1E493FC740193FDD372
:100D80009400EC9400402BED2438FDEC34FF120D60
:100D90002C402B120CD174019324C8FDE493340031
:100DA000C3120D2D5018120C7D4013120CFA500E68
:100DB0008069120C7D4007120CFA5002805D0528F4
:100DC000E528640570AF805612146D8F28E528F46D
:100DD000604CD3E5269470E52594174041E52694B0
:100DE00050E52594465037AE25AF267C007D1F1276
:100DF00006A28E298F2A7C007D0A1206A2C3E52A4C
:100E00009FFDE5299E120D2C4014E52A2FFFE529B0
:100E10003EFEC3E5249FE5239E5003852827AF2788
:100E2000228B388A39893A53DBFE120CE153E2FDFA
:100E3000D2807D077C007F017E0012143E1216DEF8
:100E4000C2807D647C007F0A7E001213D21216DEFF
:100E5000E4F540E540C3953E5055AB38AA39A93A70
:100E6000C003C002C001120CEBC4120D58D001D057
:100E700002D00312072DF54285F041D280FFAE412A
:100E80001214EFAB38AA39A93AC003C002C001124C
:100E90000CEB120D58D001D002D00312072DF542F1
:100EA00085F041C280FFAE411214EF054080A4B22C
:100EB00090AF3F153FEF709843E202C29022C0E02E
:100EC000C0F0C083C082C0D075D000C000C001C0D7
:100ED00002C003C004C005C006C007E5985403F56E
:100EE00047F45298E54730E0171216F49000BE120E
:100EF0001536EFF09000BEE004F0E0B41402E4F028
:100F0000E54730E12E9000C0E0D39400401A9000F5
:100F1000BDE02448F8E6FF1216F19000BDE004F0B1
:100F20009000C0E014F08002D2029000BDE0B42036
:100F300002E4F0D007D006D005D004D003D002D010
:100F400001D000D0D0D082D083D0F0D0E0321216C1
:100F5000FA787FE4F6D8FD758167020F9802007673
:100F6000E493A3F8E493A34003F68001F208DFF4CE
:100F70008029E493A3F85407240CC8C333C4540F46
:100F80004420C8834004F456800146F6DFE4800B19
:100F9000010204081020408090116CE47E019360EF
:100FA000BCA3FF543F30E509541FFEE493A3600146
:100FB0000ECF54C025E060A840B8E493A3FAE493B0
:100FC000A3F8E493A3C8C582C8CAC583CAF0A3C85E
:100FD000C582C8CAC583CADFE9DEE780BE8E268F18
:100FE000278B288A29892AC200E4F52B900001E08A
:100FF000FFE52BC39F506BE527AE267803CEC313C6
:10100000CE13D8F9FDAC06E527AE267802CEC31381
:10101000CE13D8F92DF52DEE3CF52CE52B120CB2A4
:10102000E0FEA3E0FFC3952DFDEE952CFCC3ED95EE
:1010300027EC95265028E52D2FFFE52C3EFEC3E535
:10104000279FE5269E5017E52A45294528600BABCA
:1010500028AA29A92AE52B12067ED2008004052B96
:10106000808AA20022C0E0C0F0C083C082C0D075D8
:10107000D000C000C001C002C003C004C005C0064B
:10108000C007E5D85487F521F452D8E5F730E508D4
:10109000E5F730E60312002653F7DFE52130E708D5
:1010A000E5D930E0031216FBE52130E008E5DA303F
:1010B000E0031215B2E52130E108E5DB30E0031270
:1010C0000901E52130E208E5DC30E0031216FCD02E
:1010D00007D006D005D004D003D002D001D000D074
:1010E000D0D082D083D0F0D0E032AE07E4F5381211
:1010F000158F900001E004FF121596121165900003
:1011000001E0FFE538C39F501212152A12151D1277
:10111000152AF583121524053880E3900078E0FF46
:10112000121596900078121524121165900086E031
:101130007006900074E004F0E4F538900074E0FF6D
:10114000E538C39F5017740425381215180538E583
:1011500038541F70E61216EE1216E480DE7F551228
:1011600015960216EE1216EE1216E4224200C30085
:10117000004200C100004100C6004100C50041001E
:101180008200410083004100A6004100750041003B
:101190007C0041007656410087AB410000004100D1
:1011A000810042007E0000420002000042008400F4
:1011B0000042007A000041008000410086004100AA
:1011C000770041007D0041007400410001004100B2
:1011D000BE004100BF004100BC004100BD00410015
:1011E000C0004100BB00C102008E388F398C3A8D9F
:1011F0003BAE02AF03120D51C007AF3EAB07E4FA9E
:10120000F9F8D007120C49900000F0AE3FAF401241
:101210000D51C007AF41AB07E4FAF9F8D007120C43
:1012200049900081F0E53E120D09900076EFF0E55F
:1012300041120D09900087EFF090007EE538F0A391
:10124000E539F0900002E53AF0A3E53BF09000802C
:10125000E542F043DA0153F7DF43F74053DBFE7515
:10126000F9FF22C0E0C083C082C0D075D000C004A6
:10127000C005C006C00753917F9000C3E0FEA3E005
:10128000FF4E70035391FB9000C1E0FCA3E0FDC34F
:10129000EF9DEE9C5007A3E4F0A3F0800DC39000F7
:1012A000C4E09DF09000C3E09CF0D007D006D005CC
:1012B000D004D0D0D082D083D0E032AE07E4FCFBA3
:1012C00012158FED75F00EA42495F582E43417F510
:1012D00083E493FFECC39F500774082CFC0B80E35E
:1012E000EB04FF121596ED75F00EA42489F582E447
:1012F0003417F583E493FF121596E4FCECC39B507E
:101300000974042C1215180C80F27F5512159602E0
:1013100016EEAE07E4FDF53812158F900002E0FFDF
:1013200012159690000212152490007AE0FF121513
:101330009690007A121524900084E0FF1215969082
:10134000008412152474042D1215180DBD03F67FA8
:10135000551215960216EEAD07AC06900078E0FE29
:10136000A3E07802CEC313CE13D8F9FFC39000795F
:10137000E09FFB900078E09EFAC3EB9DEA9C50133F
:10138000A3E02FFF900078E03EFEC3ED9FEC9E505F
:10139000028001C3228F3890007CE0F5397F0B1268
:1013A00016F743DB01120CE11216E87D0A7C007F80
:1013B000017E0012143E1216DE43E202E490008326
:1013C000F0900082F09000C5E538F090007CF0AF1E
:1013D00039228E438F448C458D46AB07AA06E4F92B
:1013E000F87F407E427D0F1214C5E54624BF900071
:1013F000C4F0E54534FF9000C3F09000C1E543F030
:10140000A3E544F0439104229000BEE0FF9000BCAD
:10141000E0B507057E017F00229000BC121536E082
:10142000FD7C009000BCE004F0E0B41402E4F09015
:1014300000BBE0FEEE4204E4F0AE04AF05228E43B2
:101440008F448C458D46AB07AA06E4F9F87FE87E09
:1014500003FD1214C59000C3E545F0A3E546F090E6
:1014600000C1E543F0A3E544F0439104227EFFEF81
:10147000D394004022EF9480501DE4FDED75F00EF2
:10148000A42443F582E43417F583E493B50704AE4E
:101490000580040DBD05E5AF0622D29053E2FDD2D2
:1014A0008090007E1214B5C290C280900002121487
:1014B000B543E20222E0FCA3E0FD7F0A7E001213A6
:1014C000D21216DE22FC1207F0A804A905AA06AB68
:1014D000077F207ED77D757C011207F0C3E49FFF54
:1014E000E49EFEAD07AC06ECF593AF058F9222C3E8
:1014F000EF9414EE9400401F74EC2FFF74FF3EFE37
:10150000EF25E0FFEE33FED3EF9400EE94004007AA
:10151000EF1F70F31E80F022F582E43400F583E0C3
:10152000FF021596A3E0FF021596E53825E0248812
:10153000F582E4340022E024A7F582E43400F58348
:10154000221216B41216BB1216C212168F120057B0
:1015500012162F1216451216991216781216C91263
:1015600016D012006F0216D7120CA2120D41EFA86E
:1015700006088002C313D8FC30E005900076800393
:10158000900087E07D00FCE4FF1215D522AE077FB6
:10159000AA121596AF06C2029000BFE0B42002E482
:1015A000F09000BFE02448F8A607E004F0A3E004B0
:1015B000F022900086E07006120D227408F0900070
:1015C00077120D25E014F0120D3550030215685303
:1015D000E2FDC28022AB07AF04EB14600C14600E76
:1015E0002402700E8DFB8FFC228DE98FEA228DEB99
:1015F0008FEC229000867408F0E014F0900077746D
:1016000001F09000837403F012156812149A021608
:10161000E8E4FDFCFF1215D5120CE11216EB53D8CD
:101620007853E2FDC280C2909000837404F022AF30
:10163000885388AF758CA0758DCBEF5440FEEF5466
:10164000104E428822E59154045391FB7595FF7525
:1016500094FF7593FF7592864291221216EB53D830
:101660007853DBFEE4900083F022C3EF94ACEE9459
:101670000D4003D38001C322C2DE75D90575F9FF81
:101680007596012212158D7F551215960216EE756C
:10169000E34075E10175E20222758E4475892243AB
:1016A00088502253984FEB4F4DF59822E591C32077
:1016B000E201D3227597DE7597AD2275A41175D41A
:1016C000CE2275A54175D5772253F77F75DA4A2268
:1016D00053F77F75DB302275E69075A89022E5916F
:1016E00020E2FB223002FD22D2DE22C2DE22D2998B
:1016F000228F9922AF99228F8C2222222201000070
:10170000000000000000004B1918000212C005DCA8
:101710000002BC012C461E2808030BB82328000435
:101720004C01904B19180004251C0BB800038401D0
:1017300040461E180005000072D80702BC012C2686
:10174000404000010000000000000000004B19189C
:10175000000212C005DC0002BC012C461E28080352
:101760000BB8232800044C01904B19180004251CC9
:101770000BB80003840140461E180005000072D813
:101780000702BC012C2640400001000000000000C0
:101790000000004B1918000212C005DC0002BC0159
:1017A0002C461E2808030BB8232800044C01904B3C
:1017B00019180004251C0BB80003840140461E18AC
:0F17C0000005000072D80702BC012C2640400033
:00000001FF
