:020000040000FA
:10000000020D88E4FDFCFF1214F6120C9E1215FC82
:1000100053D87853E2FDC28043E202900083740417
:10002000F02222020EA38E418F428C438D44AB07F7
:10003000AA06E4F9F87F407E427D0F121468E5437A
:10004000F0A3E544F09000C1E541F0A3E542F043A0
:10005000910422E591C320E201D322020FB7E534D7
:1000600075F00DA422F583E493FC740193FD22E462
:10007000F5A922021206D201121441C290C296D2F0
:1000800080E4FBFD7F101215BC12058274A4F0D22F
:10009000AFE4F52EF52FD296052FE52F7002052E31
:1000A000B410F3E52EB427EEC29630010912130CFA
:1000B0008E308F318006753001753100E531700466
:1000C000E530640170409000C6E07007F52EF52F12
:1000D00002026C052FE52F7002052ED39410E52E39
:1000E00094274002D296D3E52F9430E52E94755094
:1000F0000302026CE4F52EF52F9000C6F09000C5C7
:10010000F0C29602026CE4F52EF52F9000C6E014C2
:10011000602A14700302023E14700302020314707A
:10012000030202192404600302026CE53164AA6030
:100130000302026C9000C604F002026CE5319000EC
:10014000C5F0A37402F0E5311207DE01EBA0016AED
:10015000A1017CA5018EA601A2A701ABA801C4A99B
:1001600001ABB001B4B1000001FA12053B9000A64A
:100170007401F0E4900075F07FA1805912155E9033
:1001800000C67404F0E4F53375320902026CE490A1
:1001900000A6F0900075F07FA612059F74A6F002ED
:1001A000026C12058274A4F002026C9000C6740303
:1001B000F002026C9000757401F07FB112059FEFA0
:1001C000F002026C12053B9000A6E0F52DE4F090E1
:1001D0000075F07FA912139B90007CEFF07D307CBE
:1001E000757F017E0012136F02026C12059690005B
:1001F0007CEFF0E49000C6F08072E49000C5F0A3BC
:10020000F08069E4F533E531F532E532D3940090BE
:1002100000C640257404F0805374042533F582E44D
:100220003400F583E531F00533E53365326007E5E9
:1002300033C3947040369000C67402F0802EE531CE
:10024000645570289000C6F0C2019000C5E024609B
:10025000601824FC600F24FE600B14600824F66014
:1002600004241070077FA0121593D2019000C5E0FE
:10027000245C605414606214700302033E24FE7018
:100280000302035A14700302047424F97003020475
:10029000B1147003020524241060030200AA900028
:1002A00082E030E70F7DC87C0012056B7FA312123D
:1002B0005302048E12005340030200AA7DE87C031F
:1002C00012056B7FA20204A9900082E020E70302DE
:1002D00000AA7FA412125380799000C6E060030246
:1002E00000AA900083E024FC604C24046003020018
:1002F000AA900004E0FEA3E0FF7C007D80120804C9
:10030000E47B807A0FF9F812074C900004E0FCA31C
:10031000E0FD900008E0FAA3E0FB753C4B9000067E
:10032000E0F53DA3E0F53E753F197540181205A6AE
:100330007407F00204621205967FA00204A99000DF
:1003400082E020E7030200AA547FF535FD7FA61264
:1003500011AFE4900082F00200AA9000C6E06003B2
:100360000200AA900083E024FC70030204682404C5
:1003700060030200AA12155E900004E0647F702FF3
:10038000A3E0FEA3E0FFA3E0FCA3E0FDA3E0FAA34B
:10039000E0FBA3E0F53CA3E0F53DA3E0F53EA3E0E0
:1003A000F53FA3E0F5401205A6740CF00204599045
:1003B0000004E0FF1213428F34E534F470030204AA
:1003C00054EF75F00DA4240EF582E43416F583E4A1
:1003D00093FE740193FFC006C00712005E2410F55F
:1003E00082E43416120065C004C00512005E2413B6
:1003F000F582E43416F583E493FA740193FB12005A
:100400005E2417F582E43416F583E493FF12005E50
:100410002415F582E4341612006512005E2418F5E6
:1004200082E43416F583E493FE12005E2419F5820B
:10043000E43416F583E493F5408E3F8C3D8D3E8F7A
:100440003CD005D004D007D0061211389000747447
:1004500001F08005E49000C5F09000C5E070030253
:1004600000AA1215140200AA90007CE0FF12139B50
:100470007FA08035900082E0FF30E71C547FF53587
:100480007DC87C0012054EAD357FAB1211AFE490F4
:100490000082F0D2010200AA12005340030200AA17
:1004A0007DE87C0312054E7FAA121593D20102004B
:1004B000AA900004E025E0F5359000C6E060030254
:1004C00000AA900083E0700512155E800B900083F7
:1004D000E0640460030200AAE5356007E532C394D6
:1004E000045008E49000C5F00200AA74062535F90E
:1004F000E43400753901F53A893BC3E5329535247A
:10050000FEF53C900005E0F53D7B017A007906128E
:100510000E177FA012159390007CE0FF12139BD260
:10052000010200AA900082E020E7030200AA7FB146
:1005300012103CE4900082F00200AA7D327C007F21
:10054000017E0012136FD2961215EFC296227F0120
:100550007E0012136FD2961215EFC2969000A6E598
:100560002DF090007CE0FF12139B227F017E001291
:10057000136FD2961215EFC29690007CE0FF121313
:100580009B229000A67401F0E4900075F07FA41205
:10059000139B90007C2290007CE0FF12139B2212A0
:1005A000139B90007C2212113890007422BB010C26
:1005B000E58229F582E5833AF583E0225006E925B4
:1005C00082F8E622BBFE06E92582F8E222E58229CE
:1005D000F582E5833AF583E49322BB010689828A9A
:1005E00083F0225002F722BBFE01F322EF8DF0A42C
:1005F000A8F0CF8CF0A428CE8DF0A42EFE22BC0053
:100600000BBE0029EF8DF084FFADF022E4CCF8752D
:10061000F008EF2FFFEE33FEEC33FCEE9DEC98403C
:1006200005FCEE9DFE0FD5F0E9E4CEFD22EDF8F5D8
:10063000F0EE8420D21CFEADF075F008EF2FFFED38
:1006400033FD4007985006D5F0F222C398FD0FD530
:10065000F0EA22C2D5EC30E709B2D5E4C39DFDE44F
:100660009CFCEE30E715B2D5E4C39FFFE49EFE127A
:1006700005FEC3E49DFDE49CFC80031205FE30D51D
:1006800007C3E49FFFE49EFE22BB0110E58229F52B
:1006900082E5833AF583E0F5F0A3E0225009E925ED
:1006A00082F886F008E622BBFE0AE92582F8E2F528
:1006B000F008E222E5832AF583E993F5F0A3E993B4
:1006C00022E88FF0A4CC8BF0A42CFCE98EF0A42CB3
:1006D000FC8AF0EDA42CFCEA8EF0A4CDA8F08BF0FF
:1006E000A42DCC3825F0FDE98FF0A42CCD35F0FCFD
:1006F000EB8EF0A4FEA9F0EB8FF0A4CFC5F02ECDC9
:1007000039FEE43CFCEAA42DCE35F0FDE43CFC22AD
:1007100075F008758200EF2FFFEE33FECD33CDCCA0
:1007200033CCC58233C5829BED9AEC99E582984023
:100730000CF582EE9BFEED9AFDEC99FC0FD5F0D600
:10074000E4CEFBE4CDFAE4CCF9A88222B800C1B92A
:100750000059BA002DEC8BF084CFCECDFCE5F0CB68
:10076000F97818EF2FFFEE33FEED33FDEC33FCEBA1
:1007700033FB10D703994004EB99FB0FD8E5E4F95C
:10078000FA227818EF2FFFEE33FEED33FDEC33FC49
:10079000C933C910D7059BE99A4007EC9BFCE99A3D
:1007A000F90FD8E0E4C9FAE4CCFB2275F010EF2F82
:1007B000FFEE33FEED33FDCC33CCC833C810D70782
:1007C0009BEC9AE899400AED9BFDEC9AFCE899F8BD
:1007D0000FD5F0DAE4CDFBE4CCFAE4C8F922D083FB
:1007E000D082F8E4937012740193700DA3A393F870
:1007F000740193F5828883E4737402936860EFA3B5
:10080000A3A380DFEC8EF0A4CCC5F0CCCDF8EFA490
:10081000CEC5F02DFDE43CFCE8A42EC8C5F03DFD9E
:10082000E43CFCEFA4FFE5F028FEE43DFDE43CFCE5
:1008300022EF4E6012EF60010EEDBB010B89828A40
:1008400083F0A3DFFCDEFA2289F05007F709DFFC12
:10085000A9F022BBFEFCF309DFFCA9F022AFE9AE50
:10086000EA7C007D0A1205EC8E088F0920930302B2
:100870000A1785080A85090BC3E509950DF511E5E9
:1008800008950CF510900075E0147003020A11042D
:100890006003020A38900083E0146065046003027C
:1008A0000A38900082E06003020A389000A6E0FF58
:1008B000AB11AA10AD0FAC0E120CA58F12E512648D
:1008C000807003020A3890007E120C78900002E5D6
:1008D00010F0A3E511F09000867408F0E490007425
:1008E000F0900077F090007DF0F513F514FE7F7026
:1008F000FD7B017A0079041208319000837401F0C5
:1009000022E51275F00DA42453F582E43416F58324
:10091000E493FFD39400400B90007DE09F5004E0EF
:1009200004F022900086E014F0900077E004F0AE2E
:1009300010AF11AB07AA06E50F2BFFE50E3AFEE458
:1009400033FDE433FCC004A905AA06AB07AE0EAF25
:100950000F120C80D00012074CE51275F00DA42484
:1009600058F582E43416F583E493FE24F8FDEFD3C2
:100970009D401AEE2408FDE433FCC3EF9DEC648037
:10098000F87480985007120BC8C39F4011D3E50F2D
:100990009514E50E95134044120BC86F703E9000FD
:1009A00084120C78D290900077E024FFFFE434FFAB
:1009B000FE7C007D0812065374042FF58274003EFD
:1009C000F583C083C082120C707401A806088002EF
:1009D000C333D8FC4FD082D083F0801790007A12B6
:1009E0000C78C290D39514E50E95134006850E132E
:1009F000850F14900086E070037408F0120BC86F26
:100A00007036900082E512F04480F0C290E4A3F0CA
:100A100022AF11AE10801E85080C85090DC3E509B3
:100A2000950BF50FE508950AF50E900075E014702A
:100A300007AF0FAE0E120A39228E228F2390008349
:100A4000E0146035147003020B0E24026003020BE5
:100A50006FC290900082E06003020B6FAF23AE2262
:100A600012156D4003020B6FE4900001F0120C4D63
:100A70009000837401F0D29022900078E0FCA3E013
:100A8000FDAE047802CEC313CE13D8F92DFFEC3E91
:100A9000FED3E5239FE5229E4009120C4DE4900011
:100AA00001F022AF23AE22121298501A900001E0FA
:100AB00094004012E4900074F09000867404F0906A
:100AC00000837402F022C3E5239464E5229400407D
:100AD0003A120B70501C120BFAE0FEA3E02523FF24
:100AE000E5223EC313FEEF13FF120BFAEEF0A3EF65
:100AF000F022900001E0120BFC120C50900001E07B
:100B000004F0E0D3941E4067E48058E4805DB29026
:100B1000AF23AE22121298500D900082E04480F074
:100B2000C290E4A3F022120B70503B900086E0B418
:100B30000411E524C454F0FF120BDFEFF0E4900041
:100B400086F022120BDFE0FFE524540FFEEF4EF09B
:100B5000120C667404F0900074E0D394704010E4BA
:100B6000900001F08005E4900001F0900083F022F5
:100B70007B007A007924AF23AE22120F2F22E97571
:100B8000F00DA42451F582E43416F583E493FE7449
:100B90000193FF2212074CAB07AA06E4F9F87F4045
:100BA0007E427D0FFC12074CE47BFFFAF9F8120637
:100BB000C1A804A905AA06AB077F207ED77D757C56
:100BC0000112074CEFF40422E51275F00DA4245A2B
:100BD000F582E43416F583E493FF900077E02290E9
:100BE0000074E02404F582E43400F58322E975F012
:100BF0000DA4244FF582E4341622E52425E0248850
:100C0000F582E43400F58322EF24E8FFEE3403FE9E
:100C1000C3E5269FE5259E222438FDEE34FFFCD354
:100C2000E5269DE5259C22D3FEE5249FE5239E2213
:100C3000AB39AA3AA93B853E827583000205AD75A2
:100C4000F0FFA4FFAEF07C007D640205FE9000780A
:100C5000E522F0A3E523F02253E2FDD2807D077C5C
:100C6000007F017E0022900074E004F09000862254
:100C7000E0FF900086E0FE22E50EF0A3E50FF022F3
:100C80007C007D64020804540F75F002A4F582858F
:100C9000F08322C2807D647C007F0A7E002253DACA
:100CA000FE53F7BF228F228C238D248A258B267535
:100CB0002780E5227068E4F9120BED120B8AD394B9
:100CC00000EE94004039EF2438FFEE34FF120C2779
:100CD0004044120BEDF58374019324C8FFE4933470
:100CE00000C3120C28502F120B7E120C184027EF55
:100CF00024C8FFE43E120C0F501C8927020D8512F8
:100D00000B7E120C18400FEF24C8FFE43E120C0FAC
:100D100050048927806F09E96405709C8067AF22C1
:100D2000121342A907E9F4605C120BED120B8AD38F
:100D30009400EE94004039EF2418FFEE34FC120CBE
:100D4000274042120BEDF58374019324E8FFE493EE
:100D50003403FEC3120C29502C120B7E2418FDEE16
:100D600034FC120C1E401E120C08501989278015E5
:100D7000120B7E2418FDEE34FC120C1E4007120CE0
:100D80000850028927AF2722120022787FE4F6D884
:100D9000FD758165020DD2020076E493A3F8E49319
:100DA000A34003F68001F208DFF48029E493A3F85E
:100DB0005407240CC8C333C4540F4420C8834004D0
:100DC000F456800146F6DFE4800B0102040810208F
:100DD00040809010BDE47E019360BCA3FF543F307F
:100DE000E509541FFEE493A360010ECF54C025E033
:100DF00060A840B8E493A3FAE493A3F8E493A3C8EB
:100E0000C582C8CAC583CAF0A3C8C582C8CAC5837B
:100E1000CADFE9DEE780BE8B368A37893853DBFECE
:100E2000120C9E120C5812136F1215EF120C931223
:100E300000261215EFE4F53EE53EC3953C5055AB58
:100E400036AA37A938C003C002C001120C30C41240
:100E50000C87D001D002D003120689F54085F03FFF
:100E6000D280FFAE3F1213C7AB36AA37A938C003F2
:100E7000C002C001120C30120C87D001D002D00386
:100E8000120689F54085F03FC280FFAE3F1213C7BE
:100E9000053E80A4B290AF3D153DEF709843E2024D
:100EA000C29022C0E0C0F0C083C082C0D075D00024
:100EB000C000C001C002C003C004C005C006C00716
:100EC000E5985403F545F45298E54530E0171216BD
:100ED000059000BE12140EEFF09000BEE004F0E0AA
:100EE000B41402E4F0E54530E12A9000C0E0D39468
:100EF0000040189000BDE02446F8E6FF121602906C
:100F000000BDE004F09000C0E014F09000BDE0B43B
:100F10002002E4F0D007D006D005D004D003D002E0
:100F2000D001D000D0D0D082D083D0F0D0E0328EAB
:100F3000258F268B278A288929C200E4F52A90006C
:100F400001E0FFE52AC39F506BE526AE257803CE6E
:100F5000C313CE13D8F9FDAC06E526AE257802CE34
:100F6000C313CE13D8F92DF52CEE3CF52BE52A1240
:100F70000BFCE0FEA3E0FFC3952CFDEE952BFCC31C
:100F8000ED9526EC95255028E52C2FFFE52B3EFE10
:100F9000C3E5269FE5259E5017E52945284527608E
:100FA0000BAB27AA28A929E52A1205DAD20080046A
:100FB000052A808AA20022C0E0C0F0C083C082C09F
:100FC000D075D000C000C001C002C003C004C0057D
:100FD000C006C007E5D85487F521F452D8E5F730AC
:100FE000E508E5F730E6031214D553F7DFE52130C5
:100FF000E708E5D930E00312160BE52130E008E5FB
:10100000DA30E003121419E52130E108E5DB30E0C5
:101010000312085DE52130E208E5DC30E00312163A
:101020000CD007D006D005D004D003D002D001D018
:1010300000D0D0D082D083D0F0D0E032AE07E4F53B
:10104000361214B4900001E0FF1214BB1210B690D7
:101050000001E0FFE536C39F50121214021213F58F
:10106000121402F5831213FC053680E3900078E039
:10107000FF1214BB9000781213FC1210B690008679
:10108000E07006900074E004F0E4F536900074E03F
:10109000FFE536C39F5017740425361213F005364A
:1010A000E536541F70E61215FF1215B280DE7F552B
:1010B0001214BB0215FF1215FF1215B2224200C313
:1010C00000004200C100004100C6004100C50041CF
:1010D000008200410083004100A6004100750041EC
:1010E000007C0041007656410087AB410000004182
:1010F00000810042007E00004200020000420084A5
:10110000000042007A00004100800041008600415A
:1011100000770041007D0041007400410001004162
:1011200000BE004100BF004100BC004100BD0041C5
:1011300000C0004100BB00008E368F378C388D39DF
:10114000AE02AF03120C80C007AF3CAB07E4FAF964
:10115000F8D007120B94900000F0AE3DAF3E120C99
:1011600080C007AF3FAB07E4FAF9F8D007120B9441
:10117000900081F0E53C120C3F900076EFF0E53FE7
:10118000120C3F900087EFF090007EE536F0A3E56B
:1011900037F0900002E538F0A3E539F0900080E5E3
:1011A00040F043DA0143F74053DBFE75F9FF22AE0E
:1011B00007E4FCFB1214B4ED75F00DA4249BF5823A
:1011C000E43416F583E493FFECC39F500774082CB6
:1011D000FC0B80E3EB04FF1214BBED75F00DA424AF
:1011E0008FF582E43416F583E493FF1214BBE4FC1C
:1011F000ECC39B500974042C1213F00C80F27F5541
:101200001214BB0215FFC0E0C083C082C0D075D0ED
:1012100000C004C005C006C00753917F9000C3E022
:10122000FEA3E0FFD39400EE940050035391FB9093
:1012300000C1E0FCA3E0FDC3EF9DFFEE9CA3F0A383
:10124000EFF0D007D006D005D004D0D0D082D08324
:10125000D0E032AE07E4FDF5361214B4900002E09F
:10126000FF1214BB9000021213FC90007AE0FF12F0
:1012700014BB90007A1213FC900084E0FF1214BBA0
:101280009000841213FC74042D1213F00DBD03F6AC
:101290007F551214BB0215FFAD07AC06900078E035
:1012A000FEA3E07802CEC313CE13D8F9FFC390009B
:1012B00079E09FFB900078E09EFAC3EB9DEA9C509A
:1012C00013A3E02FFF900078E03EFEC3ED9FEC9E5D
:1012D00050028001C322120C5812136F1215EF1224
:1012E0000C931200261215EFD28090007E1212FC91
:1012F000C2809000021212FC43E20222E0FCA3E052
:10130000FD7F057E001200261215EF229000BEE040
:10131000FF9000BCE0B507057E017F00229000BC75
:1013200012140EE0FD7C009000BCE004F0E0B41468
:1013300002E4F09000BBE0FEEE4204E4F0AE04AF45
:1013400005227EFFEFD394004022EF9480501DE4ED
:10135000FDED75F00DA4244EF582E43416F583E41A
:1013600093B50704AE0580040DBD05E5AF06228EDA
:10137000418F428C438D44AB07AA06E4F9F87FE81D
:101380007E03FD121468E543F0A3E544F09000C12C
:10139000E541F0A3E542F0439104228F3690007CB2
:1013A000E0F5377F0B12160843DB01120C9E121575
:1013B000F9E4900083F0900082F09000C5E536F0EB
:1013C00090007CF0AF3722C3EF9414EE9400401FDE
:1013D00074EC2FFF74FF3EFEEF25E0FFEE33FED3EB
:1013E000EF9400EE94004007EF1F70F31E80F02290
:1013F000F582E43400F583E0FF0214BBA3E0FF02B2
:1014000014BBE53625E02488F582E4340022E0248C
:10141000A7F582E43400F58322900086E07006127E
:101420000C667408F0900080E0FF900077E0B5074C
:1014300003020003900077120C69E014F012148D7F
:10144000221215C51215CC1215D312159E12006F5B
:101450001215321215481215A81215871215DA1234
:1014600015E11215F50215E8FC12074CA804A905B0
:10147000AA06AB077F207ED77D757C0112074CC37F
:10148000E49FFFE49EFE12157B9000C322120BDF47
:10149000120C70EFA806088002C313D8FC30E005D8
:1014A0009000768003900087E07D00FCE4FF12143A
:1014B000F622AE077FAA1214BBAF069000BFE0B4BD
:1014C0002002E4F09000BFE02446F8A607E004F014
:1014D000A3E004F022120BDF120C70EFA8060880C4
:1014E00002C313D8FC30E005900000800390008117
:1014F000E0FF12160822AB07AF04EB14600C146077
:101500000E2402700E8DFB8FFC228DE98FEA228D56
:10151000EB8FEC229000867408F0E014F0900077D6
:101520007401F09000837403F012148D1212D6022D
:1015300015F9AF885388AF758CA0758DCBEF5440EB
:10154000FEEF54104E428822E59154045391FB75EE
:1015500095FF7594FF7593FF75928642912212153F
:10156000FC53D87853DBFEE4900083F022C3EF9461
:10157000ACEE940D4003D38001C322AD07AC06EC62
:10158000F593AF058F9222C2DE75D90575F9FF7507
:101590009601221214B27F551214BB0215FF75E397
:1015A0004075E10175E20222758E447589224388F7
:1015B00050229000C0E0D3940050F72253984FEB94
:1015C0004F4DF598227597DE7597AD2275A411756C
:1015D000D4CE2275A54175D5772253F77F75DA4AA7
:1015E0002253F77F75DB302275E69075A89022E5CF
:1015F0009120E2FB2243981022D2DE22C2DE22D2C8
:1016000099228F9922AF99228F8C222222010000E9
:10161000271000043801684B19180212C005DC00BD
:1016200002BC012C461E28030BB8232800044C01E1
:10163000904B191804251C0BB80003840140461E6A
:101640001805000072D80702BC012C26404001009A
:1016500000271000043801684B19180212C005DC7D
:101660000002BC012C461E28030BB8232800044CA2
:1016700001904B191804251C0BB800038401404647
:101680001E1805000072D80702BC012C264040013C
:101690000000271000043801684B19180212C00519
:1016A000DC0002BC012C461E28030BB823280004D2
:1016B0004C01904B191804251C0BB8000384014001
:1016C000461E1805000072D80702BC012C264040B7
:00000001FF
