:020000040000FA
:10000000020B7CE4FDFCFF12117C120A9212128496
:1000100053D87853E2FDC28043E20290007F74031C
:10002000F02222020C978E3C8F3D8C3E8D3FAB0719
:10003000AA06E4F9F87F407E427D0F121110E53EDA
:10004000F0A3E53FF09000B3E53CF0A3E53DF043BD
:10005000910422E591C320E201D322020D22E52F73
:1000600075F00DA422F583E493FC740193FD22E462
:10007000F5A922020EE8D2001210E9C290C296D26F
:1000800080E4FBFD7F1012124412054374A4F0D2E9
:10009000AFE4F529F52AD296052AE52A700205294A
:1000A000B410F3E529B427EEC296300009120FB060
:1000B0008E2B8F2C8006752B01752C00E52C70047F
:1000C000E52B640170409000B8E07007F529F52A2F
:1000D00002024A052AE52A70020529D39410E5296F
:1000E00094274002D296D3E52A9430E5299475509E
:1000F0000302024AE4F529F52A9000B8F09000B70F
:10010000F0C29602024AE4F529F52A9000B8E014FC
:10011000602A1470030202201470030201E51470B7
:10012000030201FB2404600302024AE52C64AA6076
:100130000302024A9000B804F002024AE52C900043
:10014000B7F0A37402F0E52C246070030201CD2403
:10015000FB602114603014604014604614604C242D
:10016000F9603F240F70751204FC9000847401F054
:100170007FA180441211FE9000B87404F0E4F52EC3
:10018000752D0902024AE4900084F07FA612106CDB
:1001900090007874A6F002024A12054374A4F0029B
:1001A000024A9000B87403F002024A1204FC900064
:1001B00084E0F528E4F07FA912106C900078EFF04D
:1001C0007D307C757F017E00121040807D120552CB
:1001D000900078EFF0E49000B8F0806EE49000B703
:1001E000F0A3F08065E4F52EE52CF52DE52DD394F4
:1001F000009000B840257404F0804F7403252EF55C
:1002000082E43400F583E52CF0052EE52E652D60A3
:1002100007E52EC3947040329000B87402F0802A33
:10022000E52C645570249000B8F0C2009000B7E04F
:100230002460601424FC600B24FE60071460042416
:100240000670077FA0121225D2009000B7E0245C50
:10025000604E14605C14700302031624FE700302E7
:10026000033214700302044C24F97003020489243D
:100270000F60030200AA90007EE030E70F7DC87C8B
:100280000012052C7FA3120F3502046612005340A2
:10029000030200AA7DE87C0312052C7FA2020481E0
:1002A00090007EE020E7030200AA7FA4120F3580B1
:1002B000799000B8E060030200AA90007FE024FD7E
:1002C000604C240360030200AA900003E0FEA3E058
:1002D000FF7C007D80120781E47B807A0FF9F812A1
:1002E00006EF900003E0FCA3E0FD900007E0FAA316
:1002F000E0FB75374B900005E0F538A3E0F5397564
:100300003A19753B1812055B7407F002043A12059E
:10031000527FA002048190007EE020E7030200AA41
:10032000547FF530FD7FA6120E91E490007EF0021E
:1003300000AA9000B8E060030200AA90007FE024C9
:10034000FD7003020440240360030200AA1211FEA0
:10035000900003E0647F702FA3E0FEA3E0FFA3E022
:10036000FCA3E0FDA3E0FAA3E0FBA3E0F537A3E0E4
:10037000F538A3E0F539A3E0F53AA3E0F53B120523
:100380005B740CF0020431900003E0FF1210138F35
:100390002FE52FF4700302042CEF75F00DA42496C2
:1003A000F582E43412F583E493FE740193FFC006F2
:1003B000C00712005E2498F582E43412120065C072
:1003C00004C00512005E249BF582E43412F583E438
:1003D00093FA740193FB12005E249FF582E43412B9
:1003E000F583E493FF12005E249DF582E43412123B
:1003F000006512005E24A0F582E43412F583E493D4
:10040000FE12005E24A1F582E43412F583E493F534
:100410003B8E3A8C388D398F37D005D004D007D039
:1004200006120DA79000737401F08005E49000B7E8
:10043000F09000B7E070030200AA1211B80200AAFF
:10044000900078E0FF12106C7FA0803590007EE075
:10045000FF30E71C547FF5307DC87C0012050FADDE
:10046000307FAB120E91E490007EF0D2000200AA21
:1004700012005340030200AA7DE87C0312050F7F9F
:10048000AA121225D2000200AA900003E025E0F58E
:10049000309000B8E060030200AA90007FE0700591
:1004A0001211FE800B90007FE0640360030200AA3B
:1004B000E5306007E52DC394045008E49000B7F0E0
:1004C0000200AA74052530F9E43400753401F535CD
:1004D0008936C3E52D953024FEF537900004E0F50C
:1004E000387B017A007905120C0B7FA0121225903F
:1004F0000078E0FF12106CD2000200AA7D327C006E
:100500007F017E00121040D296121277C296227F8F
:10051000017E00121040D296121277C2969000848B
:10052000E528F0900078E0FF12106C227F017E0039
:10053000121040D296121277C296900078E0FF1205
:10054000106C229000847401F07FA412106C900053
:100550007822900078E0FF12106C22120DA7900014
:100560007322BB010CE58229F582E5833AF583E02D
:10057000225006E92582F8E622BBFE06E92582F82C
:10058000E222E58229F582E5833AF583E49322EFBE
:100590008DF0A4A8F0CF8CF0A428CE8DF0A42EFE70
:1005A00022BC000BBE0029EF8DF084FFADF022E4E9
:1005B000CCF875F008EF2FFFEE33FEEC33FCEE9D28
:1005C000EC984005FCEE9DFE0FD5F0E9E4CEFD224F
:1005D000EDF8F5F0EE8420D21CFEADF075F008EFDA
:1005E0002FFFED33FD4007985006D5F0F222C39857
:1005F000FD0FD5F0EA22C2D5EC30E709B2D5E4C34D
:100600009DFDE49CFCEE30E715B2D5E4C39FFFE40A
:100610009EFE1205A1C3E49DFDE49CFC800312052F
:10062000A130D507C3E49FFFE49EFE22BB0110E585
:100630008229F582E5833AF583E0F5F0A3E02250C4
:1006400009E92582F886F008E622BBFE0AE9258240
:10065000F8E2F5F008E222E5832AF583E993F5F064
:10066000A3E99322E88FF0A4CC8BF0A42CFCE98EB4
:10067000F0A42CFC8AF0EDA42CFCEA8EF0A4CDA80A
:10068000F08BF0A42DCC3825F0FDE98FF0A42CCD13
:1006900035F0FCEB8EF0A4FEA9F0EB8FF0A4CFC5F3
:1006A000F02ECD39FEE43CFCEAA42DCE35F0FDE47D
:1006B0003CFC2275F008758200EF2FFFEE33FECD73
:1006C00033CDCC33CCC58233C5829BED9AEC99E512
:1006D0008298400CF582EE9BFEED9AFDEC99FC0FA2
:1006E000D5F0D6E4CEFBE4CDFAE4CCF9A88222B86A
:1006F00000C1B90059BA002DEC8BF084CFCECDFCEF
:10070000E5F0CBF97818EF2FFFEE33FEED33FDEC7B
:1007100033FCEB33FB10D703994004EB99FB0FD864
:10072000E5E4F9FA227818EF2FFFEE33FEED33FD02
:10073000EC33FCC933C910D7059BE99A4007EC9B01
:10074000FCE99AF90FD8E0E4C9FAE4CCFB2275F091
:1007500010EF2FFFEE33FEED33FDCC33CCC833C8A2
:1007600010D7079BEC9AE899400AED9BFDEC9AFCA8
:10077000E899F80FD5F0DAE4CDFBE4CCFAE4C8F957
:1007800022EC8EF0A4CCC5F0CCCDF8EFA4CEC5F011
:100790002DFDE43CFCE8A42EC8C5F03DFDE43CFC86
:1007A000EFA4FFE5F028FEE43DFDE43CFC22EF4E23
:1007B0006012EF60010EEDBB010B89828A83F0A30A
:1007C000DFFCDEFA2289F05007F709DFFCA9F022EE
:1007D000BBFEFCF309DFFCA9F022AFE9AEEA7C0026
:1007E0007D0A12058F8E088F0920930302097A85EE
:1007F000080A85090BC3E509950DF511E508950C67
:10080000F51090007FE014606104600302098D9090
:10081000007EE0600302098D900084E0FFAB11AA26
:1008200010AD0FAC0E120A998F12E512648070039E
:1008300002098D90007A120A64900001E510F0A37D
:10084000E511120A7FE4900073F0900075F09000BB
:1008500079F0F513F514FE7F70FD7B017A007903C2
:100860001207AE90007F7401F022E51275F00DA41E
:1008700024DBF582E43412F583E493FFD394004043
:100880000B900079E09F5004E004F022900082E099
:1008900014F0900075E004F0AE10AF11AB07AA069B
:1008A000E50F2BFFE50E3AFEE433FDE433FCC00414
:1008B000A905AA06AB07AE0EAF0F120A6CD0001244
:1008C00006EFE51275F00DA424E0F582E43412F58C
:1008D00083E493FE24F8FDEFD39D401AEE2408FD37
:1008E000E433FCC3EF9DEC6480F8748098500712E9
:1008F00009D8C39F4011D3E50F9514E50E95134019
:10090000441209D86F703E900080120A64D2909011
:100910000075E024FFFFE434FFFE7C007D08120533
:10092000F674032FF58274003EF583C083C08212F3
:100930000A197401A806088002C333D8FC4FD0827C
:10094000D083F08017900076120A64C290D3951479
:10095000E50E95134006850E13850F14900082E076
:1009600070037408F01209D8B5072290007EE512D2
:10097000F04480F0C290E4A3F02285080C85090DB4
:10098000C3E509950BF50FE508950AF50E22E97503
:10099000F00DA424D9F582E43412F583E493FE74B7
:1009A0000193FF221206EFAB07AA06E4F9F87F4095
:1009B0007E427D0FFC1206EFE47BFFFAF9F8120687
:1009C00064A804A905AA06AB077F207ED77D757CA5
:1009D000011206EFEFF40422E51275F00DA424E2F3
:1009E000F582E43412F583E493FF900075E022E988
:1009F00075F00DA424D7F582E4341222EF24E8FF29
:100A0000EE3403FEC3E5269FE5259E22900073E0A9
:100A10002403F582E43400F583E0FF900082E0FED9
:100A2000222438FDEE34FFFCD3E5269DE5259C22EB
:100A3000D3FEE5249FE5239E22AB34AA35A9368553
:100A4000398275830002056275F0FFA4FFAEF07C69
:100A5000007D640205A153E2FDD2807D077C007F0A
:100A6000017E0022E50EF0A3E50FF0227C007D64FC
:100A7000020781540F75F002A4F58285F08322F0FD
:100A80009000827408F022C2807D647C007F0A7E20
:100A9000002253DAFE53F7BF228F228C238D248A43
:100AA000258B26752780E5227068E4F91209EF127C
:100AB000099AD39400EE94004039EF2438FFEE34C5
:100AC000FF120A3040441209EFF58374019324C8E1
:100AD000FFE4933400C3120A31502F12098E120A18
:100AE000214027EF24C8FFE43E120A03501C892747
:100AF000020B7912098E120A21400FEF24C8FFE47D
:100B00003E120A0350048927806F09E96405709C2E
:100B10008067AF22121013A907E9F4605C1209EF95
:100B200012099AD39400EE94004039EF2418FFEE96
:100B300034FC120A3040421209EFF5837401932409
:100B4000E8FFE4933403FEC3120A32502C12098EDC
:100B50002418FDEE34FC120A27401E1209FC50191D
:100B60008927801512098E2418FDEE34FC120A27FD
:100B700040071209FC50028927AF27221200227871
:100B80007FE4F6D8FD758140020BC6020076E4933F
:100B9000A3F8E493A34003F68001F208DFF4802970
:100BA000E493A3F85407240CC8C333C4540F44205F
:100BB000C8834004F456800146F6DFE4800B01024E
:100BC000040810204080900E1EE47E019360BCA3B8
:100BD000FF543F30E509541FFEE493A360010ECF9C
:100BE00054C025E060A840B8E493A3FAE493A3F8C6
:100BF000E493A3C8C582C8CAC583CAF0A3C8C58286
:100C0000C8CAC583CADFE9DEE780BE8B318A328974
:100C10003353DBFE120A92120A5612104012127758
:100C2000120A87120026121277E4F539E539C395C6
:100C3000375055AB31AA32A933C003C002C00112EC
:100C40000A39C4120A73D001D002D00312062CF55F
:100C50003B85F03AD280FFAE3A121098AB31AA32FF
:100C6000A933C003C002C001120A39120A73D001AD
:100C7000D002D00312062CF53B85F03AC280FFAEBD
:100C80003A121098053980A4B290AF381538EF7039
:100C90009843E202C29022C0E0C0F0C083C082C08C
:100CA000D075D000C000C001C002C003C004C005A0
:100CB000C006C007E5985403F540F45298E540306B
:100CC000E01712128D9000B01210CDEFF09000B02E
:100CD000E004F0E0B41402E4F0E54030E1299000D3
:100CE000B2E0D3940040179000AF1210D8E0FF128A
:100CF000128A9000AFE004F09000B2E014F090008F
:100D0000AFE0B41402E4F0D007D006D005D004D090
:100D100003D002D001D000D0D0D082D083D0F0D088
:100D2000E032C0E0C0F0C083C082C0D075D000C047
:100D300000C001C002C003C004C005C006C007E572
:100D4000D85487F521F452D8E5F730E508E5F730B7
:100D5000E60312119A53F7DFE52130E708E5D930B1
:100D6000E003121293E52130E008E5DA30E00312E7
:100D70000FE6E52130E108E5DB30E0031207DAE5B4
:100D80002130E208E5DC30E003121294D007D006EF
:100D9000D005D004D003D002D001D000D0D0D08272
:100DA000D083D0F0D0E0328E318F328C338D34AEA0
:100DB00002AF03120A6CC007AF37AB07E4FAF9F8C9
:100DC000D0071209A4900000F0AE38AF39120A6CB7
:100DD000C007AF3AAB07E4FAF9F8D0071209A490BC
:100DE000007DF0E537120A48900074EFF0E53A1202
:100DF0000A48900083EFF090007AE531F0A3E532E5
:100E0000F0900001E533F0A3E534F090007CE53B81
:100E1000F043DA0143F74053DBFE75F9FF2242004D
:100E2000B500004200B300004100B8004100B70027
:100E300041007E0041007F004100840041007800B5
:100E400041007456410083AB4100000041007D0029
:100E500042007A000042000100004200800000428F
:100E60000076000041007C004100820041007500D6
:100E700041007900410073004100B0004100B10021
:100E80004100AE004100AF004100B2004100AD00A2
:100E900000AE07E4FCFB121137ED75F00DA424231E
:100EA000F582E43413F583E493FFECC39F50077499
:100EB000082CFC0B80E3EB04FF12113EED75F00DE6
:100EC000A42417F582E43413F583E493FF12113E52
:100ED000E4FCECC39B500974032C1210C10C80F28B
:100EE0007F5512113E021287C0E0C083C082C0D07D
:100EF00075D000C004C005C006C00753917F9000A4
:100F0000B5E0FEA3E0FFD39400EE940050035391AC
:100F1000FB9000B3E0FCA3E0FDC3EF9DFFEE9CA3BC
:100F2000F0A3EFF0D007D006D005D004D0D0D08207
:100F3000D083D0E032AE07E4FDF5311211379000D6
:100F400001E0FF12113E9000011210E3900076E0E4
:100F5000FF12113E9000761210E3900080E0FF1225
:100F6000113E9000801210E374032D1210C10DBDCC
:100F700003F67F5512113E021287120A56121040D4
:100F8000121277120A87120026121277D28090006E
:100F90007A120FA0C280900001120FA043E2022239
:100FA000E0FCA3E0FD7F057E0012002612127722EE
:100FB0009000B0E0FF9000AEE0B507057E017F0035
:100FC000229000AE1210CDE0FD7C009000AEE00457
:100FD000F0E0B41402E4F09000ADE0FEEE4204E470
:100FE000F0AE04AF0522900082E07008900073E03C
:100FF00004120A7F90007CE0FF900075E0B50703C3
:10100000020003900075E004F0900082E014F012FA
:10101000115A227EFFEFD394004022EF9480501D9E
:10102000E4FDED75F00DA424D6F582E43412F583C9
:10103000E493B50704AE0580040DBD05E5AF0622B7
:101040008E3C8F3D8C3E8D3FAB07AA06E4F9F87FBE
:10105000E87E03FD121110E53EF0A3E53FF090009D
:10106000B3E53CF0A3E53DF0439104228F319000BD
:1010700078E0F5327F0B12129043DB01120A9212D4
:101080001281E490007FF090007EF09000B7E5318F
:10109000F0900078F0AF3222C3EF9414EE94004049
:1010A0001F74EC2FFF74FF3EFEEF25E0FFEE33FED2
:1010B000D3EF9400EE94004007EF1F70F31E80F012
:1010C00022F582E43400F583E0FF02113EE024853E
:1010D000F582E43400F58322E02499F582E43400BB
:1010E000F58322A3E0FF02113E12124D1212541298
:1010F000125B12123012006F1211D21211E812128A
:101100003A12121912126212126912127D02127030
:10111000FC1206EFA804A905AA06AB077F207ED71C
:101120007D757C011206EFC3E49FFFE49EFE121260
:101130000D9000B522AE077FAA12113EAF069000B7
:10114000B1E0B41402E4F09000B11210D8EFF090C6
:1011500000B1E004F0A3E004F022120A0CEFA806AC
:10116000088002C313D8FC30E0059000748003901F
:101170000083E07D00FCE4FF12117C22AB07AF048A
:10118000EB14600C14600E2402700E8DFB8FFC2299
:101190008DE98FEA228DEB8FEC22120A0CEFA80664
:1011A000088002C313D8FC30E00590000080039053
:1011B000007DE0FF12129022120A80E014F09000ED
:1011C000757401F090007F04F012115A120F7A0228
:1011D0001281AF885388AF758CA0758DCBEF5440CA
:1011E000FEEF54104E428822E59154045391FB7552
:1011F00095FF7594FF7593FF7592864291221212A6
:101200008453D87853DBFEE490007FF022AD07AC26
:1012100006ECF593AF058F9222C2DE75D90575F9FC
:10122000FF759601221211357F5512113E02128769
:1012300075E34075E10175E20222758E44758922DD
:101240004388502253984FEB4F4DF598227597DE07
:101250007597AD2275A41175D4CE2275A54175D5AB
:10126000772253F77F75DA4A2253F77F75DB3022F6
:1012700075E69075A89022E59120E2FB2243981034
:1012800022D2DE22C2DE22D299228F9922AF992267
:101290008F8C222222010000271000043801684BA5
:1012A00019180212C005DC0002BC012C461E2803DE
:1012B0000BB8232800044C01904B191804251C0B73
:1012C000B80003840140461E1805000072D80702CA
:1012D000BC012C26404001000027100004380168A2
:1012E0004B19180212C005DC0002BC012C461E2856
:1012F000030BB8232800044C01904B191804251C3B
:101300000BB80003840140461E1805000072D80780
:1013100002BC012C264040010000271000043801C7
:10132000684B19180212C005DC0002BC012C461ED5
:1013300028030BB8232800044C01904B19180425EE
:101340001C0BB80003840140461E1805000072D82B
:081350000702BC012C264040FD
:00000001FF
