:020000040000FA
:100000000207D7AB07AF04EB14600C14600E240298
:10001000700E8DFB8FFC228DE98FEA228DEB8FEC29
:100020002222220209629000DBE0700C9000D0E0F6
:1000300004F09000DB7408F09000D6E0FF9000D24E
:10004000E0B50703020CA49000D2E004F09000DBBE
:10005000E014F0120C8222E4F5A922020866E50EF3
:1000600075F00DA422F583E493FC740193FD224303
:10007000981022020A94120C12C290C296D280E406
:10008000FBFD7F10120D81120DC2D2AF120B258E17
:100090000A8F0BE50B7004E50A640170030201721C
:1000A0009000E2E014602A147003020163147003EC
:1000B000020130147003020146240460030201723D
:1000C000E50B64AA60030201729000E204F00201F1
:1000D00072E50B9000E1F0A37402F0E50B245B6085
:1000E0002114602C14602E146035240770397D3281
:1000F0007C0012030B7D307C757F017E00120BE6C5
:1001000080709000E27404F0E4F50D750C098062D3
:10011000120C5E805D120DC2E49000D7F080539007
:1001200000E27403F0804BE49000E1F0A3F0804221
:10013000E4F50DE50BF50CE50CD394009000E240DE
:100140001D7404F0802C7490250DF582E43400F5C4
:1001500083E50BF0050DE50DB50C179000E2740278
:10016000F0800FE50B645570099000E2F07FA0125B
:100170000D629000E1E0245B604314602424FE7073
:10018000030202072407600302008C120D8A400359
:1001900002008C7DE87C0312030B7FA2120D6280AB
:1001A0005E9000D9E020E70302008C547FF50FFD3C
:1001B0007FA6120A34E49000D9F002008C9000E28D
:1001C000E0600302008C9000D7E06003120DC29043
:1001D0000090E0FEA3E0FF900094E0FAA3E0FB753E
:1001E0001646900092E0F517A3E0F51875191E75F4
:1001F0001A187DD07C0712031A7407F0120D06E45A
:100200009000E1F002008C9000E2E0600302008CBC
:100210009000D7E06003120DC2900090E0647F7000
:100220002FA3E0FEA3E0FFA3E0FCA3E0FDA3E0FA20
:10023000A3E0FBA3E0F516A3E0F517A3E0F518A3F0
:10024000E0F519A3E0F51A12031A740CF00202FA91
:10025000900090E0FF120BB98F0EE50EF4700302D0
:1002600002F5EF75F00DA424D3F582E4340DF58387
:10027000E493FE740193FFC006C00712005E24D50C
:10028000F582E4340D120065C004C00512005E243E
:10029000D8F582E4340DF583E493FA740193FB12EC
:1002A000005E24DCF582E4340DF583E493FF120054
:1002B0005E24DAF582E4340D12006512005E24DD5E
:1002C000F582E4340DF583E493FE12005E24DEF53E
:1002D00082E4340DF583E493F51A8E198C178D188A
:1002E0008F16D005D004D007D0061208EB9000D0AE
:1002F0007401F08005E49000E1F09000E1E060031B
:10030000120D06E49000E1F002008C7F017E0012E5
:100310000BE6D296120DBCC296221208EB9000D0CA
:1003200022EF8DF0A4A8F0CF8CF0A428CE8DF0A4FD
:100330002EFE22BC000BBE0029EF8DF084FFADF035
:1003400022E4CCF875F008EF2FFFEE33FEEC33FC1F
:10035000EE9DEC984005FCEE9DFE0FD5F0E9E4CE55
:10036000FD22EDF8F5F0EE8420D21CFEADF075F024
:1003700008EF2FFFED33FD4007985006D5F0F2222D
:10038000C398FD0FD5F0EA22C2D5EC30E709B2D50B
:10039000E4C39DFDE49CFCEE30E715B2D5E4C39FB9
:1003A000FFE49EFE120333C3E49DFDE49CFC800346
:1003B00012033330D507C3E49FFFE49EFE22E88F8B
:1003C000F0A4CC8BF0A42CFCE98EF0A42CFC8AF0D9
:1003D000EDA42CFCEA8EF0A4CDA8F08BF0A42DCCDB
:1003E0003825F0FDE98FF0A42CCD35F0FCEB8EF034
:1003F000A4FEA9F0EB8FF0A4CFC5F02ECD39FEE41A
:100400003CFCEAA42DCE35F0FDE43CFC2275F0085E
:10041000758200EF2FFFEE33FECD33CDCC33CCC54C
:100420008233C5829BED9AEC99E58298400CF58267
:10043000EE9BFEED9AFDEC99FC0FD5F0D6E4CEFBD9
:10044000E4CDFAE4CCF9A88222B800C1B90059BAC7
:10045000002DEC8BF084CFCECDFCE5F0CBF97818F5
:10046000EF2FFFEE33FEED33FDEC33FCEB33FB10EF
:10047000D703994004EB99FB0FD8E5E4F9FA227809
:1004800018EF2FFFEE33FEED33FDEC33FCC933C91B
:1004900010D7059BE99A4007EC9BFCE99AF90FD825
:1004A000E0E4C9FAE4CCFB2275F010EF2FFFEE3345
:1004B000FEED33FDCC33CCC833C810D7079BEC9A84
:1004C000E899400AED9BFDEC9AFCE899F80FD5F00D
:1004D000DAE4CDFBE4CCFAE4C8F922EC8EF0A4CC4B
:1004E000C5F0CCCDF8EFA4CEC5F02DFDE43CFCE882
:1004F000A42EC8C5F03DFDE43CFCEFA4FFE5F028C8
:10050000FEE43DFDE43CFC22EF4E6012EF60010E84
:10051000EDBB010B89828A83F0A3DFFCDEFA22891E
:10052000F05007F709DFFCA9F022BBFEFCF309DF5E
:10053000FCA9F022E4F509AFE9AEEAFC7D0A12035A
:10054000218E1B8F1C209303020700851B1D851C19
:100550001EC3E51C9520F524E51B951FF52390008F
:10056000DAE0147003020606046003020713900029
:10057000D9E06003020713E4F525120799E493FE1E
:10058000740193FFD39400EE94004034EF2438FFBD
:10059000EE34FFFED3E5229FE5219E4030120799FD
:1005A00074019324C8FFE4933400FEC3E5229FE561
:1005B000219E501912075F40141207A9500F800A9C
:1005C00012075F40081207A95003750901E5096089
:1005D000299000DB7408F0E49000D0F09000D2F095
:1005E000A3F0F526F527FE7F40FD7B017A00799088
:1005F0001205089000DA7401F0220525E52564054E
:10060000600302057A22E52575F00DA42418F58211
:10061000E4340EF583E493FFD39400400B9000D3B1
:10062000E09F5004E004F0229000DBE014F0900022
:10063000D2E004F0AE23AF24AB07AA06E5222BFFDD
:10064000E5213AFEE433FDE433FCC004A905AA0623
:10065000AB07AE21AF221207C6D000120449E52530
:1006600075F00DA4241DF582E4340EF583E493FEA9
:1006700024F8FDEFD39D401AEE2408FDE433FCC3BB
:10068000EF9DEC6480F87480985007120748C39F70
:10069000400B1207CD403E120748B50738D2909064
:1006A00000D2E024FFFFE434FFFE7C007D0812034B
:1006B0008874902FF58274003EF583C083C0821247
:1006C00007917401A806088002C333D8FC4FD0827A
:1006D000D083F0800DC2901207CD4006852126857B
:1006E00022279000DBE070037408F0120748B5077A
:1006F000229000D9E525F04480F0C290E4A3F022D6
:10070000851B1F851C20C3E51C951EF522E51B9546
:100710001DF52122120449AB07AA06E4F9F87F402F
:100720007E427D0FFC120449E47BFFFAF9F81203C4
:10073000BEA804A905AA06AB077F207ED77D757CDD
:1007400001120449EFF40422E52575F00DA4241FDD
:10075000F582E4340EF583E493FF9000D2E022E5C5
:100760002575F00DA42416F582E4340EF583E49388
:10077000FE740193FF2438FDEE34FFFCD3E5249D85
:10078000E5239C229000D0E02490F582E43400F52B
:1007900083E0FF9000DBE0FE22E52575F00DA42448
:1007A00014F582E4340EF58322EF24C8FFE43EFE04
:1007B000C3E5249FE5239E2275F0FFA4FFAEF07CE5
:1007C000007D640203337C007D640204DBD3E522F8
:1007D0009527E521952622120021787FE4F6D8FDA1
:1007E000758127020821020076E493A3F8E493A31D
:1007F0004003F68001F208DFF48029E493A3F85463
:1008000007240CC8C333C4540F4420C8834004F4E5
:1008100056800146F6DFE4800B01020408102040F8
:10082000809009D3E47E019360BCA3FF543F30E580
:1008300009541FFEE493A360010ECF54C025E0606D
:10084000A840B8E493A3FAE493A3F8E493A3C8C53B
:1008500082C8CAC583CAF0A3C8C582C8CAC583CA2C
:10086000DFE9DEE780BEC0E0C0F0C083C082C0D058
:1008700075D000C000C001C002C003C004C005C0E4
:1008800006C007E5D85487F508F452D8E5F730E5F7
:1008900008E5F730E603120CE853F7DFE50830E728
:1008A00008E5D930E003120022E50830E008E5DA77
:1008B00030E003120026E50830E108E5DB30E00314
:1008C000120534E50830E208E5DC30E003120DD112
:1008D000D007D006D005D004D003D002D001D0007C
:1008E000D0D0D082D083D0F0D0E0328E108F118C57
:1008F000128D13AE02AF031207C6C007AF16AB07C7
:10090000E4FAF9F8D00712071490008DF0AE17AF93
:10091000181207C6C007AF19AB07E4FAF9F8D007F9
:100920001207149000D8F0E5161207B89000D1EF26
:10093000F0E5191207B89000DCEFF09000D4E51054
:10094000F0A3E511F090008EE512F0A3E513F0900E
:1009500000D6E51AF043DA0143F74053DBFE75F9A0
:10096000FF22C0E0C083C082C0D075D000C007E5C0
:10097000985403FFF45298EF30E01B90008BE0B4E2
:100980004405120B7B800F90008B120B65E599F0EC
:1009900090008BE004F0EF30E12E90008CE0B44446
:1009A00005120B7B8022120B5BC39F500C120B7045
:1009B000E0F59990008AE004F0120B5BB50709900E
:1009C000008CE4F090008AF0D007D0D0D082D083A1
:1009D000D0E0324200DF00004200DD00004100E2D2
:1009E000004100E1004100D9004100DA004100D798
:1009F000004100D1564100DCAB41008D004100D8E0
:100A0000004200D4000042008E00004100D60041A8
:100A100000DB004100D2004100D3004100D0004182
:100A2000008B0041008C004100890041008A004198
:100A300000880000AE07E4FCFB120CC8ED75F00D59
:100A4000A42460F582E4340EF583E493FFECC39FA5
:100A5000500774082CFC0B80E3EB04FF120CCFED65
:100A600075F00DA42454F582E4340EF583E493FF6D
:100A7000120CCFE4FCECC39B501274902CF582E472
:100A80003400F583E0FF120CCF0C80E97F55120C87
:100A9000CF020DCBC0E0C083C082C0D075D000C0F3
:100AA00004C005C006C00753917F9000DFE0FEA39D
:100AB000E0FFD39400EE940050035391FB9000DDCF
:100AC000E0FCA3E0FDC3EF9DFFEE9CA3F0A3EFF0DD
:100AD000D007D006D005D004D0D0D082D083D0E0CB
:100AE0003253E2FDD2807DB87C0B120B1AC2807D9E
:100AF000647C00120B1AD2809000D4120B0AC280C0
:100B000090008E120B0A43E20222E0FCA3E0FD7F7C
:100B1000057E00120B8C120DBC227F0A7E00120B88
:100B20008C120DBC22120B82B507057E017F0022BC
:100B3000900089120B65E0FD7C00900089E004F0D4
:100B4000120B82B50706E4F090008BF0900088E06D
:100B5000FEEE4204E4F0AE04AF052290008CE0FF0C
:100B600090008AE022E02400F582E43400F583223C
:100B7000E02444F582E43400F58322900088740276
:100B8000F02290008BE0FF900089E0228E108F1100
:100B90008C128D13AB07AA06E4F9F87F407E427DE4
:100BA0000F120C39E512F0A3E513F09000DDE5100B
:100BB000F0A3E511F0439104227EFFEFD3940040AF
:100BC00022EF9480501DE4FDED75F00DA42413F583
:100BD00082E4340EF583E493B50704AE0580040D7A
:100BE000BD05E5AF06228E108F118C128D13AB0759
:100BF000AA06E4F9F87FE87E03FD120C39E512F04D
:100C0000A3E513F09000DDE510F0A3E511F04391AA
:100C10000422120D92120D99120DA0120D6D1200E8
:100C200057120D1E120D34120D77120D56120DA70C
:100C3000120DAE12006F020DB5FC120449A804A9F2
:100C400005AA06AB077F207ED77D757C011204497B
:100C5000C3E49FFFE49EFE120D4A9000DF227F0B4B
:100C6000120DCEC2DE43DB0153DAFED2DEE4900089
:100C7000DAF09000D9F09000D704F09000E174A66B
:100C8000F022120784EFA806088002C313D8FC30B4
:100C9000E0059000D180039000DCE07D00FCE4FFE3
:100CA00012000322E4FDFCFF12000353DAFE53F7A7
:100CB000BF120DC853E2FDC28043E2029000D7E0AC
:100CC0006003120C5E22AE077FAA120CCFAF069013
:100CD000008CE0B44403120B7B90008C120B70EF7D
:100CE000F090008CE004F022120784EFA806088040
:100CF00002C313D8FC30E00590008D80039000D82B
:100D0000E0FF120DCE229000DB7408F0E014F090AA
:100D100000D27401F0120C82120AE1D2DE22AF88F6
:100D20005388AF758CA0758D96EF5440FEEF54102C
:100D30004E428822E59154045391FB7595FF7594BA
:100D4000FF7593FF759286429122AD07AC06ECF5D4
:100D500093AF058F9222C2DE75D90575F9FF75969E
:100D60000122120CC67F55120CCF020DCB75E34049
:100D700075E10175E20222758E447589224388501F
:100D80002253984FEB4F4DF59822E591C320E20195
:100D9000D3227597DE7597AD2275A41175D4CE2236
:100DA00075A54175D5772253F77F75DA4A2253F737
:100DB0007F75DB302275E69075A89022E59120E2E0
:100DC000FB22C2DE53DBFE22C2DE22D299228F8CAE
:100DD00022220112C005DC0002BC012C461E2802A2
:100DE0000BB8232800044C01904B191803251C0B49
:100DF000B80003840140461E1804000072D80702A0
:100E0000BC012C2640400000000000000000000053
:100E10000000000112C005DC0002BC012C461E28A7
:100E2000020BB8232800044C01904B191803251C11
:100E30000BB80003840140461E1804000072D80756
:100E400002BC012C26404000000000000000000011
:100E5000000000000112C005DC0002BC012C461E8F
:100E600028020BB8232800044C01904B19180325C5
:100E70001C0BB80003840140461E1804000072D801
:100E80000702BC012C2640400000000000000000CA
:050E900000000000005D
:00000001FF
