:020000040000FA
:10000000020B85E4FDFCFF1211A3120A9B12129051
:1000100053D87853E2FDC28043E20290007F74031C
:10002000F02222020CA08E358F368C378D38AB072C
:10003000AA06E4F9F87F407E427D0F121119E537D8
:10004000F0A3E538F09000B3E535F0A3E536F043D2
:10005000910422E591C320E201D322020D2BE52871
:1000600075F00DA422F583E493FC740193FD22E462
:10007000F5A922020EF1D2001210F2C290C296D25D
:1000800080E4FBFD7F1012124D12054374A4F0D2E0
:10009000AFE4F522F523D2960523E523700205226D
:1000A000B410F3E522B427EEC296300009120FB95E
:1000B0008E248F258006752401752500E5257004A2
:1000C000E524640170409000B8E07007F522F52344
:1000D00002024A0523E52370020522D39410E5228B
:1000E00094274002D296D3E5239430E522947550AC
:1000F0000302024AE4F522F5239000B8F09000B71D
:10010000F0C29602024AE4F522F5239000B8E0140A
:10011000602A1470030202201470030201E51470B7
:10012000030201FB2404600302024AE52564AA607D
:100130000302024A9000B804F002024AE52590004A
:10014000B7F0A37402F0E525246070030201CD240A
:10015000FB602114603014604014604614604C242D
:10016000F9603F240F70751204FC9000847401F054
:100170007FA180441212079000B87404F0E4F527C0
:1001800075260902024AE4900084F07FA6121075D9
:1001900090007874A6F002024A12054374A4F0029B
:1001A000024A9000B87403F002024A1204FC900064
:1001B00084E0F521E4F07FA9121075900078EFF04B
:1001C0007D307C757F017E00121049807D120552C2
:1001D000900078EFF0E49000B8F0806EE49000B703
:1001E000F0A3F08065E4F527E525F526E526D39410
:1001F000009000B840257404F0804F74032527F563
:1002000082E43400F583E525F00527E527652660BF
:1002100007E527C3947040329000B87402F0802A3A
:10022000E525645570249000B8F0C2009000B7E056
:100230002460601424FC600B24FE60071460042416
:100240000670077FA012122ED2009000B7E0245C47
:10025000604E14605C14700302031624FE700302E7
:10026000033214700302044724F970030204842447
:100270000F60030200AA90007EE030E70F7DC87C8B
:100280000012052C7FA3120F3E020461120053409E
:10029000030200AA7DE87C0312052C7FA202047CE5
:1002A00090007EE020E7030200AA7FA4120F3E80A8
:1002B000799000B8E060030200AA90007FE024FD7E
:1002C000604C240360030200AA900003E0FEA3E058
:1002D000FF7C007D8012078AE47B807A0FF9F81298
:1002E00006F8900003E0FCA3E0FD900007E0FAA30D
:1002F000E0FB75304B900005E0F531A3E0F5327579
:1003000033197534181205647407F002043A1205A3
:10031000527FA002047C90007EE020E7030200AA46
:10032000547FF529FD7FA6120E9AE490007EF0021C
:1003300000AA9000B8E060030200AA90007FE024C9
:10034000FD7003020440240360030200AA12120796
:10035000900003E0647F702FA3E0FEA3E0FFA3E022
:10036000FCA3E0FDA3E0FAA3E0FBA3E0F530A3E0EB
:10037000F531A3E0F532A3E0F533A3E0F53412053F
:1003800064740CF0020431900003E0FF12101C8F23
:1003900028E528F4700302042CEF75F00DA4249FC7
:1003A000F582E43412F583E493FE740193FFC006F2
:1003B000C00712005E24A1F582E43412120065C069
:1003C00004C00512005E24A4F582E43412F583E42F
:1003D00093FA740193FB12005E24A8F582E43412B0
:1003E000F583E493FF12005E24A6F582E434121232
:1003F000006512005E24A9F582E43412F583E493CB
:10040000FE12005E24AAF582E43412F583E493F52B
:10041000348E338C318D328F30D005D004D007D05C
:1004200006120DB09000737401F08005E49000B7DF
:10043000F09000B7E070030200AA1211C10200AAF6
:1004400012055B7FA0803590007EE0FF30E71C54F2
:100450007FF5297DC87C0012050FAD297FAB120EF8
:100460009AE490007EF0D2000200AA1200534003EA
:100470000200AA7DE87C0312050F7FAA12122ED279
:10048000000200AA900003E025E0F5299000B8E002
:1004900060030200AA90007FE07005121207800B33
:1004A00090007FE0640360030200AAE5296007E58D
:1004B00026C39404500DE49000B7F012055BD200FF
:1004C0000200AA74052529F9E43400752D01F52EE2
:1004D000892FC3E526952924FEF530900004E0F528
:1004E000317B017A007905120C14900078E0FF123C
:1004F00010757FA012122ED2000200AA7D327C005D
:100500007F017E00121049D296121280C296227F7D
:10051000017E00121049D296121280C29690008479
:10052000E521F0900078E0FF121075227F017E0037
:10053000121049D296121280C296900078E0FF12F3
:100540001075229000847401F07FA4121075900041
:100550007822900078E0FF12107522900078E0FF7A
:1005600012107522120DB090007322BB010CE582AF
:1005700029F582E5833AF583E0225006E92582F8E1
:10058000E622BBFE06E92582F8E222E58229F58211
:10059000E5833AF583E49322EF8DF0A4A8F0CF8CA5
:1005A000F0A428CE8DF0A42EFE22BC000BBE0029A4
:1005B000EF8DF084FFADF022E4CCF875F008EF2F5A
:1005C000FFEE33FEEC33FCEE9DEC984005FCEE9D17
:1005D000FE0FD5F0E9E4CEFD22EDF8F5F0EE842033
:1005E000D21CFEADF075F008EF2FFFED33FD400794
:1005F000985006D5F0F222C398FD0FD5F0EA22C23A
:10060000D5EC30E709B2D5E4C39DFDE49CFCEE30A7
:10061000E715B2D5E4C39FFFE49EFE1205AAC3E42A
:100620009DFDE49CFC80031205AA30D507C3E49F1E
:10063000FFE49EFE22BB0110E58229F582E5833AA4
:10064000F583E0F5F0A3E0225009E92582F886F071
:1006500008E622BBFE0AE92582F8E2F5F008E2226C
:10066000E5832AF583E993F5F0A3E99322E88FF077
:10067000A4CC8BF0A42CFCE98EF0A42CFC8AF0ED29
:10068000A42CFCEA8EF0A4CDA8F08BF0A42DCC38DD
:1006900025F0FDE98FF0A42CCD35F0FCEB8EF0A415
:1006A000FEA9F0EB8FF0A4CFC5F02ECD39FEE43CCF
:1006B000FCEAA42DCE35F0FDE43CFC2275F0087573
:1006C0008200EF2FFFEE33FECD33CDCC33CCC5828D
:1006D00033C5829BED9AEC99E58298400CF582EE49
:1006E0009BFEED9AFDEC99FC0FD5F0D6E4CEFBE431
:1006F000CDFAE4CCF9A88222B800C1B90059BA00F9
:100700002DEC8BF084CFCECDFCE5F0CBF97818EF53
:100710002FFFEE33FEED33FDEC33FCEB33FB10D754
:1007200003994004EB99FB0FD8E5E4F9FA22781815
:10073000EF2FFFEE33FEED33FDEC33FCC933C91070
:10074000D7059BE99A4007EC9BFCE99AF90FD8E0A2
:10075000E4C9FAE4CCFB2275F010EF2FFFEE33FE74
:10076000ED33FDCC33CCC833C810D7079BEC9AE8E7
:1007700099400AED9BFDEC9AFCE899F80FD5F0DA68
:10078000E4CDFBE4CCFAE4C8F922EC8EF0A4CCC5AD
:10079000F0CCCDF8EFA4CEC5F02DFDE43CFCE8A4F0
:1007A0002EC8C5F03DFDE43CFCEFA4FFE5F028FEBB
:1007B000E43DFDE43CFC22EF4E6012EF60010EEDE3
:1007C000BB010B89828A83F0A3DFFCDEFA2289F069
:1007D0005007F709DFFCA9F022BBFEFCF309DFFCA0
:1007E000A9F022AFE9AEEA7C007D0A1205988E08D6
:1007F0008F0920930302098385080A85090BC3E545
:1008000009950DF511E508950CF51090007FE014A1
:10081000606104600302099690007EE060030209B3
:1008200096900084E0FFAB11AA10AD0FAC0E120A37
:10083000A28F12E5126480700302099690007A126A
:100840000A6D900001E510F0A3E511120A88E4900A
:100850000073F0900075F0900079F0F513F514FE38
:100860007F70FD7B017A0079031207B790007F74D7
:1008700001F022E51275F00DA424E4F582E43412AF
:10088000F583E493FFD39400400B900079E09F50F0
:1008900004E004F022900082E014F0900075E0047F
:1008A000F0AE10AF11AB07AA06E50F2BFFE50E3A2D
:1008B000FEE433FDE433FCC004A905AA06AB07AE91
:1008C0000EAF0F120A75D0001206F8E51275F00D82
:1008D000A424E9F582E43412F583E493FE24F8FDC0
:1008E000EFD39D401AEE2408FDE433FCC3EF9DECEA
:1008F0006480F874809850071209E1C39F4011D3B7
:10090000E50F9514E50E951340441209E16F703E12
:10091000900080120A6DD290900075E024FFFFE4F1
:1009200034FFFE7C007D081205FF74032FF58274EE
:10093000003EF583C083C082120A227401A8060813
:100940008002C333D8FC4FD082D083F08017900050
:1009500076120A6DC290D39514E50E951340068564
:100960000E13850F14900082E070037408F01209D2
:10097000E1B5072290007EE512F04480F0C290E4D9
:10098000A3F02285080C85090DC3E509950BF50F29
:10099000E508950AF50E22E975F00DA424E2F5822A
:1009A000E43412F583E493FE740193FF221206F8F7
:1009B000AB07AA06E4F9F87F407E427D0FFC1206E1
:1009C000F8E47BFFFAF9F812066DA804A905AA0657
:1009D000AB077F207ED77D757C011206F8EFF4040B
:1009E00022E51275F00DA424EBF582E43412F583B0
:1009F000E493FF900075E022E975F00DA424E0F582
:100A000082E4341222EF24E8FFEE3403FEC3E53F14
:100A10009FE53E9E22900073E02403F582E43400BB
:100A2000F583E0FF900082E0FE222438FDEE34FFE3
:100A3000FCD3E53F9DE53E9C22D3FEE53D9FE53C92
:100A40009E22AB2DAA2EA92F853282758300020526
:100A50006B75F0FFA4FFAEF07C007D640205AA5325
:100A6000E2FDD2807D077C007F017E0022E50EF052
:100A7000A3E50FF0227C007D6402078A540F75F015
:100A800002A4F58285F08322F09000827408F0229F
:100A9000C2807D647C007F0A7E002253DAFE53F719
:100AA000BF228F3B8C3C8D3D8A3E8B3F754080E55D
:100AB0003B7068E4F91209F81209A3D39400EE948C
:100AC000004039EF2438FFEE34FF120A3940441257
:100AD00009F8F58374019324C8FFE4933400C3122A
:100AE0000A3A502F120997120A2A4027EF24C8FF0A
:100AF000E43E120A0C501C8940020B821209971224
:100B00000A2A400FEF24C8FFE43E120A0C50048961
:100B100040806F09E96405709C8067AF3B12101C30
:100B2000A907E9F4605C1209F81209A3D39400EE56
:100B300094004039EF2418FFEE34FC120A39404289
:100B40001209F8F58374019324E8FFE4933403FE5B
:100B5000C3120A3B502C1209972418FDEE34FC12E4
:100B60000A30401E120A0550198940801512099753
:100B70002418FDEE34FC120A304007120A05500218
:100B80008940AF4022120022787FE4F6D8FD7581BB
:100B900040020BCF020076E493A3F8E493A3400352
:100BA000F68001F208DFF48029E493A3F8540724C7
:100BB0000CC8C333C4540F4420C8834004F4568087
:100BC0000146F6DFE4800B0102040810204080900B
:100BD0000E27E47E019360BCA3FF543F30E5095427
:100BE0001FFEE493A360010ECF54C025E060A8402F
:100BF000B8E493A3FAE493A3F8E493A3C8C582C826
:100C0000CAC583CAF0A3C8C582C8CAC583CADFE9FA
:100C1000DEE780BE8B2A8A2B892C53DBFE120A9BCF
:100C2000120A5F121049121280120A901200261244
:100C30001280E4F532E532C395305055AB2AAA2B29
:100C4000A92CC003C002C001120A42C4120A7CD0FF
:100C500001D002D003120635F53485F033D280FF7F
:100C6000AE331210A1AB2AAA2BA92CC003C002C01C
:100C700001120A42120A7CD001D002D003120635BA
:100C8000F53485F033C280FFAE331210A1053280F7
:100C9000A4B290AF311531EF709843E202C29022B6
:100CA000C0E0C0F0C083C082C0D075D000C000C01A
:100CB00001C002C003C004C005C006C007E59854C7
:100CC00003F539F45298E53930E017121299900083
:100CD000B01210D6EFF09000B0E004F0E0B41402CF
:100CE000E4F0E53930E1299000B2E0D394004017F8
:100CF0009000AF1210E1E0FF1212969000AFE004F6
:100D0000F09000B2E014F09000AFE0B41402E4F010
:100D1000D007D006D005D004D003D002D001D00037
:100D2000D0D0D082D083D0F0D0E032C0E0C0F0C0CC
:100D300083C082C0D075D000C000C001C002C00313
:100D4000C004C005C006C007E5D85487F53AF45280
:100D5000D8E5F730E508E5F730E60312118553F7DB
:100D6000DFE53A30E708E5D930E00312129CE53AB6
:100D700030E008E5DA30E003120FEFE53A30E10841
:100D8000E5DB30E0031207E3E53A30E208E5DC306A
:100D9000E00312129DD007D006D005D004D003D0B6
:100DA00002D001D000D0D0D082D083D0F0D0E032B9
:100DB0008E2A8F2B8C2C8D2DAE02AF03120A75C09C
:100DC00007AF30AB07E4FAF9F8D0071209AD90008D
:100DD00000F0AE31AF32120A75C007AF33AB07E493
:100DE000FAF9F8D0071209AD90007DF0E530120A4B
:100DF00051900074EFF0E533120A51900083EFF048
:100E000090007AE52AF0A3E52BF0900001E52CF0A4
:100E1000A3E52DF090007CE534F043DA0143F74080
:100E200053DBFE75F9FF224200B500004200B3001B
:100E3000004100B8004100B70041007E0041007F42
:100E40000041008400410078004100745641008355
:100E5000AB4100000041007D0042007A00004200EA
:100E60000100004200800000420076000041007C4A
:100E7000004100820041007500410079004100738B
:100E8000004100B0004100B1004100AE004100AFA0
:100E9000004100B2004100AD0000AE07E4FCFB12CF
:100EA0001140ED75F00DA4242CF582E43413F58384
:100EB000E493FFECC39F500774082CFC0B80E3EB1A
:100EC00004FF121147ED75F00DA42420F582E434DF
:100ED00013F583E493FF121147E4FCECC39B500924
:100EE00074032C1210CA0C80F27F551211470212A3
:100EF00093C0E0C083C082C0D075D000C004C005DC
:100F0000C006C00753917F9000B5E0FEA3E0FFD379
:100F10009400EE940050035391FB9000B3E0FCA3C7
:100F2000E0FDC3EF9DFFEE9CA3F0A3EFF0D007D050
:100F300006D005D004D0D0D082D083D0E032AE0726
:100F4000E4FDF52A121140900001E0FF12114790D4
:100F500000011210EC900076E0FF1211479000762D
:100F60001210EC900080E0FF1211479000801210E8
:100F7000EC74032D1210CA0DBD03F67F55121147F4
:100F8000021293120A5F121049121280120A901272
:100F90000026121280D28090007A120FA9C280908F
:100FA0000001120FA943E20222E0FCA3E0FD7F054D
:100FB0007E00120026121280229000B0E0FF900006
:100FC000AEE0B507057E017F00229000AE1210D67C
:100FD000E0FD7C009000AEE004F0E0B41402E4F028
:100FE0009000ADE0FEEE4204E4F0AE04AF052290C6
:100FF0000082E07008900073E004120A8890007C80
:10100000E0FF900075E0B50703020003900075E073
:1010100004F0900082E014F0121163227EFFEFD3FF
:1010200094004022EF9480501DE4FDED75F00DA476
:1010300024DFF582E43412F583E493B50704AE05AA
:1010400080040DBD05E5AF06228E358F368C378DB9
:1010500038AB07AA06E4F9F87FE87E03FD12111900
:10106000E537F0A3E538F09000B3E535F0A3E536B9
:10107000F0439104228F2A900078E0F52B7F0B1229
:10108000128A43DB01120A9B12128DE490007FF05A
:1010900090007EF09000B7E52AF0900078F0AF2B3A
:1010A00022C3EF9414EE9400401F74EC2FFF74FFE2
:1010B0003EFEEF25E0FFEE33FED3EF9400EE94000A
:1010C0004007EF1F70F31E80F022F582E43400F534
:1010D00083E0FF021147E02485F582E43400F583C4
:1010E00022E02499F582E43400F58322A3E0FF0294
:1010F000114712125612125D1212641212391200A6
:101100006F1211DB1211F112124312122212126B22
:10111000121272121286021279FC1206F8A804A9A1
:1011200005AA06AB077F207ED77D757C011206F8E5
:10113000C3E49FFFE49EFE1212169000B522AE0794
:101140007FAA121147AF069000B1E0B41402E4F098
:101150009000B11210E1EFF09000B1E004F0A3E0D4
:1011600004F022120A15EFA806088002C313D8FC67
:1011700030E0059000748003900083E07D00FCE483
:10118000FF1211A322120A15EFA806088002C3134A
:10119000D8FC30E005900000800390007DE0FF1255
:1011A000128A22AB07AF04EB14600C14600E240209
:1011B000700E8DFB8FFC228DE98FEA228DEB8FEC78
:1011C00022120A89E014F09000757401F090007FFB
:1011D00004F0121163120F8302128DAF885388AF8F
:1011E000758CA0758DCBEF5440FEEF54104E4288A5
:1011F00022E59154045391FB7595FF7594FF759307
:10120000FF75928642912212129053D87853DBFEDA
:10121000E490007FF022AD07AC06ECF593AF058FAC
:101220009222C2DE75D90575F9FF75960122121159
:101230003E7F5512114702129375E34075E1017527
:10124000E20222758E447589224388502253984FBA
:10125000EB4F4DF598227597DE7597AD2275A41169
:1012600075D4CE2275A54175D5772253F77F75DAEF
:101270004A2253F77F75DB302275E69075A89022DD
:10128000E59120E2FB22439810228F8C22D2DE22AD
:10129000C2DE22D299228F9922AF99222222010006
:1012A00000271000043801684B19180212C005DC31
:1012B0000002BC012C461E28030BB8232800044C56
:1012C00001904B191804251C0BB8000384014046FB
:1012D0001E1805000072D80702BC012C26404001F0
:1012E0000000271000043801684B19180212C005CD
:1012F000DC0002BC012C461E28030BB82328000486
:101300004C01904B191804251C0BB80003840140B4
:10131000461E1805000072D80702BC012C2640406A
:10132000010000271000043801684B19180212C090
:1013300005DC0002BC012C461E28030BB823280044
:10134000044C01904B191804251C0BB800038401B0
:1013500040461E1805000072D80702BC012C26402A
:01136000404C
:00000001FF
