:020000040000FA
:100000000210D6ED24F8FEEFD39E4015ED2408FD36
:10001000E433FCC3EF9DEC6480F874809850028058
:1000200001C322020FB7E4F5A922220213C87EFF02
:10003000EFD394004022EF9480501DE4FDED75F065
:100040000EA42426F582E43419F583E493B507045D
:10005000AE0580040DBD06E5AF06220211ED1218B3
:10006000C153D87853DBFE121882E4900085F02249
:10007000D2DE2202141BD201121692C290C296D274
:1000800080E4FBFD7F1012186912064374A4F0D2BD
:10009000AFE4F52FF530D2960530E5307002052F2C
:1000A000B410F3E52FB427EEC2963001091215A95A
:1000B0008E328F338006753201753300E53370045C
:1000C000E532640170409000CCE07007F52FF53008
:1000D0000202870530E5307002052FD39410E52F1A
:1000E00094274002D296D3E5309430E52F94755092
:1000F00003020287E4F52FF5309000CCF09000CB9E
:10010000F0C296020287E4F52FF5309000CCE0149F
:10011000602A14700302025914700302021E147044
:100120000302023424046003020287E53364AA60F8
:10013000030202879000CC04F0020287E5339000AE
:10014000CBF0A37402F0E5331208B30206A00170ED
:10015000A10182A501A6A601BAA701C3A801DFA932
:1001600001C6B001CFB10197C00287FF00000215A0
:100170001205E69000A87401F0E4900075F07FA1EC
:10018000806E12005E9000CC7404F0753108E4F5C6
:10019000357534090202879000CC7404F0E4F5351B
:1001A000753402020287E49000A8F0900075F07F99
:1001B000A612067474A6F002028712064374A4F015
:1001C0000202877531089000CC7403F00202879018
:1001D00000757401F07FB1120674EFF0020287120D
:1001E00005E69000A8E0F52EE4F0900075F07FA9F8
:1001F00012153590007CEFF07D307C757F017E001C
:100200001216E502028712065790007CEFF0E49088
:1002100000CCF08072E49000CBF0A3F08069E4F5AC
:1002200035E533F534E534D394009000CC402574A3
:1002300004F0805374042535F582E43400F583E539
:1002400033F00535E53565346007E535C394704016
:10025000369000CC7402F0802EE5336455702890FF
:1002600000CCF0C2019000CBE02460601824FC6058
:100270000F24FE600B14600824F66004241070073D
:100280007FA0121836D2019000CBE01208B302B062
:10029000A102DAA402ECA503C5A603E1A8051FA9E3
:1002A000055CB005CFB1038DC003B3FF000000AA09
:1002B000900084E030E70F7DC87C001206167FA313
:1002C00012146E02053912187A40030200AA7DE862
:1002D0007C031206167FA2020554900084E020E7FA
:1002E000030200AA7FA412146E0203D99000CCE08E
:1002F00060030200AA900085E024FC606D24046085
:10030000030200AA1531900008E0FEA3E0FF7C0084
:100310007D641208D9C006C00712163CD007D0066B
:100320001208218F3E900006E0FEA3E0FF8E3FF50D
:10033000407C007D641208D9C006C00712163CD06C
:1003400007D0061208218F41754218900008E0FA84
:10035000A3E0FB900004E0FCA3E0FDA3E0FEA3E02B
:10036000FF12067B7406F00204EBE53160171206FB
:100370002DD39400500302051012062D12066012B0
:1003800018B30205101206577FA00205549000CC46
:10039000E060030200AA900004E0FCA3E0FD7F01FE
:1003A0007E001216E5D2961218B3C2967FA01218DC
:1003B00036800AE4FF121836E49000CCF0D2011225
:1003C000066B0200AA900084E020E7030200AA5412
:1003D0007FF537FD7FA6121371E4900084F00200D0
:1003E000AA9000CCE060030200AA900085E024FC03
:1003F00070030204F1240460030200AA1531120004
:100400005E900004E0647F702FA3E0FEA3E0FFA3F2
:10041000E0FCA3E0FDA3E0FAA3E0FBA3E0F53EA32C
:10042000E0F53FA3E0F540A3E0F541A3E0F542127B
:10043000067B740CF00204E2900004E0FF12002E30
:100440008F36E536F470030204DDEF75F00EA42458
:10045000D3F582E43418F583E493FE740193FFC06E
:1004600006C00712165624D5F582E4341812165D1C
:10047000C004C00512165624D8F582E43418F5835A
:10048000E493FA740193FB12165624DCF582E434EB
:1004900018F583E493FF12165624DAF582E4341833
:1004A00012165D12165624DDF582E43418F583E445
:1004B00093FE12165624DEF582E43418F583E49395
:1004C000F5428E418C3F8D408F3ED005D004D00741
:1004D000D0061212F79000747401F08005E49000C9
:1004E000CBF09000CBE070030200AA1217BC020010
:1004F000AAE531602312165624DFF582E43418F59C
:1005000083E493FFD394004007EF1206601218B300
:10051000E4900085F00200AA12066B7FA08035905F
:100520000084E0FF30E71C547FF5377DC87C001263
:1005300005F9AD377FAB121371E4900084F0D2015E
:100540000200AA12187A40030200AA7DE87C031276
:1005500005F97FAA121836D2010200AA900004E021
:1005600025E0F5379000CCE060030200AA900085FA
:10057000E0700512005E800B900085E0640460036B
:100580000200AAE5376007E534C394045008E490FC
:1005900000CBF00200AA74062537F9E43400753B5D
:1005A00001F53C893DC3E534953724FEF53E9000C6
:1005B00005E0F53F7B017A0079061212727FA012E6
:1005C000183690007CE0FF121535D2010200AA9087
:1005D0000084E020E7030200AA7FB1120F08E49034
:1005E0000084F00200AA7D327C007F017E0012169A
:1005F000E5D2961218B3C296227F017E001216E54C
:10060000D2961218B3C2969000A8E52EF090007C06
:10061000E0FF121535227F017E001216E5D29612F8
:1006200018B3C29690007CE0FF121535227F0112AC
:10063000002EEF75F00EA424DFF582E43418F58364
:10064000E493229000A87401F0E4900075F07FA478
:1006500012153590007C2290007CE0FF12153522A7
:10066000FD7C007F017E001216E52290007CE0FFF9
:100670001215352212153590007C221212F79000C7
:100680007422BB010CE58229F582E5833AF583E00B
:10069000225006E92582F8E622BBFE06E92582F80B
:1006A000E222E58229F582E5833AF583E49322BBD1
:1006B000010689828A83F0225002F722BBFE01F3F1
:1006C00022EF8DF0A4A8F0CF8CF0A428CE8DF0A45A
:1006D0002EFE22BC000BBE0029EF8DF084FFADF092
:1006E00022E4CCF875F008EF2FFFEE33FEEC33FC7C
:1006F000EE9DEC984005FCEE9DFE0FD5F0E9E4CEB2
:10070000FD22EDF8F5F0EE8420D21CFEADF075F080
:1007100008EF2FFFED33FD4007985006D5F0F22289
:10072000C398FD0FD5F0EA22C2D5EC30E709B2D567
:10073000E4C39DFDE49CFCEE30E715B2D5E4C39F15
:10074000FFE49EFE1206D3C3E49DFDE49CFC8003FF
:100750001206D330D507C3E49FFFE49EFE22BB01FF
:1007600010E58229F582E5833AF583E0F5F0A3E010
:10077000225009E92582F886F008E622BBFE0AE944
:100780002582F8E2F5F008E222E5832AF583E99371
:10079000F5F0A3E99322E88FF0A4CC8BF0A42CFC15
:1007A000E98EF0A42CFC8AF0EDA42CFCEA8EF0A4D7
:1007B000CDA8F08BF0A42DCC3825F0FDE98FF0A466
:1007C0002CCD35F0FCEB8EF0A4FEA9F0EB8FF0A45D
:1007D000CFC5F02ECD39FEE43CFCEAA42DCE35F099
:1007E000FDE43CFC2275F008758200EF2FFFEE332C
:1007F000FECD33CDCC33CCC58233C5829BED9AEC94
:1008000099E58298400CF582EE9BFEED9AFDEC99FD
:10081000FC0FD5F0D6E4CEFBE4CDFAE4CCF9A88207
:1008200022B800C1B90059BA002DEC8BF084CFCEAC
:10083000CDFCE5F0CBF97818EF2FFFEE33FEED336A
:10084000FDEC33FCEB33FB10D703994004EB99FB31
:100850000FD8E5E4F9FA227818EF2FFFEE33FEED1A
:1008600033FDEC33FCC933C910D7059BE99A400727
:10087000EC9BFCE99AF90FD8E0E4C9FAE4CCFB223E
:1008800075F010EF2FFFEE33FEED33FDCC33CCC807
:1008900033C810D7079BEC9AE899400AED9BFDEC12
:1008A0009AFCE899F80FD5F0DAE4CDFBE4CCFAE451
:1008B000C8F922D083D082F8E49370127401937047
:1008C0000DA3A393F8740193F5828883E4737402F3
:1008D000936860EFA3A3A380DFEC8EF0A4CCC5F0F7
:1008E000CCCDF8EFA4CEC5F02DFDE43CFCE8A42E61
:1008F000C8C5F03DFDE43CFCEFA4FFE5F028FEE4B4
:100900003DFDE43CFC22EF4E6012EF60010EEDBBBA
:10091000010B89828A83F0A3DFFCDEFA2289F05082
:1009200007F709DFFCA9F022BBFEFCF309DFFCA9F5
:10093000F022AFE9AEEA7C007D0A1206C18E088F74
:1009400009209303020B1085080A85090BC3E509EA
:10095000950DF511E508950CF510900075E01470F3
:1009600003020B0A046003020B31900085E014605F
:1009700065046003020B31900084E06003020B31D8
:100980009000A8E0FFAB11AA10AD0FAC0E120E4BF9
:100990008F12E51264807003020B3190007F120CFD
:1009A0009D900002E510F0A3E511120C59E49000AF
:1009B00074F0900077F090007EF0F513F514FE7F50
:1009C00070FD7B017A007904120906E490007DF045
:1009D00090008504F022E51275F00EA4242BF58218
:1009E000E43419F583E493FFD39400400B90007E28
:1009F000E09F5004E004F022900088E014F09000A2
:100A000077E004F0AE10AF11AB07AA06E50F2BFF9D
:100A1000E50E3AFEE433FDE433FCC004A905AA0662
:100A2000AB07AE0EAF0F120CA5D0001208218F221B
:100A3000120C121200034029E51275F00EA42431A5
:100A4000F582E43419F583E493FDAF2212000340EC
:100A500010120B326F600AE4900084F0C290A3F091
:100A600022120C12AF221200035007120B32C39F46
:100A70004011D3E50F9514E50E9513402B120B3260
:100A80006F7025900086120C9DD290120BE5C083EA
:100A9000C082120C957401A806088002C333D8FCEA
:100AA0004FD082D083F0801790007A120C9DC290B4
:100AB000D39514E50E95134006850E13850F1490FB
:100AC0000088E07011120BE5120C28FF1217D79066
:100AD000007DEF120C59120B326F705512187250C4
:100AE00005E4900083F0120C2560171218827DF443
:100AF0007C017F017E001216BC120CB8E512F04496
:100B000080F0C290E4900085F022AF11AE10801EFC
:100B100085080C85090DC3E509950BF50FE50895CA
:100B20000AF50E900075E0147007AF0FAE0E120CB0
:100B3000CC22E51275F00EA42432F582E43419F5C6
:100B400083E493FF900077E022120821AB07AA0606
:100B5000E4F9F87F407E427D0FFC120821E47BFF20
:100B6000FAF9F8120796A804A905AA06AB077F2090
:100B70007ED77D757C01120821EFF4042290007469
:100B8000E02404F582E43400F58322AE26AF277C0E
:100B9000007D1F1206D38E2A8F2B7C007D05120646
:100BA000D3C3E52B9FFDE52A9EFCD3E5259DE524D7
:100BB0009C22E52975F00EA42429F582E43419F568
:100BC00083E493FE740193FF2438FDEE34FFFCD3DD
:100BD000E5279DE5269C22E52525E0248AF582E48B
:100BE0003400F58322900077E024FFFFE434FFFE19
:100BF0007C007D0812072874042FF58274003EF5EE
:100C00008322E52B2FFFE52A3EC3FEE5259FE52441
:100C10009E22E51275F00EA42430F582E43419F515
:100C200083E493FD22900083E0FF90007DE06F223B
:100C3000E52975F00EA42427F582E43419F5832202
:100C400053DAFE53F7DF53F7BF22AB3BAA3CA93D73
:100C5000854082758300020682F09000887408F057
:100C600022EF24C8FFE43EFEC3E5279FE5269E222F
:100C700075F0FFA4FFAEF07C007D640206D3900007
:100C800078E523F0A3E524F022900081E0FF9000B6
:100C900077E0D39F22E0FF900088E0FE22E50EF08F
:100CA000A3E50FF0227C007D640208D9540F75F093
:100CB00002A4F58285F0832290007DE0900083F00D
:100CC000A322D3E5279470E5269417228E238F2440
:100CD000900085E0146035147003020DA7240260B3
:100CE00003020E3CC290900084E06003020E3CAF11
:100CF00024AE231218044003020E3CE4900001F0DD
:100D0000120C7E9000857401F0D29022900078E061
:100D1000FCA3E0FDAE047802CEC313CE13D8F92DA8
:100D2000FFEC3EFED3E5249FE5239E4009120C7E96
:100D3000E4900001F022AF24AE231214F7501F906C
:100D40000001E094004017E4900074F09000887473
:100D500004F0E490007DF09000857402F022C3E579
:100D6000249464E5239400406F120E3D501C120B36
:100D7000D7E0FEA3E02524FFE5233EC313FEEF13D7
:100D8000FF120BD7EEF0A3EFF022900001E0120B60
:100D9000D9120C81900001E004F0E0D3941E5003BE
:100DA000020E3CE4020E2DB290AF24AE231214F7D3
:100DB00050291218725005E4900083F0120C25603F
:100DC000151218827DF47C017F017E001216BC1280
:100DD0000CB8E04480F0C290E4805D120E3D5050AB
:100DE000900088E0B40411E525C454F0FF120B7D97
:100DF000EFF0E4900088F022120B7DE0FFE525542F
:100E00000FFEEF4EF0900074E004F0900088740440
:100E1000F0120B7D120C28FF1217D7EFF090007420
:100E2000E0D394704016121882E4900001F080081C
:100E3000121882E4900001F0900085F0227B007A85
:100E4000007925AF24AE23121165228F238C248DC7
:100E5000258A268B27752880E523707CE4F5297F79
:100E60000112002EEF6529701B120CC2405FE527AE
:100E70009450E52694465055120B8B4050120C02AC
:100E8000504B807E120C30E493FE740193FFD39498
:100E900000EE9400402BEF2438FFEE34FFD3120C09
:100EA0000A402A120C3074019324C8FFE4933400E2
:100EB000120C095018120BB24013120C61500E8024
:100EC00041120BB24007120C61500280350529E532
:100ED00029C394064089802DAF2312002E8F297FCD
:100EE0000112002EEF6529701C120CC24017E52775
:100EF0009450E5269446500D120B8B4008120C02BC
:100F00005003852928AF2822AE07E4F53812175D73
:100F1000900001E004FF121764120FB0900001E08E
:100F2000FFE538C39F5012121592121577121592D1
:100F3000F58312157E053880E3900078E0FF1217E4
:100F40006490007812157E120FB0900088E0B4040F
:100F50000F900001E0C454F0FF121584EFF08017E9
:100F6000121584C083C082E0FF900001E0540FFEA0
:100F7000EF4ED082D083F0E4F538900074E0240185
:100F8000FFE433FEC3E5389FEE6480F87480985028
:100F900017740425381215720538E538541F70DAB5
:100FA0001218C41218BD80D27F551217640218C4DB
:100FB0001218C41218BD22C0E0C0F0C083C082C0A5
:100FC000D075D000C000C001C002C003C004C0057D
:100FD000C006C007E5985403F547F45298E547303A
:100FE000E0171218CA9000C012159EEFF09000C0D2
:100FF000E004F0E0B41402E4F0E54730E12E9000A4
:10100000C2E0D39400401A9000BFE02448F8E6FF05
:101010001218C79000BFE004F09000C2E014F08006
:1010200002D2029000BFE0B42002E4F0D007D00664
:10103000D005D004D003D002D001D000D0D0D082CF
:10104000D083D0F0D0E0324200C700004200C3009D
:10105000004200C900004200C500004100CC004130
:1010600000CB0041008400410085004100A8004100
:1010700000750041007C0041007656410089AB417B
:101080000000004100820042007F00004200020098
:1010900000420086000042007A00004100810041C9
:1010A0000088004100770041007E0041007400414B
:1010B00000830041007D00410001004100C000416B
:1010C00000C1004100BE004100BF004100C200411C
:1010D00000BD00C1020012002A787FE4F6D8FD7539
:1010E0008167021120020076E493A3F8E493A34001
:1010F00003F68001F208DFF48029E493A3F8540793
:10110000240CC8C333C4540F4420C8834004F4568D
:10111000800146F6DFE4800B0102040810204080C5
:10112000901047E47E019360BCA3FF543F30E50973
:10113000541FFEE493A360010ECF54C025E060A8C5
:1011400040B8E493A3FAE493A3F8E493A3C8C58258
:10115000C8CAC583CAF0A3C8C582C8CAC583CADFC6
:10116000E9DEE780BE8E268F278B288A29892AC24E
:1011700000E4F52B900001E0FFE52BC39F506BE5E9
:1011800027AE267803CEC313CE13D8F9FDAC06E5FF
:1011900027AE267802CEC313CE13D8F92DF52DEE47
:1011A0003CF52CE52B120BD9E0FEA3E0FFC3952DF7
:1011B000FDEE952CFCC3ED9527EC95265028E52DEA
:1011C0002FFFE52C3EFEC3E5279FE5269E5017E541
:1011D0002A45294528600BAB28AA29A92AE52B1204
:1011E00006AFD2008004052B808AA20022C0E0C096
:1011F000F0C083C082C0D075D000C000C001C00262
:10120000C003C004C005C006C007E5D85487F52157
:10121000F452D8E5F730E508E5F730E6031215DFBC
:1012200053F7DFE52130E708E5D930E0031218D0A5
:10123000E52130E008E5DA30E00312170EE5213051
:10124000E108E5DB30E003120932E52130E208E590
:10125000DC30E0031218D1D007D006D005D004D07E
:1012600003D002D001D000D0D0D082D083D0F0D033
:10127000E0328B388A39893A53DBFE120C4053E254
:10128000FDE4F540E540C3953E504FAB38AA39A97F
:101290003AC003C002C001120C4AC4120CACD00107
:1012A000D002D00312075EF54285F041D2801212BF
:1012B000E9AB38AA39A93AC003C002C001120C4AEE
:1012C000120CACD001D002D00312075EF54285F0BB
:1012D00041C2801212E9054080AAB290AF3F153F8B
:1012E000EF709E43E202C29022FDAC417F0A7E0075
:1012F0001216101218B3228E388F398C3A8D3BAEED
:1013000002AF03120CA5C007AF3EAB07E4FAF9F831
:10131000D007120B49900000F0AE3FAF40120CA571
:10132000C007AF41AB07E4FAF9F8D007120B4990B8
:101330000082F0E53E120C70900076EFF0E541126D
:101340000C70900089EFF090007FE538F0A3E5394C
:10135000F0900002E53AF0A3E53BF0900081E54211
:10136000F043DA0153F7DF43F74053DBFE75F9FF33
:1013700022AE07E4FCFB12175DED75F00EA4248687
:10138000F582E43419F583E493FFECC39F500774AE
:10139000082CFC0B80E3EB04FF121764ED75F00ED4
:1013A000A4247AF582E43419F583E493FF121764D8
:1013B000E4FCECC39B500974042C1215720C80F2EF
:1013C0007F551217640218C4C0E0C083C082C0D029
:1013D00075D000C004C005C006C00753C87F900088
:1013E000C7E0FEA3E0FF4E700353C8FB9000C3129A
:1013F00014EC50099000C7E4F0A3F0800DC39000F6
:10140000C8E09DF09000C7E09CF0D007D006D00562
:10141000D004D0D0D082D083D0E032C0E0C083C02E
:1014200082C0D075D000C004C005C006C00753916B
:101430007F9000C9E0FEA3E0FF4E70035391FB9044
:1014400000C51214EC50099000C9E4F0A3F0800D1F
:10145000C39000CAE09DF09000C9E09CF0D007D096
:1014600006D005D004D0D0D082D083D0E032AE07F1
:10147000E4FDF53812175D900002E0FF121764904A
:10148000000212157E90007AE0FF12176490007A35
:1014900012157E900086E0FF1217649000861215E8
:1014A0007E74042D1215720DBD03F67F551217645C
:1014B0000218C4AB07AA06E4F9F87F407E427D0F0C
:1014C000FC120821A804A905AA06AB077F207ED735
:1014D0007D757C01120821C3E49FFFE49EFE22ABD0
:1014E00007AA06E4F9F87FE87E03FD22E0FCA3E00A
:1014F000FDC3EF9DEE9C22AD07AC06900078E0FEA8
:10150000A3E07802CEC313CE13D8F9FFC3900079BD
:10151000E09FFB900078E09EFAC3EB9DEA9C50139D
:10152000A3E02FFF900078E03EFEC3ED9FEC9E50BD
:10153000028001C3228F3890007CE0F5397F0B12C6
:1015400018CD43DB01120C401200707D0A7C007F35
:10155000017E001216E51218B343E202E490008502
:10156000F0900084F09000CBE538F090007CF0AF74
:101570003922F582E43400F583E0FF021764A3E02A
:10158000FF021764900074E02404F582E43400F54F
:101590008322E53825E0248AF582E4340022E02421
:1015A000A9F582E43400F583229000C0E0FF9000AA
:1015B000BEE0B507057E017F00229000BE12159E99
:1015C000E0FD7C009000BEE004F0E0B41402E4F022
:1015D0009000BDE0FEEE4204E4F0AE04AF0522123E
:1015E0000C89400302179E120B7D120C95EFA80682
:1015F000088002C313D8FC30E00B900000E0FF121B
:1016000018CDD29022900082E0FF1218CDC2902215
:101610008E438F448C458D461214B312181EE54636
:1016200024BF9000CAF0E54534FF9000C9F0900057
:10163000C5E543F0A3E544F043910422900006E0A1
:10164000FEA3E0FF900009E02FFF900008E03EAB12
:1016500007FAE4F9F822E53675F00EA422F583E4E2
:1016600093FC740193FD22D29053E2FDD28090004E
:101670007F121682C290C28090000212168243E24C
:101680000222E0FCA3E0FD7F0A7E00121610121871
:10169000B3221218891218901218971218411200CA
:1016A000261217EE12185F12184B12185512182A2C
:1016B00012189E1218A51218B90218AC8E268F2780
:1016C0008C288D291214DF1214C01218129000C732
:1016D000E528F0A3E529F09000C3E526F0A3E5276F
:1016E000F043C804228E3A8F3B8C3C8D3D1214DFB0
:1016F0001214C012181E9000C9E53CF0A3E53DF09D
:101700009000C5E53AF0A3E53BF043910422900038
:1017100088E07008900074E004120C59900077E0A3
:1017200004F0900088E014F0120C89500302173680
:1017300053E2FDC28022120B7D120C95EFA8060821
:101740008002C313D8FC30E005900076800390003F
:1017500089E07D00FCE4FF12178022AE077FAA1209
:101760001764AF06C2029000C1E0B42002E4F0901A
:1017700000C1E02448F8A607E004F0A3E004F0224A
:10178000AB07AF04EB14600C14600E2402700E8DD6
:10179000FB8FFC228DE98FEA228DEB8FEC22E4FD9A
:1017A000FCFF121780120C401218C153D87853E274
:1017B000FDC280C2909000857404F022120C5AE0A1
:1017C00014F09000777401F09000857403F0121704
:1017D000361216670200707E1DE4FDEF30E7062525
:1017E000E06EFF8004EF25E0FF0DBD08EE22AF881C
:1017F0005388AF758CA0758DCBEF5440FEEF54101D
:101800004E428822C3EF94ACEE940D4003D3800186
:10181000C322AD07AC06ECF5CBAF058FCA22AD07EE
:10182000AC06ECF593AF058F9222C2DE75D9057533
:10183000F9FF7596012212175B7F55121764021883
:10184000C475E34075E10175E20222E59154045349
:1018500091FB429122758E5475892243885022E56E
:10186000C8540453C8FB42C82253984FEB4F4DF560
:101870009822E5C8C320E201D322E591C320E2010A
:10188000D32253C8FB53C87F227597DE7597AD22CC
:1018900075A41175D4CE2275A54175D5772253F75D
:1018A0007F75DA4A2253F77F75DB302275E6907533
:1018B000A8B022E59120E2FB22439810223002FDDD
:1018C00022C2DE22D299228F9922AF99228F8C22B6
:1018D0002222010190307000064001904B1918003F
:1018E0000212C005DC0002BC012C461E2808030BB6
:1018F000B8232800044C01904B19180004251C0B38
:10190000B80003840140461E180005000072D80785
:1019100002BC012C26404000060BAE1C3E000439E0
:1019200001C5461E1800010190307000064001906C
:101930004B1918000212C005DC0002BC012C461E27
:101940002808030BB8232800044C01904B191800F9
:1019500004251C0BB80003840140461E1800050036
:101960000072D80702BC012C26404000060BAE1CBA
:101970003E00043901C5461E180001019030700078
:10198000064001904B1918000212C005DC0002BC91
:10199000012C461E2808030BB8232800044C019094
:1019A0004B19180004251C0BB80003840140461E87
:1019B000180005000072D80702BC012C2640400028
:0E19C000060BAE1C3E00043901C5461E180081
:00000001FF
