:020000040000FA
:10000000020E17ED24F8FEEFD39E4015ED2408FDF7
:10001000E433FCC3EF9DEC6480F874809850028058
:1000200001C322020D878E428F438C448D45AB075E
:10003000AA06E4F9F87F407E427D0F12146EE54473
:10004000F0A3E545F09000C1E542F0A3E543F0439D
:10005000910422E591C320E201D322020FBAE535D3
:1000600075F00DA422F583E493FC740193FD22E462
:10007000F5A92202120CD201121447C290C296D2E4
:1000800080E4FBFD7F101215D912058274A4F0D212
:10009000AFE4F52FF530D2960530E5307002052F2C
:1000A000B410F3E52FB427EEC296300109121312F3
:1000B0008E318F328006753101753200E532700461
:1000C000E531640170409000C6E07007F52FF5300F
:1000D00002026C0530E5307002052FD39410E52F35
:1000E00094274002D296D3E5309430E52F94755092
:1000F0000302026CE4F52FF5309000C6F09000C5C5
:10010000F0C29602026CE4F52FF5309000C6E014C0
:10011000602A14700302023E14700302020314707A
:10012000030202192404600302026CE53264AA602F
:100130000302026C9000C604F002026CE5329000EB
:10014000C5F0A37402F0E5321207DE01EBA0016AEC
:10015000A1017CA5018EA601A2A701ABA801C4A99B
:1001600001ABB001B4B1000001FA12053B9000A64A
:100170007401F0E4900075F07FA18059121585900C
:1001800000C67404F0E4F53475330902026CE4909F
:1001900000A6F0900075F07FA612059F74A6F002ED
:1001A000026C12058274A4F002026C9000C6740303
:1001B000F002026C9000757401F07FB112059FEFA0
:1001C000F002026C12053B9000A6E0F52EE4F090E0
:1001D0000075F07FA91213A190007CEFF07D307CB8
:1001E000757F017E0012137502026C120596900055
:1001F0007CEFF0E49000C6F08072E49000C5F0A3BC
:10020000F08069E4F534E532F533E533D3940090BA
:1002100000C640257404F0805374042534F582E44C
:100220003400F583E532F00534E53465336007E5E5
:1002300034C3947040369000C67402F0802EE532CC
:10024000645570289000C6F0C2019000C5E024609B
:10025000601824FC600F24FE600B14600824F66014
:1002600004241070077FA01215BAD2019000C5E0D7
:10027000245C605414606214700302033E24FE7018
:100280000302035A14700302047424F97003020475
:10029000B1147003020524241060030200AA900028
:1002A00082E030E70F7DC87C0012056B7FA312123D
:1002B0005902048E12005340030200AA7DE87C0319
:1002C00012056B7FA20204A9900082E020E70302DE
:1002D00000AA7FA412125980799000C6E060030240
:1002E00000AA900083E024FC604C24046003020018
:1002F000AA900004E0FEA3E0FF7C007D80120804C9
:10030000E47B807A0FF9F812074C900004E0FCA31C
:10031000E0FD900008E0FAA3E0FB753D4B9000067D
:10032000E0F53EA3E0F53F7540197541181205A6AA
:100330007407F00204621205967FA00204A99000DF
:1003400082E020E7030200AA547FF536FD7FA61263
:1003500011B5E4900082F00200AA9000C6E06003AC
:100360000200AA900083E024FC70030204682404C5
:1003700060030200AA121585900004E0647F702FCC
:10038000A3E0FEA3E0FFA3E0FCA3E0FDA3E0FAA34B
:10039000E0FBA3E0F53DA3E0F53EA3E0F53FA3E0DD
:1003A000F540A3E0F5411205A6740CF00204599043
:1003B0000004E0FF1213488F35E535F470030204A2
:1003C00054EF75F00DA42430F582E43416F583E47F
:1003D00093FE740193FFC006C00712005E2432F53D
:1003E00082E43416120065C004C00512005E243594
:1003F000F582E43416F583E493FA740193FB12005A
:100400005E2439F582E43416F583E493FF12005E2E
:100410002437F582E4341612006512005E243AF5A2
:1004200082E43416F583E493FE12005E243BF582E9
:10043000E43416F583E493F5418E408C3E8D3F8F76
:100440003DD005D004D007D00612113E9000747440
:1004500001F08005E49000C5F09000C5E070030253
:1004600000AA12153B0200AA90007CE0FF1213A123
:100470007FA08035900082E0FF30E71C547FF53686
:100480007DC87C0012054EAD367FAB1211B5E490ED
:100490000082F0D2010200AA12005340030200AA17
:1004A0007DE87C0312054E7FAA1215BAD201020024
:1004B000AA900004E025E0F5369000C6E060030253
:1004C00000AA900083E07005121585800B900083D0
:1004D000E0640460030200AAE5366007E533C394D4
:1004E000045008E49000C5F00200AA74062536F90D
:1004F000E43400753A01F53B893CC3E53395362475
:10050000FEF53D900005E0F53E7B017A007906128C
:100510000EA67FA01215BA90007CE0FF1213A1D2A4
:10052000010200AA900082E020E7030200AA7FB146
:1005300012103FE4900082F00200AA7D327C007F1E
:10054000017E00121375D29612160CC296227F01FC
:100550007E00121375D29612160CC2969000A6E574
:100560002EF090007CE0FF1213A1227F017E00128A
:100570001375D29612160CC29690007CE0FF1213EF
:10058000A1229000A67401F0E4900075F07FA412FF
:1005900013A190007C2290007CE0FF1213A1221294
:1005A00013A190007C2212113E90007422BB010C1A
:1005B000E58229F582E5833AF583E0225006E925B4
:1005C00082F8E622BBFE06E92582F8E222E58229CE
:1005D000F582E5833AF583E49322BB010689828A9A
:1005E00083F0225002F722BBFE01F322EF8DF0A42C
:1005F000A8F0CF8CF0A428CE8DF0A42EFE22BC0053
:100600000BBE0029EF8DF084FFADF022E4CCF8752D
:10061000F008EF2FFFEE33FEEC33FCEE9DEC98403C
:1006200005FCEE9DFE0FD5F0E9E4CEFD22EDF8F5D8
:10063000F0EE8420D21CFEADF075F008EF2FFFED38
:1006400033FD4007985006D5F0F222C398FD0FD530
:10065000F0EA22C2D5EC30E709B2D5E4C39DFDE44F
:100660009CFCEE30E715B2D5E4C39FFFE49EFE127A
:1006700005FEC3E49DFDE49CFC80031205FE30D51D
:1006800007C3E49FFFE49EFE22BB0110E58229F52B
:1006900082E5833AF583E0F5F0A3E0225009E925ED
:1006A00082F886F008E622BBFE0AE92582F8E2F528
:1006B000F008E222E5832AF583E993F5F0A3E993B4
:1006C00022E88FF0A4CC8BF0A42CFCE98EF0A42CB3
:1006D000FC8AF0EDA42CFCEA8EF0A4CDA8F08BF0FF
:1006E000A42DCC3825F0FDE98FF0A42CCD35F0FCFD
:1006F000EB8EF0A4FEA9F0EB8FF0A4CFC5F02ECDC9
:1007000039FEE43CFCEAA42DCE35F0FDE43CFC22AD
:1007100075F008758200EF2FFFEE33FECD33CDCCA0
:1007200033CCC58233C5829BED9AEC99E582984023
:100730000CF582EE9BFEED9AFDEC99FC0FD5F0D600
:10074000E4CEFBE4CDFAE4CCF9A88222B800C1B92A
:100750000059BA002DEC8BF084CFCECDFCE5F0CB68
:10076000F97818EF2FFFEE33FEED33FDEC33FCEBA1
:1007700033FB10D703994004EB99FB0FD8E5E4F95C
:10078000FA227818EF2FFFEE33FEED33FDEC33FC49
:10079000C933C910D7059BE99A4007EC9BFCE99A3D
:1007A000F90FD8E0E4C9FAE4CCFB2275F010EF2F82
:1007B000FFEE33FEED33FDCC33CCC833C810D70782
:1007C0009BEC9AE899400AED9BFDEC9AFCE899F8BD
:1007D0000FD5F0DAE4CDFBE4CCFAE4C8F922D083FB
:1007E000D082F8E4937012740193700DA3A393F870
:1007F000740193F5828883E4737402936860EFA3B5
:10080000A3A380DFEC8EF0A4CCC5F0CCCDF8EFA490
:10081000CEC5F02DFDE43CFCE8A42EC8C5F03DFD9E
:10082000E43CFCEFA4FFE5F028FEE43DFDE43CFCE5
:1008300022EF4E6012EF60010EEDBB010B89828A40
:1008400083F0A3DFFCDEFA2289F05007F709DFFC12
:10085000A9F022BBFEFCF309DFFCA9F022AFE9AE50
:10086000EA7C007D0A1205EC8E088F0920930302B2
:100870000A2785080A85090BC3E509950DF511E5D9
:1008800008950CF510900075E0147003020A21041D
:100890006003020A48900083E0146065046003026C
:1008A0000A48900082E06003020A489000A6E0FF38
:1008B000AB11AA10AD0FAC0E120CCA8F12E5126468
:1008C000807003020A4890007E120C9D900002E5A1
:1008D00010F0A3E511F09000867408F0E490007425
:1008E000F0900077F090007DF0F513F514FE7F7026
:1008F000FD7B017A0079041208319000837401F0C5
:1009000022E51275F00DA42475F582E43416F58302
:10091000E493FFD39400400B90007DE09F5004E0EF
:1009200004F022900086E014F0900077E004F0AE2E
:1009300010AF11AB07AA06E50F2BFFE50E3AFEE458
:1009400033FDE433FCC004A905AA06AB07AE0EAF25
:100950000F120CA5D00012074C8F22120C1A120095
:10096000034029E51275F00DA4247BF582E43416CA
:10097000F583E493FDAF221200034010120B8E6F3B
:10098000600AE4900082F0C290A3F022120C1AAF29
:10099000221200035007120B8EC39F4011D3E50FA4
:1009A0009514E50E95134044120B8E6F703E900027
:1009B00084120C9DD290900077E024FFFFE434FF76
:1009C000FE7C007D0812065374042FF58274003EED
:1009D000F583C083C082120C957401A806088002BA
:1009E000C333D8FC4FD082D083F0801790007A12A6
:1009F0000C9DC290D39514E50E95134006850E13F9
:100A0000850F14900086E070037408F0120B8E6F4F
:100A10007036900082E512F04480F0C290E4A3F0BA
:100A200022AF11AE10801E85080C85090DC3E509A3
:100A3000950BF50FE508950AF50E900075E014701A
:100A400007AF0FAE0E120A49228E238F2490008327
:100A5000E0146035147003020B1E24026003020BC5
:100A60007FC290900082E06003020B7FAF24AE2330
:100A70001215944003020B7FE4900001F0120C6900
:100A80009000837401F0D29022900078E0FCA3E003
:100A9000FDAE047802CEC313CE13D8F92DFFEC3E81
:100AA000FED3E5249FE5239E4009120C69E49000E3
:100AB00001F022AF24AE2312129E501A900001E0E2
:100AC00094004012E4900074F09000867404F0905A
:100AD00000837402F022C3E5249464E5239400406B
:100AE0003A120B80501C120C0CE0FEA3E02524FFF0
:100AF000E5233EC313FEEF13FF120C0CEEF0A3EF41
:100B0000F022900001E0120C0E120C6C900001E03B
:100B100004F0E0D3941E4067E48058E4805DB29016
:100B2000AF24AE2312129E500D900082E04480F05C
:100B3000C290E4A3F022120B80503B900086E0B4F8
:100B40000411E525C454F0FF120BFEEFF0E4900011
:100B500086F022120BFEE0FFE525540FFEEF4EF06B
:100B6000120C827404F0900074E0D394704010E48E
:100B7000900001F08005E4900001F0900083F022E5
:100B80007B007A007925AF24AE23120F3222E512C2
:100B900075F00DA4247CF582E43416F583E493FF0C
:100BA000900077E02212074CAB07AA06E4F9F87F21
:100BB000407E427D0FFC12074CE47BFFFAF9F812ED
:100BC00006C1A804A905AA06AB077F207ED77D75BC
:100BD0007C0112074CEFF40422E52875F00DA424E3
:100BE00073F582E43416F583E493FC740193FD24D9
:100BF00038FBEC34FFFAD3E5269BE5259A229000DA
:100C000074E02404F582E43400F58322E52525E030
:100C10002488F582E43400F58322E51275F00DA4F2
:100C2000247AF582E43416F583E493FD22E52875F1
:100C3000F00DA42471F582E43416F58322AB3AAAB0
:100C40003BA93C853F827583000205ADED24C8FDBC
:100C5000E43CFCC3E5269DE5259C2275F0FFA4FF3E
:100C6000AEF07C007D640205FE900078E523F0A3E1
:100C7000E524F02253E2FDD2807D077C007F017ED7
:100C80000022900074E004F090008622D3FCE5245A
:100C90009DE5239C22E0FF900086E0FE22E50EF019
:100CA000A3E50FF0227C007D64020804540F75F068
:100CB00002A4F58285F08322C2807D647C007F0AD5
:100CC0007E002253DAFE53F7BF228C238D248A251F
:100CD0008B26752780EF7056E4F528120C2DE493CF
:100CE000FC740193FDD39400EC9400402BED243868
:100CF000FDEC34FF120C8C402B120C2D740193244C
:100D0000C8FDE4933400C3120C8D5018120BD94067
:100D100013120C4C500E8069120BD94007120C4C68
:100D20005002805D0528E528640570AF80561213D7
:100D3000488F28E528F4604CD3E5269470E5259487
:100D4000174041E5269450E52594465037AE25AF2F
:100D5000267C007D1F1205FE8E298F2A7C007D0ACD
:100D60001205FEC3E52A9FFDE5299E120C8C401456
:100D7000E52A2FFFE5293EFEC3E5249FE5239E508B
:100D800003852827AF2722C0E0C0F0C083C082C0FF
:100D9000D075D000C000C001C002C003C004C005AF
:100DA000C006C007E5985403F546F45298E546306E
:100DB000E0171216269000BE121414EFF09000BE39
:100DC000E004F0E0B41402E4F0E54630E12E9000D7
:100DD000C0E0D39400401A9000BDE02447F8E6FF3D
:100DE0001216239000BDE004F09000C0E014F080E3
:100DF00002D2029000BDE0B42002E4F0D007D00699
:100E0000D005D004D003D002D001D000D0D0D08201
:100E1000D083D0F0D0E03212162C787FE4F6D8FDE3
:100E2000758166020E61020076E493A3F8E493A351
:100E30004003F68001F208DFF48029E493A3F8541C
:100E400007240CC8C333C4540F4420C8834004F49F
:100E500056800146F6DFE4800B01020408102040B2
:100E6000809010C1E47E019360BCA3FF543F30E545
:100E700009541FFEE493A360010ECF54C025E06027
:100E8000A840B8E493A3FAE493A3F8E493A3C8C5F5
:100E900082C8CAC583CAF0A3C8C582C8CAC583CAE6
:100EA000DFE9DEE780BE8B378A38893953DBFE12F3
:100EB0000CC3120C7412137512160C120CB812001B
:100EC0002612160CE4F53FE53FC3953D5055AB3770
:100ED000AA38A939C003C002C001120C3DC4120CCB
:100EE000ACD001D002D003120689F54185F040D282
:100EF00080FFAE401213CDAB37AA38A939C003C06A
:100F000002C001120C3D120CACD001D002D0031271
:100F10000689F54185F040C280FFAE401213CD0531
:100F20003F80A4B290AF3E153EEF709843E202C2FC
:100F300090228E268F278B288A29892AC200E4F5E1
:100F40002B900001E0FFE52BC39F506BE527AE26F9
:100F50007803CEC313CE13D8F9FDAC06E527AE2631
:100F60007802CEC313CE13D8F92DF52DEE3CF52C17
:100F7000E52B120C0EE0FEA3E0FFC3952DFDEE95D0
:100F80002CFCC3ED9527EC95265028E52D2FFFE589
:100F90002C3EFEC3E5279FE5269E5017E52A4529EE
:100FA0004528600BAB28AA29A92AE52B1205DAD21D
:100FB000008004052B808AA20022C0E0C0F0C0831C
:100FC000C082C0D075D000C000C001C002C003C044
:100FD00004C005C006C007E5D85487F521F452D8EF
:100FE000E5F730E508E5F730E6031214DD53F7DFE7
:100FF000E52130E708E5D930E00312162DE5213070
:10100000E008E5DA30E00312141FE52130E108E5DD
:10101000DB30E00312085DE52130E208E5DC30E07A
:101020000312162ED007D006D005D004D003D0026C
:10103000D001D000D0D0D082D083D0F0D0E032AE7A
:1010400007E4F5371214BA900001E004FF1214C14E
:101050001210BA900001E0FFE537C39F501212143E
:10106000081213FB121408F583121402053780E3EB
:10107000900078E0FF1214C1900078121402121050
:10108000BA900086E07006900074E004F0E4F53752
:10109000900074E0FFE537C39F50177404253712A2
:1010A00013F60537E537541F70E612162012161690
:1010B00080DE7F551214C102162012162012161659
:1010C000224200C300004200C100004100C60041AE
:1010D00000C50041008200410083004100A600419C
:1010E00000750041007C0041007656410087AB410D
:1010F0000000004100810042007E0000420002002A
:1011000000420084000042007A000041008000415B
:101110000086004100770041007D004100740041DD
:101120000001004100BE004100BF004100BC004181
:1011300000BD004100C0004100BB00C102008E376D
:101140008F388C398D3AAE02AF03120CA5C007AFB1
:101150003DAB07E4FAF9F8D007120BA5900000F0B8
:10116000AE3EAF3F120CA5C007AF40AB07E4FAF9A3
:10117000F8D007120BA5900081F0E53D120C5B90B2
:101180000076EFF0E540120C5B900087EFF09000E6
:101190007EE537F0A3E538F0900002E539F0A3E5ED
:1011A0003AF0900080E541F043DA0143F74053DB29
:1011B000FE75F9FF22AE07E4FCFB1214BAED75F0E0
:1011C0000DA424BDF582E43416F583E493FFECC34B
:1011D0009F500774082CFC0B80E3EB04FF1214C132
:1011E000ED75F00DA424B1F582E43416F583E49393
:1011F000FF1214C1E4FCECC39B500974042C1213BD
:10120000F60C80F27F551214C1021620C0E0C08394
:10121000C082C0D075D000C004C005C006C007534E
:10122000917F9000C3E0FEA3E0FFD39400EE940012
:1012300050035391FB9000C1E0FCA3E0FDC3EF9D80
:10124000FFEE9CA3F0A3EFF0D007D006D005D004AA
:10125000D0D0D082D083D0E032AE07E4FDF5371293
:1012600014BA900002E0FF1214C19000021214029E
:1012700090007AE0FF1214C190007A1214029000DC
:1012800084E0FF1214C190008412140274042D1221
:1012900013F60DBD03F67F551214C1021620AD07DB
:1012A000AC06900078E0FEA3E07802CEC313CE1324
:1012B000D8F9FFC3900079E09FFB900078E09EFA98
:1012C000C3EB9DEA9C5013A3E02FFF900078E03E13
:1012D000FEC3ED9FEC9E50028001C322120C7412DB
:1012E000137512160C120CB812002612160CD280AE
:1012F00090007E121302C28090000212130243E299
:101300000222E0FCA3E0FD7F057E001200261216FB
:101310000C229000BEE0FF9000BCE0B507057E0106
:101320007F00229000BC121414E0FD7C009000BCF1
:10133000E004F0E0B41402E4F09000BBE0FEEE4202
:1013400004E4F0AE04AF05227EFFEFD39400402208
:10135000EF9480501DE4FDED75F00DA42470F5822E
:10136000E43416F583E493B50704AE0580040DBD9F
:1013700005E5AF06228E428F438C448D45AB07AA0C
:1013800006E4F9F87FE87E03FD12146EE544F0A34D
:10139000E545F09000C1E542F0A3E543F043910438
:1013A000228F3790007CE0F5387F0B12162943DB43
:1013B00001120CC312161AE4900083F0900082F020
:1013C0009000C5E537F090007CF0AF3822C3EF9471
:1013D00014EE9400401F74EC2FFF74FF3EFEEF25C7
:1013E000E0FFEE33FED3EF9400EE94004007EF1FD2
:1013F00070F31E80F022F582E43400F583E0FF02F2
:1014000014C1A3E0FF0214C1E53725E02488F5826A
:10141000E4340022E024A7F582E43400F58322902E
:101420000086E07006120C827408F0900080E0FFE5
:10143000900077E0B507030214FE900077120C8548
:10144000E014F0121493221215E21215E91215F0AD
:101450001215C512006F12155912156F1215CF1201
:1014600015AE1215F71215FE121612021605FC1211
:10147000074CA804A905AA06AB077F207ED77D7577
:101480007C0112074CC3E49FFFE49EFE1215A2905C
:1014900000C322120BFE120C95EFA806088002C3AF
:1014A00013D8FC30E0059000768003900087E07D43
:1014B00000FCE4FF12151D22AE077FAA1214C1AF73
:1014C00006C2029000BFE0B42002E4F09000BFE04A
:1014D0002447F8A607E004F0A3E004F022120BFE74
:1014E000120C95EFA806088002C313D8FC30E00563
:1014F0009000008003900081E0FF12162922E4FD95
:10150000FCFF12151D120CC312161D53D87853E29E
:10151000FDC28043E2029000837404F022AB07AF67
:1015200004EB14600C14600E2402700E8DFB8FFC13
:10153000228DE98FEA228DEB8FEC229000867408D1
:10154000F0E014F09000777401F09000837403F0E1
:101550001214931212DC02161AAF885388AF758CDE
:10156000A0758DCBEF5440FEEF54104E428822E51B
:101570009154045391FB7595FF7594FF7593FF7516
:10158000928642912212161D53D87853DBFEE490C6
:101590000083F022C3EF94ACEE940D4003D380019E
:1015A000C322AD07AC06ECF593AF058F9222C2DEE5
:1015B00075D90575F9FF759601221214B87F551279
:1015C00014C102162075E34075E10175E20222752F
:1015D0008E447589224388502253984FEB4F4DF526
:1015E00098227597DE7597AD2275A41175D4CE2219
:1015F00075A54175D5772253F77F75DA4A2253F7DF
:101600007F75DB302275E69075A89022E59120E287
:10161000FB22439810223002FD22D2DE22C2DE22BB
:10162000D299228F9922AF99228F8C2222222201D5
:101630000000000000000000004B19180212C00555
:10164000DC0002BC012C461E28030BB82328000432
:101650004C01904B191804251C0BB8000384014061
:10166000461E1805000072D80702BC012C26404017
:10167000010000000000000000004B19180212C019
:1016800005DC0002BC012C461E28030BB8232800F1
:10169000044C01904B191804251C0BB8000384015D
:1016A00040461E1805000072D80702BC012C2640D7
:1016B00040010000000000000000004B1918021259
:1016C000C005DC0002BC012C461E28030BB82328F1
:1016D00000044C01904B191804251C0BB80003841E
:1016E0000140461E1805000072D80702BC012C26D6
:0216F000404078
:00000001FF
