:020000040000FA
:10000000020822AB07AF04EB14600C14600E24024C
:10001000700E8DFB8FFC228DE98FEA228DEB8FEC29
:10002000222222020AAE9000E0E0700C9000D0E0A4
:1000300004F09000E07408F09000D9E0FF9000D246
:10004000E0B50703020D729000D2E004F09000E0EA
:10005000E014F0120DE322E4F5A92202093FE513B2
:1000600075F00DA422F583E493FC740193FD224303
:10007000981022020B76120D4BC290C296D280E4E9
:10008000FBFD7F10120EC09000E27401F09000E7BB
:1000900074A4F0FF120DBED2AF120C8F8E0F8F1012
:1000A000E5107004E50F6401700302018E9000E812
:1000B000E014602A14700302017F14700302014CE3
:1000C0001470030201622404600302018EE51064CF
:1000D000AA600302018E9000E804F002018EE51090
:1000E0009000E7F0A37402F0E510245B602C14602C
:1000F0003414603D146044240770487D327C001243
:1001000003549000E27401F07FA1120DBE7D307C9B
:10011000757F017E00120D1F80749000E87404F05A
:100120007511098069E49000E2F07FA6120DBE808F
:100130005D120F01E49000DAF080539000E8740340
:10014000F0804BE49000E7F0A3F08042E4F512E584
:1001500010F511E511D394009000E8401D7404F0EF
:10016000802C74902512F582E43400F583E510F0BC
:100170000512E512B511179000E87402F0800FE542
:1001800010645570099000E8F07FA0120EA1900055
:10019000E7E0245C604314605114700302023424CD
:1001A000FE7003020250240760030200999000DCF5
:1001B000E030E70FE49000E7F07FA3120BC3E49078
:1001C00000DCF0120EC940030200997DE87C0312A6
:1001D00003547FA2120EA180539000DCE020E703BD
:1001E0000200997FA4120BC3805E9000E8E06003D8
:1001F0000200999000DAE06003120F01900090E095
:10020000FEA3E0FF900094E0FAA3E0FB751B46908C
:100210000092E0F51CA3E0F51D751E1E751F187DEC
:10022000D07C071203637407F0120E45E49000E7D8
:10023000F00200999000DCE020E703020099547F6F
:10024000F514FD7FA6120B1FE49000DCF00200996C
:100250009000E8E060030200999000DAE060031289
:100260000F01900090E0647F702FA3E0FEA3E0FFF9
:10027000A3E0FCA3E0FDA3E0FAA3E0FBA3E0F51BF1
:10028000A3E0F51CA3E0F51DA3E0F51EA3E0F51F18
:10029000120363740CF0020343900090E0FF120C11
:1002A000F28F13E513F4700302033EEF75F00DA413
:1002B0002412F582E4340FF583E493FE740193FF76
:1002C000C006C00712005E2414F582E4340F120049
:1002D00065C004C00512005E2417F582E4340FF5F2
:1002E00083E493FA740193FB12005E241BF582E40D
:1002F000340FF583E493FF12005E2419F582E43491
:100300000F12006512005E241CF582E4340FF583A1
:10031000E493FE12005E241DF582E4340FF583E4BD
:1003200093F51F8E1E8C1C8D1D8F1BD005D004D005
:1003300007D0061209C49000D07401F08005E49043
:1003400000E7F09000E7E06003120E45E49000E75C
:10035000F00200997F017E00120D1FD296120EFB53
:10036000C296221209C49000D022EF8DF0A4A8F00A
:10037000CF8CF0A428CE8DF0A42EFE22BC000BBEA4
:100380000029EF8DF084FFADF022E4CCF875F00881
:10039000EF2FFFEE33FEEC33FCEE9DEC984005FCB6
:1003A000EE9DFE0FD5F0E9E4CEFD22EDF8F5F0EE7E
:1003B0008420D21CFEADF075F008EF2FFFED33FD69
:1003C0004007985006D5F0F222C398FD0FD5F0EA09
:1003D00022C2D5EC30E709B2D5E4C39DFDE49CFC14
:1003E000EE30E715B2D5E4C39FFFE49EFE12037C16
:1003F000C3E49DFDE49CFC800312037C30D507C35D
:10040000E49FFFE49EFE22E88FF0A4CC8BF0A42CA6
:10041000FCE98EF0A42CFC8AF0EDA42CFCEA8EF012
:10042000A4CDA8F08BF0A42DCC3825F0FDE98FF0F9
:10043000A42CCD35F0FCEB8EF0A4FEA9F0EB8FF0F0
:10044000A4CFC5F02ECD39FEE43CFCEAA42DCE3578
:10045000F0FDE43CFC2275F008758200EF2FFFEE02
:1004600033FECD33CDCC33CCC58233C5829BED9AE0
:10047000EC99E58298400CF582EE9BFEED9AFDEC3E
:1004800099FC0FD5F0D6E4CEFBE4CDFAE4CCF9A884
:100490008222B800C1B90059BA002DEC8BF084CF8C
:1004A000CECDFCE5F0CBF97818EF2FFFEE33FEED63
:1004B00033FDEC33FCEB33FB10D703994004EB998D
:1004C000FB0FD8E5E4F9FA227818EF2FFFEE33FEA0
:1004D000ED33FDEC33FCC933C910D7059BE99A40D5
:1004E00007EC9BFCE99AF90FD8E0E4C9FAE4CCFBED
:1004F0002275F010EF2FFFEE33FEED33FDCC33CC41
:10050000C833C810D7079BEC9AE899400AED9BFDC9
:10051000EC9AFCE899F80FD5F0DAE4CDFBE4CCFADC
:10052000E4C8F922EC8EF0A4CCC5F0CCCDF8EFA451
:10053000CEC5F02DFDE43CFCE8A42EC8C5F03DFD81
:10054000E43CFCEFA4FFE5F028FEE43DFDE43CFCC8
:1005500022EF4E6012EF60010EEDBB010B89828A23
:1005600083F0A3DFFCDEFA2289F05007F709DFFCF5
:10057000A9F022BBFEFCF309DFFCA9F022AFE9AE33
:10058000EA7C007D0A12036A8E208F2120930302E9
:100590000721852022852123C3E5219525F529E51D
:1005A000209524F5289000DDE014606504600302C6
:1005B00007349000DCE060030207349000E2E0FFC3
:1005C000AB29AA28AD27AC261208B18F2AE52A64E8
:1005D0008070030207349000D712081390008EE554
:1005E00028F0A3E529F09000E07408F0E49000D032
:1005F000F09000D2F09000D6F0F52BF52CFE7F4065
:10060000FD7B017A0079901205519000DD7401F0B4
:1006100022E52A75F00DA42457F582E4340FF58302
:10062000E493FFD39400400B9000D6E09F5004E089
:1006300004F0229000E0E014F09000D2E004F0AE6C
:1006400028AF29AB07AA06E5272BFFE5263AFEE4EB
:1006500033FDE433FCC004A905AA06AB07AE26AF00
:100660002712081BD000120492E52A75F00DA4246D
:100670005CF582E4340FF583E493FE24F8FDEFD3B8
:100680009D401AEE2408FDE433FCC3EF9DEC64802A
:10069000F8748098500712078DC39F4011D3E52747
:1006A000952CE526952B404412078D6F703E9000E7
:1006B000DE120813D2909000D2E024FFFFE434FF52
:1006C000FE7C007D081203D174902FF58274003EE9
:1006D000F583C083C0821207FD7401A8060880025A
:1006E000C333D8FC4FD082D083F080179000D31250
:1006F0000813C290D3952CE526952B400685262B12
:1007000085272C9000E0E070037408F012078DB587
:1007100007229000DCE52AF04480F0C290E4A3F0C8
:1007200022852024852125C3E5219523F527E52071
:100730009522F52622E975F00DA42455F582E434BE
:100740000FF583E493FE740193FF2438FDEE34FF2C
:10075000FCD3E50D9DE50C9C22120492AB07AA0682
:10076000E4F9F87F407E427D0FFC120492E47BFFA7
:10077000FAF9F8120407A804A905AA06AB077F2016
:100780007ED77D757C01120492EFF40422E52A7570
:10079000F00DA4245EF582E4340FF583E493FF901A
:1007A00000D2E022E975F00DA42453F582E4340F61
:1007B000F58374019324C8FFE4933400C3FEE50B72
:1007C0009FE50A9E22EF24C8FFE43EFEC3E50D9F8D
:1007D000E50C9E22E975F00DA42453F582E4340F54
:1007E000F583E493FE740193FFD39400EE9400220A
:1007F0009000D0E02490F582E43400F583E0FF908F
:1008000000E0E0FE2275F0FFA4FFAEF07C007D6406
:1008100002037CE526F0A3E527F0227C007D64023C
:100820000524120021787FE4F6D8FD75812C02089A
:100830006C020076E493A3F8E493A34003F68001EE
:10084000F208DFF48029E493A3F85407240CC8C30A
:1008500033C4540F4420C8834004F456800146F644
:10086000DFE4800B0102040810204080900A3BE482
:100870007E019360BCA3FF543F30E509541FFEE4A2
:1008800093A360010ECF54C025E060A840B8E49364
:10089000A3FAE493A3F8E493A3C8C582C8CAC583A6
:1008A000CAF0A3C8C582C8CAC583CADFE9DEE7802B
:1008B000BE8F098C0A8D0B8A0C8B0D750E80E50995
:1008C000703DE4F91207D44020EF2438FFEE34FFE6
:1008D000D31207BD40211207A4501C120735401740
:1008E0001207C55012890E805312073540091207AE
:1008F000C55004890E804509E9640570C7803DAF85
:1009000009120CF2A907E9F460321207D44021EF72
:100910002438FFEE34FFFED31207BE401F1207A497
:10092000501A12073540151207C55010890E800C59
:1009300012073540071207C55002890EAF0E22C0BC
:10094000E0C0F0C083C082C0D075D000C000C0013C
:10095000C002C003C004C005C006C007E5D8548764
:10096000F508F452D8E5F730E508E5F730E603126C
:100970000E2753F7DFE50830E708E5D930E003122A
:100980000022E50830E008E5DA30E003120026E551
:100990000830E108E5DB30E00312057DE50830E2D0
:1009A00008E5DC30E003120F10D007D006D005D0E8
:1009B00004D003D002D001D000D0D0D082D083D0D8
:1009C000F0D0E0328E158F168C178D18AE02AF0363
:1009D00012081BC007AF1BAB07E4FAF9F8D00712E7
:1009E000075990008DF0AE1CAF1D12081BC007AF59
:1009F0001EAB07E4FAF9F8D0071207599000DBF0B4
:100A0000E51B1208059000D1EFF0E51E12080590D5
:100A100000E1EFF09000D7E515F0A3E516F09000A7
:100A20008EE517F0A3E518F09000D9E51FF043DA42
:100A30000143F74053DBFE75F9FF224200E5000059
:100A40004200E300004100E8004100E7004100DC13
:100A5000004100DD004100E2004100DA004100D524
:100A6000004100D1564100E1AB41008D004100DB67
:100A7000004200D7000042008E00004200DE00006D
:100A80004200D300004100D9004100E0004100D203
:100A9000004100D6004100D00041008B0041008C95
:100AA000004100890041008A004100880000C0E048
:100AB000C083C082C0D075D000C007E5985403FF42
:100AC000F45298EF30E01B90008BE0B44405120C18
:100AD00078800F90008B120C62E599F090008BE00B
:100AE00004F0EF30E12E90008CE0B44405120C7855
:100AF0008022120C4CC39F500C120C6DE0F59990A3
:100B0000008AE004F0120C4CB5070990008CE4F068
:100B100090008AF0D007D0D0D082D083D0E032AE1F
:100B200007E4FCFB120E07ED75F00DA4249FF5827F
:100B3000E4340FF583E493FFECC39F500774082C53
:100B4000FC0B80E3EB04FF120E0EED75F00DA424F8
:100B500093F582E4340FF583E493FF120E0EE4FC68
:100B6000ECC39B500974902C120C560C80F27F55EC
:100B7000120E0E020F0AC0E0C083C082C0D075D032
:100B800000C004C005C006C00753917F9000E5E097
:100B9000FEA3E0FFD39400EE940050035391FB902A
:100BA00000E3E0FCA3E0FDC3EF9DFFEE9CA3F0A3F8
:100BB000EFF0D007D006D005D004D0D0D082D083BB
:100BC000D0E032AE07E4FDF515120E0790008EE07E
:100BD000FF120E0E90008E120C899000D3E0FF12CF
:100BE0000E0E9000D3120C899000DEE0FF120E0E64
:100BF0009000DE120C8974902D120C560DBD03F678
:100C00007F55120E0E020F0A53E2FDD2807DB87C92
:100C10000B120C41C2807D647C00120C41D280908A
:100C200000D7120C31C28090008E120C3143E202C8
:100C300022E0FCA3E0FD7F057E00120CC5120EFB36
:100C4000227F0A7E00120CC5120EFB2290008CE05F
:100C5000FF90008AE022F582E43400F583E0FF0291
:100C60000E0EE02400F582E43400F58322E02444F3
:100C7000F582E43400F583229000887402F022901B
:100C8000008BE0FF900089E022A3E0FF020E0E122D
:100C90000C7FB507057E017F0022900089120C624F
:100CA000E0FD7C00900089E004F0120C7FB507069F
:100CB000E4F090008BF0900088E0FEEE4204E4F057
:100CC000AE04AF05228E158F168C178D18AB07AAB0
:100CD00006E4F9F87F407E427D0F120D99E517F08A
:100CE000A3E518F09000E3E515F0A3E516F04391B5
:100CF00004227EFFEFD394004022EF9480501DE445
:100D0000FDED75F00DA42452F582E4340FF583E473
:100D100093B50704AE0580040DBD05E5AF06228E30
:100D2000158F168C178D18AB07AA06E4F9F87FE823
:100D30007E03FD120D99E517F0A3E518F09000E38E
:100D4000E515F0A3E516F043910422120ED1120E20
:100D5000D8120EDF120EAC120057120E5D120E7377
:100D6000120EB6120E95120EE6120EED12006F0262
:100D70000EF4E4FDFCFF12000353DAFE53F7BF123A
:100D80000F0753E2FDC28043E2029000DAE0600800
:100D90009000D5E0FF120DBE22FC120492A804A917
:100DA00005AA06AB077F207ED77D757C01120492D1
:100DB000C3E49FFFE49EFE120E899000E522AE0779
:100DC0007F0B120F0DC2DE43DB0153DAFED2DEE4ED
:100DD0009000DDF09000DCF09000DA04F09000D597
:100DE000EEF0221207F0EFA806088002C313D8FC29
:100DF00030E0059000D180039000E1E07D00FCE44C
:100E0000FF12000322AE077FAA120E0EAF0690005B
:100E10008CE0B44403120C7890008C120C6DEFF04F
:100E200090008CE004F0221207F0EFA80608800280
:100E3000C313D8FC30E00590008D80039000DBE008
:100E4000FF120F0D229000E07408F0E014F0900003
:100E5000D27401F0120DE3120C08D2DE22AF8853D7
:100E600088AF758CA0758D96EF5440FEEF54104EF0
:100E7000428822E59154045391FB7595FF7594FFC8
:100E80007593FF759286429122AD07AC06ECF593FF
:100E9000AF058F9222C2DE75D90575F9FF759601EF
:100EA00022120E057F55120E0E020F0A75E34075D1
:100EB000E10175E20222758E447589224388502231
:100EC00053984FEB4F4DF59822E591C320E201D3A3
:100ED000227597DE7597AD2275A41175D4CE227553
:100EE000A54175D5772253F77F75DA4A2253F77FEC
:100EF00075DB302275E69075A89022E59120E2FB23
:100F000022C2DE53DBFE22C2DE22D299228F8C2245
:100F1000220101682B8E00043801684B1918021257
:100F2000C005DC0002BC012C461E28030BB8232898
:100F300000044C01904B191804251C0BB8000384C5
:100F40000140461E1805000072D80702BC012C267D
:100F500040400101682B8E00043801684B191802CB
:100F600012C005DC0002BC012C461E28030BB8236E
:100F70002800044C01904B191804251C0BB80003E1
:100F8000840140461E1805000072D80702BC012CDF
:100F90002640400101682B8E00043801684B191867
:100FA0000212C005DC0002BC012C461E28030BB84F
:100FB000232800044C01904B191804251C0BB80081
:100FC00003840140461E1805000072D80702BC01C8
:040FD0002C2640404B
:00000001FF
